:020000040800F2
:10000000F83900209D010008ED4F00088F3C0008E2
:10001000E94F000821160008815600080000000082
:1000200000000000000000000000000005010008C2
:100030002518000800000000490100085951000877
:10004000B7010008B7010008B7010008B7010008B0
:10005000B7010008B7010008B7010008B7010008A0
:10006000B7010008B7010008B7010008B701000890
:10007000B7010008B7010008B7010008B701000880
:10008000B7010008B7010008B7010008B701000870
:10009000B7010008B7010008B7010008B701000860
:1000A000B7010008B7010008B7010008B701000850
:1000B000B7010008B7010008B7010008B701000840
:1000C000B7010008B7010008B7010008B701000830
:1000D000B7010008B7010008B7010008B701000820
:1000E000B7010008B7010008B7010008DFF810D019
:1000F00000F0B6FC00480047A5660008AFF300809A
:10010000F8390020224B19680868B0E8F00F80F336
:100110000988BFF36F8F4FF0000080F311884EF015
:100120000D0E70470000000006480068006880F36C
:10013000088862B661B6BFF34F8FBFF36F8F00DFE1
:1001400000BF00BF08ED00E0EFF30980BFF36F8F41
:100150000F4B1A6820E9F00F106008B54FF0BF0090
:1001600080F31188BFF34F8FBFF36F8F06F0B8FE97
:100170004FF0000080F31188BDE808401968086856
:10018000B0E8F00F80F30988BFF36F8F704700BFAE
:1001900058000020EFF305807047000006488047B4
:1001A00006480047FEE7FEE7FEE7FEE7FEE7FEE75C
:1001B000FEE7FEE7FEE7FEE7F1510008ED0000086C
:1001C000202A04DB203A21FA02F00021704721FAAC
:1001D00002F3D040C2F12002914008431946704713
:1001E000D2B201E000F8012B491EFBD27047002279
:1001F000F6E710B513460A4604461946FFF7F0FF26
:10020000204610BD421C10F8011B0029FBD1801AAA
:1002100070470022CBB20178994200D10246401CBF
:100220000029F8D110467047F0B480EA0102D40FDB
:100230004200B2EB410F02D20246084611464A0084
:1002400042D0C30DDDB2C1F3C752AD1A202D35DA4D
:10025000C1F3160141F4000204B15242C5F1200677
:1002600002FA06F12A411044B3EBD05F23D0C4B1A7
:10027000012DA0EBC35009DCF0BC4FF0004202EAB4
:10028000C352DBB200F5000000F047BB400000F1B4
:10029000807000EBC350A0F1807040EAD17049003B
:1002A00009E0490841EAC071A0EBC35000F5000025
:1002B000400800EBC350F0BC00F026BB61420122B5
:1002C00002EB4101001BF6E7F0BC704781F00041F2
:1002D000AAE780F00040A7E780EA010210B502F02B
:1002E0000043400022D04A001FD0010E01EB1261F2
:1002F000C0F35600C2F3560240F4000042F400027C
:10030000A0FB022000047F39140400D0401C50EAF6
:10031000124001D44000491EC2B20C0604EBD010BA
:10032000401C4008802A02D003E0002010BD20F0CD
:100330000100002900DA0020184310BD30B480EA23
:10034000010202F0004530F0004221F0004013D0DD
:1003500090B1C30DD40DC2F31601C0F31600E41A18
:1003600041F4000140F400027D34914201D3641C49
:1003700000E04900002C02DA30BC002070474FF446
:1003800000000023914201D3891A034340084FEA39
:100390004101F7D151B1914202D14FF0004105E046
:1003A00002D24FF0010101E06FF0010103EBC450F4
:1003B000284430BC00F0A8BA2DE9FE4F804681EAFF
:1003C0000300C00F0C46009021F0004123F00045CF
:1003D000B8EB0200A94105D24046214690461C4692
:1003E0000B46024623F00040104347D0270DC7F3C9
:1003F0000A00C3F30A510290401A019040286BDAB8
:10040000C3F3130040F4801B0098924620B10023F0
:10041000D2EB030A63EB0B0B01985946C0F1400283
:10042000504600F050FA06460D4650465946019A8D
:1004300000F058FA10EB08006141002487EA1152DD
:1004400084EAE7731A4340D0009A62B3019A012A02
:100450004FEA075215DC001B61EB02014FF000422E
:1004600002EA0752CDE90042001C41F580113246F4
:100470002B4600F08FFA03B0BDE8F08F40462146CE
:10048000F9E7001B61EB0201001C41F58013001825
:100490005B412018A2F5001747EB030140EAD57035
:1004A000B6196D4111E06D084FEA360645EAC07590
:1004B0004FEA0752001B61EB0201001C41F580115D
:1004C00049084FEA30000019514132462B4603B02B
:1004D000BDE8F04F00F04FBA009801224000002321
:1004E000D0EB020263EBE073009821464FEAE07420
:1004F000B8EB000061EB0401E9E783F000435BE740
:1005000081F0004158E72DE9FE4F81EA030404F031
:10051000004421F0004100944FF0000B23F0004311
:1005200050EA01045ED052EA03045BD0C3F30A54DC
:10053000C1F30A552C44A4F2F3340194A0FB0254F5
:10054000C1F3130141F48011C3F3130343F4801387
:1005500001FB024400FB034E840A970A44EA8154DB
:1005600047EA8357A4FB076802958D0A05FB0785B8
:100570004FEA932C04FB0C542705029D4FEA0658C2
:1005800047EA1637B5EB08056EEB070C870E920E9F
:1005900047EA811742EA8312A7FB0201B6EB0B017F
:1005A00064EB00042B0D43EA0C335E1844EB1C5043
:1005B000DA465146E7FB0201C5F313044FEA0B3359
:1005C00043EA14534FEA0432019C43EA0603A4F1C0
:1005D0000C040294009CCDE900B400F0DBF903B0F8
:1005E000BDE8F08F00200146F9E72DE9F04D81EAE2
:1005F000030404F0004B21F0004514464FF0000ABC
:1006000023F0004150EA050220D054EA01021DD037
:10061000C5F30A570246C5F31303C1F31300C1F330
:100620000A5640F4801543F48013A7EB0608101B0C
:10063000D64608F2FD3873EB050002D308F1010835
:1006400001E092185B41B8F1000F03DA0020014687
:10065000BDE8F08D00204FF48011064684460EE080
:10066000171B73EB050705D3121B63EB050306434A
:100670004CEA010C49084FEA300092185B4150EAFD
:100680000107EDD152EA030012D082EA040083EAA6
:100690000501084305D0101BAB4106D201220023FF
:1006A00006E000224FF0004302E06FF00102531019
:1006B0001AEB06004CEB085110EB0A0041EB0B0162
:1006C000BDE8F04D00F057B9C10F80EAE070084472
:1006D000CA079623002100F020B996230022114674
:1006E00000F01BB90EB5C10F80EAE0700844CA07DC
:1006F000002140F233438DE80E000A460B4600F01D
:1007000049F903B000BD0EB540F23341029100211A
:10071000CDE900110A460B4600F03CF903B000BDDC
:1007200000F0004220F00040C10DC0F3160040F47C
:1007300000007F2901DA00207047962903DCC1F10F
:100740009601C84001E096398840002AF4D0404222
:10075000704770B5C1F30A5201F000450024C1F39F
:10076000130140F2FF3341F480119A4201DA002074
:1007700070BD40F233439A42A2F2334203DC52424C
:10078000FFF71EFD00E090402C43F1D0404270BDC9
:10079000C1F30A5210B5C1F3130140F2FF3341F423
:1007A00080119A4201DA002010BD40F233439A4290
:1007B000A2F2334203DC5242FFF702FD10BD90402B
:1007C00010BD00F0004230F000400AD0C10D01F52C
:1007D0006071C0F3160042EA0151C208400711439C
:1007E000704700200146704730B5041E71F10004C7
:1007F00004DB4FF00044404264EB0101141E73F12E
:10080000000405DB1C464FF00043524263EB040337
:100810008B4208BF824230BD01F0004330B421F06A
:10082000004150EA010206D00A0DA2F56072C1F340
:100830001301002A02DC30BC00207047440F44EA58
:10084000C104C100E01830BC00EBC25000F05CB83D
:10085000002801DBC0F10040002901DBC1F10041AB
:10086000814270472DE9F05F0546002092469B4685
:1008700088460646814640241BE0284641464746B6
:100880002246FFF79DFC53465A46C01A914110D3A9
:1008900011461846224600F016F82D1A67EB01089B
:1008A0004F4622460120002100F00DF817EB000909
:1008B0004E41201EA4F10104DFDC484631462A46A1
:1008C0004346BDE8F09F202A04DB203A00FA02F1FB
:1008D000002070479140C2F1200320FA03F319432E
:1008E00090407047202A06DBCB17203A41FA02F0ED
:1008F00043EAE07306E041FA02F3D040C2F120027D
:1009000091400843194670470029A8BF7047401C12
:10091000490008BF20F00100704710B4B0FA80FC15
:1009200000FA0CF050EA010404BF10BC704749B152
:10093000CCF1200421FA04F411FA0CF118BF0121C2
:1009400021430843A3EB0C01CB1D4FEA00614FEAA2
:10095000102042BF002010BC704700EBC350104471
:100960000029A4BF10BC7047401C490008BF20F0FC
:10097000010010BC704710B5141E73F1000408DAB2
:10098000401C41F1000192185B411A4301D120F053
:10099000010010BD2DE9F04D92469B4611B1B1FA10
:1009A00081F202E0B0FA80F220329046FFF78BFF2E
:1009B00004460F4640EA0A0041EA0B0153465A46F4
:1009C000084313D0114653EA010019D0C8F1400280
:1009D0005046FFF7F5FB05460E465046594642463F
:1009E000FFF771FF084305D0012004E02046394697
:1009F000BDE8F08D0020054346EAE0762C433743FE
:100A00000A986305E40AA0EB08000022FD0A44EA04
:100A100047540A3002D500200146E9E701051019C4
:100A20006941DDE9084500196941BDE8F04DA2E7DB
:100A300070B521F0004303430CD0C1F30A550024E4
:100A4000D5EB040564EB0403D617AD1AB34102DB02
:100A50000020014670BD201841EB025170BD00001E
:100A6000064C074D06E0E06840F0010394E80700FB
:100A700098471034AC42F6D3FFF73CFB28760008C9
:100A80004876000870B58C1810F8015B15F0070364
:100A900001D110F8013B2A1106D110F8012B03E017
:100AA00010F8016B01F8016B5B1EF9D12B0705D41F
:100AB0000023521E0DD401F8013BFAE710F8013B68
:100AC000CB1A921C03E013F8015B01F8015B521E84
:100AD000F9D5A142D8D3002070BD70B504460025D9
:100AE0002068806800F0010018B32068806820F05A
:100AF00001002168886001F05FFA054613E001F00B
:100B00005BFA401B02280ED92068806800F00100C3
:100B100048B1A06A40F01000A062E06A40F0010015
:100B2000E062012070BD2068806800F001000028AC
:100B3000E5D10020F6E7000038B504460025002086
:100B400000902068806800F0010078BB2068806811
:100B500040F0010021688860194800681949B0FB1D
:100B6000F1F0009002E00098401E009000980028EC
:100B7000F9D101F021FA054619E001F01DFA401BF8
:100B8000022814D92068806800F0010078B9A06AB2
:100B900040F01000A062E06A40F00100E06200BF97
:100BA000002084F8240000BF012038BD05E0206843
:100BB000806800F001000028DFD00020F5E7000089
:100BC0000C00002040420F002DE9F843CA4800788D
:100BD00030B101280ED002287ED003287DD10EE14D
:100BE0000020C649C880C649C880C649C880C649D1
:100BF000C8803BE1C549B1F90000FFF765FD074634
:100C0000C348016A3846FFF70FFB0646C148016A30
:100C10003046FFF75BFB0546BF48016A2846FFF7F1
:100C200003FB0446FFF77CFD00B2B449C880B74916
:100C3000B1F90000FFF748FD0746B548016A38469C
:100C4000FFF744FB0646B348016A3046FFF73EFB18
:100C50000546B148016A2846FFF738FB0446FFF70E
:100C60005FFD00B2A649C880A849B1F90000FFF7AE
:100C70002BFD0746A648016A3846FFF7D5FA064617
:100C8000A448016A3046FFF7CFFA0546A248016A38
:100C90002846FFF71BFB0446FFF742FD00B29949C7
:100CA000C8809A49B1F90000FFF70EFD0746984841
:100CB000016A3846FFF70AFB06469648016A304645
:100CC000FFF7B2FA05469448016A2846FFF7ACFAE6
:100CD0000446FFF725FD01E004E0C6E000B28A49C2
:100CE000C880C3E08949B1F90000FFF7EDFC8046F8
:100CF0008748016A4046FFF797FA07468548016A28
:100D00003846FFF7E3FA06468348016A3046FFF7A4
:100D10008BFA05468148016A2846FFF785FA0446A2
:100D2000FFF7FEFC00B27549C8807849B1F90000B0
:100D3000FFF7CAFC80467648016A4046FFF7C6FACC
:100D400007467448016A3846FFF7C0FA06467248FB
:100D5000016A3046FFF7BAFA05467048016A28462C
:100D6000FFF762FA0446FFF7DBFC00B26449C88073
:100D70006649B1F90000FFF7A7FC80466448016AA4
:100D80004046FFF751FA07466248016A3846FFF7C6
:100D90004BFA06466048016A3046FFF797FA054667
:100DA0005E48016A2846FFF73FFA0446FFF7B8FCA1
:100DB00000B25449C8805549B1F90000FFF784FCDE
:100DC00080465348016A4046FFF780FA074651487B
:100DD000016A3846FFF728FA06464F48016A30464E
:100DE000FFF722FA05464D48016A2846FFF71CFA2C
:100DF0000446FFF795FC00B24349C88036E03F48FF
:100E0000C088801E00B23D49C8803D48C088801E11
:100E100000B23B49C8803B48C088801E00B23949B7
:100E2000C8803948C088801E00B23749C88033481E
:100E3000B0F90600002817DC3148B0F90600002898
:100E400012DC3048B0F9060000280DDC0846B0F985
:100E50000600002808DC002002230246014600901C
:100E60002F48006806F00EF900E000BF00BF2349DC
:100E7000B1F9060000224FF4167100F0D3FB1F49B0
:100E8000C8801F49B1F9060000224FF4167100F026
:100E9000C9FB1B49C8801B49B1F9060000224FF469
:100EA000167100F0BFFB1749C8801749B1F9060059
:100EB00000224FF4167100F0B5FB1349C8801348A7
:100EC000B0F90000322808DA00200C49C8800C492B
:100ED000C8800C49C8800C49C880084803F0A0F9B4
:100EE000074803F09DF9074803F09AF9064803F014
:100EF00097F9BDE8F8830000E90000201402002003
:100F00001C020020240200202C020020EC00002003
:100F10003C01002084010020CC010020F0010020D1
:100F2000C400002010B508480088FFF7D6FB074929
:100F3000086103F01FFD0446FFF7CFFB034948613A
:100F4000084600F07BFB10BDEA000020F001002005
:100F50002DE9FF5F6E4803F001FB6E4AB2F9001005
:100F60006B4AB2F9000000F035FC69490880694A13
:100F7000B2F90210664AB2F9020000F02BFC644993
:100F80004880644AB2F90410614AB2F9040000F0E2
:100F900021FC5F498880084600885E4908805C48DB
:100FA000408848805A48808888805949B1F90600AD
:100FB000FFF798FB064632460B46574800F0B2FB57
:100FC0000446FFF7C6FB00B25149C880B1F90800DA
:100FD000FFF788FB064632460B464F48183000F0B4
:100FE000A1FB0446FFF7B5FB01B249480181014668
:100FF000B1F90A00FFF776FB064632460B46464833
:10100000303000F08FFB0446FFF7A3FB01B24048ED
:1010100041810146B1F90A00FFF764FB06460F461D
:101020003B49B1F90600FFF75DFB824600223B4BCE
:10103000FFF769FA804632463B4605F089F90446D7
:10104000374A384BFFF7D1FA0022374BCDE9000180
:10105000FFF759FACDE90201FFF77BFB00B23349F4
:1010600048802B49B1F90A00FFF73CFB80468946CE
:101070002749B1F90800FFF735FB06460022274B48
:10108000FFF741FA824642464B4605F061F90446B5
:10109000234A244BFFF7A9FA0022234BCDE9000194
:1010A000FFF731FACDE90201FFF753FB00B21F4908
:1010B00088801749B1F90400FFF714FB824600222B
:1010C0001B4BFFF720FA804600221A4BFFF78DFAE0
:1010D0000646194A194BFFF716FACDE900011848E0
:1010E0000068FFF76EFB0446DDE90023FFF764F9B3
:1010F000CDE90201FFF790FB11490860084600683E
:10110000FFF70EFB00B209490880BDE8FF9F000011
:10111000E63500200E010020100000200000F03F06
:101120006E861BF0F921094000806640080100200E
:1011300000409F400000E040FA7E6ABC7493783F14
:101140001401002010B503F08FFA074803F0C2F82D
:10115000064803F0BFF8064803F0BCF8054803F062
:10116000B9F803F015FC10BD140200201C02002089
:10117000240200202C0200202DE9F0474749B1F954
:101180000610A1F5FA70FFF7ADFA06460022444BAF
:10119000FFF72BFA0446FFF73FFB4249086142493B
:1011A000B1F90200FFF790FA3E4948613F49B1F9B1
:1011B0000200FFF797FA804600223D4BFFF7A3F9A4
:1011C000064600223B4BFFF710FA0446FFF724FBCC
:1011D00039494861334800F099FA3049B1F90410AF
:1011E000A1F5FA70FFF77EFA064600222C4BFFF7B6
:1011F000FCF90446FFF710FB304908612A49B1F9B0
:101200000400FFF761FA2D4948612849B1F900004F
:10121000FFF768FA80460022254BFFF774F906466F
:101220000022244BFFF7E1F90446FFF7F5FA2449C1
:101230004861224800F06AFA1849B1F90210A1F594
:10124000FA70FFF74FFA06460022154BFFF7CDF96B
:101250000446FFF7E1FA1B4908611349B1F90000A0
:10126000FFF732FA174948611049B1F90400FFF756
:1012700039FA064600220E4BFFF745F904460022D4
:101280000C4BFFF7B2F98046FFF7C6FA0E494861EA
:101290000C4800F03BFABDE8F0870000EC000020AD
:1012A000000049401801002008010020E635002018
:1012B00000409F400000E0403C0100206001002011
:1012C00084010020A8010020CC0100201CB5154895
:1012D000042100238022CDE9001013A1154805F058
:1012E00063FE1548032100238022CDE9001013A1DD
:1012F000154805F059FE1548012100238022CDE94B
:10130000001013A1154805F04FFE154804210023D5
:101310008022CDE9001013A1154805F045FE05F027
:10132000A1FD1CBDB8000020706F7765725F74610D
:10133000736B00002D670008BC000020666C6967B5
:1013400068745F7461736B005D650008C000002005
:101350006C65645F7461736B00000000E1650008F8
:10136000C4000020636F6D5F7461736B0000000048
:10137000ED64000828B900210B4A11700B4A117066
:1013800010E001280ED109490978491C074A11705B
:10139000114609780A2905D10121034A117000215B
:1013A000024A117070470000E8000020040100208C
:1013B00010B52448007830B101280ED0022822D080
:1013C00003283BD130E000F047F828B901201D493F
:1013D000087000201C49087031E01C48407A012840
:1013E00009D102201749087000201849487203F0FB
:1013F000C1FA1749088017480078012802D1032054
:10140000104908701BE01148407A012804D10D49A9
:10141000087000200D4948720E480078012802D15A
:101420000320084908700AE04FF0FF320121002034
:1014300005F028FC00200349087000E000BF00BF51
:1014400010BD0000E9000020F8000020EC000020A2
:10145000EA000020E800002010B52D48007805289B
:101460004BD2DFE800F00311273449002948B0F9D6
:101470000000B0F5617F06DB01202549087005F00A
:10148000B7FE2549086039E02248B0F90000B0F500
:10149000617F0EDA05F0ACFE1F490968401AB0F50D
:1014A0007A7F03D302201A49087002E0002018490D
:1014B000087023E01748B0F90000642806DC032018
:1014C0001349087005F094FE1449086016E005F011
:1014D0008FFE12490968401AB0F57A7F08D80D4886
:1014E000B0F90000642806DD00200949087002E018
:1014F00004200749087000BF00E000BF00BF044897
:101500000078042801D1002010BD0120FCE7000074
:10151000F8000020EC000020FC000020000100206A
:101520002DE9F04111213C48FEF761FE3A4803F0F5
:1015300065F9064686B903F07BF94FF4FA7501E0C8
:10154000681E85B2344803F059F9012801D1002DF5
:10155000F6DC03F0E7F800BF2F48FEF753FE10B9A2
:101560000120BDE8F0812C480078732807D12A4873
:101570004078672803D128488078672801D0012067
:10158000EFE700272448407B00062349897B40EA97
:1015900001402149C97B40EA01201F49097C40EAFA
:1015A00001070024002004E01B49095C0C44411C95
:1015B000C8B20D28F8DBBC4201D00120D1E71648A3
:1015C00000791549C97840EA012000B21349088022
:1015D000114880791049497940EA012000B20F4949
:1015E00048800D48007A0C49C97940EA012000B2D0
:1015F0000A49C8800848807A0749497A40EA0120A8
:1016000000B2064988800448C07A08720248007B0C
:1016100048720020A5E70000D5350020EC0000202E
:1016200000BFFEE703468B4201DD08467047934248
:1016300001DA1046FAE71846F8E700002DE9F04F06
:1016400089B08246DAE90410FEF740FECAF80C00C1
:10165000DAF80C10DAF81C00FEF7E6FDCAF81C00F8
:101660000021DAF81800FFF7F3F803D1DAF80C00DC
:10167000CAF81800DAF81810DAF80C00FEF726FE9F
:1016800083465946DAF80800FEF726FE0646FFF7BD
:1016900098F804461B4A1C4BFEF7A7FFCDE904014E
:1016A000DAF81C10DAF80400FEF716FE0190FFF7D6
:1016B00088F88046134A144BFEF725FF04460D4672
:1016C000DAF80C10DAF80000FEF706FE8046FFF7A5
:1016D00078F8064622462B46FEF76EFECDE902015B
:1016E000DDE90423FEF768FECDE90601FFF794F873
:1016F000CAF82000DAF80C00CAF8180009B0BDE8F2
:10170000F08F0000FA7E6ABC7493783F70B505468E
:101710000C462846FFF792FF286A20612046FFF713
:101720008DFF70BD2DE9F04788B0824614461D46F6
:10173000DAF81010DAF80000FEF776FDCAF80400B7
:10174000DAF81410DAF80400FEF76EFD06463146AA
:10175000DAF80400FEF7F2FDCAF80C00DAF8080027
:10176000FFF72FF822462B46CDE90001FEF7C8FE11
:10177000CDE90201DAF80C00FFF723F80646DDE9AF
:101780000223FEF7C0FE80468946DAF80800FFF71C
:1017900018F842464B46CDE90401FEF70DFECDE9AF
:1017A0000601FFF739F8CAF808004FF07E50DAF862
:1017B0000C10FEF78BFD0646DAF80410FEF78CFDE0
:1017C000CAF80000DAF80800FEF7FBFF08B0BDE831
:1017D000F08700002DE9FC5F83460C462046FEF7AB
:1017E00081FF07464FF033320C4BFEF78CFE8146EB
:1017F0008A465846FEF776FF07464FF03332084BCD
:10180000FEF781FE4A465346CDE90001FEF7D4FDBE
:101810000546FEF79EFF00B2BDE8FC9F3333EB3F69
:101820003333C33F704772B600BFFEE738B5024698
:1018300000230020009000BF92F82400012801D16D
:10184000022038BD012082F8240000BF4868072824
:1018500012D21068406B0C79641E04EB84051F24BF
:10186000AC40A0430D796D1E05EB85050C68AC40BE
:1018700020431468606327E048680D2812D210687E
:10188000006B0C79E41F04EB84051F24AC40A043DB
:101890000D79ED1F05EB85050C68AC4020431468FD
:1018A000206311E01068C06A0C790D3C04EB8405DC
:1018B0001F24AC40A0430D790D3D05EB85050C6858
:1018C000AC4020431468E06208680A2812D310680C
:1018D000C0680C780A3C04EB44050724AC40A043E4
:1018E0000D780A3D05EB45058C68AC402043146833
:1018F000E0600FE0106800690C7804EB44050724F1
:10190000AC40A0430D7805EB45058C68AC40204306
:10191000146820610868102802D00868112827D1AF
:10192000174C1068A0421ED11068806800F40000B7
:10193000F0B91068806840F400001468A06008687E
:10194000102815D10F4800680F4CB0FBF4F000EBE5
:1019500080004000009002E00098401E0090009837
:101960000028F9D104E0906A40F020009062012341
:1019700000BF002082F8240000BF184661E7000085
:10198000002401400C00002040420F00014608687E
:10199000C06C70472DE9F041044600270025002661
:1019A000A84614B90120BDE8F081A06810B1207DDF
:1019B00000B100BFA06A30B90020E06284F82400C2
:1019C000204600F089F82046FFF787F80746A06A0E
:1019D00000F01000002873D1002F71D1A06A20F40C
:1019E000885040F00200A062E16960680843217BF2
:1019F00040EA41000643A068B0F5807F02D0A068AD
:101A0000012802D14FF4807000E000200543207DC2
:101A1000012811D1207B38B9A069401E4FF4006124
:101A200041EA4030054307E0A06A40F02000A06290
:101A3000E06A40F00100E0622068406820F46940FC
:101A40002843216848602068806821490840304365
:101A500021688860A068B0F5807F02D0A068012866
:101A600002D14FF4807000E00020B0F5807F03D1F8
:101A7000208A401E4FEA00582068C06A20F4700097
:101A800040EA08002168C86220688068114908405F
:101A9000B04208D10020E062A06A20F0020040F0CD
:101AA0000100A06211E0A06A20F0020040F01000E6
:101AB000A062E06A40F00100E062012705E0FFE774
:101AC000A06A40F01000A062012738466BE70000D2
:101AD000FDF7E1FFFE0E1FFF10B586B004460020A3
:101AE000029003900490059014492068884222D106
:101AF00000BF1348806940F40070114988610846AE
:101B0000806900F40070019000BF00BF00BF08466C
:101B1000806940F0080088610846806900F008008C
:101B2000019000BF00BF022002900320039002A991
:101B3000044800F0A1F806B010BD000000240140E8
:101B400000100240000C014070B50446002500BFA3
:101B500094F82400012801D1022070BD012084F8EE
:101B6000240000BF2046FEF7E7FF0546002D77D191
:101B7000A06A40F20121884340F48070A0623C4991
:101B80002068884208D13B48006800F4702008B9FA
:101B9000012002E0002000E0012078B1A06A20F4DA
:101BA0008010A0622068406800F4806000B3A06AE2
:101BB00020F4005040F48050A06219E0A06A40F484
:101BC0008010A0622B49091F2068884203D0284951
:101BD0002068884204D12748006800F4806000E053
:101BE000002028B1A06A20F4005040F48050A06288
:101BF000A06A00F4805020B1E06A20F00600E062A4
:101C000001E00020E06200BF002084F8240000BF53
:101C1000C01E216808602068806800F46020B0F56C
:101C2000602F16D112492068884208D111480068F7
:101C300000F4702008B9012002E0002000E001203B
:101C400038B12068806840F4A000216888600CE00A
:101C500006E02068806840F480102168886004E015
:101C600000BF002084F8240000BF284675E700006C
:101C700000280140042401402DE9F84703460022D2
:101C800094466EE14FF0010808FA02F4D1F80080A2
:101C900008EA0400A0427DD1DFF8DCA2D1F804807C
:101CA000A8EB0A09D0453AD014DCB8F1030F50D0A4
:101CB00009DCB8F1000F31D0B8F1010F1CD0B8F138
:101CC000020F49D120E0B8F1110F18D0B8F1120F6E
:101CD00042D11EE0B9F5881F25D006DCB9F5803F5A
:101CE00020D0B9F5801F37D11AE0B9F5001F18D000
:101CF000B9F5041F30D117E0D1F80CC02DE0D1F8B0
:101D00000C8008F1040C28E0D1F80C8008F1080CD4
:101D100023E0D1F80C8008F10C0C1EE000BF00BFDE
:101D200000BF00BF00BF00BFD1F80880B8F1000FAE
:101D300002D14FF0040C0BE0D1F80880B8F1010F8C
:101D400003D14FF0080C1C6102E04FF0080C5C61FD
:101D500003E04FF0000C00E000BF00BFFF2801D8F7
:101D6000984601E003F104084646FF2802D84FEAEE
:101D7000820803E0A2F108084FEA88084746D6F82F
:101D800000804FF00F0909FA07F928EA09080CFA50
:101D900007F900E088E048EA0908C6F80080D1F8B1
:101DA000048008F08058B8F1805F7DD100BFDFF873
:101DB000CC81D8F8188048F00108DFF8C091C9F844
:101DC0001880C846D8F8188008F00108CDF80080BF
:101DD00000BF00BF4FEAB9384FEA920958F82950BE
:101DE0004FEA82784FEA18794FF00F0808FA09F89D
:101DF00025EA0805DFF88881434502D14FF0000845
:101E000016E0DFF88081434502D14FF001080FE072
:101E1000DFF87481434502D14FF0020808E0DFF893
:101E20006C81434502D14FF0030801E04FF00408F4
:101E30004FEA82794FEA197908FA09F848EA050564
:101E4000DFF84C814FEA920948F82950D1F8048014
:101E500008F48018B8F5801F0AD1DFF83881D8F867
:101E6000008048EA0008DFF82C91C9F8008009E0FA
:101E7000DFF82081D8F8008028EA0008DFF8149104
:101E8000C9F80080D1F8048008F40018B8F5001FE4
:101E900010D1DFF8008108F10408D8F8008048EA82
:101EA0000008DFF8F09000E05AE009F10409C9F8F1
:101EB00000800DE0DFF8DC8008F10408D8F800802D
:101EC00028EA0008DFF8CC9009F10409C9F800807D
:101ED000D1F8048008F40038B8F5003F0ED1DFF8DF
:101EE000B480A8F10408D8F8008048EA0008DFF8B8
:101EF000A490A9F10409C9F800800DE0DFF89480EE
:101F0000A8F10408D8F8008028EA0008DFF88490D7
:101F1000A9F10409C9F80080D1F8048008F48038D8
:101F2000B8F5803F0ED1DFF86C80A8F10808D8F82A
:101F3000008048EA0008DFF85C90A9F10809C9F8B8
:101F400000800DE0DFF84C80A8F10808D8F8008088
:101F500028EA0008DFF83C90A9F10809C9F80080D8
:101F6000521CD1F8008028FA02F8B8F1000F7FF473
:101F700089AEBDE8F8870000000011100010024093
:101F800000080140000C0140001001400014014015
:101F9000080001400804014010B5C26821EA0203AC
:101FA00002EA010443EA0443036110BD0AB101617E
:101FB00001E00B04036170470148006870470000AE
:101FC0000000002070B504460CB9012070BD94F8E3
:101FD0003D0028B9002084F83C00204600F046FB74
:101FE000242084F83D002068006820F0010021686A
:101FF00008602068006840F400402168086020689C
:10200000006820F400402168086000F0BDFD05462E
:102010005C496068884206D85B48854201D201204D
:1020200007E0002005E05948854201D2012000E088
:102030000020012800D1C9E75548B5FBF0F620681B
:10204000406820F03F003043216848604D49606897
:10205000884201D8701C07E04FF4967070434FF42B
:102060007A71B0FBF1F0401C2168096A21F03F0150
:1020700008432168086243496068884214D8681E92
:1020800061684900B0FBF1F0401CC0F30B0004286C
:1020900001D204203DE0681E61684900B0FBF1F008
:1020A000401CC0F30B0034E0A06838B9681E6168BA
:1020B00001EB4101B0FBF1F0401C0AE0681E6168D1
:1020C00001EBC10202EB0111B0FBF1F0401C40F446
:1020D0008040C0F30B0008B901201AE0A06848B99D
:1020E000681E616801EB4101B0FBF1F0401CC0F3D8
:1020F0000B000CE0681E616801EBC10202EB0111EC
:10210000B0FBF1F0401CC0F30B0040F4804040F401
:1021100000402168C9694CF6FF7291430843216869
:10212000C861D4E9070108432168096821F0C001AA
:10213000084321680860D4E90310084321688968CE
:1021400048F2FF329143084321688860D4E90501D1
:1021500008432168C96821F0FF0108432168C8606D
:102160002068006840F001002168086000202064B9
:10217000202084F83D000020206384F83E0000BF4A
:1021800024E70000A086010080841E0000093D00B5
:1021900040420F002DE9FE4F04460F4690469946F7
:1021A000DDE90CAB0E9E00200290FFF705FF05460F
:1021B00094F83D00202872D119230122CE492046EF
:1021C000009501F0D8FE10B10220BDE8FE8F00BFDF
:1021D00094F83C00012801D10220F6E7012084F8A0
:1021E0003C0000BF2068006800F0010028B92068AA
:1021F000006840F00100216808602068006820F451
:10220000006021680860222084F83D00402084F8A6
:102210003E0000202064C4F824A0A4F82AB0608DF9
:102220002085B648E0624B46424639462046CDE915
:10223000006501F04DFD08B10120C6E7208D88B989
:1022400000BF0020019020684069019020688069EB
:10225000019000BF00BF2068006840F40070216852
:1022600008604BE0208D01281AD12068006820F416
:1022700080602168086072B600BF0020019020686D
:102280004069019020688069019000BF00BF20680C
:10229000006840F400702168086062B62EE029E111
:1022A000208D022819D12068006840F40060216860
:1022B000086072B600BF002001902068406901905C
:1022C00020688069019000BF00BF2068006820F48A
:1022D00080602168086062B610E02068006840F401
:1022E00080602168086000BF00200190206840697C
:1022F000019020688069019000BF00BFEBE0208D55
:1023000003287DD8208D012815D12A463146204644
:1023100001F00DFF08B1012057E720680069616AEC
:102320000870606A401C6062208D401E2085608DB0
:10233000401E6085CFE0208D02282CD1334600223C
:102340006F492046009501F016FE08B101203CE7D8
:1023500072B62068006840F4007021680860206848
:102360000069616A0870606A401C6062208D401ECE
:102370002085608D401E608562B620680069616AB4
:102380000870606A401C6062208D401E2085608D50
:10239000401E60859FE03346002259492046009543
:1023A00001F0E9FD08B101200FE72068006820F482
:1023B00080602168086072B620680069616A0870F0
:1023C000606A401C6062208D401E2085608D401E2A
:1023D00060854C4800681921B0FBF1F04FF47A7128
:1023E000B0FBF1F0C0EBC00000EB8000029000BF3A
:1023F0000298401E02900298A8B90020206300E0D5
:1024000039E0202084F83D00002084F83E00206C54
:1024100040F02000206462B600BF002084F83C0039
:1024200000BF0120D1E620684069C0F38000002889
:10243000DED02068006840F40070216808602068E1
:102440000069616A0870606A401C6062208D401EED
:102450002085608D401E608562B620680069616AD3
:102460000870606A401C6062208D401E2085608D6F
:10247000401E60852FE02A463146204601F057FE77
:1024800008B10120A1E620680069616A0870606AED
:10249000401C6062208D401E2085608D401E60853E
:1024A00020684069C0F38000A8B1208D032805D1C1
:1024B0002068006820F48060216808602068006956
:1024C000616A0870606A401C6062208D401E208531
:1024D000608D401E6085208D00287FF410AF202085
:1024E00084F83D00002084F83E0000BF84F83C00E2
:1024F00000BF6AE6022068E6020010000000FFFF4D
:10250000040001000C0000202DE9FC5F04460F468A
:1025100090469946DDE90CAB0E9EFFF74DFD054652
:1025200094F83D0020287DD1192301224D492046F1
:10253000009501F020FD10B10220BDE8FC9F00BF16
:1025400094F83C00012801D10220F6E7012084F82C
:102550003C0000BF2068006800F0010028B9206836
:10256000006840F00100216808602068006820F4DD
:10257000006021680860212084F83D00402084F834
:102580003E0000202064C4F824A0A4F82AB0608D86
:1025900020853548E0624B46424639462046CDE923
:1025A000006501F045FC08B10120C6E731E02A468C
:1025B0003146204601F000FE50B1206C042805D1C0
:1025C0002068006840F40070216808600120B4E7CA
:1025D000606A007821680861606A401C6062208D32
:1025E000401E2085608D401E608520684069C0F3D4
:1025F000800070B1208D60B1606A00782168086148
:10260000606A401C6062208D401E2085608D401EE7
:102610006085208D0028CAD12A463146204601F027
:1026200077FC00E01CE050B1206C042805D1206844
:10263000006840F400702168086001207DE7206890
:10264000006840F4007021680860202084F83D0094
:10265000002084F83E0000BF84F83C0000BF6CE717
:1026600002206AE7020010000000FFFF10B586B0EC
:102670000446002002900390049005902B492068A6
:10268000884225D100BF2A48806940F008002849C7
:1026900088610846806900F00800019000BF00BF13
:1026A000C0200290122003900320059002A9214827
:1026B000FFF7E2FA00BF1E48C06940F400101C4951
:1026C000C8610846C06900F40010019000BF2AE00C
:1026D00019492068884226D100BF1548806940F01A
:1026E0000800134988610846806900F008000190DD
:1026F00000BF00BF4FF440600290122003900320FF
:10270000059002A90B48FFF7B7FA00BF0848C06957
:1027100040F480000649C8610846C06900F48000A2
:10272000019000BF00BF06B010BD00000054004083
:1027300000100240000C01400058004003480068AF
:1027400003490978084401490860704700000020E7
:102750000800002010B50848006840F01000064945
:102760000860032000F098F80F2000F007F800F050
:102770002BF8002010BD00000020024070B5044678
:102780000E4800784FF47A71B1FBF0F00C490968FB
:10279000B1FBF0F5284600F047FE08B1012070BDFE
:1027A000102C07D200222146501E00F037F80548B1
:1027B000046001E00120F2E70020F0E708000020BB
:1027C0000C0000200400002008B500BF11488069FB
:1027D00040F001000F4988610846806900F001005F
:1027E000009000BF00BF00BF0846C06940F08050A5
:1027F000C8610846C06900F08050009000BF00BF6B
:1028000000BF0549486820F0E06040F00070486073
:1028100000BF08BD00100240000001402DE9F05F3C
:1028200080460D461646002703F088FA07463946CB
:102830002A46334601F00700C0F1070ABAF1040F37
:1028400002D94FF0040A01E0C0F1070AD14600F1B5
:10285000040ABAF1070F02D24FF0000A01E0A0F11A
:10286000030AD4464FF0010A0AFA09FAAAF1010A4A
:102870000AEA020A0AFA0CFA4FF0010B0BFA0CFBF7
:10288000ABF1010B0BEA030B4AEA0B04214640466D
:1028900003F05CFABDE8F09F00BF00F00702064BB2
:1028A00019684FF6FF031940044B0B4343EA02211A
:1028B000014B196000BF70470CED00E00000FA0505
:1028C000F8B5044600260025207800F00100002815
:1028D0006BD000274348C06900F0805070B900BF3A
:1028E0004048C06940F080503E49C8610846C06910
:1028F00000F08050009000BF00BF01273A480068F8
:1029000000F48070B0B93848006840F480703649EF
:102910000860FFF751FB064606E0FFF74DFB801B02
:10292000642801D90320F8BD2F48006800F48070A6
:102930000028F2D02B48006A00F440752DB3A0881F
:1029400000F44070A84220D02648006A20F4407568
:10295000012026490860002008602248056205F031
:10296000010090B1FFF728FB064608E0FFF724FBC3
:10297000801B41F28831884201D90320D3E71948EE
:10298000006A00F002000028F0D01648006A20F427
:1029900040706168084313490862012F04D108465A
:1029A000C06920F08050C86100BF207800F00200AC
:1029B000022807D10B48406820F44040A168084332
:1029C00008494860207800F01000102807D1054819
:1029D000406820F48000E168084302494860002014
:1029E000A1E7000000100240007000404004424295
:1029F00070B504460D460CB9012070BD5A480068F8
:102A000000F00700A8420ED25748006820F00700E7
:102A10002843554908600846006800F00700A842AE
:102A200001D00120E9E7207800F0020002281DD142
:102A3000207800F00400042805D14C48406840F498
:102A4000E0604A494860207800F00800082805D175
:102A50004648406840F460504449486043484068F4
:102A600020F0F000A168084340494860207800F059
:102A7000010078B36068012806D13C48006800F482
:102A8000003090B90120B8E76068022806D13748C5
:102A9000006800F0007040B90120AEE733480068DC
:102AA00000F0020008B90120A7E73048406820F094
:102AB0000300616808432D494860FFF77DFA064628
:102AC00009E0FFF779FA801B41F28831884202D988
:102AD000032092E707E02548406800F00C00616899
:102AE000B0EB810FEDD12048006800F00700A8424C
:102AF0000ED91D48006820F0070028431A490860D5
:102B00000846006800F00700A84201D0012074E7E1
:102B1000207800F00400042807D11448406820F40D
:102B2000E060E168084311494860207800F008003F
:102B3000082808D10D48406820F46050216940EA17
:102B4000C1000A49486000F03FF808494968C1F3EC
:102B50000311074A515CC8400649086006480068EE
:102B6000FFF70CFE002048E7002002400010024062
:102B7000FA7400080C0000200400002001480068DE
:102B8000704700000C00002000B5FFF7F7FF044974
:102B90004968C1F30221034A515CC84000BD0000EE
:102BA000001002400A75000800B5FFF7E7FF04496E
:102BB0004968C1F3C221034A515CC84000BD00000E
:102BC000001002400A75000870B5002100220024A0
:102BD00000230020134D696801F00C05F5B1042DA8
:102BE00002D0082D19D101E00F4819E00F4DC1F3B3
:102BF0008346AB5D01F4803555B10A4D6D68C5F370
:102C000040450B4E725D084D5D43B5FBF2F402E0AA
:102C1000084D03FB05F4204602E000BF024800BF58
:102C200000BF70BD0010024000127A00E874000876
:102C3000F874000800093D00F8B504460CB90120FD
:102C4000F8BD207800F00100002878D0F8484068EE
:102C500000F00C0004280CD0F548406800F00C008F
:102C6000082811D1F248406800F48030B0F5803F68
:102C70000AD1EF48006800F4003000285FD0606897
:102C800000285CD10120DBE700BF6068B0F5803F21
:102C900006D1E748006840F48030E549086028E044
:102CA000606858B9E248006820F48030E049086064
:102CB0000846006820F4802008601AE06068B0F5DB
:102CC000A02F0BD1DA48006840F48020D849086072
:102CD0000846006840F4803008600AE0D448006884
:102CE00020F48030D24908600846006820F4802033
:102CF000086000BF606888B1FFF75EF9054606E02E
:102D0000FFF75AF9401B642801D9032098E7C84807
:102D1000006800F400300028F2D010E0FFF74CF912
:102D2000054606E0FFF748F9401B642801D9032057
:102D300086E7BF48006800F400300028F2D1207810
:102D400000F00200022857D1B948406800F00C009A
:102D500050B1B748406800F00C00082818D1B448BA
:102D6000406800F4803098B9B148006800F0020073
:102D700020B12069012801D0012061E7AC4800683A
:102D800020F0F800616940EAC100A949086033E019
:102D90002069E8B10120A7490860FFF70DF9054651
:102DA00006E0FFF709F9401B022801D9032047E795
:102DB0009F48006800F002000028F2D09C4800689C
:102DC00020F0F800616940EAC1009949086013E009
:102DD000002098490860FFF7EFF8054606E0FFF786
:102DE000EBF8401B022801D9032029E7904800682E
:102DF00000F002000028F2D1207800F00800082836
:102E00002DD1A069B8B101208B490860FFF7D4F833
:102E1000054606E0FFF7D0F8401B022801D9032041
:102E20000EE78348406A00F002000028F2D001203B
:102E300002F0DEF813E000207F490860FFF7BCF8DD
:102E4000054606E0FFF7B8F8401B022801D9032029
:102E5000F6E67748406A00F002000028F2D12078B8
:102E600000F00400042873D100277148C06900F005
:102E7000805070B900BF6E48C06940F080506C4906
:102E8000C8610846C06900F08050009000BF00BFD4
:102E900001276A48006800F48070B0B9674800688C
:102EA00040F4807065490860FFF786F8054606E043
:102EB000FFF782F8401B642801D90320C0E65F4871
:102EC000006800F480700028F2D000BFE06801289C
:102ED00006D15748006A40F001005549086227E0D2
:102EE000E06858B95248006A20F001005049086271
:102EF0000846006A20F00400086219E0E06805282E
:102F00000BD14B48006A40F004004949086208466A
:102F1000006A40F0010008620AE04548006A20F0BB
:102F20000100434908620846006A20F00400086274
:102F300000BFE068A0B1FFF73FF8054609E0FFF7E2
:102F40003BF8401B41F28831884202D9032077E6E2
:102F500022E03748006A00F002000028EFD012E0BB
:102F6000FFF72AF8054608E0FFF726F8401B41F274
:102F70008831884201D9032062E62D48006A00F0BA
:102F800002000028F0D1012F05D12948C06920F0A6
:102F900080502749C86100BFE069C8B32448406831
:102FA00000F00C00082860D0E069022848D1002019
:102FB00020490866FFF700F8054606E0FEF7FCFF2B
:102FC000401B022801D903203AE61948006800F0A6
:102FD00000700028F2D1206AB0F5803F07D1144874
:102FE000406820F40030A168084311494860D4E9E2
:102FF000080108430E49496821F4741108430C493B
:10300000486001200B490866FEF7D6FF054607E039
:103010003DE0FEF7D1FF401B022801D903200FE657
:103020000348006800F000700028F2D02FE0000094
:103030000010024000004242800442420070004002
:10304000002014490866FEF7B7FF054606E0FEF7C4
:10305000B3FF401B022801D90320F1E50E480068A8
:1030600000F000700028F2D111E0E069012800D1E1
:10307000E6E50948466806F48031206A814204D1B9
:1030800006F47011606A814201D00120D8E5002069
:10309000D6E50000000042420010024010B5044690
:1030A0000CB9012010BD606A38B96068B0F5827F44
:1030B00000D105E00021E16102E0002121616161B0
:1030C0000021A16294F8510028B9002084F8500032
:1030D000204600F043F8022084F851002068006880
:1030E00020F0400021680860A08800F482702189E7
:1030F00001F404410843A18901F400610843217CE3
:1031000001F002010843217D01F001010843218BF8
:1031100001F400710843217F01F0380108432021A8
:10312000095D01F080010843218D01F4005108433D
:10313000216808600421A06901EA10402168486004
:103140002068C06920F400602168C86100206065C3
:10315000012084F851000020A4E7000010B586B0DB
:1031600004460020029003900490059019492068BD
:1031700088422DD100BF1848806940F4805016491C
:1031800088610846806900F48050019000BF00BF4C
:1031900000BF0846806940F00400886108468069E5
:1031A00000F00400019000BF00BFA02002900220A8
:1031B00003900320059002A90848FEF75DFD40201A
:1031C000029000200390049002A90448FEF754FDE9
:1031D00006B010BD00300140001002400008014060
:1031E0002DE9FE4F04460F4690461D460C9E0120D9
:1031F0000190FEF7E1FE814694F851B060680290BC
:10320000AA46BBF1010F0BD00298B0F5827F04D122
:10321000A06810B9BBF1040F02D00220BDE8FE8FF8
:103220001FB1B8F1000F00D00DB90120F6E700BFC3
:1032300094F85000012801D10220EFE7012084F822
:10324000500000BF94F85100042802D0052084F8F3
:10325000510000206065C4F83880E587A5872763A2
:10326000E586A586206460642068006800F0400060
:10327000402805D02068006840F0400021680860C0
:10328000E068B0F5006F52D1606810B1BAF1010F7B
:1032900009D1206B00882168C860206B801C2063E6
:1032A000E08E401EE0863BE02068806800F002006F
:1032B000022810D1E08E70B1019801280BD1206B4B
:1032C00000882168C860206B801C2063E08E401E4F
:1032D000E086002001902068806800F0010068B15D
:1032E000E08F58B12068C068A16B0880A06B801C7B
:1032F000A063E08F401EE08701200190FEF75CFE96
:10330000A0EB0900B0420BD3701C48B1012084F837
:10331000510000BF002084F8500000BF03207DE76B
:10332000E08E0028C0D1E08F0028BDD152E0606857
:1033300010B1BAF1010F09D1206B00782168087330
:10334000206B401C2063E08E401EE0863CE020683D
:10335000806800F00200022810D1E08E70B1019860
:1033600001280BD1206B007821680873206B401C6A
:103370002063E08E401EE086002001902068806877
:1033800000F0010068B1E08F58B12068C068A16BFF
:103390000870A06B401CA063E08F401EE0870120F6
:1033A0000190FEF709FEA0EB0900B04201D3701CAA
:1033B00000B94EB9012084F8510000BF002084F804
:1033C000500000BF032029E7E08E0028BFD1E08F26
:1033D0000028BCD14A463146204601F01DFE40B1CE
:1033E0002020606500BF002084F8500000BF01204D
:1033F00014E7A06850B900BF002000902068C068A2
:10340000009020688068009000BF00BF012084F811
:10341000510000BF002084F8500000BF606D08B16B
:103420000120FBE60020F9E670B504462546681E3B
:10343000B0F1807F01D301200FE0681E4FF0E02142
:1034400048610F214FF0FF3002F080FC00204FF068
:10345000E021886107200861002070BD10B5034697
:10346000002200BF93F83C00012801D1022010BDCA
:10347000012083F83C0000BF22F0FF00CC6840EA46
:10348000040222F440708C6840EA040222F4806056
:103490004C6840EA040222F400600C6840EA04022E
:1034A00022F480500C6940EA040222F400504C6976
:1034B00040EA040222F48040CC6940EA0402186821
:1034C000426400BF002083F83C0000BF00BFCEE78D
:1034D00030B502460B4600BF92F83C00012801D1EE
:1034E000022030BD012082F83C0000BF022082F89B
:1034F0003D00106844681068816824F07004186802
:10350000044310684460104D1068A8420BD0106846
:10351000B0F1804F07D00D4D1068A84203D00C4D7C
:103520001068A84205D121F0800158680143106855
:103530008160012082F83D0000BF002082F83C003D
:1035400000BF00BFCDE70000002C01400004004098
:103550000008004010B504460CB9012010BD94F8D5
:103560003D0028B9002084F83C00204600F026F8F1
:10357000022084F83D00211D206801F03BFE01205F
:1035800084F8460000BF84F83E0001213F20015529
:10359000402001554120015500BF00BF012084F8A3
:1035A000420043200155442001554520015500BFEC
:1035B000012084F83D000020D0E7000008B5094A4A
:1035C000016891420DD100BF0749896941F400614A
:1035D000054A91611146896901F40061009100BFBB
:1035E00000BF08BD002C0140001002402DE9F04151
:1035F00004460D46002700BF94F83C00012802D184
:103600000220BDE8F081012084F83C0000BF0220C8
:1036100084F83D002068866826F0770626F47F4609
:10362000206886602868502833D00CDC202850D0D1
:1036300004DC00284BD0102851D149E0302849D073
:1036400040284CD139E060282DD0702807D0B0F543
:10365000805F03D0B0F5005F41D10DE041E0D5E9D6
:1036600002136A68206801F018FE2068866846F038
:1036700077062068866034E0D5E902136A6820681E
:1036800001F00BFE2068806840F48040216888606B
:1036900027E0EA686968206801F0D0FE50212068C0
:1036A00001F006FE1DE0EA686968206801F0D9FEB5
:1036B0006021206801F0FCFD13E0EA686968206879
:1036C00001F0BCFE4021206801F0F2FD09E000BFDE
:1036D00000BF00BF2968206801F0EAFD01E0012772
:1036E00000BF00BF012084F83D0000BF002084F827
:1036F0003C0000BF384684E710B586B00446002081
:1037000002900390049005903C492068884217D1AC
:1037100000BF3B48806940F0040039498861084691
:10372000806900F00400019000BF00BF08150290FE
:1037300002200390059002A93248FEF79DFA5BE053
:103740002068B0F1804F16D100BF2D48806940F04D
:1037500004002B4988610846806900F0040001904C
:1037600000BF00BF022002900390059002A92548E7
:10377000FEF782FA40E024492068884221D100BF48
:103780001F48806940F008001D498861084680692B
:1037900000F00800019000BF00BF1020029002203E
:1037A0000390059002A91948FEF766FA00BF184970
:1037B000486820F4406040F0E06040F400604860F9
:1037C0001AE014492068884216D100BF0C4880696D
:1037D00040F008000A4988610846806900F0080046
:1037E000019000BF00BF4815029002200390059091
:1037F00002A90648FEF740FA06B010BD002C0140B1
:10380000001002400008014000040040000C01408C
:1038100000000140000800402DE9F04104460D463B
:103820001646002700BF94F83C00012802D1022070
:10383000BDE8F081012084F83C0000BF36B1042EC1
:103840001BD0082E31D00C2E5ED145E029462068D1
:1038500001F038FD2068806940F008002168886127
:103860002068806920F004002168886120688069F0
:10387000296908432168886148E02946206801F0E9
:1038800051FD2068806940F40060216888612068EB
:10389000806920F4806021688861206880692969D6
:1038A00040EA01202168886130E02946206801F063
:1038B0006DFD2068C06940F008002168C86120687B
:1038C000C06920F004002168C8612068C0692969C6
:1038D00008432168C86119E02946206801F08AFD83
:1038E0002068C06940F400602168C8612068C06930
:1038F00020F480602168C8612068C069296940EAB5
:1039000001202168C86101E0012700BF00BF00BF9E
:10391000002084F83C0000BF384689E710B5044613
:103920000CB9012010BD94F83D0028B9002084F89E
:103930003C00204600F026F8022084F83D00211DBE
:10394000206801F057FC012084F8460000BF84F88D
:103950003E0001213F2001554020015541200155E5
:1039600000BF00BF012084F84200432001554420DD
:1039700001554520015500BF012084F83D0000207D
:10398000D0E7000008B50168B1F1804F0DD100BF4C
:103990001849C96941F00101164AD1611146C96946
:1039A00001F00101009100BF23E0134A0168914238
:1039B0000DD100BF0F49C96941F002010D4AD16123
:1039C0001146C96901F00201009100BF11E00B4AE4
:1039D000016891420DD100BF0649C96941F0040157
:1039E000044AD1611146C96901F00401009100BF88
:1039F00000BF08BD00100240000400400008004065
:103A000070B504460D4615B994F83E000BE0042D40
:103A100002D13F20005D06E0082D02D14020005D6C
:103A200001E04120005D012801D0012070BD1DB9D9
:103A3000022084F83E000EE0042D03D102213F2035
:103A4000015508E0082D03D102214020015502E074
:103A500002214120015501222946206801F00CFC79
:103A600019492068884201D1012000E0002028B1D6
:103A70002068406C40F40040216848641249206886
:103A800088420BD02068B0F1804F07D00F492068E2
:103A9000884203D00E49206888420CD12068806893
:103AA00000F00706062E0CD02068006840F00100E8
:103AB0002168086005E02068006840F00100216886
:103AC00008600020B2E70000002C01400004004024
:103AD0000008004010B504460CB9012010BDA069D3
:103AE00000B100E000BF94F8410028B9002084F83C
:103AF0004000204600F02AF8242084F84100206885
:103B0000C06820F400502168C860204601F0F4FC31
:103B10002068006920F490402168086120684069AD
:103B200020F02A00216848612068C06840F40050F5
:103B30002168C86000206064202084F8410084F877
:103B400042000020606300BFC8E7000010B586B0E7
:103B500004460020029003900490059019492068C3
:103B600088422DD100BF1848C06940F40030164982
:103B7000C8610846C06900F40030019000BF00BF72
:103B800000BF0846806940F00400886108468069EB
:103B900000F00400019000BF00BF0420029002204A
:103BA00003900320059002A90848FEF765F8082055
:103BB000029000200390049002A90448FEF75CF8EC
:103BC00006B010BD00440040001002400008014053
:103BD0002DE9F84F04460E46174699464FF0000A65
:103BE00094F84100202850D106B117B90120BDE852
:103BF000F88F00206064212084F84100FEF7DCF992
:103C00008246A784E784A068B0F5805F04D120696C
:103C100010B90025B04602E035464FF000081EE01E
:103C20005346002280212046CDF8009001F0E2FCAE
:103C300020B1202084F841000320D8E745B9B8F826
:103C40000000C0F308002168486008F1020803E0A2
:103C50002878216848606D1CE08C401EE084E08C70
:103C60000028DDD15346002240212046CDF80090A7
:103C700001F0C0FC20B1202084F841000320B6E709
:103C8000202084F841000020B1E70220AFE700BF08
:103C9000FEE7014608684069C0F38020B0B16FF4C8
:103CA00080600A68506100200863202081F83D0090
:103CB000002081F83E00086C40F00400086400BF5A
:103CC000002081F83C0000BF012070470020FCE785
:103CD0002DE9F84304460F4615469946DDE9088666
:103CE0002068006840F480602168086020680068EF
:103CF00040F4807021680860434600224FF00111B3
:103D00002046009600F037F960B12068006800F4A2
:103D10008070B0F5807F02D14FF4007020640320E2
:103D2000BDE8F88307F0FE0021680861334642468B
:103D30003E49204600F07EF908B10120F0E700BFBF
:103D40000020009020684069009020688069009001
:103D500000BF00BF32464146204600F02DFA50B168
:103D6000206C042805D12068006840F400702168A8
:103D700008600120D4E7B9F1010F03D1E8B221684E
:103D8000086117E0C5F30720216808613246414603
:103D9000204600F011FA50B1206C042805D12068AB
:103DA000006840F40070216808600120B8E7E8B2BC
:103DB0002168086132464146204600F0FDF950B1C5
:103DC000206C042805D12068006840F40070216848
:103DD00008600120A4E72068006840F48070216832
:103DE0000860434600224FF001112046009600F083
:103DF000C2F858B12068006800F48070B0F5807F88
:103E000002D14FF400702064032089E7F8B240F03B
:103E1000010021680861334642460449204600F00B
:103E200009F908B101207BE7002079E702000100D1
:103E30002DE9F8430446884615469946DDE90867AA
:103E40002068006840F480702168086033460022D2
:103E50004FF001112046009700F08DF860B1206806
:103E6000006800F48070B0F5807F02D14FF40070DC
:103E700020640320BDE8F88308F0FE002168086193
:103E80003B4632462149204600F0D4F808B10120D3
:103E9000F0E700BF00200090206840690090206893
:103EA0008069009000BF00BF3A463146204600F0CE
:103EB00083F950B1206C042805D12068006840F4D3
:103EC0000070216808600120D4E7B9F1010F03D127
:103ED000E8B22168086117E0C5F30720216808618E
:103EE0003A463146204600F067F950B1206C04286C
:103EF00005D12068006840F4007021680860012046
:103F0000B8E7E8B2216808610020B3E702000100C9
:103F100070B504460D46164625E02046FFF7B9FE6B
:103F200008B1012070BD681CE8B1FEF745F8801BA0
:103F3000A84200D8BDB920684069C0F3800090B99C
:103F400000202063202084F83D00002084F83E00FB
:103F5000206C40F02000206400BF002084F83C006A
:103F600000BF0120DEE720684069C0F38000002820
:103F7000D3D00020D6E72DE9F04104460D46174680
:103F80001E46DDF8188038E0701CA8B3FEF714F860
:103F9000A0EB0800B04200D876BBC5F3074001286B
:103FA0000AD120684069A9B20840A9B2884201D16B
:103FB00001200BE0002009E020688069A9B20840D8
:103FC000A9B2884201D1012000E00020B84214D1FA
:103FD00000202063202084F83D00002084F83E006B
:103FE000206C40F02000206400BF002084F83C00DA
:103FF00000BF0120BDE8F081FFE7C5F307400128BD
:104000000AD120684069A9B20840A9B2884201D10A
:1040100001200BE0002009E020688069A9B2084077
:10402000A9B2884201D1012000E00020B842ABD003
:104030000020DFE72DE9F04104460D4616461F46F5
:1040400058E020684069C0F38020E8B1206800682B
:1040500040F40070216808606FF480602168486156
:1040600000202063202084F83D00002084F83E00DA
:10407000206C40F00400206400BF002084F83C0065
:1040800000BF0120BDE8F081701C90B3FDF794FFE4
:10409000C01BB04200D866BBC5F3074001280AD157
:1040A00020684069A9B20840A9B2884201D1012024
:1040B0000BE0002009E020688069A9B20840A9B29D
:1040C000884201D1012000E0002090B90020206347
:1040D000202084F83D00002084F83E00206C40F051
:1040E0002000206400BF002084F83C0000BF0120B5
:1040F000C8E7FFE7C5F3074001280AD120684069F7
:10410000A9B20840A9B2884201D101200BE00020E9
:1041100009E020688069A9B20840A9B2884201D1AB
:10412000012000E0002000288BD00020AAE770B515
:1041300004460D46164637E020684069C0F300107B
:10414000A0B16FF01000216848610020206320209A
:1041500084F83D00002084F83E00206C206400BFFD
:10416000002084F83C0000BF012070BDFDF724FF53
:10417000801BA84200D8BDB920684069C0F38010F8
:1041800090B900202063202084F83D00002084F8AE
:104190003E00206C40F02000206400BF002084F826
:1041A0003C0000BF0120E0E720684069C0F38010B8
:1041B0000028C1D00020D8E770B504460D46164649
:1041C00025E02046FFF765FD08B1012070BD681CA1
:1041D000E8B1FDF7F1FE801BA84200D8BDB9206808
:1041E0004069C0F3C01090B900202063202084F8FB
:1041F0003D00002084F83E00206C40F02000206448
:1042000000BF002084F83C0000BF0120DEE72068EA
:104210004069C0F3C0100028D3D00020D6E70000CA
:1042200070B50446B4F90600B0F57A7F12DD2F218F
:1042300019A0FBF7EEFF28B12F2117A0FBF7E9FF2C
:10424000401C00E014A005460C22294618A001F0ED
:104250003DFD70BDA08828B9B4F906002168096841
:10426000486316E0A088042805D1B4F90600216847
:10427000096888630DE0A088082805D1B4F9060014
:1042800021680968C86304E0B4F906002168096878
:10429000086400BFDDE70000696E746572666163E3
:1042A000655C496E745F6D6F746F722E6300000001
:1042B0005B25733A25645D204D6F746F72207370B7
:1042C00065656420697320746F6F20686967680D85
:1042D0000A00000010B50446A08820B9002021681B
:1042E0000968486313E0A088042804D100202168ED
:1042F000096888630BE0A088082804D100202168A1
:104300000968C86303E00020216809680864A1887F
:104310002068FFF775FB10BD2DE9F04F87B0002036
:104320000590069003900490824603A800F09AF846
:104330003AE005A800F096F8BDF91430BDF90CC0BC
:10434000A3EB0C02002A01DB134600E05342B3F555
:10435000C87F20DABDF91630BDF90EC0A3EB0C0101
:10436000002901DB0B4600E04B42B3F5C87F12DAAF
:10437000BDF91830BDF910C0A3EB0C00002801DB1B
:10438000034600E04342B3F5C87F04DA0AF10100B6
:1043900000F0FF0A01E04FF0000ADDE90501CDE978
:1043A0000301062002F044FDBAF1640FC1DB0020D6
:1043B00000900190029000240025002600278046EE
:1043C000814683461DE0684600F0C8F8BDF9060046
:1043D0000444BDF908000544BDF90A00A0F5804079
:1043E0000644BDF900000744BDF902008044BDF950
:1043F00004008144062002F01BFD0BF1010000F0D7
:10440000FF0BBBF1640FDEDB642094FBF0F00F497F
:104410000860642095FBF0F00D490860642096FB6D
:10442000F0F00C490860642097FBF0F00A4908603E
:10443000642098FBF0F009490860642099FBF0F0D3
:104440000749086007B0BDE8F08F00004002002077
:1044500044020020480200204C02002050020020AC
:10446000540200202DE9FC410446002001900090F8
:1044700001A93B2000F030F969463C2000F02CF9FE
:104480009DF800109DF8042041EA0220FCF71CF979
:1044900007462E49FBF752FF06464FF08041FBF7D7
:1044A0001BFF0546FCF73CF900B2208001A93D2026
:1044B00000F012F969463E2000F00EF99DF8001058
:1044C0009DF8042041EA0220FCF7FEF807461F4948
:1044D000FBF734FF06464FF08041FBF7FDFE054633
:1044E000FCF71EF900B2608001A93F2000F0F4F84B
:1044F0006946402000F0F0F89DF800109DF8042077
:1045000041EA0220FCF7E0F807461049FBF716FFE6
:1045100006464FF08041FBF7DFFE0546FCF700F949
:1045200000B2A08020880A490988401A00B2208081
:10453000608808490988401A00B26080A08806494E
:104540000988401A00B2A080BDE8FC813300004712
:1045500040020020440200204802002010B504461A
:10456000204600F005F8A01DFFF77CFF10BD0000FD
:104570002DE9FC41044600200190009001A9432050
:1045800000F0AAF86946442000F0A6F89DF8001053
:104590009DF8042041EA0220FCF796F807462D49D1
:1045A000FBF7CCFE06462C49FBF796FE0546FCF7CA
:1045B000B7F800B2208001A9452000F08DF86946C7
:1045C000462000F089F89DF800109DF8042041EA8B
:1045D0000220FCF779F807461E49FBF7AFFE0646B6
:1045E0001D49FBF779FE0546FCF79AF800B260809A
:1045F00001A9472000F070F86946482000F06CF8E7
:104600009DF800109DF8042041EA0220FCF75CF8B8
:1046100007461049FBF792FE06460F49FBF75CFE82
:104620000546FCF77DF800B2A08020880B49098878
:10463000401A00B22080608809490988401A00B2F7
:104640006080A08807490988401A00B2A080BDE8B0
:10465000FC810000330000470000FA444C020020B7
:10466000500200205402002008B58021682000F08C
:1046700045F80020009003E069466B2000F02CF81C
:104680009DF800004028F7D100216B2000F036F89B
:1046900018211B2000F032F800211C2000F02EF819
:1046A0000021382000F02AF800216A2000F026F8C6
:1046B0000121192000F022F801211A2000F01EF833
:1046C00001216B2000F01AF800216C2000F016F890
:1046D000FFF722FE08BD00003EB504460D466420EB
:1046E00001210B462246CDE900510290D12102481A
:1046F000FDF750FD3EBD00009402002013B584B0CC
:1047000004466420012105AA0B46CDE90021029050
:104710002246D0210248FDF7F7FE06B010BD00008A
:104720009402002010B500224FF480711448FDF768
:104730003DFC052213492A2000F0AEF8012121207A
:1047400000F0CCF80121222000F0C8F82821252013
:1047500000F0C4F81121312000F0C0F80621262015
:1047600000F0BCF80F21202000F0B8F8FF2127202E
:1047700000F0B4F8012211020148FDF717FC10BD4A
:1047800000080140340200202DE9F04107460D46A3
:104790001646002210210C48FDF708FC384600F0B0
:1047A0005DFC8046002405E0002000F057FC285501
:1047B000601CC4B2B442F7DB012210210248FDF7AD
:1047C000F5FB4046BDE8F0810008014070B50446A5
:1047D000002210210848FDF7E9FB204600F03EFCCE
:1047E000002000F03BFC0546012210210248FDF7A5
:1047F000DDFB284670BD00000008014070B504468E
:104800000720FFF7E3FF05462946272000F066F85A
:1048100005F0400050B1112221466120FFF7B4FF9E
:10482000FF21E22000F05AF8002070BD0120FCE7D3
:1048300010B500224FF480711548FDF7B7FB052233
:104840001449302000F028F8052212492A2000F0EF
:1048500023F80121212000F041F80121222000F05D
:104860003DF80A21242000F039F82821252000F005
:1048700035F80621262000F031F80E21202000F026
:104880002DF8012211020248FDF790FB10BD000037
:1048900000080140340200202DE9F04107460C4693
:1048A0001546002210210C48FDF780FB384600F029
:1048B000D5FB8046002605E014F8010B00F0CEFB86
:1048C000701CC6B2AE42F7DB012210210248FDF790
:1048D0006DFB4046BDE8F0810008014070B505461B
:1048E0000C46002210210848FDF760FB284600F026
:1048F000B5FB0646204600F0B1FB0122102102481C
:10490000FDF754FB304670BD0008014010B5002291
:1049100004210E48FDF74AFB642002F089FA0122C7
:1049200004210A48FDF742FBC82002F081FA002268
:1049300004210648FDF73AFB642002F079FA0122CF
:1049400004210248FDF732FB10BD0000000C0140BD
:1049500010B5002204210648FDF728FB642002F070
:1049600067FA012204210248FDF720FB10BD000078
:10497000000C014008B500200090694603480088FB
:1049800000F0BBFEBDF8000008BD0000580200208A
:104990000EB500224FF480513048FDF707FB02208E
:1049A00002F046FA012211032C48FDF7FFFA02201B
:1049B00002F03EFA002002900190009002AA40F21C
:1049C0000F112748008801F0F5F89DF8081025A080
:1049D00001F07CF902AA4FF488712148008801F0A7
:1049E000E9F89DF8081025A001F070F901AA40F23D
:1049F0000F111B48008801F0F1F8BDF8041026A043
:104A000001F064F907E069461548008800F03AFEB5
:104A1000022002F00DFA9DF800000028F3D022A039
:104A200001F054F90E48008800F000FF02210C4804
:104A3000008800F037FF14210948008800F0CAFF01
:104A400014210748008800F099FF1BA001F03EF9EF
:104A50000348008801F097F80EBD0000000C0140EB
:104A600058020020564C35334C3158204D6F646548
:104A70006C5F49443A2025580A000000564C3533F3
:104A80004C3158204D6F64756C655F547970653A90
:104A90002025580A00000000564C35334C31583A56
:104AA0002025580A000000004368697020626F6F7B
:104AB0007465640A00000000564C35334C315820B0
:104AC000556C747261204C69746520447269766516
:104AD00072204578616D706C652072756E6E696EBE
:104AE00067202E2E2E0A000010B500222021034838
:104AF000FDF75CFA0248FDF727F810BD000C0140F5
:104B0000640200202DE9F0410948FCF73FFF06460A
:104B10003046FBF7E2FD07460649FBF70FFC05466A
:104B20000549FBF7D9FB04462046BDE8F0810000AB
:104B30006402002000F07F453333534010B5044633
:104B4000A1882068FDF728FA10BD10B50446A18899
:104B500001222068FDF72AFA10BD10B50446A1888D
:104B600000222068FDF722FA10BD00000EB50020DB
:104B700000900190029013481349086000211248E8
:104B8000816001210173002101754FF46021C16131
:104B900000200D49486001210B480161FCF7FAFE35
:104BA00008B1FCF740FE092000900120019002208E
:104BB000029069460448FCF739FE08B1FCF733FE61
:104BC0000EBD0000002401406402002000B585B045
:104BD0000020019002900390049000BF304880694B
:104BE00040F010002E4988610846806900F01000EE
:104BF000009000BF00BF00BF0846806940F0200061
:104C000088610846806900F02000009000BF00BF66
:104C100000BF0846806940F004008861084680694A
:104C200000F00400009000BF00BF00BF084680698C
:104C300040F0080088610846806900F00800009094
:104C400000BF00BF012241F610011648FDF7AEF982
:104C500001224DF224011448FDF7A8F900224FF477
:104C600080711048FDF7A2F941F610100190012063
:104C70000290002003900220049001A90948FCF74B
:104C8000FBFF4DF2240001900120029000200390D0
:104C90000220049001A90448FCF7EEFF05B000BD16
:104CA0000010024000080140000C014010B50B4804
:104CB0000B4908600B484860002109488160C160C9
:104CC0004FF480410161002141618161C161016254
:104CD000FDF778F908B1FCF7A6FD10BD00540040BF
:104CE00094020020A086010010B50B480B49086013
:104CF0000B484860002109488160C1604FF4804141
:104D00000161002141618161C1610162FDF75AF9D0
:104D100008B1FCF788FD10BD00580040E8020020F3
:104D2000801A060010B50E480E4908604FF48270D4
:104D3000486000210B488160C160016141614FF40E
:104D4000007181611021C1610021016241628162B3
:104D50000A21C162FEF7A2F908B1FCF764FD10BD9B
:104D6000003001403C03002000B595B000201190B8
:104D70001290139014900F9010901C2108A8FBF72C
:104D800036FA20216846FBF732FA2B482B49086097
:104D90000320486000212948816040F2E731C1606A
:104DA0000021016141618161FEF7D4FB08B1FCF78C
:104DB0003AFD4FF48050119011A92048FEF716FCDF
:104DC00008B1FCF730FD1D48FEF7A8FD08B1FCF75F
:104DD0002AFD00200F9010900FA91848FEF778FBCD
:104DE00008B1FCF720FD60200890002009900A908F
:104DF0000B900C900D900E90082208A90F48FEF71A
:104E00000BFD08B1FCF70FFD00200090019002900F
:104E1000039004904FF400500590002007906946DD
:104E20000648FEF71BFB08B1FCF7FDFC0348FEF744
:104E300063FC15B000BD0000002C0140940300206D
:104E400000B589B00020079008901C216846FBF748
:104E5000CEF94FF0804017490860032048600021D8
:104E60001448816040F2E731C16000210161816135
:104E7000FEF754FD08B1FCF7D6FC0020079008901F
:104E800007A90C48FEF724FB08B1FCF7CCFC602016
:104E90000090002001900290049004226946054889
:104EA000FEF7BAFC08B1FCF7BEFC0248FEF724FC92
:104EB00009B000BDDC03002000B589B000200790D8
:104EC00008901C216846FBF792F9184818490860B9
:104ED0000320486000211648816040F2E731C1603C
:104EE000002101618161FEF719FD08B1FCF79BFC0F
:104EF00000200790089007A90D48FEF7E9FA08B1CD
:104F0000FCF791FC6020009000200190029004903A
:104F1000002269460648FEF77FFC08B1FCF783FCD7
:104F20000348FEF7E9FB09B000BD000000040040A3
:104F30002404002000B589B00020079008901C21AF
:104F40006846FBF754F91848184908600320486080
:104F500000211648816040F2E731C1600021016103
:104F60008161FEF7DBFC08B1FCF75DFC00200790D7
:104F7000089007A90D48FEF7ABFA08B1FCF753FCFF
:104F80006020009000200190029004900C2269465D
:104F90000648FEF741FC08B1FCF745FC0348FEF764
:104FA000ABFB09B000BD0000000800406C0400200D
:104FB00010B50B480B4908604FF4E1304860002100
:104FC00008488160C16001610C214161002181615B
:104FD000C161FEF77FFD08B1FCF725FC10BD0000A4
:104FE00000440040B404002000BFFEE700BFFEE71D
:104FF00008B508490968C9084FF47A72B1FBF2F1A3
:105000004143009100BF00BF00994A1E0092002951
:10501000F9D108BD0C000020F8B504460E4615462F
:105020003346012202212046009500F029F828B1DC
:10503000606D40F0200060650320F8BD334600221B
:1050400080212046009500F01BF828B1606D40F0EB
:10505000200060650320F0E70020EEE701B582B094
:10506000002001904FF47A70012301AA02A9009058
:105070000248FEF7B5F89DF804000EBD3C03002081
:105080002DE9F84F04460D4690461E46DDF828905F
:10509000FCF792FFA0EB0900371AFCF78DFF824660
:1050A0002C480068C0F3CB307843009045E0701C7A
:1050B000002842D0FCF780FFA0EB0A00B84200D2E3
:1050C000A7BB2068406820F0E00021684860606865
:1050D000B0F5827F0DD1A068B0F5004F03D0A06875
:1050E000B0F5806F05D12068006820F0400021688D
:1050F0000860A06AB0F5005F0DD100BF20680068AD
:1051000020F40050216808602068006840F40050D6
:105110002168086000BF012084F8510000BF002012
:1051200084F8500000BF0320BDE8F88FFFE7009827
:1051300000B900270098401E009020688068284031
:10514000A84201D1012000E000204045AFD100205D
:10515000EAE700000C00002010B502F039F8012841
:1051600001D001F007FFFDF7E9FA10BD00B593B0DB
:10517000282109A8FBF73BF8142104A8FBF737F80E
:1051800000200090019002900390012009900004FB
:105190000A9000200B9001200D9002201090C10376
:1051A00011914FF4E011129109A8FDF745FD08B1E6
:1051B000FCF739FB0F200490022005900020069098
:1051C0004FF48060079000200890022104A8FDF7AA
:1051D0000FFC08B1FCF727FB02200090800302902F
:1051E0006846FDF76DFB08B1FCF71DFB13B000BD71
:1051F0007047000010B502681C4B984208D0B0F10F
:10520000804F05D01A4B984202D01A4B984203D1D6
:1052100022F070024B681A43144B984208D0B0F148
:10522000804F05D0124B984202D0124B984203D1C6
:1052300022F44072CB681A4322F080034C6943EA9F
:10524000040202608B68C3620B688362074B98425A
:1052500001D10B69036301234361036903F0010377
:105260001BB1036923F00103036110BD002C014051
:10527000000400400008004030B501F01F05012483
:1052800004FA05F3046A9C430462046A01F01F05F2
:1052900002FA05F52C43046230BD30B50C46816836
:1052A00021F47F4142EA032525432943816030BD33
:1052B0000A46816821F0700142F0070319438160BA
:1052C0007047000030B5026A056A25F001050562E5
:1052D0004368846924F0700424F003040D682C43AF
:1052E00022F002028D682A430D4DA84206D100BF6C
:1052F00022F00802CD682A4322F00402084DA84299
:1053000007D123F4807323F400734D692B438D6917
:105310002B43436084614D684563026230BD0000E9
:10532000002C014030B5026A056A25F010050562BF
:105330004368846924F4E04424F440740D6844EA2A
:10534000052422F020028D6842EA05120E4DA84283
:1053500007D100BF22F08002CD6842EA051222F098
:105360004002094DA84209D123F4806323F400636D
:105370004D6943EA85038D6943EA8503436084618F
:105380004D688563026230BD002C014030B5026A71
:10539000056A25F4807505624368C46924F07004C9
:1053A00024F003040D682C4322F400728D6842EA55
:1053B00005220F4DA84207D100BF22F40062CD683C
:1053C00042EA052222F48062094DA84209D123F461
:1053D000805323F400534D6943EA05138D6943EA72
:1053E00005134360C4614D68C563026230BD0000AF
:1053F000002C014030B5036A056A25F4805505622A
:105400004468C26922F4E04222F440720D6842EA24
:10541000052223F400538D6843EA0533064DA84264
:1054200004D124F480444D6944EA85144460C26187
:105430004D680564036230BD002C014030B50B4659
:105440001446026A056A25F001050562816921F0AA
:10545000F00141EA041122F00A021A43816102625A
:1054600030BD30B50B461446026A056A25F01005BA
:105470000562816921F4704141EA043122F0A00201
:1054800042EA03128161026230BD00BF00BF0268C0
:105490000C3252E8002F22F4907102680C3242E87C
:1054A0000013002BF3D100BF00BF00BF026814320D
:1054B00052E8002F22F001010268143242E8001382
:1054C000002BF3D100BF016B01290ED100BF00BF3B
:1054D00002680C3252E8002F22F0100102680C32F0
:1054E00042E80013002BF3D100BF202180F84210C6
:1054F000002101637047000070B504462168096906
:1055000021F44051E2681143226811612269A168C7
:105510001143626941EA02052168C96841F20C62DF
:10552000914329432268D1602168496921F440717F
:10553000A2691143226851612D4A2168914202D12A
:10554000FDF732FB01E0FDF71FFB00EBC00101EBB3
:10555000001162689200B1FBF2F100EBC00202EBB5
:10556000001263689B00B2FBF3F26423B2FBF3F218
:1055700002EBC20303EB0212A1EB8201322202EB27
:1055800001116422B1FBF2F101F0F00100EBC00265
:1055900002EB001263689B00B2FBF3F26423B2FBE0
:1055A000F3F201EB021200EBC00101EB00116368A2
:1055B0009B00B1FBF3F100EBC00303EB0013666843
:1055C000B600B3FBF6F36426B3FBF6F303EBC306B6
:1055D00006EB0313A1EB8301322303EB01116423D8
:1055E000B1FBF3F101F00F0111442268916070BD2D
:1055F000003801402DE9F84304460D461746984609
:10560000089E31E0701C70B3FCF7D6FCA0EB0800DC
:10561000B04200D816B90320BDE8F8832068C068FE
:1056200000F00400F8B1802D1ED0402D1CD0206861
:105630000068C0F3C000B0B100BF00200090206837
:105640000068009020684068009000BF00BF2046BE
:10565000FFF71BFF0820606400BF002084F84000B3
:1056600000BF0120D8E7FFE7206800682840A84273
:1056700001D1012000E00020B842C3D00020CBE7D8
:1056800000BFFEE7F8B506460C4600250020009056
:105690006A46E521304600F08DFA05439DF800008A
:1056A00020702846F8BD7CB506460D4600246946A4
:1056B000304600F04AF8044301AA3121304600F098
:1056C00079FA044364B99DF8040000F001009DF8E4
:1056D0000010884202D10120287001E000202870CB
:1056E00020467CBD70B5054600240122862128464F
:1056F00000F094FA0443204670BDF8B506460C4607
:1057000000256A469621304600F068FA0543BDF848
:10571000000020802846F8BDF8B506460C46002556
:105720006A464B21304600F045FA2843C5B29DF841
:105730000000142801D1012020809DF800000A28D3
:1057400001D10220208068B2F8BDF8B506460C46AB
:1057500000256A463021304600F02CFA05439DF8BA
:10576000000000F0100000909DF80000001108B942
:10577000012000E0002020702846F8BDF8B506465C
:105780000C4600256A465E21304600F027FA0543A4
:10579000BDF80000B0F5D77F2FD00EDC602829D0EF
:1057A00006DC1D281ED01E2820D0512836D11CE032
:1057B000AD2823D0D62831D11BE040F2E132811A46
:1057C000904222D008DCB0F5E67F1BD0A0F2D920B1
:1057D000E0B1082822D114E0AE291BD0B1F5D87F62
:1057E0001CD116E00F2020801CE000BF1420208078
:1057F00018E000BF2120208014E000BF322020806C
:1058000010E000BF642020800CE000BFC820208092
:1058100008E000BF4FF4FA70208003E0012500206B
:10582000208000BF00BF2846F8BD0000F8B506463E
:10583000002400252D250AE0A5F12D0018490A5C59
:105840002946304600F0EAF90443681CC5B2872DAA
:10585000F2DD304600F097F904430020009004E0A8
:1058600069463046FFF71FFF04439DF800000028FB
:10587000F6D03046FFF736FF0443304600F08EF98D
:10588000044309220821304600F0C8F904430022ED
:105890000B21304600F0C2F904432046F8BD000059
:1058A00012750008F8B506460D46002469463046D4
:1058B000FFF764FF04430CB10120F8BD012D02D0B5
:1058C000022D4ED126E014224B21304600F0A6F9DD
:1058D000044607226021304600F0A0F90446052264
:1058E0006321304600F09AF9044638226921304697
:1058F00000F094F9044640F205727821304600F039
:10590000C7F9044640F206627A21304600F0C0F939
:10591000044628E00A224B21304600F07FF9044675
:105920000F226021304600F079F904460D226321F0
:10593000304600F073F90446B8226921304600F081
:105940006DF9044640F60D727821304600F0A0F95A
:10595000044640F60E627A21304600F099F904467A
:1059600001E0012400BF00BF2CB9BDF80010304693
:1059700000F030F8044320469FE700002DE9F84F7F
:1059800082460C464FF000096A46DE21504600F080
:1059900025F940EA0909BDF80000C0F309000090AC
:1059A000BDF8001001FB04F0FAF7ADFE07464FF01A
:1059B0003332074BFAF7A7FD0546FAF7E9FE8346AF
:1059C0005A466C21504600F03FF94846BDE8F88F32
:1059D0003333F13FF8B506460C460025694630469C
:1059E000FFF79AFE0543BDF8000008B90120F8BD95
:1059F000BDF80000012869D1322C30D006DC0F2C14
:105A00000CD0142C15D0212C5DD11DE0642C33D08A
:105A1000C82C3ED0B4F5FA7F55D147E01D225E2157
:105A2000304600F035F927226121304600F030F988
:105A30004BE051225E21304600F02AF96E226121AE
:105A4000304600F025F940E0D6225E21304600F0D5
:105A50001FF96E226121304600F01AF935E04FF44B
:105A6000D7725E21304600F013F94FF4F4726121D1
:105A7000304600F00DF928E040F2E1225E21304688
:105A800000F006F94FF462726121304600F000F92F
:105A90001BE040F2E1325E21304600F0F9F840F2BE
:105AA00096426121304600F0F3F80EE040F2915248
:105AB0005E21304600F0ECF840F2C15261213046E0
:105AC00000F0E6F801E0012500BF5AE0642C2ED07A
:105AD00006DC142C0AD0212C13D0322C4ED11BE022
