:020000040800F2
:10000000283A00209D0100084B460008E134000812
:100010004946000849130008F14B000800000000A1
:1000200000000000000000000000000005010008C2
:100030005519000800000000490100089947000810
:10004000B7010008B7010008B7010008B7010008B0
:10005000B7010008B7010008B7010008B7010008A0
:10006000B7010008B7010008B7010008B701000890
:10007000B7010008B7010008B7010008B701000880
:10008000B7010008B7010008B7010008B701000870
:10009000B7010008B7010008B7010008B701000860
:1000A000B7010008B7010008B7010008B701000850
:1000B000B7010008B7010008B7010008B701000840
:1000C000B7010008B7010008B7010008B701000830
:1000D000B7010008B7010008B7010008B701000820
:1000E000B7010008B7010008B7010008DFF810D019
:1000F00000F0E6FC0048004781610008AFF3008093
:10010000283A0020224B19680868B0E8F00F80F305
:100110000988BFF36F8F4FF0000080F311884EF015
:100120000D0E70470000000006480068006880F36C
:10013000088862B661B6BFF34F8FBFF36F8F00DFE1
:1001400000BF00BF08ED00E0EFF30980BFF36F8F41
:100150000F4B1A6820E9F00F106008B54FF0BF0090
:1001600080F31188BFF34F8FBFF36F8F06F072FBE0
:100170004FF0000080F31188BDE808401968086856
:10018000B0E8F00F80F30988BFF36F8F704700BFAE
:1001900080000020EFF3058070470000064880478C
:1001A00006480047FEE7FEE7FEE7FEE7FEE7FEE75C
:1001B000FEE7FEE7FEE7FEE729480008ED0000083D
:1001C000202A04DB203A21FA02F00021704721FAAC
:1001D00002F3D040C2F12002914008431946704713
:1001E000D2B201E000F8012B491EFBD27047002279
:1001F000F6E710B513460A4604461946FFF7F0FF26
:10020000204610BD421C10F8011B0029FBD1801AAA
:1002100070470022CBB20178994200D10246401CBF
:100220000029F8D110467047F0B480EA0102D40FDB
:100230004200B2EB410F02D20246084611464A0084
:1002400042D0C30DDDB2C1F3C752AD1A202D35DA4D
:10025000C1F3160141F4000204B15242C5F1200677
:1002600002FA06F12A411044B3EBD05F23D0C4B1A7
:10027000012DA0EBC35009DCF0BC4FF0004202EAB4
:10028000C352DBB200F5000000F05EBB400000F19D
:10029000807000EBC350A0F1807040EAD17049003B
:1002A00009E0490841EAC071A0EBC35000F5000025
:1002B000400800EBC350F0BC00F03DBB614201229E
:1002C00002EB4101001BF6E7F0BC704781F00041F2
:1002D000AAE780F00040A7E780EA010210B502F02B
:1002E0000043400022D04A001FD0010E01EB1261F2
:1002F000C0F35600C2F3560240F4000042F400027C
:10030000A0FB022000047F39140400D0401C50EAF6
:10031000124001D44000491EC2B20C0604EBD010BA
:10032000401C4008802A02D003E0002010BD20F0CD
:100330000100002900DA0020184310BD30B480EA23
:10034000010202F0004530F0004221F0004013D0DD
:1003500090B1C30DD40DC2F31601C0F31600E41A18
:1003600041F4000140F400027D34914201D3641C49
:1003700000E04900002C02DA30BC002070474FF446
:1003800000000023914201D3891A034340084FEA39
:100390004101F7D151B1914202D14FF0004105E046
:1003A00002D24FF0010101E06FF0010103EBC450F4
:1003B000284430BC00F0BFBA420005D0C0F3C75299
:1003C0005242914201DC0020704700EBC15070475F
:1003D0002DE9FE4F804681EA0300C00F0C460090D5
:1003E00021F0004123F00045B8EB0200A94105D2FD
:1003F0004046214690461C460B46024623F00040EC
:10040000104347D0270DC7F30A00C3F30A510290E7
:10041000401A019040286BDAC3F3130040F4801BAC
:100420000098924620B10023D2EB030A63EB0B0B3A
:1004300001985946C0F14002504600F05BFA06466A
:100440000D4650465946019A00F063FA10EB080039
:100450006141002487EA115284EAE7731A4340D0CD
:10046000009A62B3019A012A4FEA075215DC001B79
:1004700061EB02014FF0004202EA0752CDE900426F
:10048000001C41F5801132462B4600F09AFA03B069
:10049000BDE8F08F40462146F9E7001B61EB020101
:1004A000001C41F5801300185B412018A2F50017CD
:1004B00047EB030140EAD570B6196D4111E06D08B4
:1004C0004FEA360645EAC0754FEA0752001B61EB5A
:1004D0000201001C41F5801149084FEA3000001963
:1004E000514132462B4603B0BDE8F04F00F05ABAF6
:1004F0000098012240000023D0EB020263EBE0737E
:10050000009821464FEAE074B8EB000061EB04016B
:10051000E9E783F000435BE781F0004158E72DE90C
:10052000FE4F81EA030404F0004421F000410094EE
:100530004FF0000B23F0004350EA01045ED052EA72
:1005400003045BD0C3F30A54C1F30A552C44A4F24C
:10055000F3340194A0FB0254C1F3130141F4801160
:10056000C3F3130343F4801301FB024400FB034E67
:10057000840A970A44EA815447EA8357A4FB076830
:1005800002958D0A05FB07854FEA932C04FB0C545A
:100590002705029D4FEA065847EA1637B5EB0805CE
:1005A0006EEB070C870E920E47EA811742EA831220
:1005B000A7FB0201B6EB0B0164EB00042B0D43EA31
:1005C0000C335E1844EB1C50DA465146E7FB02013F
:1005D000C5F313044FEA0B3343EA14534FEA0432D2
:1005E000019C43EA0603A4F10C040294009CCDE9AB
:1005F00000B400F0E6F903B0BDE8F08F002001463A
:10060000F9E72DE9F04D81EA030404F0004B21F0F5
:10061000004514464FF0000A23F0004150EA05025D
:1006200020D054EA01021DD0C5F30A570246C5F393
:100630001303C1F31300C1F30A5640F4801543F4C9
:100640008013A7EB0608101BD64608F2FD3873EBA3
:10065000050002D308F1010801E092185B41B8F1EE
:10066000000F03DA00200146BDE8F08D00204FF4B2
:100670008011064684460EE0171B73EB050705D371
:10068000121B63EB050306434CEA010C49084FEAD1
:10069000300092185B4150EA0107EDD152EA0300A5
:1006A00012D082EA040083EA0501084305D0101B3A
:1006B000AB4106D20122002306E000224FF00043A6
:1006C00002E06FF0010253101AEB06004CEB0851E8
:1006D00010EB0A0041EB0B01BDE8F04D00F062B9F0
:1006E00070B521F0004303430CD0C1F30A55002438
:1006F000D5EB040564EB0403D617AD1AB34102DB56
:100700000020014670BD201841EB025170BDC10FA1
:1007100080EAE0700844CA079623002100F014B96B
:1007200096230022114600F00FB90EB5C10F80EAE2
:10073000E0700844CA07002140F233438DE80E0000
:100740000A460B4600F03DF903B000BD0EB540F27D
:10075000334102910021CDE900110A460B4600F019
:1007600030F903B000BD00F0004220F00040C10DA0
:10077000C0F3160040F400007F2901DA0020704722
:10078000962903DCC1F19601C84001E09639884002
:10079000002AF4D04042704770B5C1F30A5201F00C
:1007A00000450024C1F3130140F2FF3341F48011EE
:1007B0009A4201DA002070BD40F233439A42A2F21D
:1007C000334203DC5242FFF7FBFC00E090402C4335
:1007D000F1D0404270BDC1F30A5210B5C1F313010C
:1007E00040F2FF3341F480119A4201DA002010BD3B
:1007F00040F233439A42A2F2334203DC5242FFF703
:10080000DFFC10BD904010BD00F0004230F0004011
:100810000AD0C10D01F56071C0F3160042EA015122
:10082000C20840071143704700200146704701F09D
:10083000004330B421F0004150EA010206D00A0D15
:10084000A2F56072C1F31301002A02DC30BC002063
:100850007047440F44EAC104C100E01830BC00EB0B
:10086000C25000F068B830B50B4601460020202287
:10087000012409E021FA02F59D4205D303FA02F5AD
:10088000491B04FA02F52844151EA2F10102F1DC0D
:1008900030BD2DE9F05F0546002092469B46884614
:1008A0000646814640241BE02846414647462246EC
:1008B000FFF786FC53465A46C01A914110D31146A1
:1008C0001846224600F016F82D1A67EB01084F462D
:1008D00022460120002100F00DF817EB00094E41DF
:1008E000201EA4F10104DFDC484631462A46434677
:1008F000BDE8F09F202A04DB203A00FA02F1002034
:1009000070479140C2F1200320FA03F3194390404D
:100910007047202A06DBCB17203A41FA02F043EA5F
:10092000E07306E041FA02F3D040C2F120029140A8
:100930000843194670470029A8BF7047401C49006A
:1009400008BF20F00100704710B4B0FA80FC00FA34
:100950000CF050EA010404BF10BC704749B1CCF15F
:10096000200421FA04F411FA0CF118BF01212143EB
:100970000843A3EB0C01CB1D4FEA00614FEA1020A6
:1009800042BF002010BC704700EBC3501044002948
:10099000A4BF10BC7047401C490008BF20F00100F4
:1009A00010BC704710B5141E73F1000408DA401C27
:1009B00041F1000192185B411A4301D120F001007E
:1009C00010BD2DE9F04D92469B4611B1B1FA81F26E
:1009D00002E0B0FA80F220329046FFF78BFF044627
:1009E0000F4640EA0A0041EA0B0153465A460843C3
:1009F00013D0114653EA010019D0C8F14002504605
:100A0000FFF7DEFB05460E46504659464246FFF7C5
:100A100071FF084305D0012004E020463946BDE8B7
:100A2000F08D0020054346EAE0762C4337430A98D0
:100A30006305E40AA0EB08000022FD0A44EA4754DB
:100A40000A3002D500200146E9E701051019694185
:100A5000DDE9084500196941BDE8F04DA2E7C1F3A1
:100A60000A52C1F3130140F2FF3341F480119A425C
:100A700002DA00200146704740F233439A42A2F264
:100A8000334202DC5242FFF79BBBFFF733BF00004B
:100A900030B5041E71F1000404DB4FF00044404205
:100AA00064EB0101141E73F1000405DB1C464FF0DA
:100AB0000043524263EB0403994208BF904230BDA9
:100AC000064C074D06E0E06840F0010394E807009B
:100AD00098471034AC42F6D3FFF70CFBD86D0008F2
:100AE000F86D00082DE9F04D00231A461B1A8A41C3
:100AF00003DB00200146BDE8F08DC1F30A52C1F3CB
:100B0000130141F480154FF0000BD10702D10018FA
:100B10006D41521E0027044640F2FF11384601EB9A
:100B2000620A3E468046024600204FF48011FFF7DD
:100B300047FBC2197141BB1846EB0100B4EB030C33
:100B400075EB000C04D3E41A65EB000517460E465E
:100B5000241908F101006D4180463428E3DDF919BC
:100B600046EB0600091BA84103D24FF0FF321346A3
:100B700001E0002213461BEB070046EB0A51BDE8DB
:100B8000F04DFFF70FBF70B58C1810F8015B15F032
:100B9000070301D110F8013B2A1106D110F8012BEF
:100BA00003E010F8016B01F8016B5B1EF9D12B0714
:100BB00005D40023521E0DD401F8013BFAE710F8CA
:100BC000013BCB1A921C03E013F8015B01F8015BB7
:100BD000521EF9D5A142D8D3002070BD70B504468D
:100BE00000688168C943C90716D1816821F00101F5
:100BF000816001F055F9054609E001F051F9401B0B
:100C0000022804D920688068C043C00706D0206845
:100C10008068C043C007F0D0002070BDA06A40F0DB
:100C20001000A062E06A40F00100E062012070BDA7
:100C3000F8B500260446009600688168C943C907D4
:100C40002CD0816841F00101816015481549006888
:100C5000B0FBF1F000E0401E00900028FBD101F055
:100C60001FF9054615E001F01BF9401B022810D9B9
:100C700020688068C043C0070BD0A06A40F0100015
:100C8000A062E06A40F00100E06284F82460012084
:100C9000F8BD20688068C043C007E4D10020F8BDDB
:100CA0000C00002040420F002DE9FE4F7B487C4F96
:100CB0004FF0000807F10804017804F1080504F179
:100CC0001006A9B104F13C03764803F1900203F148
:100CD000480CB0F90000126A0092DCF820B0D3F89A
:100CE00020A001290CD002293AD0032937D178E07D
:100CF000A7F80680A4F806804046A5F806802DE0F7
:100D0000FFF705FD81465146FFF78EFA59460190DF
:100D1000FFF7DCFA0099FFF787FAFFF724FDF88068
:100D200048465146FFF7D2FA81465946FFF7CEFAB8
:100D30000099FFF7CBFAFFF716FDE08059460198BE
:100D4000FFF772FA0099FFF7C1FAFFF70CFDE88090
:100D500048465946FFF768FA00993DE0F08061E0A7
:100D6000FFF7D5FC51460290FFF75EFA5946019015
:100D7000FFF7ACFA0099FFF757FA4949F831096AC9
:100D80008946FFF751FAFFF7EEFCF88051460298CA
:100D9000FFF79CFA82465946FFF798FA0099FFF749
:100DA00095FA4946FFF740FAFFF7DDFCE080594627
:100DB0000198FFF739FA0099FFF788FA4946FFF7DB
:100DC00033FAFFF7D0FCE88050465946FFF72CFA7B
:100DD0000099FFF729FA4946FFF726FAFFF7C3FC07
:100DE000BCE7F888801E00B2F880E188891E09B24D
:100DF000E180EA88921E12B2EA80F3889B1E1BB241
:100E0000F38000280EDC00290CDC002A0ADC002B11
:100E100008DC25480022CDF8008002231146006836
:100E200005F0C2FD4FF41679B7F9060000224946D5
:100E300000F08BFAF880B4F906000022494600F071
:100E400084FAE080B5F906000022494600F07DFAF8
:100E5000E880B6F906000022494600F076FAF080F4
:100E60001048B0F90000322807DAA7F80680A4F885
:100E70000680A5F80680A6F80680094802F04CFD19
:100E80000748083002F048FD0548103002F044FDE4
:100E9000BDE8FE4F0248183002F03EBDE1000020E0
:100EA0003401002014010020F0000020084810B593
:100EB0000088FFF735FC074C206103F0CBF8FFF703
:100EC0002FFC60612046BDE8104000F047BA0000EA
:100ED0001E0100202C02002070B5264802F04AFEB8
:100EE000254D244CB5F90010B4F9000000F0CAFA01
:100EF0002080B5F90210B4F9020000F0C3FA608056
:100F0000B5F90410B4F9040000F0BCFAA0802188FF
:100F1000298061886980A880B4F90600FFF705FC84
:100F200002460B46154800F071FAFFF735FCE080E9
:100F3000B4F90800FFF7F9FB024610480B461830D9
:100F400000F064FAFFF728FC2081B4F90A00FFF7EB
:100F5000ECFB024609480B46303000F057FAFFF729
:100F60001BFC608104F10C012046BDE87040044A7E
:100F700000F0AABA103600202C010020100000203A
:100F8000A69BC43B10B502F041FE094802F010FDDB
:100F90000748083002F00CFD0548103002F008FD4B
:100FA0000348183002F004FDBDE8104003F060B8BB
:100FB000340100202DE9F0473B4CB4F90600A0F5C0
:100FC000FA70FFF7B2FB394F00223B46FFF719FBDF
:100FD000FFF72DFC3649374D08616868A5F10C060E
:100FE0004861B6F90200FFF7A0FBDFF8CC800022D1
:100FF0004346FFF794FA6FF00E094A46FFF770FB7D
:10100000FFF715FC2A4924314861294800F0F2F91C
:10101000B4F90400A0F5FA70FFF787FB00223B4605
:10102000FFF7EFFAFFF703FC214948310861A86890
:101030004861B6F90000FFF778FB00224346FFF74E
:101040006EFA4A46FFF74CFBFFF7F1FB18496C318B
:101050004861A1F1240000F0CDF9B4F90200A0F537
:10106000FA70FFF762FB00223B46FFF7CAFAFFF770
:10107000DEFB0F499031086128684861B6F9040029
:10108000FFF753FB00224346FFF749FA4A46FFF7B2
:1010900027FBFFF7CCFB0649B4314861BDE8F047B8
:1010A000A1F1240000F0A6B914010020000049407D
:1010B000540100201C36002000409F401CB51748FA
:1010C0000424CDE900400023802215A1174805F033
:1010D00011FC12490320091DCDE9000100238022E3
:1010E00013A1164805F006FC0C4901200831CDE992
:1010F00000010023802212A1144805F0FBFB0748E1
:1011000000230C30CDE90040802211A1134805F0E6
:10111000F1FBBDE81C4005F06DBB0000E4000020C1
:10112000706F7765725F7461736B00000562000811
:10113000666C696768745F7461736B008D6000082A
:101140006C65645F7461736B00000000E56000080B
:10115000636F6D5F7461736B0000000029600008AD
:10116000084B0949002258B1012808D14878401C91
:10117000C0B248700A2802D1012018704A70704726
:101180001A70FBE7E0000020200100202DE9F0416B
:10119000194C00250126207890B1194A0327DFF861
:1011A0005C80517A012813D0022820D0032805D171
:1011B000021F0121002005F043FA2570BDE8F081EF
:1011C00000F024F80028F9D10E4826700570F5E7E4
:1011D000012906D102202070557202F03BFF0A4916
:1011E000088098F800000128E8D12770E6E7012977
:1011F000F7D126705572F4E7E1000020E0000020EE
:1012000014010020200100201E0100202DE9F041E2
:10121000204C214E00252178B6F900004FF4617270
:101220004FF47A7704292AD2DFE801F0020A171F67
:10123000904227DB0120207005F03EFC60601EE03C
:1012400090421FDA05F038FC6168401AB84202D3B8
:101250000220207016E0257014E0642812DC0320C0
:10126000207005F029FCA06009E005F025FCA168CC
:10127000401AB84209D8B6F900006428EBDC20789F
:10128000042804D00120BDE8F08104202070002053
:10129000F9E70000200100201401002010B5112101
:1012A0002648FEF7A4FF254802F0D8FD78B902F0E1
:1012B000EFFD4FF4FA7401E0641EA4B2204802F07E
:1012C0001DFE012801D1002CF6D102F055FD1B486E
:1012D000FEF798FFE0B1194A1078732818D15078BA
:1012E000672815D19078672812D1B2F80D00D17B0C
:1012F00040BA000440EA0123107C03430021084661
:10130000145C401CC0B221440D28F9D3994201D08D
:10131000012010BD32F8030F41BA0A4801805188FC
:1013200049BA4180918849BAC180D18849BA81803F
:10133000117A0172517A4172002010BDFD350020F2
:10134000EC35002014010020FEE7884201DD08464C
:1013500070479042FCDA1046704700002DE9F047D4
:101360000446D4E90410FEF7B1FFE060E2690546E7
:1013700001461046FEF758FF0646E061A06910F0EE
:10138000FF4F00D1A5612846A169FEF79FFF0146E6
:10139000A068FEF7A1FFFFF737FA144FDFF850A05F
:1013A0003A465346FFF72DF9804689463146606834
:1013B000FEF792FFFFF728FA3A465346FFF7AFF8D9
:1013C00006460F4629462068FEF786FFFFF71CFAFF
:1013D00032463B46FEF7FCFF42464B46FEF7F8FF1F
:1013E000FFF725FAA5612062BDE8F087FA7E6ABCA6
:1013F0007493783F70B50C460546FFF7AFFF286A37
:1014000020612046BDE87040FFF7A8BF2DE9F047F6
:101410000446016915461E460068FEF705FF606038
:1014200081466169FEF700FF01464846FEF786FFE8
:101430008046E060A068FFF7E7F98A4607462A463B
:101440003346FFF769F805460E464046FFF7DCF9DC
:101450002A463346FFF763F83A465346FEF7B8FF8D
:10146000FFF7E5F90546A06041464FF07E50FEF7D4
:101470002DFF4946FEF730FF20602846BDE8F047C3
:10148000FFF7C2B92DE9F04107460846FFF74DF9CD
:101490004FF0333632460A4BFFF741F804460D460B
:1014A0003846FFF742F93246064BFFF738F8224636
:1014B0002B46FEF78DFFFFF76FF900B2BDE8F08114
:1014C0003333EB3F3333C33F2DE9F74F92B00E4632
:1014D00004464FF0FF311498FEF76EFFDFF86CB44E
:1014E00007905D46DBF80870DBF80080394640461F
:1014F000FEF7F2FED5F80C906D6882464946284604
:10150000FEF7EAFE5146FEF7E1FE0121FEF754FF29
:101510000F9049463846FEF7DFFE81462946404691
:10152000FEF7DAFE4946FEF77FFE0121FEF744FF93
:10153000109039460846FEF7CFFE07462946084672
:10154000FEF7CAFE3946FEF76FFE0121FEF734FFB3
:101550004FF07E51FEF7BDFE1190B4F90A00FFF77F
:10156000D6F80146FEF7B8FE0746B4F90800FFF7C3
:10157000CEF80146FEF7B0FE0546B4F90600FFF7C7
:10158000C6F80146FEF7A8FE2946FEF74DFE39468D
:10159000FEF74AFE03F05AF80546B4F90600FFF7D5
:1015A000B6F82946FEF798FE0190B4F90800FFF757
:1015B000AEF82946FEF790FE0290B4F90A00FFF754
:1015C000A6F82946FEF788FE039010990398FEF7C7
:1015D00083FE119905460298FEF77EFE2946FEF726
:1015E00075FE049011990198FEF776FE0F99054655
:1015F0000398FEF771FE2946FEF768FE05900F99E5
:101600000298FEF769FE109905460198FEF764FE00
:101610002946FEF75BFE06900498ABF1180739697E
:101620008A46FEF759FECA4D2968FEF7FDFD804641
:10163000286005985146FEF74FFE6968FEF7F4FDF5
:101640008146686006985146FEF746FEA968FEF797
:10165000EBFDA86004990546F868BA460E90FEF7BF
:101660003BFE0746B4F90000FFF751F8DAF808101E
:101670000091FEF731FE3946FEF7D6FD4146FEF7F2
:10168000D3FD0C9005990E98FEF726FE0746B4F997
:101690000200FFF73CF80099FEF71EFE3946FEF700
:1016A000C3FD4946FEF7C0FD0D9006990E98FEF762
:1016B00013FE0746B4F90400FFF729F80099FEF776
:1016C0000BFE3946FEF7B0FD2946FEF7ADFD0E9044
:1016D0000E99DBF80C005D460390FEF7FDFD0D99B9
:1016E0008046A8680190FEF7F7FD074668680990F4
:1016F00080F000400C99FEF7EFFD3946FEF7E6FD5D
:101700004146FEF7E3FD0799FEF7E6FD0E99074611
:101710000198FEF7E1FD0D9983460398FEF7DCFD85
:101720000C998046D5F800904846FEF7D5FD414615
:10173000FEF7CCFD5946FEF777FD0799FEF7CCFD85
:101740000E9980460998FEF7C7FD0D9983464846D5
:10175000FEF7C2FD0C9900900398FEF7BDFD0099BD
:10176000FEF762FD5946FEF7B1FD0799FEF7B4FD9D
:101770000E9900904846FEF7AFFD02900C99019833
:10178000FEF7AAFD0D9983460998FEF7A5FD594677
:10179000FEF79CFD0299FEF747FD0799FEF79CFDB9
:1017A000834639464846FEF73FFD8146286041465C
:1017B0000998FEF739FD80466860DDE90010FEF704
:1017C00033FD0746A86059460398FEF72DFD0146F4
:1017D000E860FEF781FD394600900846FEF77CFD83
:1017E000834641460846FEF777FD074649460846C8
:1017F000FEF772FD3946FEF717FD5946FEF714FD58
:101800000099FEF711FD02F021FF074639462868CE
:10181000FEF762FD8146286039466868FEF75CFD88
:10182000804668603946A868FEF756FD8346A86082
:101830003946E868FEF750FD0746E860012140465A
:10184000FEF7BAFD39460290FEF746FD0546012136
:101850004846FEF7B1FD81465946FEF73DFD294653
:10186000FEF734FD019048464146FEF735FD05463A
:1018700001215846FEF7A0FD81463946FEF72CFDB2
:101880002946FEF7D1FC009048465946FEF724FD54
:10189000054641460298FEF71FFD4FF07E51FEF7C8
:1018A00018FD2946FEF712FD8146B4F90400FEF743
:1018B0002EFFDAF80410FEF70FFDB0F17C5F02DCBA
:1018C000B0F13F4F06D91499FEF706FD3168FEF7D7
:1018D000ABFC30605546DAF80000FEF795FF07468E
:1018E00088460198FEF790FF04F014F943463A4603
:1018F000FEF715FEFEF79BFF70604946009804F066
:1019000041FA2968FEF7E8FCB060B4F90A00FEF776
:10191000FEFE4946FEF7E0FC0746B4F90800FEF774
:10192000F6FE0099FEF7D8FC0646B4F90600FEF76D
:10193000EEFE0199FEF7D0FC3146FEF775FC394604
:10194000FEF772FC686115B0BDE8F08F70000020F2
:1019500018050020704772B6FEE70000F8B50023B6
:10196000009390F824201C46012A12D0012280F80E
:1019700024204A681F26072A0DD205686F6B521E65
:1019800002EB82029640B7430E68964037436F637E
:1019900019E00220F8BD05680D2A0AD22F6BD21F6C
:1019A00002EB82029640B7430E68964037432F639E
:1019B00009E0EF6A0D3A02EB82029640B7430E68E7
:1019C00096403743EF620A68072605680A2A0AD359
:1019D000EF680A3A02EB42029640B7438E6896409F
:1019E0003743EF6008E02F6902EB42029640B743AD
:1019F0008E68964037432F610A68102A01D0112A59
:101A000020D1124D0268AA4217D195682D0219D42F
:101A1000956845F4000595600968102912D10C49B4
:101A20000C4A0968B1FBF2F101EB8101490000E0C9
:101A3000491E00910029FBD104E0816A41F0200198
:101A40008162012380F824401846F8BD002401403B
:101A50000C00002040420F000068C06C704700007E
:101A60002DE9F0414FF00006040035467DD0A06A14
:101A7000002728B9E76284F82470204600F07EF839
:101A80002046FFF7ABF8A16AC90600D420B1A06ACE
:101A900040F01000A06268E0A16A21F4885141F092
:101AA0000201A1626268E169237B0A4346EA4301BD
:101AB0000A43A1684FF48076B14208D0012906D0CC
:101AC000002194F814C0BCF1010F02D00AE03146A5
:101AD000F7E7F3B1A36A43F02003A362E36A43F09C
:101AE0000103E3622368D3F804C02CF4694C4CEA88
:101AF000010CC3F804C021688B68DFF874C003EAE6
:101B00000C0313438B60A168B1420BD0012909D0AB
:101B10000CE0DFF860C0A3690CEB43330B4343F4E4
:101B20000061DFE7218A0D05A5F580152168CB6AE4
:101B300023F470032B43CB62216889680E4B194054
:101B4000914208D1E762A16A21F0020141F001014E
:101B5000A162BDE8F081A06A20F0020040F0100010
:101B6000A062E06A40F00100E0620120F1E70000BD
:101B7000FDF7E1FF00E0FFFFFE0E1FFF00B585B09F
:101B80000021009101910291039100680E49884261
:101B900018D10E48816941F400718161816901F4B5
:101BA00000710491816941F0080181618069694691
:101BB00000F00800049002200090032001900448E7
:101BC00000F07AF805B000BD00240140001002408A
:101BD000000C014070B5044690F8240001280DD097
:101BE000012084F824002046FFF722F801004FF07E
:101BF000000205D084F82420084670BD022070BD84
:101C0000A06A40F20123984340F48070A0621F4D07
:101C100020681F4BA84218D11E6816F4702F14D0EC
:101C2000A66A46F48016A6621E68760505D5A66AE1
:101C300026F4005646F48056A662A66AF6040AD533
:101C4000E66A26F00606E66206E0A66A26F4801634
:101C5000A6624668E9E7E26284F824206FF0020297
:101C6000026020688268C2F34242072A05D1A84276
:101C700008D11A6812F4702F04D0826842F48012DE
:101C80008260B9E7826842F4A002F9E700280140C7
:101C90000424014070B5044600F002F90546601CBA
:101CA00002D004480078044400F0FAF8401BA04237
:101CB000FAD370BD000000202DE9F84FDFF8A491A1
:101CC0000024A9F1040B23464FF00F0809F1040A80
:101CD000ABF1040EBEE00127A7403A40BA4272D1F0
:101CE000DFF884C14D68A5EB0C0665452BD00DDCF3
:101CF000032D34D005DC35B3012D19D0022D2FD1A1
:101D00001BE0112D16D0122D2AD119E0B6F5881F2F
:101D100019D006DCB6F5803F15D0B6F5801F1FD16F
:101D200011E0B6F5001F0ED0B6F5041F18D10AE079
:101D3000CB6815E0CB681B1D12E0CB6808330FE0C1
:101D4000CB680C330CE08B682BB1012B4FF00803F0
:101D500003D0476104E0042302E0076100E00023B0
:101D6000FF2A01D8064601E000F104064FEA840587
:101D700001D9A5F12005376808FA05FC27EA0C0708
:101D800003FA05F547EA050737604D68ED0060D5B1
:101D9000364DAE6946F00106AE61AD6924F003062A
:101DA00005F001050095324D7719BE68A5072D0F86
:101DB00008FA05FC26EA0C06DFF8B8C0604503D136
:101DC0004FF0000C17E044E0DFF8ACC0604502D1F2
:101DD0004FF0010C0FE0DFF8A4C0604502D14FF0D6
:101DE000020C08E0DFF898C0604502D14FF0030C08
:101DF00001E04FF0040C0CFA05FC4CEA060CC7F8A5
:101E000008C04D68D9F80060ED024D4601D5164373
:101E100000E096432E604D68DAF80060AD0255464A
:101E200001D5164300E096432E604D68DBF8006054
:101E3000AD035D4601D5164300E096432E604D6824
:101E4000DEF80060ED03754601D5164300E09643C9
:101E50002E60641C0A6832FA04F57FF43CAFBDE8DA
:101E6000F88F00000804014000001110001002402B
:101E70000000014000080140000C0140001001403A
:101E800000140140C26821EA02030A4043EA024109
:101E9000016170470AB1016170470904FBE7000066
:101EA00001488068704700000000002070B5040001
:101EB00025D094F83D00002520B984F83C502046F8
:101EC00000F07EFA242084F83D002068016821F0AB
:101ED000010101602068016841F40041016020684F
:101EE000016821F40041016000F050FC4D4B616835
:101EF000994201D84C4900E04C49884201D2012066
:101F000070BD4B492268B0FBF1F1566826F03F06E0
:101F10000E43566062689A4206D94FF49672514356
:101F20004FF47A72B1FBF2F12268491C166A26F06E
:101F30003F06314311626168994210D84900401E42
:101F4000B0FBF1F2521CC2F30B02042A01D20420AE
:101F500022E0B0FBF1F0401CC0F30B001CE0A268D3
:101F6000F2B301EBC10303EB0116431EB3FBF6F31F
:101F70005B1C43F480431B0549D092B301EBC102C3
:101F800002EB0111401EB0FBF1F0401CC0F30B004E
:101F900040F4804040F400402168CA694CF6FF7369
:101FA0009A431043C861D4E90710014320680268CE
:101FB00022F0C00211430160D4E90301014320680B
:101FC000826848F2FF339A4311438160D4E90510D7
:101FD00001432068C26822F0FF021143C16001E0A2
:101FE0000EE016E02068016841F0010101602564FF
:101FF000202084F83D00256384F83E50002070BD09
:1020000001EB4106431EB3FBF6F35B1CB3E7012073
:10201000C2E701EB4101401EB0FBF1F0401CC0F3F0
:102020000B00B7E7A086010080841E0000093D0078
:1020300040420F002DE9FF4F83B00026DDE9107903
:102040009A4693460446DDF848800096FFF728FF3D
:10205000054694F83D0020287CD1192301228849A7
:102060002046009501F051FB0028F5D194F83C0082
:1020700001286FD0012084F83C0020680168C9075E
:1020800003D1016841F0010101602068016821F479
:1020900000610160222084F83D00402084F83E0069
:1020A00026646762A4F82A90608D20857548E062F6
:1020B000CDE9008553465A462046049901F028FA96
:1020C00000287CD1208DDFF8C091202768B101283D
:1020D00014D00228206801681ED041F4806101609C
:1020E0002068416980690090BCE02068416981698D
:1020F0000091016841F400710160B3E0206801685B
:1021000021F48061016072B62068416981690091A3
:10211000016841F400710AE041F40061016072B6A7
:102120002068416981690091016821F48061016042
:1021300062B697E0032865D801280CD002284346F0
:102140004FF000024946204600950BD001F0DDFA21
:10215000A8BB0CE091E02A464146204601F076FB00
:1021600068BB72E001F0D1FA48BB72B633E0206878
:10217000016821F48061016072B620680069616ABB
:102180000870606A401C6062208D401E2085608D52
:10219000401E60853D4846F2A8110068B0FBF1F092
:1021A000C0EBC00000EB80000090401E009007D004
:1021B00020684069C04340070DD50098F5E727E047
:1021C00044F8306F6773A673206940F020002061E7
:1021D00062B626731CE02068016841F4007101605A
:1021E00020680069616A0870606A401C6062218D25
:1021F000491E2185618D491E618562B62168096984
:10220000017026E02A464146204601F01FFB18B126
:10221000012007B0BDE8F08F20680069616A08708E
:10222000606A401C6062208D401E81B22185608DF5
:10223000401E608520684269D243520712D40329A8
:1022400003D1016821F48061016020680069616A3E
:102250000870606A401C6062208D401E2085608D81
:10226000401E6085208D00287FF464AF84F83D70A7
:1022700084F83E6084F83C60CBE70220C9E70000A8
:10228000020010000000FFFF040001000C0000200D
:102290002DE9FF4F83B09A46DDE911979346044636
:1022A000DDF84080FFF7FCFD054694F83D0020284E
:1022B0007FD11923012240492046009501F025FADB
:1022C000002876D194F83C00012872D0012084F8CF
:1022D0003C0020680168C90703D1016841F0010191
:1022E00001602068016821F400610160212084F808
:1022F0003D00402084F83E0000262664C4F8248077
:10230000A4F82A90608D20852C48E062CDE9007504
:1023100053465A462046049901F078F970B930E0E6
:102320002A463946204601F0CBFA58B1206C0428E1
:1023300004D12068016841F400710160012007B0F8
:10234000BDE8F08F606A216800780861626A521CFB
:102350006262208D401E80B22085618D491E61859C
:1023600021684B69DB435B070BD468B110780861C7
:10237000606A401C6062208D401E2085608D401E7A
:102380006085208D0028CBD12A463946204601F0B1
:1023900091F90028CAD154F83D0B016841F400714D
:1023A0000160202004F81E09E67766770020C6E762
:1023B000FFE70220C3E70000020010000000FFFF5B
:1023C00030B585B0002100910191029103911E4D1D
:1023D00001681E4C122203231D48A94216D1A1698F
:1023E00041F00801A161A169039301F00801049182
:1023F000C021CDE900126946FFF75EFCE06940F4B8
:102400000010E061E06900F4001019E0114DA942EC
:1024100017D1A16941F00801A161A169039301F0FD
:10242000080104914FF44061CDE900126946FFF7BD
:1024300043FCE06940F48000E061E06900F4800062
:10244000049005B030BD0000005400400010024070
:10245000000C014000580040024881680278114495
:102460008160704700000020074810B5016841F006
:1024700010010160032000F067F80F2000F006F85B
:1024800000F024F8002010BD0020024070B50D4D72
:1024900004464FF47A712878B1FBF0F00A490968D4
:1024A000B1FBF0F000F0C9FC48B9102C07D20022B3
:1024B0002146501E00F028F800206C6070BD0120FD
:1024C00070BD0000000000200C0000200C4808B582
:1024D000816941F001018161816901F0010100918F
:1024E000C16941F08051C161C069064900F0805066
:1024F0000090486820F0E06040F00070486008BD3F
:102500000010024000000140F0B40E4B1B68C3F302
:102510000223C3F10704042C00D904241D1D072D38
:1025200001D2002300E0DB1E012606FA04F56D1E31
:102530000D409D409E40761E164045EA0601F0BCC7
:1025400002F00BBE0CED00E0064A00F00701106837
:102550004FF6FF03184040EA01200349084310608A
:10256000704700000CED00E00000FA052DE9F8438B
:1025700004460078344FC00752D0F8690025C000E7
:1025800008D4F86940F08050F861F869012500F03E
:10259000805000902D480168C90511D4016880461B
:1025A00041F480710160FFF77BFC064604E0FFF711
:1025B00077FC801B642822D8D8F80000C005F6D527
:1025C000386A10F4407020D0A18801F44071814233
:1025D0001BD0386A1E49012220F440700A60002294
:1025E0000A603862C00710D0FFF75AFC064641F275
:1025F000883807E0FFF754FC811B414502D90320CE
:10260000BDE8F883386A8007F4D5386A616820F439
:102610004070084338621DB1F86920F08050F861BD
:102620002078800705D57868A16820F440400843E9
:1026300078602078C00605D57868E16820F48000CD
:10264000084378600020DBE7001002400070004083
:10265000400442422DE9F0470D46040067D0DFF800
:102660001881D8F8000000F00700A8420CD2D8F872
:10267000001021F007012943C8F80010D8F8000025
:1026800000F00700A84252D120683C4E810712D5C5
:10269000400703D5706840F4E06070602078000760
:1026A00003D5706840F4605070607068A16820F0D5
:1026B000F000084370602078C00727D060680128C8
:1026C00010D03168022810D0890700292FDA7168EC
:1026D00021F0030101437160FFF7E2FB074641F27D
:1026E00088390CE031688903EFE78901EDE7FFF7EE
:1026F000D7FBC11B494502D90320BDE8F0877068AC
:10270000616800F00C00B0EB810FF0D1D8F8001038
:10271000404601F00701A9420BD9016821F00701E9
:1027200029430160006800F00700A84201D00120A1
:10273000E3E72078400705D57068E16820F4E060A1
:10274000084370602078000706D57068216920F47E
:10275000605040EAC100706000F038F87168084AC3
:10276000C1F30311515CC84006490860064800687F
:10277000FFF78CFE0020C0E700200240001002405E
:10278000FA6C00080C0000200400002004480549F1
:1027900000684968044AC1F30221515CC84070478F
:1027A0000C000020001002400A6D00080448054992
:1027B00000684968044AC1F3C221515CC8407047AF
:1027C0000C000020001002400A6D00080E4B5968F2
:1027D0000E4801F00C02042A11D0082A0FD10C482F
:1027E000C1F38342C903805C0AD55968084AC1F322
:1027F0004041921E515C054A5043B0FBF1F07047D6
:1028000004494843704700000010024000127A005B
:10281000EA6C000800093D002DE9F84F04006FD074
:102820002078BE4DC00747D06868C0F381000128FA
:1028300007D06868C0F38100022809D16868C00326
:1028400006D52868800337D560680028E7D033E0D4
:102850006068B0F5803F0BD010B1B0F5A02F11D05B
:10286000286820F480302860286820F4802002E066
:10287000286840F480302860606888B1FFF710FB5A
:10288000064609E0286840F480202860F0E7FFF75A
:1028900007FB801B642873D828688003F7D50BE0FA
:1028A000FFF7FEFA064604E0FFF7FAFA801B6428F9
:1028B000F1D828688003F7D42078DFF86482800795
:1028C0004FF0010A4FF0000939D5686810F00C0F7D
:1028D00007D06868C0F38100022809D16868C00386
:1028E00006D42868800714D52069012808D110E093
:1028F0002069B0B1C8F800A0FFF7D2FA064605E09B
:1029000007E1FFF7CDFA801B0228C4D828688007AA
:10291000F7D52868616920F0F80040EAC100286016
:102920000DE0C8F80090FFF7BBFA064604E0FFF799
:10293000B7FA801B022823D828688007F7D42078AC
:1029400000072CD57748A169D9B1C0F800A0FFF7DE
:10295000A7FA064604E0FFF7A3FA801B02280FD867
:10296000686A8007F7D570484FF4FA510068B0FBE9
:10297000F1F0009000BF0098411E0091FAD20EE0E5
:102980007CE0C0F80090FFF78BFA064604E0FFF702
:1029900087FA801B022871D8686A8007F7D42078EC
:1029A00040075BD5E8690027C00008D4E86940F01B
:1029B0008050E861E869012700F0805000905B4892
:1029C0000168C90511D40168834641F48071016032
:1029D000FFF766FA064604E0FFF762FA801B6428F8
:1029E0004CD8DBF80000C005F6D5E06801280AD015
:1029F00008B1052813D0286A20F001002862286A4F
:102A000020F0040002E0286A40F001002862E0683B
:102A100041F2883B88B1FFF743FA064609E0286A8D
:102A200040F004002862EEE7FFF73AFA811B5945AF
:102A30005BD8286A8007F7D50BE0FFF731FA064626
:102A400004E0FFF72DFA811B59454ED8286A80070C
:102A5000F7D41FB1E86920F08050E861E069A8B3BD
:102A60006968C1F38101022946D00228484606D090
:102A7000C8F86000FFF714FA044639E035E047462D
:102A8000C8F86000FFF70CFA064604E0FFF708FA02
:102A9000801B022829D828688001F7D4206AB0F565
:102AA000803F05D16868A16820F400300843686061
:102AB000D4E908010843696821F474110843686087
:102AC000C7F860A0FFF7ECF9044605E023E0FFF744
:102AD000E7F9001B022808D828688001F7D51AE01A
:102AE000FFF7DEF9001B022802D90320BDE8F88FAA
:102AF00028688001F4D40EE00128F7D06868226AC3
:102B000000F48031914204D1616A00F4701088426F
:102B100001D00120EAE70020E8E7000000100240B1
:102B200000004242800442420C000020007000403D
:102B300070B5040009D0606A002540B12561656167
:102B4000A56294F8510040B10CE0012070BD6068AE
:102B5000B0F5827FF4D0E561F2E784F8505020466A
:102B600000F040F8022084F851002068016821F04C
:102B700040010160A088218900F4827001F40441C1
:102B80000843A18901F400610843217C01F002019E
:102B90000843217D01F001010843218B01F40071FC
:102BA0000843217F01F03801084394F8201001F018
:102BB00080010843218D01F4005108432168086019
:102BC000A069042101EA1040216848602068C169B9
:102BD00021F40061C1616565012084F85100002085
:102BE00070BD000030B585B00024009401940294BB
:102BF000039400681449884223D11448816941F440
:102C000080518161816901F480510491816941F0B1
:102C10000401816180690E4D00F004000490A02041
:102C20000090022001900320039069462846FFF798
:102C300043F84020CDE90004694628460294FFF796
:102C40003BF805B030BD00000030014000100240EC
:102C5000000801402DE9FF4F81B01F46934604460E
:102C600001250E9EFFF71CF9804694F8510061681B
:102C7000012806D0B1F5827F3CD1A168C9BB0428E8
:102C800038D10298002870D0BBF1000FFBD0002F84
:102C9000F9D094F8500001282CD04FF0010A84F8A4
:102CA00050A094F85100042802D0052084F8510067
:102CB0004FF00009C4F85490C4F838B0E787A787EC
:102CC00002992163E786A786C4F84090C4F844902F
:102CD00020680168490603D4016841F040010160A1
:102CE000E068B0F5006F606808D0E8B3012F47D006
:102CF0007DE0FFE7022005B0BDE8F08F08B1012FAD
:102D000037D1206B21680088C860206B801C20634D
:102D1000E08E401EE0862CE02068816889070DD592
:102D2000E18E59B1012D09D1216B0988C160206B59
:102D3000801C2063E08E401EE086002520688168AC
:102D4000C9070BD0E18F49B1C068A16B0880A06BA7
:102D5000801CA063E08F401EE0870125FFF7A0F8EC
:102D6000A0EB0800B04201E00AE064E001D3701C6F
:102D70004ED1E08E0028CFD1E08F0028CCD13CE0AE
:102D8000206B216800780873206B401C2063E08E64
:102D9000401EE0862BE02068816889070DD5E18E12
:102DA00059B1012D09D1216B09780173206B401CA9
:102DB0002063E08E401EE086002520688168C907F8
:102DC0000BD0E18F49B1C068A16B0870A06B401CAB
:102DD000A063E08F401EE0870125FFF761F8A0EBBC
:102DE0000800B04202D3701C01D011E086B1E08E21
:102DF0000028D0D1E08F0028CDD142463146204670
:102E000001F040FC50B12020606584F8509012E041
:102E100084F851A084F8509003206CE7A06818B99A
:102E20002068C1688068009084F851A084F85090B0
:102E3000606D0028F1D001205DE710B5401EB0F1B3
:102E4000807F01D3012010BD4FF0E02460610F218D
:102E5000601702F082F90020A061072020610020A5
:102E600010BD10B590F83C20012A22D0012280F834
:102E70003C20CA688C6822F4407222434C6822F4D9
:102E8000806222430C6822F4006222430C6922F41F
:102E9000805222434C6922F400522243C969002324
:102EA00022F480420A4301684A6480F83C300020E2
:102EB00010BD022010BD000070B590F83C20012A22
:102EC00026D0012580F83C50022280F83D2002687F
:102ED0005368946823F070060B68334353600D4BBE
:102EE00002689A4208D0B2F1804F05D00A4B9A424C
:102EF00002D00A4B9A4204D1496824F08003194356
:102F0000916080F83D50002180F83C10084670BD6B
:102F1000022070BD002C0140000400400008004069
:102F200010B5040003D094F83D0010B107E0012073
:102F300010BD002084F83C00204600F01FF802205D
:102F400084F83D00211D206801F070FC012084F808
:102F5000460084F83E0084F83F0084F8400084F87E
:102F6000410084F8420084F8430084F8440084F867
:102F7000450084F83D00002010BD000008B5006841
:102F80000649884208D10648816941F4006181619F
:102F9000806900F40060009008BD0000002C014032
:102FA0000010024070B5044690F83C00002501284E
:102FB00017D0012684F83C60022084F83D00206888
:102FC000826822F0770222F47F42826008685028EB
:102FD00038D00DDC20284FD005DC90B3102811D15B
:102FE0004AE0022070BD302846D040280AD13BE09C
:102FF00060282FD070280DD0B0F5805F03D0B0F5D9
:10300000005F12D0012584F83D60002084F83C0068
:10301000284670BDCB68D1E90121206801F04FFC42
:103020002068816841F0770109E0CB68D1E901218E
:10303000206801F044FC2068816841F4804181608F
:10304000E1E719E0CA684968206801F0F3FC502103
:10305000206806E0CA684968206801F0FCFC60212D
:10306000206801F036FCCEE7CA684968206801F0A4
:10307000E1FC40212068F4E7226801461046F0E7B1
:1030800010B586B000210091019102910391284C66
:103090000168284B02222848A14209D1996941F0D0
:1030A00004019961996901F00401049101153BE063
:1030B000B1F1804F1DD0214C2148A14228D19969FE
:1030C00041F0080199619969039201F008010491A6
:1030D0001021CDE900126946FEF7EEFD1949486856
:1030E00020F4406040F0E06040F40060486006B0CA
:1030F00010BD996941F0040199619969009201F04C
:1031000004010192CDE903216946FEF7D5FDEEE702
:103110000D4CA142EBD1996941F00801996199697F
:1031200001F0080104916115CDE900120392EBE76B
:10313000002C014000100240000801400004004043
:10314000000C0140000001400008004070B504463A
:1031500090F83C0000260D4601280FD0012084F88D
:103160003C006AB1042A1DD0082A2FD00C2A3FD077
:103170000126002084F83C00304670BD022070BD5E
:10318000206801F0AFFB2068816941F0080181618E
:103190002068816921F004018161206881692A69C0
:1031A000114311E0206801F0C9FB2068816941F4F6
:1031B000006181612068816921F4806181612068FA
:1031C00081692A6941EA02218161D2E7206801F020
:1031D000E3FB2068C16941F00801C1612068C16951
:1031E00021F00401C1612068C1692A69114311E01D
:1031F000206801F0FDFB2068C16941F40061C161F4
:103200002068C16921F48061C1612068C1692A69AF
:1032100041EA0221C161ACE710B5040003D094F883
:103220003D0010B107E0012010BD002084F83C00F3
:10323000204600F01FF8022084F83D00211D206880
:1032400001F0F4FA012084F8460084F83E0084F886
:103250003F0084F8400084F8410084F8420084F87C
:10326000430084F8440084F8450084F83D000020C1
:1032700010BD000008B500681149B0F1804F0BD0B7
:10328000104A904210D1C86940F00200C861C86974
:1032900000F00200009008BDC86940F00100C8615C
:1032A000C86900F00100F5E7074A9042F3D1C86908
:1032B00040F00400C861C86900F00400EAE70000BB
:1032C00000100240000400400008004010B5044611
:1032D00049B104290AD008290BD094F841000128EB
:1032E0000AD0012010BD94F83E00F8E794F83F00A2
:1032F000F5E794F84000F2E7022041B3042929D011
:1033000008292AD084F841000122206801F0CAFA75
:1033100013492068884203D1426C42F4004242645F
:103320002068884208D0B0F1804F05D00D4988420E
:1033300002D00D49884204D1816801F007010629B5
:1033400003D0016841F001010160002010BD84F844
:103350003E00D9E784F83F00D6E784F84000D3E781
:10336000002C0140000400400008004070B504003B
:1033700004D094F84100002510B106E0012070BD92
:1033800084F84050204600F023F8242084F84100BF
:103390002068C16821F40051C160204601F094FB0F
:1033A0002068016921F4904101612068416921F0A0
:1033B0002A0141612068C16841F40051C16065641F
:1033C000202084F8410084F842006563002070BD2D
:1033D00030B585B0002400940194029403940068F1
:1033E0001449884223D11448C16941F40031C161B4
:1033F000C16901F400310491816941F004018161E6
:1034000080690E4D00F0040004900420009002201A
:1034100001900320039069462846FEF74DFC0820E2
:10342000CDE90004694628460294FEF745FC05B044
:1034300030BD000000440040001002400008014080
:103440002DE9F843044690F841001F4615460E4604
:10345000202802D00220BDE8F8838EB185B100207B
:103460006064212084F84100FEF71AFDA58481469E
:10347000E584A0684FF02008B0F5805F02D003E03B
:103480000120E8E7206910B1354600260EE000254E
:103490000CE08021204601F073FBA0B9BDB115F806
:1034A000010B21684860E08C401EE084E08C4B46B4
:1034B0004FF0000200970028EBD14FF0400120466A
:1034C00001F05EFB40B184F841800320C3E736F889
:1034D000020BC0F30800E4E784F841800020BAE75B
:1034E000FEE701684A69D24352050FD46FF4806247
:1034F0004A61002140F8301F202242738173026923
:1035000042F00402026101730120704700207047FD
:103510002DE9F84F0446006889460B9E01689846DD
:10352000174641F4806101602068016841F48071B0
:10353000016000964FF0011B0022594620460A9B6D
:1035400000F0E3F84FF4007A40B120680068C0054D
:1035500001D5C4F840A00320BDE8F88F216809F028
:10356000FE0008613346284920460A9A00F011F906
:10357000F0BB2068416980690090324620460A9974
:1035800000F09EF940B1206C04283AD1206801680F
:1035900041F40071016034E0FDB2B8F1010F09D0CF
:1035A0002168380A0861324620460A9900F088F9F5
:1035B0000028E8D120680561324620460A9900F0CB
:1035C0007FF90028DFD12068016841F48071016033
:1035D00000960022594620460A9B00F096F80028E3
:1035E000B3D1216809F0FF0040F00100086100E05C
:1035F00007E03346044920460A9A00F0CAF800283A
:10360000AAD00120A8E70000020001002DE9F8433C
:10361000044600680D46DDE908970168984616469D
:1036200041F4807101604B4600224FF001112046A9
:10363000009700F06AF848B120680068C00502D51C
:103640004FF4007020640320BDE8F883216805F082
:10365000FE0008613B464A461549204600F099F8AD
:1036600088B920684169806900903A4649462046F9
:1036700000F026F948B1206C042804D120680168C4
:1036800041F4007101600120DEE7F5B2B8F1010FED
:1036900009D02168300A08613A464946204600F0C0
:1036A0000FF90028E7D1206805610020CCE7000071
:1036B0000200010070B516460D4604461EE0204685
:1036C000FFF70FFF08B1012070BD681C16D0FEF790
:1036D000E7FB801BA84200D885B920684069C04339
:1036E00040070BD5002044F8300F20216173A073F0
:1036F000216941F0200121612073E4E720684069DD
:10370000C0434007DBD4002070BD2DE9F0471E46C2
:1037100090460D460446C1F30747DDF8209026E0A9
:10372000701C24D0FEF7BCFBA0EB0900B04200D80F
:10373000EEB92068012F16D0806925EA0000000448
:10374000000C12D00020404511D1002044F8300F69
:1037500020216173A073216941F020012161207350
:103760000120BDE8F0874069E7E70120EBE720682A
:10377000012F0AD0806925EA00000004000C06D061
:1037800000204045CCD00020EBE74069F3E7012062
:10379000F7E72DE9F047984616460D4604464FF0E8
:1037A00000094FF0200AC1F3074723E02068406971
:1037B000C043400515D42068016841F400710160E0
:1037C00021686FF480604861C4F8309084F83DA0AF
:1037D00084F83E90216C41F00401216484F83C900F
:1037E00020E0701C06D0FEF75BFBA0EB0800B042A7
:1037F00003D816B1012F1ED020E02068012F14D06D
:10380000806925EA00000004000C17D044F8309FBE
:1038100084F80DA084F80E90216941F02001216107
:1038200084F80C900120BDE8F087406925EA00008B
:103830000004000CEAD12068406901E0206880693A
:1038400025EA00000004000CB0D1ECE72DE9F041BE
:1038500016460D46044600274FF0200829E040692F
:10386000C043C0060DD454F8301B6FF010004861FF
:1038700044F80D7B04F81D89A777206A206227771A
:1038800014E0FEF70DFB801BA84200D88DB920681C
:103890004069C04340060CD544F8307F84F80D8061
:1038A000A773206940F02000206127730120BDE844
:1038B000F08120684169C9434906D0D40020F6E769
:1038C00070B516460D4604461EE02046FFF709FE79
:1038D00008B1012070BD681C16D0FEF7E1FA801B0C
:1038E000A84200D885B920684069C04300060BD5BE
:1038F000002044F8300F20216173A073216941F04A
:10390000200121612073E4E720684069C04300067C
:10391000DBD4002070BD000010B5B0F90610B1F581
:103920007A7F12DD2F2113A0FCF773FC28B12F2121
:1039300010A0FCF76EFC401C00E00EA00146BDE8A4
:1039400010400C2211A001F0BDBB82883AB1042ABC
:1039500009D00068082A006809D0016410BD006819
:103960000068416310BD00680068816310BDC163D9
:1039700010BD0000696E746572666163655C496EB6
:10398000745F6D6F746F722E630000005B25733A75
:1039900025645D204D6F746F7220737065656420BF
:1039A000697320746F6F20686967680D0A000000F2
:1039B000016882880023096842B1042A08D0082AD5
:1039C00008D00B6481880068FFF780BC4B63F9E77F
:1039D0008B63F7E7CB63F5E72DE9F04FDFF80CB128
:1039E0008BB00025CBF80050CBF80450CBF8085032
:1039F000CBF80C50CBF81050CBF814500995089523
:103A000004952C4604A8059500F072F840F21E3685
:103A100008A800F06DF8BDF92000BDF91010401A9B
:103A200000F28F10B04214D8BDF92200BDF9121077
:103A3000401A00F28F10B0420BD8BDF92400BDF936
:103A40001410401A00F28F10B04202D8641CE4B285
:103A500000E00024DDE90801CDE90401062002F0C0
:103A6000B1FE642CD4D34FF0000A00950195029565
:103A7000D1465546D046574656465446684600F00D
:103A800079F8BDF90A00BDF90610A5F58045054491
:103A90008A44BDF90200BDF9081007448944BDF904
:103AA0000400BDF9001006448844062002F08AFE96
:103AB000641CE4B2642CE1D364219AFBF1F2CBF8EC
:103AC000002099FBF1F2CBF8042095FBF1F2CBF842
:103AD000082098FBF1F2CBF80C2097FBF1F296FB53
:103AE000F1F1CBE904210BB0BDE8F08F5C020020BE
:103AF0001CB5044600208DF804008DF8000001A9D3
:103B00003B2000F0BBF869463C2000F0B7F89DF878
:103B100000009DF8041040EA0120208001A93D200A
:103B200000F0ACF869463E2000F0A8F89DF80000CF
:103B30009DF8041040EA0120608001A93F2000F0B8
:103B40009DF86946402000F099F89DF800009DF826
:103B50000410228840EA012105480388D21A2280F5
:103B600062888388D21A62800089081AA0801CBDEE
:103B70005C02002010B5044600F006F8A01DBDE868
:103B80001040FFF7B5BF00001CB5044600208DF8BB
:103B900004008DF8000001A9432000F06FF8694689
:103BA000442000F06BF89DF800009DF8041040EAF6
:103BB0000120208001A9452000F060F869464620D8
:103BC00000F05CF89DF800009DF8041040EA012028
:103BD000608001A9472000F051F86946482000F0B4
:103BE0004DF89DF800009DF80410228840EA01215C
:103BF00005488389D21A22806288038AD21A628099
:103C0000808A081AA0801CBD5C02002008B58021B3
:103C10006B2000F043F800208DF8000069466B200F
:103C200000F02CF89DF800004028F7D100216B200F
:103C300000F034F818211B2000F030F800211C207F
:103C400000F02CF80021382000F028F800216A202C
:103C500000F024F80121192000F020F801211A2099
:103C600000F01CF801216B2000F018F800216C20F6
:103C700000F014F8FFF7B0FE08BD00003EB5642365
:103C800000910124CDE9014302462346D121024897
:103C9000FEF7D0F93EBD0000B002002013B584B09D
:103CA0006424012305A98DE81A000246D0210248A8
:103CB000FEF7EEFA06B010BDB002002010B50522E6
:103CC0000E49102000F08EF80C490522491F3020C3
:103CD00000F04AF905220949102000F083F807494D
:103CE00000204A1F0B5C145CA34201D0012010BDD0
:103CF000401CC0B20528F5D3002010BD550200209D
:103D000010B5C82000E00A20FDF7C4FFFFF7D6FF7A
:103D10000128F8D000F030F82F2109A0FCF779FA3B
:103D200028B12F2106A0FCF774FA401C00E004A083
:103D30000146BDE81040E32207A001F0C3B900002E
:103D4000696E746572666163655C496E745F534940
:103D5000323452312E6300005B25733A25645D20B6
:103D600053493234523120496E697420537563636C
:103D7000657373210D0A000070B5184D4FF48074FF
:103D8000002221462846FEF785F8052214492A20FC
:103D900000F0EAF80121212000F00AF90121222097
:103DA00000F006F92821252000F002F91121312028
:103DB00000F0FEF80621262000F0FAF80F2120205E
:103DC00000F0F6F8FF21272000F0F2F821462846FF
:103DD000BDE870400122FEF75DB800000008014018
:103DE000500200202DE9F041DFF83C8015460E46D8
:103DF0000446002210214046FEF74CF8204600F011
:103E00005BFC0746002405E0002000F055FC30551F
:103E1000641CE4B2AC42F7D3012210214046FEF705
:103E200039F83846BDE8F0810008014070B50A4C09
:103E30000546002210212046FEF72CF8284600F007
:103E40003BFC002000F038FC0546012210212046F2
:103E5000FEF720F8284670BD0008014070B5054601
:103E60000720FFF7E3FF04460146272000F0A0F8F3
:103E700060060AD5112229466120FFF7B3FFFF2112
:103E8000E22000F095F8002070BD012070BD000018
:103E900070B5184D4FF48074002221462846FDF776
:103EA000F9FF05221449302000F05EF8052212497E
:103EB0002A2000F059F80121212000F079F8012191
:103EC000222000F075F80A21242000F071F8282142
:103ED000252000F06DF80621262000F069F80E215B
:103EE000202000F065F821462846BDE870400122F8
:103EF000FDF7D0BF000801405002002070B5194DF9
:103F000006464FF48074002221462846FDF7C2FF82
:103F100011223146A02000F027F801222146284630
:103F2000FDF7B8FF0720FFF781FF044606E00720F2
:103F3000FFF77CFF0446012002F044FC14F0300F30
:103F4000F5D02146272000F033F8E00604D5FF2104
:103F5000E12000F02DF803E0A00601D5002070BD9F
:103F6000012070BD000801402DE9F041DFF83C80E0
:103F700016460D460446002210214046FDF78AFFF2
:103F8000204600F099FB0746002405E015F8010BD8
:103F900000F092FB641CE4B2B442F7D3012210217A
:103FA0004046FDF777FF3846BDE8F0810008014044
:103FB00070B50B4C0E460546002210212046FDF739
:103FC00069FF284600F078FB0546304600F074FB98
:103FD000012210212046FDF75DFF284670BD00003C
:103FE0000008014010B5104C002204212046FDF7C6
:103FF00051FF642002F0E6FB012204212046FDF778
:1040000049FFC82002F0DEFB002204212046FDF714
:1040100041FF642002F0D6FB20460122BDE810409B
:104020000421FDF737BF0000000C014010B5084C1B
:10403000002204212046FDF72DFF642002F0C2FB80
:1040400020460122BDE810400421FDF723BF0000F7
:10405000000C014008B50020ADF800000348694697
:10406000008800F0F2FDBDF8000008BD74020020D9
:104070003EB5304D4FF48054002221462846FDF7CE
:1040800009FF022002F09EFB012221462846FDF78F
:1040900001FF022002F096FB0020274C8DF8000063
:1040A000ADF804008DF8080040F20F156A46294665
:1040B000208800F08DFF9DF8001020A001F002F88C
:1040C0006A46691C208800F083FF9DF8001021A03B
:1040D00000F0F8FF01AA2946208800F08BFFBDF808
:1040E000041023A000F0EEFF06E002A9208800F0F3
:1040F00080FD022002F066FB9DF808000028F4D045
:104100001FA000F0DFFF208800F014FE02212088AD
:1041100000F04CFE1421208800F0BCFE1421208801
:1041200000F096FE1AA000F0CDFF208800F048FFB6
:104130003EBD0000000C014074020020564C353397
:104140004C3158204D6F64656C5F49443A202558C6
:104150000A000000564C35334C3158204D6F6475C1
:104160006C655F547970653A2025580A000000009C
:10417000564C35334C31583A2025580A000000007F
:104180004368697020626F6F7465640A0000000004
:10419000564C35334C315820556C747261204C6943
:1041A000746520447269766572204578616D706C23
:1041B000652072756E6E696E67202E2E2E0A0000C5
:1041C00010B5002220210448FDF764FEBDE8104030
:1041D0000248FDF7FFBC0000000C014080020020F7
:1041E00010B50648FDF738FCFCF79AFA0449FCF7CD
:1041F000A5F8BDE810400349FCF76EB88002002026
:1042000000F07F453333534081880068FDF73ABEA4
:10421000818800680122FDF73DBE81880068002288
:10422000FDF738BE3EB500211148009101910F4ABB
:104230000291026001248160047301754FF46022D1
:104240000461C2614160FDF70BFC08B1FDF783FB1F
:104250000920CDE900040220029069460448FDF7D8
:104260007DFB002801D0FDF776FB3EBD0024014018
:10427000800200202DE9F04385B0002429480094F5
:10428000019402940394816941F010018161816974
:1042900001F010010491816941F02001816181697F
:1042A00001F020010491816941F00401816181697B
:1042B00001F004010491816941F008018161806984
:1042C000DFF8648000F008000490012241F610013C
:1042D0004046FDF7DFFDDFF854904DF22407012240
:1042E00039464846FDF7D6FD00224FF4807140461E
:1042F000FDF7D0FD41F610100126CDE9000602259C
:1043000069464046CDE90245FDF7D6FCCDE9007689
:1043100069464846CDE90245FDF7CEFC05B0BDE84B
:10432000F08300000010024000080140000C014032
:104330000D4810B50B4901600C49416000214FF454
:1043400080428160C0E9031241618161C161016203
:10435000FDF7ACFD002803D0BDE81040FDF7FBBA27
:1043600010BD000000540040B0020020A0860100F3
:104370000D4810B50B4901600C49416000214FF414
:1043800080428160C0E9031241618161C1610162C3
:10439000FDF78CFD002803D0BDE81040FDF7DBBA27
:1043A00010BD00000058004004030020801A0600E1
:1043B000104810B50E4901604FF482714160002130
:1043C0008160C1604FF400720161C0E905121022E2
:1043D000C0E90721416281620A21C162FEF7A8FBA0
:1043E000002803D0BDE81040FDF7B5BA10BD0000AD
:1043F000003001405803002010B596B000240F94FF
:1044000010941194129413941C2108A81494FBF78F
:10441000EEFE20216846FBF7EAFE284826490160A7
:104420000321C0E9011440F2E731C0E903144461FB
:104430008461FEF775FD08B1FDF78DFA4FF48050E9
:104440000F900FA91D48FEF7ADFD08B1FDF783FAE7
:104450001A48FEF7E1FE08B1FDF77DFA139413A99F
:1044600016481494FEF728FD08B1FDF774FA602091
:10447000CDE908040A940B940C940D94082208A921
:104480000E480E94FEF762FE08B1FDF764FA009440
:104490004FF40050CDE9044002940194039469461E
:1044A00006480794FEF7DDFC08B1FDF754FA03480F
:1044B000FEF7E6FD16B010BD002C0140B003002051
:1044C00010B58AB0002407941C2168460894FBF7B5
:1044D0008EFE16484FF0804101600321C0E90114AF
:1044E00040F2E731C0E903148461FEF795FE08B19C
:1044F000FDF731FA079407A90C480894FEF7DCFC95
:1045000008B1FDF728FA6020CDE9000402940422E6
:10451000694606480494FEF719FE08B1FDF71BFA38
:104520000248FEF7ADFD0AB010BD0000F803002000
:1045300010B58AB0002407941C2168460894FBF744
:1045400056FE1648144901600321C0E9011440F2E7
:10455000E731C0E903148461FEF75EFE08B1FDF7A0
:10456000FAF9079407A90D480894FEF7A5FC08B1CD
:10457000FDF7F1F96020CDE90004029400226946BC
:1045800006480494FEF7E2FD08B1FDF7E4F903489C
:10459000FEF776FD0AB010BD000400404004002084
:1045A00010B58AB0002407941C2168460894FBF7D4
:1045B0001EFE1648144901600321C0E9011440F2AF
:1045C000E731C0E903148461FEF726FE08B1FDF768
:1045D000C2F9079407A90D480894FEF76DFC08B1CD
:1045E000FDF7B9F96020CDE9000402940C22694678
:1045F00006480494FEF7AAFD08B1FDF7ACF903489C
:10460000FEF73EFD0AB010BD0008004088040020FF
:104610000C4810B50A4901604FF4E13141600021B6
:1046200081600C22C160C0E904128161C161FEF7A2
:104630009DFE002803D0BDE81040FDF78CB910BDE9
:1046400000440040D0040020FEE7FEE770B50446B9
:104650004FF07F554FF0FF31FBF7AEFE0849A1EB5D
:1046600064042146FBF738FE2146FBF735FE294658
:10467000FBF72FFE2146BDE87040FBF72DBE000082
:10468000DF59375FF8B515460E460B4600920446D3
:104690000122022100F024F840B933460022802193
:1046A0002046009500F01CF8002804D0606D40F012
:1046B000200060650320F8BD01B582B000208DF8B0
:1046C00004004FF47A700090012301AA02A9034864
:1046D000FEF7C0FA9DF804000EBD0000580300204C
:1046E0002DE9F8431E46914688460446089DFDF78D
:1046F000D7FB401B351AFDF7D3FB0746254800685A
:10470000C0F3CB30684338E0701C37D0FDF7C8FBEE
:10471000C01BA84203D215B1009860B32CE02068FA
:10472000416821F0E00141606068B0F5827F0BD103
:10473000A068B0F5004F02D0B0F5806F04D12068BA
:10474000016821F040010160A06AB0F5005F09D165
:104750002068016821F4005101602068016841F47B
:1047600000510160012084F85100002084F85000BD
:104770000320BDE8F8830025401E00902068816872
:1047800038EA010004D000204845BDD10020F0E700
:104790000120F9E70C00002010B502F07FF9012894
:1047A00001D002F091F8BDE81040FDF755BE30B5DC
:1047B00093B028216846FBF71AFD14210AA8FBF7DD
:1047C00016FD002401210F9410940804CDE9001077
:1047D00011941294029402250491CDE907504FF4EC
:1047E000E01009906846FEF717F808B172B6FEE7C8
:1047F0000F20CDE90A054FF48060CDE90C4002217D
:104800000AA80E94FDF726FF08B172B6FEE74FF432
:10481000004011900F950FA8FDF7A8FE002801D0C9
:1048200072B6FEE713B030BD70470000F0B5026805
:10483000194C1A4D1A4E4FF08047A04205D0B8428D
:1048400003D0A84201D0B04203D122F070034A68DD
:104850001A43A04205D0B84203D0A84201D0B042CA
:1048600003D122F44073CA681A434B6922F08002D4
:104870001A4302608A68C2620A688262A04201D159
:1048800009690163012141610169C90703D0016917
:1048900021F001010161F0BD002C01400004004045
:1048A0000008004010B501F01F010123046A8B408D
:1048B0009C430462036A8A401343036210BD10B52F
:1048C000846842EA032224F47F440A43224382603C
:1048D00010BD826822F070020A4342F00701816035
:1048E0007047000030B5026A036A23F001030362D7
:1048F0004368846924F073050C682C4322F0020598
:104900008A682A430C4DA84206D122F00805CA68DD
:1049100042EA050222F0040207D14D6923F44073F4
:1049200045EA03058B6943EA0503436084614968EE
:104930004163026230BD0000002C014030B5036AC3
:10494000026A22F010020262426884690D6824F44F
:10495000E64444EA05248D6823F0200343EA051366
:104960000C4DA84206D1CD6823F0800343EA05131D
:1049700023F0400307D14D6922F4406242EA8502E8
:104980008D6942EA850242608461496881630362FD
:1049900030BD0000002C014030B5026A036A23F4E8
:1049A000807303624368C46922F4007224F07305C3
:1049B0000C682C438D6842EA05220C4DA84206D1B2
:1049C000CD6822F4006242EA052222F4806207D117
:1049D0004D6923F4405343EA05138D6943EA0513F7
:1049E0004360C4614968C163026230BD002C01406C
:1049F00030B5046A026A22F4805202624268C369D6
:104A00000D6823F4E64343EA05238D6824F400543B
:104A100044EA0534064DA84204D14D6922F480428F
:104A200042EA85124260C36149680164046230BD94
:104A3000002C014010B5046A036A23F001030362ED
:104A4000836923F0F00343EA021324F00A020A43C5
:104A50008361026210BD10B5036A046A24F0100479
:104A60000462846923F0A00324F4704444EA02320F
:104A700043EA01118261016210BD01680C3151E805
:104A8000002F22F4907241E80023002BF5D1016839
:104A9000143151E8002F22F0010241E80023002BDD
:104AA000F5D1016B012909D101680C3151E8002FC2
:104AB00022F0100241E80023002BF5D1202180F8DC
:104AC000421000210163704770B504460068016917
:104AD000E26821F4405111430161A168206901435A
:104AE000606901432068C26841F20C639A430A433B
:104AF000C26020684169A26921F44071114341619B
:104B00001E492068884202D1FDF750FE01E0FDF702
:104B10003DFE00EBC00101EB0011606864228000E3
:104B2000B1FBF0F3B3FBF2F36FF018067343B1FB84
:104B3000F0F5B1FBF0F605EB8305322303EB051529
:104B4000B5FBF2F5B6FBF2F605F0F00505EB061540
:104B5000B1FBF0F6B1FBF0F0B0FBF2F06FF0180132
:104B6000484306EB800003EB0010B0FBF2F0216835
:104B700000F00F002844886070BD0000003801403C
:104B80002DE9F8431F4690460D460446089E23E053
:104B9000701C21D0FDF784F9C01BB0421AD8CEB1E9
:104BA0002068C168490717D5802D15D0402D13D036
:104BB0000168C94309070FD40168002540680090C7
:104BC0002046FFF75AFF0820606484F84050012017
:104BD000BDE8F8830320FBE72068006835EA0000A1
:104BE00004D000204045D3D00020F1E70120F9E7B0
:104BF000FEE738B50C4600218DF800106A46E52125
:104C000000F0E6F99DF80010217038BD7CB50C4627
:104C1000064601A900F037F805466A4631213046BC
:104C200000F0D6F928430BD19DF800109DF8042020
:104C300001F00101914201D1012100E00021217028
:104C40007CBD0122862100F0EFB938B50C466A46DA
:104C5000962100F0CFF9BDF80010218038BD38B59D
:104C60000C466A464B2100F0B3F9C1B29DF8000032
:104C7000142802D00A2802D003E0012000E002201C
:104C8000208048B238BD38B50C466A46302100F065
:104C90009FF99DF8001001F010028DF80020110915
:104CA00002D00022227038BD0122FBE738B50C4645
:104CB0006A465E2100F09EF9BDF80020B2F5D77F6C
:104CC0002ED00EDC602A29D006DC1D2A22D01E2A16
:104CD00022D0512A1BD11FE0AD2A21D0D62A16D1CD
:104CE0001CE040F2E133A2F2E1319A421CD009DC2F
:104CF000B2F5E67F16D0A2F50072D93A14D0082A90
:104D000005D10FE0AE2911D0B1F5D87F0ED001202A
:104D100000210DE00F210BE0142109E0212107E023
:104D2000322105E0642103E0C82101E04FF4FA716B
:104D3000218038BDF8B500251B4F06462D243819B3
:104D4000214610F82D2C304600F06EF9641C054306
:104D5000E4B2872CF3D9304600F032F940EA05047A
:104D600000208DF8000069463046FFF74FFF0443EE
:104D70009DF800000028F6D03046FFF762FF40EAB9
:104D80000405304600F020F940EA05040922082114
:104D9000304600F049F940EA040500220B21304674
:104DA00000F042F92843F8BD126D000838B50C46F2
:104DB00005466946FFF77AFF18B9012C03D0022C8B
:104DC0001ED0012038BD14224B21284600F02CF9BA
:104DD00007226021284600F027F905226321284692
:104DE00000F022F938226921284600F01DF940F22E
:104DF00005727821284600F04BF940F206621BE06C
:104E00000A224B21284600F00FF90F226021284684
:104E100000F00AF90D226321284600F005F9B822B6
:104E20006921284600F000F940F60D7278212846E5
:104E300000F02EF940F60E627A21284600F028F99B
:104E40000028BFD1BDF80010284600F023F838BD77
:104E5000F8B50D4606466A46DE2100F0CBF804465A
:104E6000BDF80000C0F30900ADF800006843FBF78F
:104E70006DFC4FF03332064BFBF751FBFBF7ABFCFD
:104E800002466C21304600F0E3F82046F8BD0000F1
:104E90003333F13FF8B50C4606466946FFF7DFFEAF
:104EA0000546BDF8000068B14FF4FA7101280BD037
:104EB000642C70D04CDC142C5BD0212C60D0322CB4
:104EC0007BD15FE00120F8BD322C26D006DC0F2C10
:104ED00013D0142C18D0212C6FD117E0642C25D0BE
:104EE000C82C2CD08C4268D140F291525E213046C1
:104EF00000F0CEF840F2C15236E01D225E2130466D
:104F000000F0C6F827222FE0512200E0D6225E21D1
:104F1000304600F0BDF86E2226E04FF4D7725E21D5
:104F2000304600F0B5F84FF4F4721DE040F2E12293
:104F30005E21304600F0ACF84FF4627214E040F2AB
:104F4000E1325E21304600F0A3F840F296420BE0D9
:104F5000C82C29D08C4230D140F28F425E2130469D
:104F600000F096F840F2A4426121304600F090F83B
:104F700024E01E225E21304600F08AF82222F3E768
:104F80006022C4E7AD225E21304600F081F8C622DF
:104F9000EAE700E011E04FF4E6725E21304600F0EF
:104FA00077F84FF4F572DFE740F2D9225E21304600
:104FB00000F06EF84FF43E72D6E701252846F8BDA2
:104FC0004022872100F030B80022872100F02CB861
:104FD0003EB50C4600924FF47A710123CDE90131C0
:104FE0000146102322460248FDF724F800203EBD6A
:104FF000040300207FB50D460021144603914FF4B1
:105000007A73022203A98DE80E00014610232A4676
:105010000448FDF70FF8BDF80C0040BA208004B03A
:10502000002070BD0403002017B583B00A464FF47A
:105030007A74012305A98DE81A000146102303485C
:10504000FDF726F906B0002010BD00000403002083
:105050001FB500230393130E8DF80C30130C8DF83D
:105060000D30130A8DF80E308DF80F204FF47A743E
:10507000042303AA8DE81C000A46014610230348B6
:10508000FDF706F904B0002010BD00000403002065
:105090001FB50C4600210391110A8DF80C108DF8F4
:1050A0000D204FF47A73022203A98DE80E00014609
:1050B000102322460248FDF7EBF804B0002010BD93
:1050C000040300200FB4054B10B503A9044A02984D
:1050D00000F098F910BC5DF814FB0000CD600008EA
:1050E000780200200FB4084B10B504A902AA039857
:1050F00000F088F9044602A9002000F006FD2046D1
:1051000010BC5DF814FB00000B5B0008490050EA7E
:10511000C12018BF04204A0D18BF40F0010040F222
:10512000FF72B2EB515F08BF40F00200012808BFD8
:10513000052070474100080218BF04200A0E18BF5E
:1051400040F001004FF07F4232EA010108BF40F019
:105150000200012808BF052070470907090E002832
:1051600004DB00F1E02080F80014704700F00F002D
:1051700000F1E02080F8141D70472DE9F0414F1E2A
:1051800000EBC7010446D1E9000115461E4637F081
:1051900006020DD02A463346FBF7C1F97F1E04EB09
:1051A000C703D3E90023FBF713F937F00602F1D167
:1051B000022F25D0042F13D0062F18BFBDE8F08191
:1051C0002A463346FBF7ABF9D4E90A23FBF700F98B
:1051D0002A463346FBF7A3F9D4E90823FBF7F8F88E
:1051E0002A463346FBF79BF9D4E90623FBF7F0F890
:1051F0002A463346FBF793F9D4E90423FBF7E8F892
:105200002A463346FBF78BF9D4E90223FBF7E0F893
:105210002A463346FBF783F9D4E90023BDE8F04181
:10522000FBF7D6B80122FBF75BBA00221346104603
:105230001146FBF7E6B90000024A00201107FBF710
:105240004FBA000001FDFFFFFAF7EEBF6FF05E01FD
:105250000807FBF7B1B802E008C8121F08C1002A0E
:10526000FAD170477047002001E001C1121F002AE7
:10527000FBD1704701490860704700007C020020A4
:105280002DE9FF5F82B00021DDE90430020DDDF879
:1052900040B0034318D044F61050A2F2FF3242430C
:1052A0001514119801281FD0A5EB0B00401C5FEAD4
:1052B000000A4FF000064E4FDFF83891B0465046D6
:1052C00015D5CAF1000413E0119801244AA301285E
:1052D00001D16FEA0B010298119AC0E90031C0E9CF
:1052E000024206B0BDE8F09FCBF10000DFE70446C4
:1052F0000021404A491842EB0450CDE9001012E069
:10530000E00707D032463B4640464946FBF707F9DF
:105310008046894632463B4610461946FBF7FFF861
:1053200006460F466410002CEAD1DDE90401DDE9F0
:105330000023BAF1000F06DAFBF7F1F842464B46BC
:10534000FBF7EDF805E0FBF75CF942464B46FBF74F
:1053500058F904460E460022284BFBF799FB03D868
:105360004FF0FF30014607E00022254B2046314632
:10537000FBF72EF8FBF773FB102409E0002C0ADB87
:105380000A220023FBF785FA039B30321A55641E6C
:1053900050EA0102F2D1641C039AC4F111031444CF
:1053A000119A012A03D0012208430DD10AE00843D3
:1053B00004D000204FF0110B119072E7A3EB0B0506
:1053C0006D1E0DE05B4504DD4FF0000205F10105A7
:1053D00004E003DA4FF00002A5F10105002AECD049
:1053E00002981199C0E90231C0E9004579E700004F
:1053F000000014400000F03F300000000000F043C7
:105400000000E03F2DE9FF4F95B09A4688460646DA
:105410000025EEE1252877D100242746F94A01210D
:10542000039400E0044316F8013F203B01FA03F027
:105430001042F7D130782A2811D06FF02F0330783E
:10544000A0F13002092A16D8039A44F0020402EBB4
:10545000820203EB42021044761C0390EFE758F8F7
:10546000042B0392002A03DA504244F400540390C0
:1054700044F00204761C30782E2816D116F8010F5D
:1054800044F004042A280DD06FF02F023078A0F1E8
:105490003003092B09D807EB870302EB4303C71836
:1054A000761CF3E758F8047B761C30786C280FD014
:1054B00006DC4C2817D068280DD06A2814D104E0E7
:1054C000742810D07A280FD10DE044F400140AE0BB
:1054D00044F4801401E044F440147278824202D112
:1054E00004F58014761C761C307866280BD013DC0B
:1054F000582877D009DC002875D04528F6D04628F2
:10550000F4D047281AD193E118E0632835D06428F5
:1055100079D0652812D18BE1702873D008DC672818
:10552000F1D069286FD06E280DD06F2806D1ACE07D
:1055300073282CD0752874D0782853D052461799E8
:1055400090476D1C54E1C4F30250022809D003288F
:105550000DD0D8F8001004280DD00D6008F1040813
:1055600046E1D8F80010EA17C1E90052F6E7D8F88A
:1055700000100D80F2E70D70F0E718F8041B8DF8AD
:10558000001000208DF80100EB46012003E058F8E0
:1055900004BB4FF0FF3061074FF0000102D40DE073
:1055A00009F101018946B9420FDA8145F8DB1BF8A0
:1055B00009100029F4D108E009F10101894681426E
:1055C000FADB1BF809100029F6D103985346A0EB2B
:1055D000090721463846179A00F080FA284400EB64
:1055E000090507E044E008E10DE01BF8010B524615
:1055F00017999047B9F10109F7D253462146384629
:10560000179AF2E039E00A21C4F302524FF0000B7E
:105610000091022A06D058F8040BC117032A09D0BA
:105620000AE023E008F1070020F00702F2E8020197
:10563000904605E000B2C117042A01D140B2C1175B
:10564000002906DA0A460021404261EB02012D22C0
:1056500002E0220504D52B228DF80420012203E06C
:10566000E20701D02022F7E7914657E00A2100E047
:1056700010214FF0000B00910BE010214FF0000BB8
:1056800044F004040827009103E008204FF0000BC9
:105690000090C4F30252022A05D058F8040B0021EE
:1056A000032A08D008E008F1070020F00702F2E81A
:1056B0000201904603E080B2042A00D1C0B24FF04C
:1056C000000922072AD53278702A07D0DDF800C0F9
:1056D0008CF0100C5CEA0B0C05D00EE040228DF82B
:1056E0000420012208E050EA010306D030238DF89F
:1056F00004308DF8052002229146009B83F00803B8
:1057000053EA0B030AD150EA010201D1620705D521
:1057100030228DF804204FF001097F1E3278582A7C
:1057200004D039A20C920CAA02920BE03BA2F9E73A
:105730005B46009AFBF7ADF80C9B9B5C029A521EED
:105740000292137050EA0102F2D1029804A9081AD9
:1057500000F1200B600702D524F4803400E001271B
:105760005F4502DDA7EB0B0000E0002000EB0B0122
:10577000009003984944401A0390E00306D453462E
:105780002146179A039800F0A9F90544002706E07E
:1057900001A85246C05D179990476D1C7F1C4F456C
:1057A000F6DBE0030CD553462146179A039800F028
:1057B00095F9054404E030205246179990476D1C36
:1057C0000099481E00900029F5DC08E00298029933
:1057D00052460078491C0291179990476D1CBBF105
:1057E0000001ABF1010BF1DC5BE100F065F9054470
:1057F000761C307800287FF40DAE19B02846BDE83D
:10580000F08F00000928010030313233343536374B
:1058100038396162636465660000000030313233FC
:10582000343536373839414243444546000000009C
:10583000600700D4062708F1070020F00700F0E811
:105840000223804603F0004C5FEA0C0001D097A0D1
:1058500009E0200501D596A005E0E00701D095A05C
:1058600001E0AFF24C001390307823F0004365283C
:105870000CD006DC452809D046281DD047287FD10A
:105880003BE0662818D067287AD136E00021112F36
:1058900001DB112000E0781CCDE9000104A90CA86F
:1058A000FFF7EEFCDDE90D010C9A4FF0000B07F15C
:1058B0000109109200914EE04FF000400097CDE9B1
:1058C000011004A90CA8FFF7DBFCDDE90D020C9B1D
:1058D0000F994FF0000B91461093009211B9791C6B
:1058E00000EB0109B7EB090003D4C0F1FF3B07F15E
:1058F0000109A9EB0700019042E0012F00DA01271E
:105900000021112F01DD112000E03846CDE9000112
:1059100004A90CA8FFF7B4FCDDE90D010C9A009175
:105920004FF0000BB946109221070FD4009A4A4558
:1059300003DA914601E0A9F10109B9F1010F05DD92
:10594000109AA9F10101515C3029F4D0B84202DA71
:1059500010F1040F03DA0121CDE9011010E0002855
:1059600003DC8344A9EB000102E0411C494500DD52
:105970008946A0EB0B00401C01904FF000400290C4
:10598000200705D40198484502DB4FF0FF30019015
:1059900000208DF84B0002980DF14B07B0F1004F3D
:1059A00025D002200C902B200D90029800280CDAB4
:1059B000404202902D200D9007E00A210298FAF74C
:1059C00052FF3031029007F8011D0C99481E0C90CF
:1059D0000029F2DC02980028EFD1791E0D9808709A
:1059E000307800F0200040F0450007F8020D11A8C3
:1059F000C01BC01D02901398007800B1012000EB7D
:105A00000901019801EBE071029801440398401AE2
:105A1000401E0390E00306D453462146179A03988C
:105A200000F05CF805441398007818B152461799B5
:105A300090476D1CE00323D553462146179A0398DF
:105A400000F04CF805441BE0BBF1000F07DB0098A9
:105A5000584504DD1098179910F80B0001E01799CC
:105A600030205246904701980BF1010B401E05F182
:105A70000105019004D12E205246179990476D1CC4
:105A8000B9F10001A9F10109DEDC05E017F8010B0D
:105A90005246179990476D1C0299481E02900029A2
:105AA000F4DC53462146179A03989EE62D00000029
:105AB0002B000000200000002DE9F04104460025E5
:105AC0001E461746880404D405E039462020B04716
:105AD0006D1C641EF9D52846BDE8F0812DE9F04122
