:020000040800F2
:10000000A83900209D01000895470008FB3500082D
:100010009147000809150008094E0008000000007B
:1000200000000000000000000000000005010008C2
:100030000D170008000000004901000801490008F0
:10004000B7010008B7010008B7010008B7010008B0
:10005000B7010008B7010008B7010008B7010008A0
:10006000B7010008B7010008B7010008B701000890
:10007000B7010008B7010008B7010008B701000880
:10008000B7010008B7010008B7010008B701000870
:10009000B7010008B7010008B7010008B701000860
:1000A000B7010008B7010008B7010008B701000850
:1000B000B7010008B7010008B7010008B701000840
:1000C000B7010008B7010008B7010008B701000830
:1000D000B7010008B7010008B7010008B701000820
:1000E000B7010008B7010008B7010008DFF810D019
:1000F00000F0B6FC00480047D55D0008AFF3008073
:10010000A8390020224B19680868B0E8F00F80F386
:100110000988BFF36F8F4FF0000080F311884EF015
:100120000D0E70470000000006480068006880F36C
:10013000088862B661B6BFF34F8FBFF36F8F00DFE1
:1001400000BF00BF08ED00E0EFF30980BFF36F8F41
:100150000F4B1A6820E9F00F106008B54FF0BF0090
:1001600080F31188BFF34F8FBFF36F8F06F04EFA05
:100170004FF0000080F31188BDE808401968086856
:10018000B0E8F00F80F30988BFF36F8F704700BFAE
:1001900058000020EFF305807047000006488047B4
:1001A00006480047FEE7FEE7FEE7FEE7FEE7FEE75C
:1001B000FEE7FEE7FEE7FEE77B490008ED000008EA
:1001C000202A04DB203A21FA02F00021704721FAAC
:1001D00002F3D040C2F12002914008431946704713
:1001E000D2B201E000F8012B491EFBD27047002279
:1001F000F6E710B513460A4604461946FFF7F0FF26
:10020000204610BD421C10F8011B0029FBD1801AAA
:1002100070470022CBB20178994200D10246401CBF
:100220000029F8D110467047F0B480EA0102D40FDB
:100230004200B2EB410F02D20246084611464A0084
:1002400042D0C30DDDB2C1F3C752AD1A202D35DA4D
:10025000C1F3160141F4000204B15242C5F1200677
:1002600002FA06F12A411044B3EBD05F23D0C4B1A7
:10027000012DA0EBC35009DCF0BC4FF0004202EAB4
:10028000C352DBB200F5000000F047BB400000F1B4
:10029000807000EBC350A0F1807040EAD17049003B
:1002A00009E0490841EAC071A0EBC35000F5000025
:1002B000400800EBC350F0BC00F026BB61420122B5
:1002C00002EB4101001BF6E7F0BC704781F00041F2
:1002D000AAE780F00040A7E780EA010210B502F02B
:1002E0000043400022D04A001FD0010E01EB1261F2
:1002F000C0F35600C2F3560240F4000042F400027C
:10030000A0FB022000047F39140400D0401C50EAF6
:10031000124001D44000491EC2B20C0604EBD010BA
:10032000401C4008802A02D003E0002010BD20F0CD
:100330000100002900DA0020184310BD30B480EA23
:10034000010202F0004530F0004221F0004013D0DD
:1003500090B1C30DD40DC2F31601C0F31600E41A18
:1003600041F4000140F400027D34914201D3641C49
:1003700000E04900002C02DA30BC002070474FF446
:1003800000000023914201D3891A034340084FEA39
:100390004101F7D151B1914202D14FF0004105E046
:1003A00002D24FF0010101E06FF0010103EBC450F4
:1003B000284430BC00F0A8BA2DE9FE4F804681EAFF
:1003C0000300C00F0C46009021F0004123F00045CF
:1003D000B8EB0200A94105D24046214690461C4692
:1003E0000B46024623F00040104347D0270DC7F3C9
:1003F0000A00C3F30A510290401A019040286BDAB8
:10040000C3F3130040F4801B0098924620B10023F0
:10041000D2EB030A63EB0B0B01985946C0F1400283
:10042000504600F050FA06460D4650465946019A8D
:1004300000F058FA10EB08006141002487EA1152DD
:1004400084EAE7731A4340D0009A62B3019A012A02
:100450004FEA075215DC001B61EB02014FF000422E
:1004600002EA0752CDE90042001C41F580113246F4
:100470002B4600F08FFA03B0BDE8F08F40462146CE
:10048000F9E7001B61EB0201001C41F58013001825
:100490005B412018A2F5001747EB030140EAD57035
:1004A000B6196D4111E06D084FEA360645EAC07590
:1004B0004FEA0752001B61EB0201001C41F580115D
:1004C00049084FEA30000019514132462B4603B02B
:1004D000BDE8F04F00F04FBA009801224000002321
:1004E000D0EB020263EBE073009821464FEAE07420
:1004F000B8EB000061EB0401E9E783F000435BE740
:1005000081F0004158E72DE9FE4F81EA030404F031
:10051000004421F0004100944FF0000B23F0004311
:1005200050EA01045ED052EA03045BD0C3F30A54DC
:10053000C1F30A552C44A4F2F3340194A0FB0254F5
:10054000C1F3130141F48011C3F3130343F4801387
:1005500001FB024400FB034E840A970A44EA8154DB
:1005600047EA8357A4FB076802958D0A05FB0785B8
:100570004FEA932C04FB0C542705029D4FEA0658C2
:1005800047EA1637B5EB08056EEB070C870E920E9F
:1005900047EA811742EA8312A7FB0201B6EB0B017F
:1005A00064EB00042B0D43EA0C335E1844EB1C5043
:1005B000DA465146E7FB0201C5F313044FEA0B3359
:1005C00043EA14534FEA0432019C43EA0603A4F1C0
:1005D0000C040294009CCDE900B400F0DBF903B0F8
:1005E000BDE8F08F00200146F9E72DE9F04D81EAE2
:1005F000030404F0004B21F0004514464FF0000ABC
:1006000023F0004150EA050220D054EA01021DD037
:10061000C5F30A570246C5F31303C1F31300C1F330
:100620000A5640F4801543F48013A7EB0608101B0C
:10063000D64608F2FD3873EB050002D308F1010835
:1006400001E092185B41B8F1000F03DA0020014687
:10065000BDE8F08D00204FF48011064684460EE080
:10066000171B73EB050705D3121B63EB050306434A
:100670004CEA010C49084FEA300092185B4150EAFD
:100680000107EDD152EA030012D082EA040083EAA6
:100690000501084305D0101BAB4106D201220023FF
:1006A00006E000224FF0004302E06FF00102531019
:1006B0001AEB06004CEB085110EB0A0041EB0B0162
:1006C000BDE8F04D00F057B9C10F80EAE070084472
:1006D000CA079623002100F020B996230022114674
:1006E00000F01BB90EB5C10F80EAE0700844CA07DC
:1006F000002140F233438DE80E000A460B4600F01D
:1007000049F903B000BD0EB540F23341029100211A
:10071000CDE900110A460B4600F03CF903B000BDDC
:1007200000F0004220F00040C10DC0F3160040F47C
:1007300000007F2901DA00207047962903DCC1F10F
:100740009601C84001E096398840002AF4D0404222
:10075000704770B5C1F30A5201F000450024C1F39F
:10076000130140F2FF3341F480119A4201DA002074
:1007700070BD40F233439A42A2F2334203DC52424C
:10078000FFF71EFD00E090402C43F1D0404270BDC9
:10079000C1F30A5210B5C1F3130140F2FF3341F423
:1007A00080119A4201DA002010BD40F233439A4290
:1007B000A2F2334203DC5242FFF702FD10BD90402B
:1007C00010BD00F0004230F000400AD0C10D01F52C
:1007D0006071C0F3160042EA0151C208400711439C
:1007E000704700200146704730B5041E71F10004C7
:1007F00004DB4FF00044404264EB0101141E73F12E
:10080000000405DB1C464FF00043524263EB040337
:100810008B4208BF824230BD01F0004330B421F06A
:10082000004150EA010206D00A0DA2F56072C1F340
:100830001301002A02DC30BC00207047440F44EA58
:10084000C104C100E01830BC00EBC25000F05CB83D
:10085000002801DBC0F10040002901DBC1F10041AB
:10086000814270472DE9F05F0546002092469B4685
:1008700088460646814640241BE0284641464746B6
:100880002246FFF79DFC53465A46C01A914110D3A9
:1008900011461846224600F016F82D1A67EB01089B
:1008A0004F4622460120002100F00DF817EB000909
:1008B0004E41201EA4F10104DFDC484631462A46A1
:1008C0004346BDE8F09F202A04DB203A00FA02F1FB
:1008D000002070479140C2F1200320FA03F319432E
:1008E00090407047202A06DBCB17203A41FA02F0ED
:1008F00043EAE07306E041FA02F3D040C2F120027D
:1009000091400843194670470029A8BF7047401C12
:10091000490008BF20F00100704710B4B0FA80FC15
:1009200000FA0CF050EA010404BF10BC704749B152
:10093000CCF1200421FA04F411FA0CF118BF0121C2
:1009400021430843A3EB0C01CB1D4FEA00614FEAA2
:10095000102042BF002010BC704700EBC350104471
:100960000029A4BF10BC7047401C490008BF20F0FC
:10097000010010BC704710B5141E73F1000408DAB2
:10098000401C41F1000192185B411A4301D120F053
:10099000010010BD2DE9F04D92469B4611B1B1FA10
:1009A00081F202E0B0FA80F220329046FFF78BFF2E
:1009B00004460F4640EA0A0041EA0B0153465A46F4
:1009C000084313D0114653EA010019D0C8F1400280
:1009D0005046FFF7F5FB05460E465046594642463F
:1009E000FFF771FF084305D0012004E02046394697
:1009F000BDE8F08D0020054346EAE0762C433743FE
:100A00000A986305E40AA0EB08000022FD0A44EA04
:100A100047540A3002D500200146E9E701051019C4
:100A20006941DDE9084500196941BDE8F04DA2E7DB
:100A300070B521F0004303430CD0C1F30A550024E4
:100A4000D5EB040564EB0403D617AD1AB34102DB02
:100A50000020014670BD201841EB025170BD00001E
:100A6000064C074D06E0E06840F0010394E80700FB
:100A700098471034AC42F6D3FFF73CFB586D0008A2
:100A8000786D000870B58C1810F8015B15F007033D
:100A900001D110F8013B2A1106D110F8012B03E017
:100AA00010F8016B01F8016B5B1EF9D12B0705D41F
:100AB0000023521E0DD401F8013BFAE710F8013B68
:100AC000CB1A921C03E013F8015B01F8015B521E84
:100AD000F9D5A142D8D3002070BD00002DE9F8431C
:100AE000CA48007830B101280ED002287ED00328F1
:100AF0007DD10EE10020C649C880C649C880C649DC
:100B0000C880C649C8803BE1C549B1F90000FFF77C
:100B1000DBFD0746C348016A3846FFF785FB0646FA
:100B2000C148016A3046FFF7D1FB0546BF48016A5C
:100B30002846FFF779FB0446FFF7F2FD00B2B449FF
:100B4000C880B749B1F90000FFF7BEFD0746B548B8
:100B5000016A3846FFF7BAFB0646B348016A3046D9
:100B6000FFF7B4FB0546B148016A2846FFF7AEFB24
:100B70000446FFF7D5FD00B2A649C880A849B1F9DF
:100B80000000FFF7A1FD0746A648016A3846FFF7B7
:100B90004BFB0646A448016A3046FFF745FB054675
:100BA000A248016A2846FFF791FB0446FFF7B8FD0B
:100BB00000B29949C8809A49B1F90000FFF784FD55
:100BC00007469848016A3846FFF780FB0646964874
:100BD000016A3046FFF728FB05469448016A28461B
:100BE000FFF722FB0446FFF79BFD01E004E0C6E0AF
:100BF00000B28A49C880C3E08949B1F90000FFF713
:100C000063FD80468748016A4046FFF70DFB0746B3
:100C10008548016A3846FFF759FB06468348016A52
:100C20003046FFF701FB05468148016A2846FFF779
:100C3000FBFA0446FFF774FD00B27549C880784995
:100C4000B1F90000FFF740FD80467648016A404652
:100C5000FFF73CFB07467448016A3846FFF736FB4E
:100C600006467248016A3046FFF730FB0546704879
:100C7000016A2846FFF7D8FA0446FFF751FD00B293
:100C80006449C8806649B1F90000FFF71DFD804640
:100C90006448016A4046FFF7C7FA07466248016A9E
:100CA0003846FFF7C1FA06466048016A3046FFF74A
:100CB0000DFB05465E48016A2846FFF7B5FA044673
:100CC000FFF72EFD00B25449C8805549B1F9000024
:100CD000FFF7FAFC80465348016A4046FFF7F6FAF0
:100CE00007465148016A3846FFF79EFA06464F48C4
:100CF000016A3046FFF798FA05464D48016A2846D2
:100D0000FFF792FA0446FFF70BFD00B24349C88093
:100D100036E03F48C088801E00B23D49C8803D484B
:100D2000C088801E00B23B49C8803B48C088801EF6
:100D300000B23949C8803948C088801E00B237499E
:100D4000C8803348B0F90600002817DC3148B0F9F4
:100D50000600002812DC3048B0F9060000280DDC3F
:100D60000846B0F90600002808DC002002230246ED
:100D7000014600902F48006805F01AFD00E000BF12
:100D800000BF2349B1F9060000224FF4167100F0AC
:100D9000BDFB1F49C8801F49B1F9060000224FF46E
:100DA000167100F0B3FB1B49C8801B49B1F906005E
:100DB00000224FF4167100F0A9FB1749C8801749AB
:100DC000B1F9060000224FF4167100F09FFB1349A1
:100DD000C8801348B0F90000322808DA00200C4916
:100DE000C8800C49C8800C49C8800C49C880084894
:100DF00002F0CCFE074802F0C9FE074802F0C6FE2A
:100E0000064802F0C3FEBDE8F8830000E5000020BC
:100E1000140200201C020020240200202C020020CA
:100E2000E80000203C01002084010020CC010020CB
:100E3000F0010020F400002010B508480088FFF7FA
:100E40004CFC0749086103F0C3F90446FFF745FC71
:100E500003494861084600F065FB10BDE60000202C
:100E6000F00100202DE9FF5F6E4803F02DF86E4A77
:100E7000B2F900106B4AB2F9000000F01FFC69499A
:100E80000880694AB2F90210664AB2F9020000F01D
:100E900015FC64494880644AB2F90410614AB2F909
:100EA000040000F00BFC5F498880084600885E491A
:100EB00008805C48408848805A4880888880594922
:100EC000B1F90600FFF70EFC064632460B465748BE
:100ED00000F09CFB0446FFF73CFC00B25149C8807F
:100EE000B1F90800FFF7FEFB064632460B464F48B5
:100EF000183000F08BFB0446FFF72BFC01B2494889
:100F000001810146B1F90A00FFF7ECFB06463246C3
:100F10000B464648303000F079FB0446FFF719FCD9
:100F200001B2404841810146B1F90A00FFF7DAFBFE
:100F300006460F463B49B1F90600FFF7D3FB824650
:100F400000223B4BFFF7DFFA804632463B4604F077
:100F5000A9FD0446374A384BFFF747FB0022374BC1
:100F6000CDE90001FFF7CFFACDE90201FFF7F1FB70
:100F700000B2334948802B49B1F90A00FFF7B2FBB0
:100F8000804689462749B1F90800FFF7ABFB0646C2
:100F90000022274BFFF7B7FA824642464B4604F041
:100FA00081FD0446234A244BFFF71FFB0022234BFD
:100FB000CDE90001FFF7A7FACDE90201FFF7C9FB70
:100FC00000B21F4988801749B1F90400FFF78AFB76
:100FD000824600221B4BFFF796FA804600221A4BEE
:100FE000FFF703FB0646194A194BFFF78CFACDE9C8
:100FF000000118480068FFF7E4FB0446DDE9002320
:10100000FFF7DAF9CDE90201FFF706FC11490860A4
:1010100008460068FFF784FB00B209490880BDE874
:10102000FF9F00009A3500200E01002010000020D4
:101030000000F03F6E861BF0F921094000806640F9
:101040000801002000409F400000E040FA7E6ABC9A
:101050007493783F1401002010B502F0BBFF0748DD
:1010600002F0EEFD064802F0EBFD064802F0E8FD56
:10107000054802F0E5FD03F0B9F810BD14020020A8
:101080001C020020240200202C0200202DE9F04741
:101090004749B1F90610A1F5FA70FFF723FB0646A0
:1010A0000022444BFFF7A1FA0446FFF7B5FB424983
:1010B00008614249B1F90200FFF706FB3E49486169
:1010C0003F49B1F90200FFF70DFB804600223D4B7E
:1010D000FFF719FA064600223B4BFFF786FA044653
:1010E000FFF79AFB39494861334800F083FA3049E9
:1010F000B1F90410A1F5FA70FFF7F4FA06460022E0
:101100002C4BFFF772FA0446FFF786FB3049086163
:101110002A49B1F90400FFF7D7FA2D494861284957
:10112000B1F90000FFF7DEFA80460022254BFFF7F9
:10113000EAF906460022244BFFF757FA0446FFF768
:101140006BFB24494861224800F054FA1849B1F970
:101150000210A1F5FA70FFF7C5FA06460022154BFA
:10116000FFF743FA0446FFF757FB1B490861134991
:10117000B1F90000FFF7A8FA174948611049B1F921
:101180000400FFF7AFFA064600220E4BFFF7BBF94B
:10119000044600220C4BFFF728FA8046FFF73CFB81
:1011A0000E4948610C4800F025FABDE8F0870000C0
:1011B000E80000200000494018010020080100203C
:1011C0009A35002000409F400000E0403C01002094
:1011D0006001002084010020A8010020CC01002033
:1011E0001CB51548012100238022CDE9001013A170
:1011F000154805F06FFA1548022100238022CDE939
:10120000001013A1154805F065FA154801210023C7
:101210008022CDE9001013A1154805F05BFA1548AE
:10122000022100238022CDE9001013A1154805F00A
:1012300051FA05F0ADF91CBDB8000020706F77655C
:10124000725F7461736B0000595E0008BC0000207F
:10125000666C696768745F7461736B008D5C00080D
:10126000C00000206C65645F7461736B0000000057
:10127000115D0008F4000020636F6D5F7461736B93
:1012800000000000415C000828B900210B4A1170E1
:101290000B4A117010E001280ED109490978491C48
:1012A000074A1170114609780A2905D10121034A1C
:1012B00011700021024A117070470000E400002004
:1012C0000401002010B52448007830B101280ED068
:1012D000022822D003283BD130E000F047F828B99B
:1012E00001201D49087000201C49087031E01C488D
:1012F000407A012809D102201749087000201849B6
:10130000487202F065FF17490880174800780128E5
:1013100002D10320104908701BE01148407A0128CF
:1013200004D10D49087000200D4948720E4800781C
:10133000012802D10320084908700AE04FF0FF326B
:101340000121002005F034F800200349087000E076
:1013500000BF00BF10BD0000E5000020F800002025
:10136000E8000020E6000020E400002010B52D4831
:10137000007805284BD2DFE800F00311273449003C
:101380002948B0F90000B0F5617F06DB012025494E
:10139000087005F0C3FA2549086039E02248B0F921
:1013A0000000B0F5617F0EDA05F0B8FA1F49096850
:1013B000401AB0F57A7F03D302201A49087002E080
:1013C00000201849087023E01748B0F9000064288D
:1013D00006DC03201349087005F0A0FA14490860E0
:1013E00016E005F09BFA12490968401AB0F57A7FB9
:1013F00008D80D48B0F90000642806DD002009492E
:10140000087002E004200749087000BF00E000BF38
:1014100000BF04480078042801D1002010BD01203D
:10142000FCE70000F8000020E8000020FC0000209D
:101430000001002070B511213148FEF7D8FE304878
:1014400002F060FE2E48FEF7DDFE08B9012070BDF7
:101450002B480078732807D129484078672803D1A2
:1014600027488078672801D00120F0E7002524482C
:10147000407B00062249897B40EA01402049C97B24
:1014800040EA01201E49097C40EA010500240020B1
:1014900004E01B49095C0C44411CC8B20D28F8DB70
:1014A000AC4201D00120D2E7154800791449C9782F
:1014B00040EA012000B213490880114880791049A0
:1014C000497940EA012000B20E4948800C48007A70
:1014D0000B49C97940EA012000B20A49C88008488E
:1014E000807A0749497A40EA012000B2054988809C
:1014F0000348C07A08720248007B48720020A6E7C1
:1015000088350020E800002000BFFEE703468B423C
:1015100001DD08467047934201DA1046FAE71846A3
:10152000F8E700002DE9F04F89B08246DAE90410AF
:10153000FEF7CCFECAF80C00DAF80C10DAF81C0042
:10154000FEF772FECAF81C000021DAF81800FFF757
:101550007FF903D1DAF80C00CAF81800DAF818108D
:10156000DAF80C00FEF7B2FE83465946DAF80800B6
:10157000FEF7B2FE0646FFF724F904461B4A1C4B51
:10158000FFF733F8CDE90401DAF81C10DAF80400AB
:10159000FEF7A2FE0190FFF714F98046134A144BA0
:1015A000FEF7B1FF04460D46DAF80C10DAF8000039
:1015B000FEF792FE8046FFF704F9064622462B46C8
:1015C000FEF7FAFECDE90201DDE90423FEF7F4FEA1
:1015D000CDE90601FFF720F9CAF82000DAF80C007F
:1015E000CAF8180009B0BDE8F08F0000FA7E6ABCA6
:1015F0007493783F70B505460C462846FFF792FF76
:10160000286A20612046FFF78DFF70BD2DE9F04765
:1016100088B0824614461D46DAF81010DAF8000049
:10162000FEF702FECAF80400DAF81410DAF8040033
:10163000FEF7FAFD06463146DAF80400FEF77EFEB4
:10164000CAF80C00DAF80800FFF7BBF822462B4670
:10165000CDE90001FEF754FFCDE90201DAF80C00F4
:10166000FFF7AFF80646DDE90223FEF74CFF8046A0
:101670008946DAF80800FFF7A4F842464B46CDE960
:101680000401FEF799FECDE90601FFF7C5F8CAF897
:1016900008004FF07E50DAF80C10FEF717FE0646F1
:1016A000DAF80410FEF718FECAF80000DAF80800AD
:1016B000FFF787F808B0BDE8F08700002DE9FC5F70
:1016C00083460C462046FFF70DF807464FF03332AD
:1016D0000C4BFEF718FF81468A465846FFF702F882
:1016E00007464FF03332084BFEF70DFF4A4653468C
:1016F000CDE90001FEF760FE0546FFF72AF800B2CB
:10170000BDE8FC9F3333EB3F3333C33F704772B6C2
:1017100000BFFEE72DE9F8470346002294466EE13C
:101720004FF0010808FA02F4D1F8008008EA04003A
:10173000A0427DD1DFF8DCA2D1F80480A8EB0A0931
:10174000D0453AD014DCB8F1030F50D009DCB8F121
:10175000000F31D0B8F1010F1CD0B8F1020F49D100
:1017600020E0B8F1110F18D0B8F1120F42D11EE0ED
:10177000B9F5881F25D006DCB9F5803F20D0B9F532
:10178000801F37D11AE0B9F5001F18D0B9F5041F32
:1017900030D117E0D1F80CC02DE0D1F80C8008F161
:1017A000040C28E0D1F80C8008F1080C23E0D1F8F3
:1017B0000C8008F10C0C1EE000BF00BF00BF00BF92
:1017C00000BF00BFD1F80880B8F1000F02D14FF080
:1017D000040C0BE0D1F80880B8F1010F03D14FF0F1
:1017E000080C1C6102E04FF0080C5C6103E04FF054
:1017F000000C00E000BF00BFFF2801D8984601E0C0
:1018000003F104084646FF2802D84FEA820803E0A5
:10181000A2F108084FEA88084746D6F800804FF042
:101820000F0909FA07F928EA09080CFA07F900E094
:1018300088E048EA0908C6F80080D1F8048008F07A
:101840008058B8F1805F7DD100BFDFF8CC81D8F837
:10185000188048F00108DFF8C091C9F81880C84620
:10186000D8F8188008F00108CDF8008000BF00BF4C
:101870004FEAB9384FEA920958F829504FEA82786E
:101880004FEA18794FF00F0808FA09F825EA080519
:10189000DFF88881434502D14FF0000816E0DFF8F9
:1018A0008081434502D14FF001080FE0DFF87481D9
:1018B000434502D14FF0020808E0DFF86C81434550
:1018C00002D14FF0030801E04FF004084FEA82799B
:1018D0004FEA197908FA09F848EA0505DFF84C815A
:1018E0004FEA920948F82950D1F8048008F480188A
:1018F000B8F5801F0AD1DFF83881D8F8008048EAAF
:101900000008DFF82C91C9F8008009E0DFF8208199
:10191000D8F8008028EA0008DFF81491C9F80080A0
:10192000D1F8048008F40018B8F5001F10D1DFF8D2
:10193000008108F10408D8F8008048EA0008DFF8C0
:10194000F09000E05AE009F10409C9F800800DE0C8
:10195000DFF8DC8008F10408D8F8008028EA0008E5
:10196000DFF8CC9009F10409C9F80080D1F80480AF
:1019700008F40038B8F5003F0ED1DFF8B480A8F1C4
:101980000408D8F8008048EA0008DFF8A490A9F11C
:101990000409C9F800800DE0DFF89480A8F104087C
:1019A000D8F8008028EA0008DFF88490A9F104093B
:1019B000C9F80080D1F8048008F48038B8F5803F79
:1019C0000ED1DFF86C80A8F10808D8F8008048EA4A
:1019D0000008DFF85C90A9F10809C9F800800DE063
:1019E000DFF84C80A8F10808D8F8008028EA000841
:1019F000DFF83C90A9F10809C9F80080521CD1F821
:101A0000008028FA02F8B8F1000F7FF489AEBDE833
:101A1000F88700000000111000100240000801408B
:101A2000000C01400010014000140140080001407A
:101A30000804014010B5C26821EA020302EA010469
:101A400043EA0443036110BD0AB1016101E00B04E4
:101A500003617047014800687047000000000020E3
:101A600070B504460CB9012070BD94F83D0028B94A
:101A7000002084F83C00204600F046FB242084F837
:101A80003D002068006820F001002168086020689F
:101A9000006840F40040216808602068006820F475
:101AA00000402168086000F025FD05465C4960683B
:101AB000884206D85B48854201D2012007E0002019
:101AC00005E05948854201D2012000E000200128AC
:101AD00000D1C9E75548B5FBF0F62068406820F012
:101AE0003F003043216848604D496068884201D812
:101AF000701C07E04FF4967070434FF47A71B0FB9E
:101B0000F1F0401C2168096A21F03F010843216877
:101B1000086243496068884214D8681E61684900B9
:101B2000B0FBF1F0401CC0F30B00042801D20420EC
:101B30003DE0681E61684900B0FBF1F0401CC0F355
:101B40000B0034E0A06838B9681E616801EB410100
:101B5000B0FBF1F0401C0AE0681E616801EBC102B5
:101B600002EB0111B0FBF1F0401C40F48040C0F3E7
:101B70000B0008B901201AE0A06848B9681E616826
:101B800001EB4101B0FBF1F0401CC0F30B000CE095
:101B9000681E616801EBC10202EB0111B0FBF1F0BC
:101BA000401CC0F30B0040F4804040F4004021682A
:101BB000C9694CF6FF72914308432168C861D4E9B2
:101BC000070108432168096821F0C0010843216822
:101BD0000860D4E9031008432168896848F2FF329D
:101BE0009143084321688860D4E9050108432168CE
:101BF000C96821F0FF0108432168C86020680068B7
:101C000040F001002168086000202064202084F852
:101C10003D000020206384F83E0000BF24E7000060
:101C2000A086010080841E0000093D0040420F0094
:101C30002DE9FE4F04460F4690469946DDE90CAB70
:101C40000E9E00200290FFF705FF054694F83D0028
:101C5000202872D119230122CE492046009501F097
:101C600040FE10B10220BDE8FE8F00BF94F83C009A
:101C7000012801D10220F6E7012084F83C0000BFD2
:101C80002068006800F0010028B92068006840F072
:101C90000100216808602068006820F40060216865
:101CA0000860222084F83D00402084F83E00002097
:101CB0002064C4F824A0A4F82AB0608D2085B6481A
:101CC000E0624B46424639462046CDE9006501F0C8
:101CD000B5FC08B10120C6E7208D88B900BF0020FF
:101CE000019020684069019020688069019000BFE0
:101CF00000BF2068006840F40070216808604BE075
:101D0000208D01281AD12068006820F480602168A5
:101D1000086072B600BF0020019020684069019001
:101D200020688069019000BF00BF2068006840F40F
:101D300000702168086062B62EE029E1208D02283B
:101D400019D12068006840F400602168086072B60C
:101D500000BF0020019020684069019020688069E0
:101D6000019000BF00BF2068006820F480602168F7
:101D7000086062B610E02068006840F48060216866
:101D8000086000BF00200190206840690190206831
:101D90008069019000BF00BFEBE0208D03287DD853
:101DA000208D012815D12A463146204601F075FEC6
:101DB00008B1012057E720680069616A0870606A0D
:101DC000401C6062208D401E2085608D401E608515
:101DD000CFE0208D02282CD1334600226F492046C7
:101DE000009501F07EFD08B101203CE772B6206845
:101DF000006840F400702168086020680069616A2A
:101E00000870606A401C6062208D401E2085608DD5
:101E1000401E608562B620680069616A0870606A69
:101E2000401C6062208D401E2085608D401E6085B4
:101E30009FE03346002259492046009501F051FDAC
:101E400008B101200FE72068006820F48060216855
:101E5000086072B620680069616A0870606A401C98
:101E60006062208D401E2085608D401E60854C483C
:101E700000681921B0FBF1F04FF47A71B0FBF1F07A
:101E8000C0EBC00000EB8000029000BF0298401E33
:101E900002900298A8B90020206300E039E02020D9
:101EA00084F83D00002084F83E00206C40F02000C3
:101EB000206462B600BF002084F83C0000BF01200F
:101EC000D1E620684069C0F380000028DED0206899
:101ED000006840F400702168086020680069616A49
:101EE0000870606A401C6062208D401E2085608DF5
:101EF000401E608562B620680069616A0870606A89
:101F0000401C6062208D401E2085608D401E6085D3
:101F10002FE02A463146204601F0BFFD08B10120DE
:101F2000A1E620680069616A0870606A401C60620E
:101F3000208D401E2085608D401E60852068406990
:101F4000C0F38000A8B1208D032805D12068006867
:101F500020F480602168086020680069616A087068
:101F6000606A401C6062208D401E2085608D401E8E
:101F70006085208D00287FF410AF202084F83D007C
:101F8000002084F83E0000BF84F83C0000BF6AE6F1
:101F9000022068E6020010000000FFFF04000100BC
:101FA0000C0000202DE9FC5F04460F469046994640
:101FB000DDE90CAB0E9EFFF74DFD054694F83D00A4
:101FC00020287DD1192301224D492046009501F09A
:101FD00088FC10B10220BDE8FC9F00BF94F83C00D3
:101FE000012801D10220F6E7012084F83C0000BF5F
:101FF0002068006800F0010028B92068006840F0FF
:102000000100216808602068006820F400602168F1
:102010000860212084F83D00402084F83E00002024
:102020002064C4F824A0A4F82AB0608D2085354827
:10203000E0624B46424639462046CDE9006501F054
:10204000ADFB08B10120C6E731E02A463146204603
:1020500001F068FD50B1206C042805D120680068AB
:1020600040F40070216808600120B4E7606A0078DD
:1020700021680861606A401C6062208D401E2085D6
:10208000608D401E608520684069C0F3800070B19B
:10209000208D60B1606A007821680861606A401C28
:1020A0006062208D401E2085608D401E6085208DE1
:1020B0000028CAD12A463146204601F0DFFB00E065
:1020C0001CE050B1206C042805D12068006840F461
:1020D00000702168086001207DE72068006840F4F6
:1020E000007021680860202084F83D00002084F8FA
:1020F0003E0000BF84F83C0000BF6CE702206AE7A6
:10210000020010000000FFFF10B586B0044600205A
:1021100002900390049005902B492068884225D1B5
:1021200000BF2A48806940F00800284988610846B5
:10213000806900F00800019000BF00BFC02002903D
:10214000122003900320059002A92148FFF7E2FA2C
:1021500000BF1E48C06940F400101C49C861084611
:10216000C06900F40010019000BF2AE019492068FE
:10217000884226D100BF1548806940F00800134905
:1021800088610846806900F00800019000BF00BF28
:102190004FF440600290122003900320059002A9A2
:1021A0000B48FFF7B7FA00BF0848C06940F4800049
:1021B0000649C8610846C06900F48000019000BF6C
:1021C00000BF06B010BD00000054004000100240E7
:1021D000000C01400058004003480068034909789A
:1021E00008440149086070470000002008000020F2
:1021F00010B50848006840F0100006490860032048
:1022000000F098F80F2000F007F800F02BF80020FD
:1022100010BD00000020024070B504460E48007852
:102220004FF47A71B1FBF0F00C490968B1FBF0F59D
:10223000284600F0AFFD08B1012070BD102C07D278
:1022400000222146501E00F037F80548046001E0E6
:102250000120F2E70020F0E7080000200C00002039
:102260000400002008B500BF1148806940F001005B
:102270000F4988610846806900F00100009000BFA6
:1022800000BF00BF0846C06940F08050C8610846E2
:10229000C06900F08050009000BF00BF00BF05493A
:1022A000486820F0E06040F00070486000BF08BD62
:1022B00000100240000001402DE9F05F80460D460D
:1022C0001646002703F0EAF8074639462A46334601
:1022D00001F00700C0F1070ABAF1040F02D94FF06C
:1022E000040A01E0C0F1070AD14600F1040ABAF17C
:1022F000070F02D24FF0000A01E0A0F1030AD44612
:102300004FF0010A0AFA09FAAAF1010A0AEA020AD6
:102310000AFA0CFA4FF0010B0BFA0CFBABF1010BB4
:102320000BEA030B4AEA0B042146404603F0BEF8D1
:10233000BDE8F09F00BF00F00702064B19684FF69A
:10234000FF031940044B0B4343EA0221014B196080
:1023500000BF70470CED00E00000FA0570B50446C0
:102360000D460CB9012070BD5A48006800F0070006
:10237000A8420ED25748006820F00700284355496C
:1023800008600846006800F00700A84201D001205C
:10239000E9E7207800F0020002281DD1207800F043
:1023A0000400042805D14C48406840F4E0604A49E4
:1023B0004860207800F00800082805D146484068A9
:1023C00040F46050444948604348406820F0F000C1
:1023D000A168084340494860207800F0010078B3C4
:1023E0006068012806D13C48006800F4003090B9CC
:1023F0000120B8E76068022806D13748006800F07D
:10240000007040B90120AEE73348006800F00200D8
:1024100008B90120A7E73048406820F00300616850
:1024200008432D494860FFF715FB064609E0FFF712
:1024300011FB801B41F28831884202D9032092E7C8
:1024400007E02548406800F00C006168B0EB810FA0
:10245000EDD12048006800F00700A8420ED91D48C1
:10246000006820F0070028431A4908600846006801
:1024700000F00700A84201D0012074E7207800F0A6
:102480000400042807D11448406820F4E060E168A3
:10249000084311494860207800F00800082808D156
:1024A0000D48406820F46050216940EAC1000A49A3
:1024B000486000F03FF808494968C1F30311074A32
:1024C000515CC8400649086006480068FFF7A4FE52
:1024D000002048E70020024000100240266C00085F
:1024E0000C00002004000020014800687047000034
:1024F0000C00002000B5FFF7F7FF04494968C1F35D
:102500000221034A515CC84000BD00000010024097
:10251000366C000800B5FFF7E7FF04494968C1F3CE
:10252000C221034A515CC84000BD000000100240B7
:10253000366C000870B50021002200240023002022
:10254000134D696801F00C05F5B1042D02D0082D7A
:1025500019D101E00F4819E00F4DC1F38346AB5D7F
:1025600001F4803555B10A4D6D68C5F340450B4EF9
:10257000725D084D5D43B5FBF2F402E0084D03FBCC
:1025800005F4204602E000BF024800BF00BF70BD56
:102590000010024000127A00146C0008246C00083D
:1025A00000093D00F8B504460CB90120F8BD2078BB
:1025B00000F00100002878D0F848406800F00C00D6
:1025C00004280CD0F548406800F00C00082811D110
:1025D000F248406800F48030B0F5803F0AD1EF48FF
:1025E000006800F4003000285FD0606800285CD1EB
:1025F0000120DBE700BF6068B0F5803F06D1E74807
:10260000006840F48030E549086028E0606858B907
:10261000E248006820F48030E0490860084600681D
:1026200020F4802008601AE06068B0F5A02F0BD17C
:10263000DA48006840F48020D849086008460068FD
:1026400040F4803008600AE0D448006820F480300C
:10265000D24908600846006820F48020086000BF66
:10266000606888B1FFF7F6F9054606E0FFF7F2F972
:10267000401B642801D9032098E7C848006800F48B
:1026800000300028F2D010E0FFF7E4F9054606E03C
:10269000FFF7E0F9401B642801D9032086E7BF4813
:1026A000006800F400300028F2D1207800F0020029
:1026B000022857D1B948406800F00C0050B1B74823
:1026C000406800F00C00082818D1B448406800F4B5
:1026D000803098B9B148006800F0020020B120694C
:1026E000012801D0012061E7AC48006820F0F80023
:1026F000616940EAC100A949086033E02069E8B196
:102700000120A7490860FFF7A5F9054606E0FFF795
:10271000A1F9401B022801D9032047E79F48006820
:1027200000F002000028F2D09C48006820F0F80079
:10273000616940EAC1009949086013E000209849A6
:102740000860FFF787F9054606E0FFF783F9401BAD
:10275000022801D9032029E79048006800F0020010
:102760000028F2D1207800F0080008282DD1A069B7
:10277000B8B101208B490860FFF76CF9054606E007
:10278000FFF768F9401B022801D903200EE78348B0
:10279000406A00F002000028F2D0012001F0FCFFA6
:1027A00013E000207F490860FFF754F9054606E072
:1027B000FFF750F9401B022801D90320F6E67748BD
:1027C000406A00F002000028F2D1207800F00400F6
:1027D000042873D100277148C06900F0805070B997
:1027E00000BF6E48C06940F080506C49C86108461F
:1027F000C06900F08050009000BF00BF01276A4808
:10280000006800F48070B0B96748006840F48070D8
:1028100065490860FFF71EF9054606E0FFF71AF95B
:10282000401B642801D90320C0E65F48006800F41B
:1028300080700028F2D000BFE068012806D1574818
:10284000006A40F001005549086227E0E06858B985
:102850005248006A20F00100504908620846006AA8
:1028600020F00400086219E0E06805280BD14B480D
:10287000006A40F00400494908620846006A40F0D6
:10288000010008620AE04548006A20F0010043495F
:1028900008620846006A20F00400086200BFE06891
:1028A000A0B1FFF7D7F8054609E0FFF7D3F8401BC2
:1028B00041F28831884202D9032077E622E0374886
:1028C000006A00F002000028EFD012E0FFF7C2F823
:1028D000054608E0FFF7BEF8401B41F28831884208
:1028E00001D9032062E62D48006A00F002000028AA
:1028F000F0D1012F05D12948C06920F08050274927
:10290000C86100BFE069C8B32448406800F00C000B
:10291000082860D0E069022848D1002020490866D4
:10292000FFF798F8054606E0FFF794F8401B0228E9
:1029300001D903203AE61948006800F00070002829
:10294000F2D1206AB0F5803F07D11448406820F4E6
:102950000030A168084311494860D4E908010843E0
:102960000E49496821F4741108430C49486001205C
:102970000B490866FFF76EF8054607E03DE0FFF7F4
:1029800069F8401B022801D903200FE603480068BC
:1029900000F000700028F2D02FE00000001002408C
:1029A000000042428004424200700040002014496E
:1029B0000866FFF74FF8054606E0FFF74BF8401BA7
:1029C000022801D90320F1E50E48006800F00070EC
:1029D0000028F2D111E0E069012800D1E6E50948BC
:1029E000466806F48031206A814204D106F47011F1
:1029F000606A814201D00120D8E50020D6E50000C0
:102A0000000042420010024010B504460CB90120FB
:102A100010BD606A38B96068B0F5827F00D105E00A
:102A20000021E16102E00021216161610021A162D8
:102A300094F8510028B9002084F85000204600F096
:102A400043F8022084F851002068006820F040001C
:102A500021680860A08800F48270218901F4044193
:102A60000843A18901F400610843217C01F00201BF
:102A70000843217D01F001010843218B01F400711D
:102A80000843217F01F0380108432021095D01F04E
:102A900080010843218D01F400510843216808603A
:102AA0000421A06901EA1040216848602068C069DB
:102AB00020F400602168C86100206065012084F86E
:102AC00051000020A4E7000010B586B004460020A5
:102AD00002900390049005901949206888422DD1F6
:102AE00000BF1848806940F4805016498861084644
:102AF000806900F48050019000BF00BF00BF08460D
:102B0000806940F0040088610846806900F0040094
:102B1000019000BF00BFA02002900220039003207C
:102B2000059002A90848FEF7F5FD4020029000201C
:102B30000390049002A90448FEF7ECFD06B010BD16
:102B40000030014000100240000801402DE9FE4F16
:102B500004460F4690461D460C9E01200190FEF74C
:102B600079FF814694F851B060680290AA46BBF1A3
:102B7000010F0BD00298B0F5827F04D1A06810B984
:102B8000BBF1040F02D00220BDE8FE8F1FB1B8F1E7
:102B9000000F00D00DB90120F6E700BF94F85000F7
:102BA000012801D10220EFE7012084F8500000BF86
:102BB00094F85100042802D0052084F85100002028
:102BC0006065C4F83880E587A5872763E586A58614
:102BD000206460642068006800F04000402805D050
:102BE0002068006840F0400021680860E068B0F5A7
:102BF000006F52D1606810B1BAF1010F09D1206B9A
:102C000000882168C860206B801C2063E08E401E15
:102C1000E0863BE02068806800F00200022810D1C6
:102C2000E08E70B1019801280BD1206B00882168DB
:102C3000C860206B801C2063E08E401EE086002070
:102C400001902068806800F0010068B1E08F58B101
:102C50002068C068A16B0880A06B801CA063E08F17
:102C6000401EE08701200190FEF7F4FEA0EB090072
:102C7000B0420BD3701C48B1012084F8510000BF52
:102C8000002084F8500000BF03207DE7E08E00287C
:102C9000C0D1E08F0028BDD152E0606810B1BAF118
:102CA000010F09D1206B007821680873206B401C4C
:102CB0002063E08E401EE0863CE02068806800F0E3
:102CC0000200022810D1E08E70B1019801280BD1CA
:102CD000206B007821680873206B401C2063E08E15
:102CE000401EE086002001902068806800F001000E
:102CF00068B1E08F58B12068C068A16B0870A06B04
:102D0000401CA063E08F401EE08701200190FEF789
:102D1000A1FEA0EB0900B04201D3701C00B94EB96E
:102D2000012084F8510000BF002084F8500000BF4B
:102D3000032029E7E08E0028BFD1E08F0028BCD116
:102D40004A463146204601F03BFD40B120206065F7
:102D500000BF002084F8500000BF012014E7A068E5
:102D600050B900BF002000902068C0680090206823
:102D70008068009000BF00BF012084F8510000BFB0
:102D8000002084F8500000BF606D08B10120FBE610
:102D90000020F9E670B504462546681EB0F1807F34
:102DA00001D301200FE0681E4FF0E02148610F21A0
:102DB0004FF0FF3002F07AFB00204FF0E0218861F5
:102DC00007200861002070BD10B50346002200BF37
:102DD00093F83C00012801D1022010BD012083F8A6
:102DE0003C0000BF22F0FF00CC6840EA040222F45D
:102DF00040708C6840EA040222F480604C6840EA2B
:102E0000040222F400600C6840EA040222F48050BC
:102E10000C6940EA040222F400504C6940EA0402C2
:102E200022F48040CC6940EA04021868426400BF82
:102E3000002083F83C0000BF00BFCEE730B502465B
:102E40000B4600BF92F83C00012801D1022030BDA2
:102E5000012082F83C0000BF022082F83D0010688B
:102E600044681068816824F070041868044310688E
:102E70004460104D1068A8420BD01068B0F1804F2C
:102E800007D00D4D1068A84203D00C4D1068A84221
:102E900005D121F08001586801431068816001204C
:102EA00082F83D0000BF002082F83C0000BF00BF58
:102EB000CDE70000002C0140000400400008004065
:102EC00010B504460CB9012010BD94F83D0028B996
:102ED000002084F83C00204600F026F8022084F808
:102EE0003D00211D206801F049FD012084F84600C5
:102EF00000BF84F83E0001213F20015540200155CC
:102F00004120015500BF00BF012084F8420043204A
:102F10000155442001554520015500BF012084F88A
:102F20003D000020D0E7000008B5094A0168914241
:102F30000DD100BF0749896941F40061054A9161DB
:102F40001146896901F40061009100BF00BF08BD0E
:102F5000002C0140001002402DE9F04104460D46CE
:102F6000002700BF94F83C00012802D10220BDE8F0
:102F7000F081012084F83C0000BF022084F83D006D
:102F80002068866826F0770626F47F4620688660EB
:102F90002868502833D00CDC202850D004DC0028CE
:102FA0004BD0102851D149E0302849D040284CD18D
:102FB00039E060282DD0702807D0B0F5805F03D0AD
:102FC000B0F5005F41D10DE041E0D5E902136A6838
:102FD000206801F026FD2068866846F077062068A4
:102FE000866034E0D5E902136A68206801F019FDB3
:102FF0002068806840F480402168886027E0EA68A3
:103000006968206801F0DEFD5021206801F014FDA0
:103010001DE0EA686968206801F0E7FD602120682A
:1030200001F00AFD13E0EA686968206801F0CAFD52
:103030004021206801F000FD09E000BF00BF00BF93
:103040002968206801F0F8FC01E0012700BF00BFFB
:10305000012084F83D0000BF002084F83C0000BF40
:10306000384684E710B586B00446002002900390ED
:10307000049005903C492068884217D100BF3B4826
:10308000806940F00400394988610846806900F091
:103090000400019000BF00BF0815029002200390B9
:1030A000059002A93248FEF735FB5BE02068B0F1DD
:1030B000804F16D100BF2D48806940F004002B4995
:1030C00088610846806900F00400019000BF00BFDD
:1030D000022002900390059002A92548FEF71AFBF2
:1030E00040E024492068884221D100BF1F48806900
:1030F00040F008001D4988610846806900F008001A
:10310000019000BF00BF10200290022003900590A4
:1031100002A91948FEF7FEFA00BF1849486820F4D2
:10312000406040F0E06040F4006048601AE01449FC
:103130002068884216D100BF0C48806940F0080022
:103140000A4988610846806900F00800019000BFC4
:1031500000BF4815029002200390059002A906487E
:10316000FEF7D8FA06B010BD002C01400010024056
:103170000008014000040040000C01400000014034
:10318000000800402DE9F04104460D461646002790
:1031900000BF94F83C00012802D10220BDE8F08174
:1031A000012084F83C0000BF36B1042E1BD0082E4D
:1031B00031D00C2E5ED145E02946206801F046FC56
:1031C0002068806940F00800216888612068806973
:1031D00020F004002168886120688069296908431B
:1031E0002168886148E02946206801F05FFC20687A
:1031F000806940F40060216888612068806920F45B
:1032000080602168886120688069296940EA01201E
:103210002168886130E02946206801F07BFC206845
:10322000C06940F008002168C8612068C06920F0CA
:1032300004002168C8612068C069296908432168C1
:10324000C86119E02946206801F098FC2068C0692F
:1032500040F400602168C8612068C06920F4806083
:103260002168C8612068C069296940EA0120216895
:10327000C86101E0012700BF00BF00BF002084F843
:103280003C0000BF384689E710B504460CB9012060
:1032900010BD94F83D0028B9002084F83C00204679
:1032A00000F026F8022084F83D00211D206801F07E
:1032B00065FB012084F8460000BF84F83E00012130
:1032C0003F200155402001554120015500BF00BF5E
:1032D000012084F842004320015544200155452037
:1032E000015500BF012084F83D000020D0E7000018
:1032F00008B50168B1F1804F0DD100BF1849C96907
:1033000041F00101164AD1611146C96901F001017C
:10331000009100BF23E0134A016891420DD100BF24
:103320000F49C96941F002010D4AD1611146C969CD
:1033300001F00201009100BF11E00B4A01689142C7
:103340000DD100BF0649C96941F00401044AD161A9
:103350001146C96901F00401009100BF00BF08BD1A
:1033600000100240000400400008004070B5044610
:103370000D4615B994F83E000BE0042D02D13F2014
:10338000005D06E0082D02D14020005D01E04120F3
:10339000005D012801D0012070BD1DB9022084F814
:1033A0003E000EE0042D03D102213F20015508E02C
:1033B000082D03D102214020015502E002214120C5
:1033C000015501222946206801F01AFB194920689D
:1033D000884201D1012000E0002028B12068406C23
:1033E00040F40040216848641249206888420BD0AC
:1033F0002068B0F1804F07D00F492068884203D081
:103400000E49206888420CD12068806800F00706C9
:10341000062E0CD02068006840F00100216808608A
:1034200005E02068006840F0010021680860002085
:10343000B2E70000002C01400004004000080040FA
:1034400010B504460CB9012010BDA06900B100E020
:1034500000BF94F8410028B9002084F840002046BD
:1034600000F02AF8242084F841002068C06820F485
:1034700000502168C860204601F002FC2068006905
:1034800020F49040216808612068406920F02A00FB
:10349000216848612068C06840F400502168C86015
:1034A00000206064202084F8410084F8420000205D
:1034B000606300BFC8E7000010B586B00446002076
:1034C00002900390049005901949206888422DD1FC
:1034D00000BF1848C06940F400301649C86108466A
:1034E000C06900F40030019000BF00BF00BF084673
:1034F000806940F0040088610846806900F004009B
:10350000019000BF00BF042002900220039003201E
:10351000059002A90848FEF7FDF808200290002057
:103520000390049002A90448FEF7F4F806B010BD19
:103530000044004000100240000801402DE9F84F0F
:1035400004460E46174699464FF0000A94F841008B
:10355000202850D106B117B90120BDE8F88F00200E
:103560006064212084F84100FEF774FA8246A78443
:10357000E784A068B0F5805F04D1206910B9002508
:10358000B04602E035464FF000081EE053460022E8
:1035900080212046CDF8009001F0F0FB20B12020E2
:1035A00084F841000320D8E745B9B8F80000C0F31B
:1035B00008002168486008F1020803E028782168C3
:1035C00048606D1CE08C401EE084E08C0028DDD15A
:1035D0005346002240212046CDF8009001F0CEFB5A
:1035E00020B1202084F841000320B6E7202084F891
:1035F00041000020B1E70220AFE700BFFEE701462F
:1036000008684069C0F38020B0B16FF480600A6838
:10361000506100200863202081F83D00002081F8DF
:103620003E00086C40F00400086400BF002081F8F0
:103630003C0000BF012070470020FCE72DE9F84363
:1036400004460F4615469946DDE90886206800685D
:1036500040F48060216808602068006840F4807051
:1036600021680860434600224FF001112046009671
:1036700000F037F960B12068006800F48070B0F5A0
:10368000807F02D14FF4007020640320BDE8F883EE
:1036900007F0FE0021680861334642463E49204655
:1036A00000F07EF908B10120F0E700BF0020009093
:1036B00020684069009020688069009000BF00BFCA
:1036C00032464146204600F02DFA50B1206C0428C5
:1036D00005D12068006840F400702168086001206E
:1036E000D4E7B9F1010F03D1E8B22168086117E00E
:1036F000C5F307202168086132464146204600F0A4
:1037000011FA50B1206C042805D12068006840F4FB
:103710000070216808600120B8E7E8B221680861FC
:1037200032464146204600F0FDF950B1206C042895
:1037300005D12068006840F400702168086001200D
:10374000A4E72068006840F4807021680860434660
:1037500000224FF001112046009600F0C2F858B147
:103760002068006800F48070B0F5807F02D14FF4CB
:1037700000702064032089E7F8B240F0010021685E
:103780000861334642460449204600F009F908B171
:1037900001207BE7002079E7020001002DE9F843D2
:1037A0000446884615469946DDE9086720680068A2
:1037B00040F4807021680860334600224FF0011108
:1037C0002046009700F08DF860B12068006800F492
:1037D0008070B0F5807F02D14FF400702064032028
:1037E000BDE8F88308F0FE00216808613B463246D8
:1037F0002149204600F0D4F808B10120F0E700BFCD
:103800000020009020684069009020688069009046
:1038100000BF00BF3A463146204600F083F950B160
:10382000206C042805D12068006840F400702168ED
:1038300008600120D4E7B9F1010F03D1E8B2216893
:10384000086117E0C5F30720216808613A46314650
:10385000204600F067F950B1206C042805D120689B
:10386000006840F40070216808600120B8E7E8B201
:10387000216808610020B3E70200010070B504462A
:103880000D46164625E02046FFF7B9FE08B1012097
:1038900070BD681CE8B1FEF7DDF8801BA84200D8B7
:1038A000BDB920684069C0F3800090B90020206352
:1038B000202084F83D00002084F83E00206C40F079
:1038C0002000206400BF002084F83C0000BF0120DD
:1038D000DEE720684069C0F380000028D3D00020D4
:1038E000D6E72DE9F04104460D4617461E46DDF8A1
:1038F000188038E0701CA8B3FEF7ACF8A0EB080005
:10390000B04200D876BBC5F3074001280AD1206831
:103910004069A9B20840A9B2884201D101200BE058
:10392000002009E020688069A9B20840A9B2884255
:1039300001D1012000E00020B84214D10020206312
:10394000202084F83D00002084F83E00206C40F0E8
:103950002000206400BF002084F83C0000BF01204C
:10396000BDE8F081FFE7C5F3074001280AD12068D0
:103970004069A9B20840A9B2884201D101200BE0F8
:10398000002009E020688069A9B20840A9B28842F5
:1039900001D1012000E00020B842ABD00020DFE7D9
:1039A0002DE9F04104460D4616461F4658E02068B2
:1039B0004069C0F38020E8B12068006840F40070DE
:1039C000216808606FF480602168486100202063EE
:1039D000202084F83D00002084F83E00206C40F058
:1039E0000400206400BF002084F83C0000BF0120D8
:1039F000BDE8F081701C90B3FEF72CF8C01BB042FC
:103A000000D866BBC5F3074001280AD12068406989
:103A1000A9B20840A9B2884201D101200BE00020E0
:103A200009E020688069A9B20840A9B2884201D1A2
:103A3000012000E0002090B900202063202084F8BD
:103A40003D00002084F83E00206C40F020002064FF
:103A500000BF002084F83C0000BF0120C8E7FFE75A
:103A6000C5F3074001280AD120684069A9B208407F
:103A7000A9B2884201D101200BE0002009E02068B2
:103A80008069A9B20840A9B2884201D1012000E0B2
:103A9000002000288BD00020AAE770B504460D4610
:103AA000164637E020684069C0F30010A0B16FF0FF
:103AB00010002168486100202063202084F83D0028
:103AC000002084F83E00206C206400BF002084F8B1
:103AD0003C0000BF012070BDFDF7BCFF801BA84269
:103AE00000D8BDB920684069C0F3801090B90020AB
:103AF0002063202084F83D00002084F83E00206CE4
:103B000040F02000206400BF002084F83C0000BF8B
:103B10000120E0E720684069C0F380100028C1D090
:103B20000020D8E770B504460D46164625E020462D
:103B3000FFF765FD08B1012070BD681CE8B1FDF715
:103B400089FF801BA84200D8BDB920684069C0F336
:103B5000C01090B900202063202084F83D00002090
:103B600084F83E00206C40F02000206400BF00205C
:103B700084F83C0000BF0120DEE720684069C0F304
:103B8000C0100028D3D00020D6E7000070B504464E
:103B9000B4F90600B0F57A7F12DD2F2119A0FCF7E9
:103BA00038FB28B12F2117A0FCF733FB401C00E0A5
:103BB00014A005460C22294618A001F04BFC70BD4C
:103BC000A08828B9B4F9060021680968486316E09E
:103BD000A088042805D1B4F9060021680968886323
:103BE0000DE0A088082805D1B4F90600216809680D
:103BF000C86304E0B4F9060021680968086400BFDE
:103C0000DDE70000696E746572666163655C496E2C
:103C1000745F6D6F746F722E630000005B25733AE2
:103C200025645D204D6F746F72207370656564202C
:103C3000697320746F6F20686967680D0A0000005F
:103C400010B50446A08820B900202168096848639F
:103C500013E0A088042804D1002021680968886343
:103C60000BE0A088082804D1002021680968C863F7
:103C700003E00020216809680864A1882068FFF734
:103C800075FB10BD2DE9F04F87B000200590069020
:103C900003900490824603A800F09AF83AE005A841
:103CA00000F096F8BDF91430BDF90CC0A3EB0C027E
:103CB000002A01DB134600E05342B3F5C87F20DA47
:103CC000BDF91630BDF90EC0A3EB0C01002901DBD4
:103CD0000B4600E04B42B3F5C87F12DABDF918304D
:103CE000BDF910C0A3EB0C00002801DB034600E087
:103CF0004342B3F5C87F04DA0AF1010000F0FF0A7D
:103D000001E04FF0000ADDE90501CDE903010620DD
:103D100002F024FCBAF1640FC1DB00200090019096
:103D20000290002400250026002780468146834615
:103D30001DE0684600F0C8F8BDF906000444BDF96E
:103D400008000544BDF90A00A0F580400644BDF90D
:103D500000000744BDF902008044BDF9040081441D
:103D6000062002F0FBFB0BF1010000F0FF0BBBF1A2
:103D7000640FDEDB642094FBF0F00F4908606420E0
:103D800095FBF0F00D490860642096FBF0F00C49BB
:103D90000860642097FBF0F00A490860642098FBF3
:103DA000F0F009490860642099FBF0F007490860C9
:103DB00007B0BDE8F08F0000340200203802002078
:103DC0003C02002040020020440200204802002063
:103DD0002DE9FC41044600200190009001A93B2000
:103DE00000F030F969463C2000F02CF99DF80010F5
:103DF0009DF8042041EA0220FCF766FC07462E49A4
:103E0000FCF79CFA06464FF08041FCF765FA054640
:103E1000FCF786FC00B2208001A93D2000F012F9D9
:103E200069463E2000F00EF99DF800109DF8042030
:103E300041EA0220FCF748FC07461F49FCF77EFADE
:103E400006464FF08041FCF747FA0546FCF768FC50
:103E500000B2608001A93F2000F0F4F869464020DC
:103E600000F0F0F89DF800109DF8042041EA0220CF
:103E7000FCF72AFC07461049FCF760FA06464FF0AB
:103E80008041FCF729FA0546FCF74AFC00B2A08005
:103E900020880A490988401A00B2208060880849B1
:103EA0000988401A00B26080A08806490988401A33
:103EB00000B2A080BDE8FC8133000047340200203E
:103EC000380200203C02002010B50446204600F0D5
:103ED00005F8A01DFFF77CFF10BD00002DE9FC4197
:103EE000044600200190009001A9432000F0AAF8A8
:103EF0006946442000F0A6F89DF800109DF80420C3
:103F000041EA0220FCF7E0FB07462D49FCF716FAD0
:103F100006462C49FCF7E0F90546FCF701FC00B227
:103F2000208001A9452000F08DF86946462000F068
:103F300089F89DF800109DF8042041EA0220FCF762
:103F4000C3FB07461E49FCF7F9F906461D49FCF775
:103F5000C3F90546FCF7E4FB00B2608001A94720E5
:103F600000F070F86946482000F06CF89DF80010E9
:103F70009DF8042041EA0220FCF7A6FB0746104901
:103F8000FCF7DCF906460F49FCF7A6F90546FCF7F5
:103F9000C7FB00B2A08020880B490988401A00B2F4
:103FA0002080608809490988401A00B26080A08892
:103FB00007490988401A00B2A080BDE8FC810000D2
:103FC000330000470000FA44400200204402002071
:103FD0004802002008B58021682000F045F8002044
:103FE000009003E069466B2000F02CF89DF800007B
:103FF0004028F7D100216B2000F036F818211B2053
:1040000000F032F800211C2000F02EF800213820AA
:1040100000F02AF800216A2000F026F8012119207A
:1040200000F022F801211A2000F01EF801216B2077
:1040300000F01AF800216C2000F016F8FFF722FEBD
:1040400008BD00003EB504460D46642001210B4624
:104050002246CDE900510290D1210248FDF7E8FD4A
:104060003EBD00005802002013B584B00446642011
:10407000012105AA0B46CDE9002102902246D0215C
:104080000248FDF78FFF06B010BD00005802002067
:104090002DE9F04107460D461646002210210C4836
:1040A000FDF7D2FC384600F0ADFB8046002405E069
:1040B000002000F0A7FB2855601CC4B2B442F7DB17
:1040C000012210210248FDF7BFFC4046BDE8F08107
:1040D0000008014070B50446002210210848FDF791
:1040E000B3FC204600F08EFB002000F08BFB054661
:1040F000012210210248FDF7A7FC284670BD0000F0
:104100000008014070B504460720FFF7E3FF0546AD
:104110002946272000F010F805F0400050B1112288
:1041200021466120FFF7B4FFFF21E22000F004F8F0
:10413000002070BD0120FCE770B505460C4600224A
:1041400010210848FDF780FC284600F05BFB06467E
:10415000204600F057FB012210210248FDF774FCB5
:10416000304670BD0008014010B5002204210E4801
:10417000FDF76AFC642002F0F1F9012204210A48EB
:10418000FDF762FCC82002F0E9F90022042106488C
:10419000FDF75AFC642002F0E1F9012204210248F3
:1041A000FDF752FC10BD0000000C014010B50022CC
:1041B00004210648FDF748FC642002F0CFF90122F3
:1041C00004210248FDF740FC10BD0000000C014036
:1041D00008B50020009069460348008800F051FEB1
:1041E000BDF8000008BD00004C0200200EB5002202
:1041F0004FF480513048FDF727FC022002F0AEF961
:10420000012211032C48FDF71FFC022002F0A6F941
:10421000002002900190009002AA40F20F1127485E
:10422000008801F08BF89DF8081025A001F012F924
:1042300002AA4FF488712148008801F07FF89DF8A8
:10424000081025A001F006F901AA40F20F111B4841
:10425000008801F087F8BDF8041026A001F0FAF8F4
:1042600007E069461548008800F0D0FD022002F002
:1042700075F99DF800000028F3D022A001F0EAF8BB
:104280000E48008800F096FE02210C48008800F0DD
:10429000CDFE14210948008800F060FF1421074872
:1042A000008800F02FFF1BA001F0D4F8034800881D
:1042B00001F02DF80EBD0000000C01404C02002062
:1042C000564C35334C3158204D6F64656C5F494412
:1042D0003A2025580A000000564C35334C315820FE
:1042E0004D6F64756C655F547970653A2025580A86
:1042F00000000000564C35334C31583A2025580AFE
:10430000000000004368697020626F6F7465640A82
:1043100000000000564C35334C315820556C7472F7
:1043200061204C6974652044726976657220457815
:10433000616D706C652072756E6E696E67202E2ED1
:104340002E0A000010B50446A1882068FDF772FB14
:1043500010BD10B50446A18801222068FDF774FB4A
:1043600010BD10B50446A18800222068FDF76CFB43
:1043700010BD000000B585B00020019002900390B0
:10438000049000BF3048806940F010002E498861D9
:104390000846806900F01000009000BF00BF00BF19
:1043A0000846806940F0200088610846806900F076
:1043B0002000009000BF00BF00BF0846806940F0A9
:1043C000040088610846806900F00400009000BF86
:1043D00000BF00BF0846806940F0080088610846B9
:1043E000806900F00800009000BF00BF012241F684
:1043F00010011648FDF728FB01224DF20401144874
:10440000FDF722FB00224FF480711048FDF71CFBE2
:1044100041F610100190012002900020039002202C
:10442000049001A90948FDF775F94DF204000190C7
:1044300001200290002003900220049001A904486A
:10444000FDF768F905B000BD00100240000801400A
:10445000000C014010B50B480B4908600B48486040
:10446000002109488160C1604FF480410161002151
:1044700041618161C1610162FDF7F2FA08B1FDF7A6
:1044800046F910BD0054004058020020801A060072
:1044900010B50B480B4908600B48486000210948DB
:1044A0008160C1604FF480410161002141618161FF
:1044B000C1610162FDF7D4FA08B1FDF728F910BD1A
:1044C00000580040AC020020801A060010B50E48CB
:1044D0000E4908604FF48270486000210B488160EB
:1044E000C160016141614FF4007181611021C161BE
:1044F00000210162416281620A21C162FEF784FAF1
:1045000008B1FDF704F910BD0030014000030020A0
:1045100000B595B0002011901290139014900F9058
:1045200010901C2108A8FBF762FE20216846FBF7CB
:104530005EFE2B482B490860032048600021294873
:10454000816040F2E731C160002101614161816118
:10455000FEF7B6FC08B1FDF7DAF84FF48050119081
:1045600011A92048FEF7F8FC08B1FDF7D0F81D4866
:10457000FEF78AFE08B1FDF7CAF800200F901090F0
:104580000FA91848FEF75AFC08B1FDF7C0F86020E3
:104590000890002009900A900B900C900D900E90BE
:1045A000082208A90F48FEF7EDFD08B1FDF7AFF8A6
:1045B0000020009001900290039004904FF400506E
:1045C00005900020079069460648FEF7FDFB08B1FC
:1045D000FDF79DF80348FEF745FD15B000BD00004E
:1045E000002C01405803002000B589B0002007903E
:1045F00008901C216846FBF7FAFD4FF080401749F0
:1046000008600320486000211448816040F2E731CF
:10461000C160002101618161FEF736FE08B1FDF73E
:1046200076F800200790089007A90C48FEF706FCD2
:1046300008B1FDF76CF86020009000200190029016
:104640000490042269460548FEF79CFD08B1FDF779
:104650005EF80248FEF706FD09B000BDA003002089
:1046600000B589B00020079008901C216846FBF730
:10467000BEFD18481849086003204860002116480C
:10468000816040F2E731C160002101618161FEF784
:10469000FBFD08B1FDF73BF800200790089007A943
:1046A0000D48FEF7CBFB08B1FDF731F86020009014
:1046B0000020019002900490002269460648FEF70F
:1046C00061FD08B1FDF723F80348FEF7CBFC09B004
:1046D00000BD000000040040E803002000B589B0E0
:1046E0000020079008901C216846FBF780FD1848C1
:1046F000184908600320486000211648816040F294
:10470000E731C160002101618161FEF7BDFD08B1A3
:10471000FCF7FDFF00200790089007A90D48FEF761
:104720008DFB08B1FCF7F3FF6020009000200190A2
:10473000029004900C2269460648FEF723FD08B15A
:10474000FCF7E5FF0348FEF78DFC09B000BD000053
:10475000000800403004002010B50B480B490860E9
:104760004FF4E1304860002108488160C160016178
:104770000C21416100218161C161FEF761FE08B138
:10478000FCF7C5FF10BD0000004400407804002085
:1047900000BFFEE700BFFEE708B508490968C90881
:1047A0004FF47A72B1FBF2F14143009100BF00BFB8
:1047B00000994A1E00920029F9D108BD0C00002082
:1047C000F8B504460E46154633460122022120461E
:1047D000009500F029F828B1606D40F02000606578
:1047E0000320F8BD3346002280212046009500F0CA
:1047F0001BF828B1606D40F0200060650320F0E7F1
:104800000020EEE701B582B0002001904FF47A70ED
:10481000012301AA02A900900248FEF797F99DF82A
:1048200004000EBD000300202DE9F84F04460D469C
:1048300090461E46DDF82890FDF70CF9A0EB090024
:10484000371AFDF707F982462C480068C0F3CB30D1
:104850007843009045E0701C002842D0FDF7FAF83C
:10486000A0EB0A00B84200D2A7BB2068406820F045
:10487000E000216848606068B0F5827F0DD1A068D3
:10488000B0F5004F03D0A068B0F5806F05D1206867
:10489000006820F0400021680860A06AB0F5005F61
:1048A0000DD100BF2068006820F400502168086026
:1048B0002068006840F400502168086000BF0120B3
:1048C00084F8510000BF002084F8500000BF03208E
:1048D000BDE8F88FFFE7009800B900270098401E58
:1048E0000090206880682840A84201D1012000E0A3
:1048F00000204045AFD10020EAE700000C00002076
:1049000010B501F0FBFF012801D001F0C9FEFDF751
:1049100063FC10BD00B58FB0282105A8FBF767FC2C
:1049200014216846FBF763FC012005900004069003
:10493000002007900120099002200C90C1030D91E6
:104940004FF4E0110E9105A8FDF72CFE08B1FCF71D
:10495000DEFE0F20009002200190002002904FF414
:10496000806003900020049002216846FDF7F6FC69
:1049700008B1FCF7CCFE0FB000BD704710B502685F
:104980001C4B984208D0B0F1804F05D01A4B98428A
:1049900002D01A4B984203D122F070024B681A439E
:1049A000144B984208D0B0F1804F05D0124B98427A
:1049B00002D0124B984203D122F44072CB681A43C2
:1049C00022F080034C6943EA040202608B68C362F0
:1049D0000B688362074B984201D10B690363012383
:1049E0004361036903F001031BB1036923F0010371
:1049F000036110BD002C014000040040000800408D
:104A000030B501F01F05012404FA05F3046A9C4344
:104A10000462046A01F01F0502FA05F52C430462E2
:104A200030BD30B50C46816821F47F4142EA032550
:104A300025432943816030BD0A46816821F0700119
:104A400042F00703194381607047000030B5026AE5
:104A5000056A25F0010505624368846924F0700445
:104A600024F003040D682C4322F002028D682A43CF
:104A70000D4DA84206D100BF22F00802CD682A439E
:104A800022F00402084DA84207D123F4807323F4D6
:104A900000734D692B438D692B43436084614D68DE
:104AA0004563026230BD0000002C014030B5026A4F
:104AB000056A25F0100505624368846924F4E04422
:104AC00024F440740D6844EA052422F020028D6825
:104AD00042EA05120E4DA84207D100BF22F0800223
:104AE000CD6842EA051222F04002094DA84209D1E0
:104AF00023F4806323F400634D6943EA85038D69E1
:104B000043EA8503436084614D688563026230BD7A
:104B1000002C014030B5026A056A25F480750562F3
:104B20004368C46924F0700424F003040D682C4326
:104B300022F400728D6842EA05220F4DA84207D187
:104B400000BF22F40062CD6842EA052222F48062AE
:104B5000094DA84209D123F4805323F400534D6931
:104B600043EA05138D6943EA05134360C4614D6848
:104B7000C563026230BD0000002C014030B5036AFD
:104B8000056A25F4805505624468C26922F4E04252
:104B900022F440720D6842EA052223F400538D6826
:104BA00043EA0533064DA84204D124F480444D69FC
:104BB00044EA85144460C2614D680564036230BDF7
:104BC000002C014030B50B461446026A056A25F0F8
:104BD00001050562816921F0F00141EA041122F02A
:104BE0000A021A438161026230BD30B50B46144699
:104BF000026A056A25F010050562816921F4704199
:104C000041EA043122F0A00242EA03128161026209
:104C100030BD00BF00BF02680C3252E8002F22F402
:104C2000907102680C3242E80013002BF3D100BFF0
:104C300000BF00BF0268143252E8002F22F00101C9
:104C40000268143242E80013002BF3D100BF016B5D
:104C500001290ED100BF00BF02680C3252E8002FBC
:104C600022F0100102680C3242E80013002BF3D14D
:104C700000BF202180F8421000210163704700002E
:104C800070B504462168096921F44051E268114376
:104C9000226811612269A1681143626941EA020533
:104CA0002168C96841F20C62914329432268D160AE
:104CB0002168496921F44071A26911432268516158
:104CC0002D4A2168914202D1FDF724FC01E0FDF755
:104CD00011FC00EBC00101EB001162689200B1FB16
:104CE000F2F100EBC00202EB001263689B00B2FB22
:104CF000F3F26423B2FBF3F202EBC20303EB021202
:104D0000A1EB8201322202EB01116422B1FBF2F12C
:104D100001F0F00100EBC00202EB001263689B009F
:104D2000B2FBF3F26423B2FBF3F201EB021200EBED
:104D3000C00101EB001163689B00B1FBF3F100EBD4
:104D4000C00303EB00136668B600B3FBF6F36426FA
:104D5000B3FBF6F303EBC30606EB0313A1EB8301EE
:104D6000322303EB01116423B1FBF3F101F00F01D6
:104D700011442268916070BD003801402DE9F8436C
:104D800004460D4617469846089E31E0701C70B3E5
:104D9000FCF760FEA0EB0800B04200D816B9032073
:104DA000BDE8F8832068C06800F00400F8B1802DE9
:104DB0001ED0402D1CD020680068C0F3C000B0B1E8
:104DC00000BF0020009020680068009020684068C4
:104DD000009000BF00BF2046FFF71BFF0820606463
:104DE00000BF002084F8400000BF0120D8E7FFE7A3
:104DF000206800682840A84201D1012000E000207E
:104E0000B842C3D00020CBE700BFFEE7F8B50646A6
:104E10000C460025002000906A46E521304600F04F
:104E20008DFA05439DF8000020702846F8BD7CB53A
:104E300006460D4600246946304600F04AF8044311
:104E400001AA3121304600F079FA044364B99DF893
:104E5000040000F001009DF80010884202D10120FA
:104E6000287001E00020287020467CBD70B5054602
:104E7000002401228621284600F094FA04432046AB
:104E800070BDF8B506460C4600256A4696213046A8
:104E900000F068FA0543BDF8000020802846F8BD00
:104EA000F8B506460C4600256A464B21304600F010
:104EB00045FA2843C5B29DF80000142801D101200D
:104EC00020809DF800000A2801D10220208068B2CD
:104ED000F8BDF8B506460C4600256A463021304636
:104EE00000F02CFA05439DF8000000F0100000903F
:104EF0009DF80000001108B9012000E0002020709A
:104F00002846F8BDF8B506460C4600256A465E21DF
:104F1000304600F027FA0543BDF80000B0F5D77F12
:104F20002FD00EDC602829D006DC1D281ED01E28BC
:104F300020D0512836D11CE0AD2823D0D62831D13D
:104F40001BE040F2E132811A904222D008DCB0F539
:104F5000E67F1BD0A0F2D920E0B1082822D114E0CE
:104F6000AE291BD0B1F5D87F1CD116E00F202080D0
:104F70001CE000BF1420208018E000BF212020800A
:104F800014E000BF3220208010E000BF64202080A9
:104F90000CE000BFC820208008E000BF4FF4FA708A
:104FA000208003E001250020208000BF00BF2846AC
:104FB000F8BD0000F8B50646002400252D250AE0BE
:104FC000A5F12D0018490A5C2946304600F0EAF99F
:104FD0000443681CC5B2872DF2DD304600F097F916
:104FE00004430020009004E069463046FFF71FFFAD
:104FF00004439DF800000028F6D03046FFF736FF46
:105000000443304600F08EF904430922082130465B
:1050100000F0C8F9044300220B21304600F0C2F929
:1050200004432046F8BD00003E6C0008F8B5064673
:105030000D46002469463046FFF764FF04430CB177
:105040000120F8BD012D02D0022D4ED126E0142200
:105050004B21304600F0A6F9044607226021304675
:1050600000F0A0F9044605226321304600F09AF9C9
:10507000044638226921304600F094F9044640F293
:1050800005727821304600F0C7F9044640F2066206
:105090007A21304600F0C0F9044628E00A224B216C
:1050A000304600F07FF904460F226021304600F0C0
:1050B00079F904460D226321304600F073F9044665
:1050C000B8226921304600F06DF9044640F60D72B1
:1050D0007821304600F0A0F9044640F60E627A21AD
:1050E000304600F099F9044601E0012400BF00BFFA
:1050F0002CB9BDF80010304600F030F804432046CB
:105100009FE700002DE9F84F82460C464FF000095A
:105110006A46DE21504600F025F940EA0909BDF84B
:105120000000C0F309000090BDF8001001FB04F07E
:10513000FBF7E9FA07464FF03332074BFBF7E3F989
:105140000546FBF725FB83465A466C21504600F086
:105150003FF94846BDE8F88F3333F13FF8B50646CE
:105160000C46002569463046FFF79AFE0543BDF818
:10517000000008B90120F8BDBDF80000012869D180
:10518000322C30D006DC0F2C0CD0142C15D0212C56
:105190005DD11DE0642C33D0C82C3ED0B4F5FA7F2D
:1051A00055D147E01D225E21304600F035F9272217
:1051B0006121304600F030F94BE051225E2130464B
:1051C00000F02AF96E226121304600F025F940E016
:1051D000D6225E21304600F01FF96E226121304652
:1051E00000F01AF935E04FF4D7725E21304600F036
:1051F00013F94FF4F4726121304600F00DF928E004
:1052000040F2E1225E21304600F006F94FF462726E
:105210006121304600F000F91BE040F2E1325E21EE
:10522000304600F0F9F840F296426121304600F035
:10523000F3F80EE040F291525E21304600F0ECF8B7
:1052400040F2C1526121304600F0E6F801E001254C
:1052500000BF5AE0642C2ED006DC142C0AD0212C7E
:1052600013D0322C4ED11BE0C82C31D0B4F5FA7FCC
:1052700048D13AE01E225E21304600F0CDF82222CD
:105280006121304600F0C8F83EE060225E213046E1
:1052900000F0C2F86E226121304600F0BDF833E024
:1052A000AD225E21304600F0B7F8C62261213046BB
:1052B00000F0B2F828E04FF4E6725E21304600F0CC
:1052C000ABF84FF4F5726121304600F0A5F81BE011
:1052D00040F2D9225E21304600F09EF84FF43E7233
:1052E0006121304600F098F80EE040F28F425E21D6
:1052F000304600F091F840F2A4426121304600F0BF
:105300008BF801E0012500BF00BF284633E770B5E8
:105310000546002440228721284600F043F8044334
:10532000204670BD70B5054600240022872128461E
:1053300000F038F80443204670BD0000FEB5044676
:105340000D4616464FF47A70012110232A46CDE906
:105350000061029021460248FCF76AFC0020FEBD75
:10536000AC0200207FB504460D461646002003908F
:105370004FF47A70022103AA1023CDE90021029094
:105380002A4621460648FCF753FC9DF80D009DF87F
:105390000C1040EA01203080002004B070BD0000F5
:1053A000AC02002037B584B004460D464FF47A7045
:1053B000012106AA1023CDE9002102902A462146A8
:1053C0000248FCF7EFFD002007B030BDAC02002022
:1053D0007FB505460E46144600200390200E8DF83A
:1053E0000C00200C8DF80D00200A8DF80E00E0B2A4
:1053F0008DF80F004FF47A70042103AA1023CDE931
:1054000000210290324629460248FCF7CBFD0020DD
:1054100004B070BDAC0200207FB505460E461446B0
:105420000020039020128DF80C00E0B28DF80D00E2
:105430004FF47A70022103AA1023CDE900210290D3
:10544000324629460248FCF7ADFD002004B070BD8D
:10545000AC0200200FB4054B10B503A9044A029812
:1054600000F0B0F810BC5DF814FB0000F55C00081B
:1054700050020020490050EAC12018BF04204A0D04
:1054800018BF40F0010040F2FF72B2EB515F08BF5D
:1054900040F00200012808BF05207047024800685C
:1054A000C0F30220704700000CED00E010B50028AA
:1054B00004DB0A07130E054A135406E00A07140E0C
:1054C000034A00F00F031B1FD45410BD00E400E09A
:1054D00018ED00E02DE9F0414F1E00EBC701044636
:1054E000D1E9000115461E4637F006020DD02A46C6
:1054F0003346FBF708F87F1E04EBC703D3E900230C
:10550000FAF75AFF37F00602F1D1022F25D0042F07
:1055100013D0062F18BFBDE8F0812A463346FAF7AC
:10552000F2FFD4E90A23FAF747FF2A463346FAF78F
:10553000EAFFD4E90823FAF73FFF2A463346FAF791
:10554000E2FFD4E90623FAF737FF2A463346FAF793
:10555000DAFFD4E90423FAF72FFF2A463346FAF795
:10556000D2FFD4E90223FAF727FF2A463346FAF797
:10557000CAFFD4E90023BDE8F041FAF71DBF0122BC
:10558000FBF756BAFAF718BF024A00201107FBF7DB
:105590004FBA000001FDFFFF02E008C8121F08C15A
:1055A000002AFAD170477047002001E001C1121FA4
:1055B000002AFBD1704700000149086070470000D5
:1055C000540200202DE9FF4F8DB09B460F46044644
:1055D000002606E025280BD05A460F999047641CF8
:1055E000761C20780028F5D111B03046BDE8F08F48
:1055F0000025A8460122984900E0054314F8013F20
:10560000203B02FA03F00842F7D120782E2817D168
:1056100014F8010F45F004052A280ED06FF02F0270
:105620002078A0F1300109290AD808EB880102EBA3
:10563000410100EB0108641CF2E757F8048B641C7D
:1056400020786C280DD004DC4C2812D06A2811D1A7
:1056500004E074280DD07A280CD10AE045F4001536
:1056600007E0617845F48015814202D1641C05F59C
:105670008015641C2078692844D008DC0028B3D049
:10568000582867D063280FD0642808D13AE07028E2
:1056900065D0732812D075285AD078285AD05A4627
:1056A0000F999047761CD5E017F8040B8DF8000091
:1056B00000208DF80100E946012003E057F8049B23
:1056C0004FF0FF3069074FF0000501D40AE06D1C70
:1056D00045450DDA8542FADB19F805100029F6D1A7
:1056E00006E06D1C8542FCDB19F805100029F8D195
:1056F0002E4404E019F8010B5A460F9990476D1E8D
:10570000F8D2A7E00A200021CDE90801C5F3025034
:1057100002280CD001CFC117021E71F100020CDA71
:105720000023D0EB030063EB01012D2208E0FF1DF5
:1057300027F00707F7E80201EEE72A0504D52B2238
:105740008DF8282001223CE0EA073AD02022F7E732
:105750000A2000E010200021CDE9080107E0102018
:10576000002145F00405CDE908014FF00808C5F314
:105770000250022810D001CF00214FF0000A2A0762
:1057800020D52278702A0DD0DDE908C38CF0100CEA
:105790005CEA030C0CD015E0FF1D27F00707F7E8C3
:1057A0000201EAE740228DF828204FF0010A0CE0C0
:1057B00050EA010306D030238DF828308DF82920D7
:1057C000022292462278582A04D024A20DF1200900
:1057D0000B9209E026A2F9E7DDE90823FBF742F87E
:1057E0000B9B9B5C09F8013D50EA0102F4D1ADEB43
:1057F000090020300890680701D44FF0010808998B
:10580000884503DD0898A8EB000000E000208046F2
:10581000002506E00AA85A46405D0F9990476D1C86
:10582000761C5545F6DB04E030205A460F99904728
:10583000761CB8F10001A8F10108F5DC05E019F8C3
:10584000010B5A460F999047761C0899481E0890FC
:105850000029F4DC641CC4E609280100303132332D
:10586000343536373839616263646566000000009C
:105870003031323334353637383941424344454686
:10588000000000002DE9F84F04460D4621F00040CD
:1058900000917349814211DC7249884201DC06D1D2
:1058A0002CB120462946BDE8F84FFFF768BE6E4888
:1058B000002DCCBF6D496E49BDE8F88F6D4981421E
:1058C00011DD6D498142D8BF4FF0FF366DDD2046B6
:1058D0002946FFF7CFFD042808BFFFF755FE2046F5
:1058E0002946BDE8F88F6549654F25F0004581429E
:1058F00033DD6449814219DD002632464FF0804392
:1059000020462946FAF758FD80468A46012220465D
:105910002946FBF78DF800223B46FAF7EEFD42469A
:105920005346FAF762FE04460D463EE00126002289
:10593000BA463B4620462946FAF73EFD80460F46CA
:105940000022534620462946FAF7D7FD42463B46F9
:10595000FAF74BFE04460D4627E04B4981421BDD1A
:10596000DFF828A102260022534620462946FAF7EE
:10597000CAFD00223B46FAF71FFD80460F46002273
:10598000534620462946FAF7B8FD42463B46FAF709
:105990002CFE04460D4608E0032622462B46002036
:1059A0003B49FAF722FE04460D4622462B46104696
:1059B0001946FAF7A8FD8B46824602460B46FAF7CF
:1059C000A2FD07460246334888460B460621784426
:1059D000FFF780FD52465B46FAF795FD82462E485A
:1059E0008B463A46434605217844FFF773FD3A4615
:1059F0004346FAF788FD02460B46002E50465946AC
:105A00000CDAFAF7D9FC22462B46FAF77CFD01B0F6
:105A100022462B46BDE8F04FFAF772BDFAF7CCFCF0
:105A200022462B46FAF76FFD1C4A7A4402EBC60366
:105A3000D3E90023FAF761FD22462B46FAF75DFD14
:105A4000174A7A4402EBC603D3E90023FAF758FD5C
:105A5000009A002AB8BF81F00041BDE8F88F00002D
:105A6000000010440000F07F182D4454FB21F93F42
:105A7000FB21F9BF0000DC3F0000203E0000F33FA7
:105A80000000F03F0000E63F008003400000F83FC8
:105A90000000F0BF4E1300000C130000AA1200001B
:105AA000721200002DE9F04D9446CCF1000423F071
:105AB00000464CEA0404594F46EAD4749A46884694
:105AC00021F00042BC4206D8454240EA050442EAC1
:105AD000D474BC4204D9BDE8F04D6246FFF752BD14
