:020000040800F2
:10000000283900209D0100082143000837330008EB
:100010001D430008A11200089549000800000000D7
:1000200000000000000000000000000005010008C2
:10003000A514000800000000490100088D440008D4
:10004000B7010008B7010008B7010008B7010008B0
:10005000B7010008B7010008B7010008B7010008A0
:10006000B7010008B7010008B7010008B701000890
:10007000B7010008B7010008B7010008B701000880
:10008000B7010008B7010008B7010008B701000870
:10009000B7010008B7010008B7010008B701000860
:1000A000B7010008B7010008B7010008B701000850
:1000B000B7010008B7010008B7010008B701000840
:1000C000B7010008B7010008B7010008B701000830
:1000D000B7010008B7010008B7010008B701000820
:1000E000B7010008B7010008B7010008DFF810D019
:1000F00000F070FC00480047D1510008AFF30080C9
:1001000028390020224B19680868B0E8F00F80F306
:100110000988BFF36F8F4FF0000080F311884EF015
:100120000D0E70470000000006480068006880F36C
:10013000088862B661B6BFF34F8FBFF36F8F00DFE1
:1001400000BF00BF08ED00E0EFF30980BFF36F8F41
:100150000F4B1A6820E9F00F106008B54FF0BF0090
:1001600080F31188BFF34F8FBFF36F8F05F04AFC08
:100170004FF0000080F31188BDE808401968086856
:10018000B0E8F00F80F30988BFF36F8F704700BFAE
:1001900058000020EFF305807047000006488047B4
:1001A00006480047FEE7FEE7FEE7FEE7FEE7FEE75C
:1001B000FEE7FEE7FEE7FEE707450008ED00000862
:1001C000202A04DB203A21FA02F00021704721FAAC
:1001D00002F3D040C2F12002914008431946704713
:1001E000D2B201E000F8012B491EFBD27047002279
:1001F000F6E710B513460A4604461946FFF7F0FF26
:10020000204610BD421C10F8011B0029FBD1801AAA
:1002100070470022CBB20178994200D10246401CBF
:100220000029F8D110467047F0B480EA0102D40FDB
:100230004200B2EB410F02D20246084611464A0084
:1002400042D0C30DDDB2C1F3C752AD1A202D35DA4D
:10025000C1F3160141F4000204B15242C5F1200677
:1002600002FA06F12A411044B3EBD05F23D0C4B1A7
:10027000012DA0EBC35009DCF0BC4FF0004202EAB4
:10028000C352DBB200F5000000F002BB400000F1F9
:10029000807000EBC350A0F1807040EAD17049003B
:1002A00009E0490841EAC071A0EBC35000F5000025
:1002B000400800EBC350F0BC00F0E1BA61420122FB
:1002C00002EB4101001BF6E7F0BC704781F00041F2
:1002D000AAE780F00040A7E780EA010210B502F02B
:1002E0000043400022D04A001FD0010E01EB1261F2
:1002F000C0F35600C2F3560240F4000042F400027C
:10030000A0FB022000047F39140400D0401C50EAF6
:10031000124001D44000491EC2B20C0604EBD010BA
:10032000401C4008802A02D003E0002010BD20F0CD
:100330000100002900DA0020184310BD30B480EA23
:10034000010202F0004530F0004221F0004013D0DD
:1003500090B1C30DD40DC2F31601C0F31600E41A18
:1003600041F4000140F400027D34914201D3641C49
:1003700000E04900002C02DA30BC002070474FF446
:1003800000000023914201D3891A034340084FEA39
:100390004101F7D151B1914202D14FF0004105E046
:1003A00002D24FF0010101E06FF0010103EBC450F4
:1003B000284430BC00F063BA2DE9FE4F804681EA44
:1003C0000300C00F0C46009021F0004123F00045CF
:1003D000B8EB0200A94105D24046214690461C4692
:1003E0000B46024623F00040104347D0270DC7F3C9
:1003F0000A00C3F30A510290401A019040286BDAB8
:10040000C3F3130040F4801B0098924620B10023F0
:10041000D2EB030A63EB0B0B01985946C0F1400283
:10042000504600F00BFA06460D4650465946019AD2
:1004300000F013FA10EB08006141002487EA115222
:1004400084EAE7731A4340D0009A62B3019A012A02
:100450004FEA075215DC001B61EB02014FF000422E
:1004600002EA0752CDE90042001C41F580113246F4
:100470002B4600F04AFA03B0BDE8F08F4046214613
:10048000F9E7001B61EB0201001C41F58013001825
:100490005B412018A2F5001747EB030140EAD57035
:1004A000B6196D4111E06D084FEA360645EAC07590
:1004B0004FEA0752001B61EB0201001C41F580115D
:1004C00049084FEA30000019514132462B4603B02B
:1004D000BDE8F04F00F00ABA009801224000002366
:1004E000D0EB020263EBE073009821464FEAE07420
:1004F000B8EB000061EB0401E9E783F000435BE740
:1005000081F0004158E72DE9FE4F81EA030404F031
:10051000004421F0004100944FF0000B23F0004311
:1005200050EA01045ED052EA03045BD0C3F30A54DC
:10053000C1F30A552C44A4F2F3340194A0FB0254F5
:10054000C1F3130141F48011C3F3130343F4801387
:1005500001FB024400FB034E840A970A44EA8154DB
:1005600047EA8357A4FB076802958D0A05FB0785B8
:100570004FEA932C04FB0C542705029D4FEA0658C2
:1005800047EA1637B5EB08056EEB070C870E920E9F
:1005900047EA811742EA8312A7FB0201B6EB0B017F
:1005A00064EB00042B0D43EA0C335E1844EB1C5043
:1005B000DA465146E7FB0201C5F313044FEA0B3359
:1005C00043EA14534FEA0432019C43EA0603A4F1C0
:1005D0000C040294009CCDE900B400F096F903B03D
:1005E000BDE8F08F00200146F9E72DE9F04D81EAE2
:1005F000030404F0004B21F0004514464FF0000ABC
:1006000023F0004150EA050220D054EA01021DD037
:10061000C5F30A570246C5F31303C1F31300C1F330
:100620000A5640F4801543F48013A7EB0608101B0C
:10063000D64608F2FD3873EB050002D308F1010835
:1006400001E092185B41B8F1000F03DA0020014687
:10065000BDE8F08D00204FF48011064684460EE080
:10066000171B73EB050705D3121B63EB050306434A
:100670004CEA010C49084FEA300092185B4150EAFD
:100680000107EDD152EA030012D082EA040083EAA6
:100690000501084305D0101BAB4106D201220023FF
:1006A00006E000224FF0004302E06FF00102531019
:1006B0001AEB06004CEB085110EB0A0041EB0B0162
:1006C000BDE8F04D00F012B9C10F80EAE0700844B7
:1006D000CA079623002100F0DBB80EB5C10F80EAEF
:1006E000E0700844CA07002140F233438DE80E0051
:1006F0000A460B4600F009F903B000BD00F00042C5
:1007000020F00040C10DC0F3160040F400007F2926
:1007100001DA00207047962903DCC1F19601C84038
:1007200001E096398840002AF4D04042704770B505
:10073000C1F30A5201F000450024C1F3130140F255
:10074000FF3341F480119A4201DA002070BD40F27B
:1007500033439A42A2F2334203DC5242FFF730FDA8
:1007600000E090402C43F1D0404270BD00F00042C8
:1007700030F000400AD0C10D01F56071C0F31600E1
:1007800042EA0151C2084007114370470020014668
:100790007047000030B5041E71F1000404DB4FF017
:1007A0000044404264EB0101141E73F1000405DBB8
:1007B0001C464FF00043524263EB04038B4208BFD8
:1007C000824230BD01F0004330B421F0004150EAD4
:1007D000010206D00A0DA2F56072C1F31301002ACE
:1007E00002DC30BC00207047440F44EAC104C10061
:1007F000E01830BC00EBC25000F041B8002801DB2B
:10080000C0F10040002901DBC1F100418142704785
:1008100030B50B46014600202022012409E021FAD0
:1008200002F59D4205D303FA02F5491B04FA02F5CD
:100830002844151EA2F10102F1DC30BD202A04DBA0
:10084000203A00FA02F1002070479140C2F12003E3
:1008500020FA03F3194390407047202A06DBCB1798
:10086000203A41FA02F043EAE07306E041FA02F36B
:10087000D040C2F120029140084319467047002938
:10088000A8BF7047401C490008BF20F00100704716
:1008900010B4B0FA80FC00FA0CF050EA010404BF76
:1008A00010BC704749B1CCF1200421FA04F411FACC
:1008B0000CF118BF012121430843A3EB0C01CB1D10
:1008C0004FEA00614FEA102042BF002010BC704781
:1008D00000EBC35010440029A4BF10BC7047401C5B
:1008E000490008BF20F0010010BC704710B5141E6D
:1008F00073F1000408DA401C41F1000192185B41D9
:100900001A4301D120F0010010BD2DE9F04D9246AF
:100910009B4611B1B1FA81F202E0B0FA80F22032C6
:100920009046FFF78BFF04460F4640EA0A0041EA73
:100930000B0153465A46084313D0114653EA0100AF
:1009400019D0C8F140025046FFF73AFC05460E4662
:10095000504659464246FFF771FF084305D0012033
:1009600004E020463946BDE8F08D0020054346EA04
:10097000E0762C4337430A986305E40AA0EB0800AD
:100980000022FD0A44EA47540A3002D500200146FD
:10099000E9E7010510196941DDE9084500196941D8
:1009A000BDE8F04DA2E770B521F0004303430CD041
:1009B000C1F30A550024D5EB040564EB0403D617F4
:1009C000AD1AB34102DB0020014670BD201841EB97
:1009D000025170BD064C074D06E0E06840F001038F
:1009E00094E8070098471034AC42F6D3FFF782FB37
:1009F000D8600008F860000870B58C1810F8015B2A
:100A000015F0070301D110F8013B2A1106D110F8A7
:100A1000012B03E010F8016B01F8016B5B1EF9D1AB
:100A20002B0705D40023521E0DD401F8013BFAE731
:100A300010F8013BCB1A921C03E013F8015B01F89C
:100A4000015B521EF9D5A142D8D3002070BD000031
:100A50002DE9F0416648007810B101287ED109E007
:100A600000206449C8806449C8806449C8806449DA
:100A7000C88077E06349B1F90000FFF725FE07461B
:100A80006148016A3846FFF7CFFB06465F48016AB6
:100A90003046FFF71BFC05465D48016A2846FFF714
:100AA000C3FB0446FFF72AFE00B25249C8805549ED
:100AB000B1F90000FFF708FE07465348016A3846BF
:100AC000FFF704FC06465148016A3046FFF7FEFB7B
:100AD00005464F48016A2846FFF7F8FB0446FFF732
:100AE0000DFE00B24449C8804649B1F90000FFF745
:100AF000EBFD07464448016A3846FFF795FB06467A
:100B00004248016A3046FFF78FFB04464048016ABD
:100B10002046FFF7DBFB0546FFF7F0FD00B2374943
:100B2000C8803849B1F90000FFF7CEFD07463648C6
:100B3000016A3846FFF7CAFB06463448016A304668
:100B4000FFF772FB04463248016A2046FFF76CFB50
:100B50000546FFF7D3FD00B2294900E001E0C88057
:100B600000E000BF00BF2349B1F9060000224FF4A6
:100B7000167100F097FB1F49C8801F49B1F90600A4
:100B800000224FF4167100F08DFB1B49C8801B49F1
:100B9000B1F9060000224FF4167100F083FB1749EB
:100BA000C8801749B1F9060000224FF4167100F011
:100BB00079FB1349C8801348B0F90000322808DADD
:100BC00000200C49C8800C49C8800C49C8800C49D9
:100BD000C880084802F078FE074802F075FE074812
:100BE00002F072FE064802F06FFEBDE8F0810000E0
:100BF000E5000020EC010020F4010020FC010020B1
:100C000004020020E60000203801002080010020BE
:100C1000C80100202DE9FF5F6E4802F0F3FF6E4A25
:100C2000B2F900106B4AB2F9000000F013FC6949F8
:100C30000880694AB2F90210664AB2F9020000F06F
:100C400009FC64494880644AB2F90410614AB2F967
:100C5000040000F0FFFB5F498880084600885E4979
:100C600008805C48408848805A4880888880594974
:100C7000B1F90600FFF731FD064632460B465748EC
:100C800000F090FB0446FFF752FD00B25149C880C6
:100C9000B1F90800FFF721FD064632460B464F48E2
:100CA000183000F07FFB0446FFF741FD01B24948D0
:100CB00001810146B1F90A00FFF70FFD06463246F1
:100CC0000B464648303000F06DFB0446FFF72FFD21
:100CD00001B2404841810146B1F90A00FFF7FDFC2D
:100CE00006460F463B49B1F90600FFF7F6FC82467F
:100CF00000223B4BFFF707FC804632463B4604F0A0
:100D0000EFF80446374A384BFFF76FFC0022374BA9
:100D1000CDE90001FFF7F7FBCDE90201FFF707FD81
:100D200000B2334948802B49B1F90A00FFF7D5FCDE
:100D3000804689462749B1F90800FFF7CEFC0646F0
:100D40000022274BFFF7DFFB824642464B4604F06A
:100D5000C7F80446234A244BFFF747FC0022234BE5
:100D6000CDE90001FFF7CFFBCDE90201FFF7DFFC82
:100D700000B21F4988801749B1F90400FFF7ADFCA4
:100D8000824600221B4BFFF7BEFB804600221A4B17
:100D9000FFF72BFC0646194A194BFFF7B4FBCDE9C8
:100DA000000118480068FFF7E1FC0446DDE9002374
:100DB000FFF702FBCDE90201FFF704FD11490860CE
:100DC00008460068FFF79AFC00B209490880BDE8B0
:100DD000FF9F00001A3500200A01002010000020AB
:100DE0000000F03F6E861BF0F9210940008066404C
:100DF0000401002000409F400000E040FA7E6ABCF1
:100E00007493783F1001002010B502F081FF06486E
:100E100002F0B4FD054802F0B1FD054802F0AEFD58
:100E2000044802F0ABFD10BDEC010020F4010020ED
:100E3000FC010020040200202DE9F0474749B1F9E8
:100E40000610A1F5FA70FFF748FC06460022444B55
:100E5000FFF7CBFB0446FFF7B5FC42490861424966
:100E6000B1F90200FFF730FC3E4948613F49B1F952
:100E70000200FFF732FC804600223D4BFFF743FBA8
:100E8000064600223B4BFFF7B0FB0446FFF79AFCF7
:100E900039494861334800F079FA3049B1F9041012
:100EA000A1F5FA70FFF719FC064600222C4BFFF75C
:100EB0009CFB0446FFF786FC304908612A49B1F9DA
:100EC0000400FFF701FC2D4948612849B1F90000F1
:100ED000FFF703FC80460022254BFFF714FB064674
:100EE0000022244BFFF781FB0446FFF76BFC2449EB
:100EF0004861224800F04AFA1849B1F90210A1F5F8
:100F0000FA70FFF7EAFB06460022154BFFF76DFB70
:100F10000446FFF757FC1B4908611349B1F900006B
:100F2000FFF7D2FB174948611049B1F90400FFF7F8
:100F3000D4FB064600220E4BFFF7E5FA04460022DA
:100F40000C4BFFF752FB8046FFF73CFC0E49486113
:100F50000C4800F01BFABDE8F0870000E600002016
:100F60000000494014010020040100201A3500202F
:100F700000409F400000E040380100205C0100205C
:100F800080010020A4010020C80100201CB51548E4
:100F9000012100238022CDE9001013A1154804F09F
:100FA00095FD1548022100238022CDE9001013A1F0
:100FB000154804F08BFD1548012100238022CDE95E
:100FC000001013A1154804F081FD154802210023EB
:100FD0008022CDE9001013A1154804F077FD04F03C
:100FE000D3FC1CBDB8000020706F7765725F746120
:100FF000736B000051520008BC000020666C6967EA
:1010000068745F7461736B00C9500008C0000020F1
:101010006C65645F7461736B000000000D51000823
:10102000F0000020636F6D5F7461736B000000005F
:101030007D50000828B900210B4A11700B4A11702D
:1010400010E001280ED109490978491C074A11709E
:10105000114609780A2905D10121034A117000219E
:10106000024A117070470000E400002000010020D7
:1010700010B52048007830B101280ED002281ED0CB
:10108000032834D12CE000F03DF828B9012019499B
:1010900008700020184908702AE01848407A012892
:1010A00005D10220134908700020144948721448E1
:1010B0000078012802D103200E49087018E00F487B
:1010C000407A012804D10B49087000200B4948726E
:1010D0000B480078012802D103200649087007E078
:1010E000012004F037FC00200249087000E000BF36
:1010F00000BF10BDE5000020F4000020E600002045
:10110000E400002010B52D48007805284BD2DFE818
:1011100000F00311273449002948B0F90000B0F568
:10112000617F06DB01202549087004F0F3FD2549A5
:10113000086039E02248B0F90000B0F5617F0EDAAE
:1011400004F0E8FD1F490968401AB0F57A7F03D31F
:1011500002201A49087002E000201849087023E0B4
:101160001748B0F90000642806DC03201349087012
:1011700004F0D0FD1449086016E004F0CBFD1249DC
:101180000968401AB0F57A7F08D80D48B0F9000018
:10119000642806DD00200949087002E004200749A0
:1011A000087000BF00E000BF00BF044800780428BA
:1011B00001D1002010BD0120FCE70000F400002058
:1011C000E6000020F8000020FC00002070B511218E
:1011D0003148FFF70CF8304802F032FE2E48FFF796
:1011E00011F808B9012070BD2B480078732807D189
:1011F00029484078672803D127488078672801D09C
:101200000120F0E700252448407B00062249897B25
:1012100040EA01402049C97B40EA01201E49097C7F
:1012200040EA01050024002004E01B49095C0C444D
:10123000411CC8B20D28F8DBAC4201D00120D2E736
:10124000154800791449C97840EA012000B21349D1
:101250000880114880791049497940EA012000B29C
:101260000E4948800C48007A0B49C97940EA0120B0
:1012700000B20A49C8800848807A0749497A40EA9A
:10128000012000B2054988800348C07A08720248EC
:10129000007B48720020A6E708350020E600002009
:1012A00000BFFEE703468B4201DD084670479342CC
:1012B00001DA1046FAE71846F8E700002DE9F04F8A
:1012C00089B08246DAE90410FFF700F8CAF80C008A
:1012D000DAF80C10DAF81C00FEF7A6FFCAF81C00BA
:1012E0000021DAF81800FFF789FA03D1DAF80C00C8
:1012F000CAF81800DAF81810DAF80C00FEF7E6FF62
:1013000083465946DAF80800FEF7E6FF0646FFF77F
:101310002DFA04461B4A1C4BFFF767F9CDE904017F
:10132000DAF81C10DAF80400FEF7D6FF0190FFF798
:101330001DFA8046134A144BFFF7E5F804460D46A4
:10134000DAF80C10DAF80000FEF7C6FF8046FFF767
:101350000DFA064622462B46FFF72EF8CDE902018C
:10136000DDE90423FFF728F8CDE90601FFF72AFAA3
:10137000CAF82000DAF80C00CAF8180009B0BDE875
:10138000F08F0000FA7E6ABC7493783F70B5054612
:101390000C462846FFF792FF286A20612046FFF797
:1013A0008DFF70BD2DE9F04788B0824614461D467A
:1013B000DAF81010DAF80000FEF736FFCAF8040079
:1013C000DAF81410DAF80400FEF72EFF064631466C
:1013D000DAF80400FEF7B2FFCAF80C00DAF80800E9
:1013E000FFF7C4F922462B46CDE90001FFF788F844
:1013F000CDE90201DAF80C00FFF7B8F90646DDE99D
:101400000223FFF780F880468946DAF80800FFF7E4
:10141000ADF942464B46CDE90401FEF7CDFFCDE9DB
:101420000601FFF7CFF9CAF808004FF07E50DAF84E
:101430000C10FEF74BFF0646DAF80410FEF74CFFDF
:10144000CAF80000DAF80800FFF790F908B0BDE824
:10145000F08700002DE9FC5F83460C462046FFF72D
:101460003CF907464FF033320C4BFFF74CF88146FE
:101470008A465846FFF731F907464FF03332084B9A
:10148000FFF741F84A465346CDE90001FEF794FFC5
:101490000546FFF74CF900B2BDE8FC9F3333EB3F44
:1014A0003333C33F704772B600BFFEE72DE9F847FC
:1014B0000346002294466EE14FF0010808FA02F458
:1014C000D1F8008008EA0400A0427DD1DFF8DCA258
:1014D000D1F80480A8EB0A09D0453AD014DCB8F161
:1014E000030F50D009DCB8F1000F31D0B8F1010F73
:1014F0001CD0B8F1020F49D120E0B8F1110F18D07B
:10150000B8F1120F42D11EE0B9F5881F25D006DCD4
:10151000B9F5803F20D0B9F5801F37D11AE0B9F571
:10152000001F18D0B9F5041F30D117E0D1F80CC056
:101530002DE0D1F80C8008F1040C28E0D1F80C80E3
:1015400008F1080C23E0D1F80C8008F10C0C1EE027
:1015500000BF00BF00BF00BF00BF00BFD1F80880C0
:10156000B8F1000F02D14FF0040C0BE0D1F8088065
:10157000B8F1010F03D14FF0080C1C6102E04FF0ED
:10158000080C5C6103E04FF0000C00E000BF00BFFE
:10159000FF2801D8984601E003F104084646FF28D9
:1015A00002D84FEA820803E0A2F108084FEA88084F
:1015B0004746D6F800804FF00F0909FA07F928EAE4
:1015C00009080CFA07F900E088E048EA0908C6F8BB
:1015D0000080D1F8048008F08058B8F1805F7DD198
:1015E00000BFDFF8CC81D8F8188048F00108DFF898
:1015F000C091C9F81880C846D8F8188008F00108CA
:10160000CDF8008000BF00BF4FEAB9384FEA920919
:1016100058F829504FEA82784FEA18794FF00F08AE
:1016200008FA09F825EA0805DFF88881434502D160
:101630004FF0000816E0DFF88081434502D14FF0FB
:1016400001080FE0DFF87481434502D14FF0020832
:1016500008E0DFF86C81434502D14FF0030801E058
:101660004FF004084FEA82794FEA197908FA09F82D
:1016700048EA0505DFF84C814FEA920948F82950FD
:10168000D1F8048008F48018B8F5801F0AD1DFF87B
:101690003881D8F8008048EA0008DFF82C91C9F8B2
:1016A000008009E0DFF82081D8F8008028EA0008EF
:1016B000DFF81491C9F80080D1F8048008F400180C
:1016C000B8F5001F10D1DFF8008108F10408D8F840
:1016D000008048EA0008DFF8F09000E05AE009F1E5
:1016E0000409C9F800800DE0DFF8DC8008F1040887
:1016F000D8F8008028EA0008DFF8CC9009F1040946
:10170000C9F80080D1F8048008F40038B8F5003F2B
:101710000ED1DFF8B480A8F10408D8F8008048EAB8
:101720000008DFF8A490A9F10409C9F800800DE0D1
:10173000DFF89480A8F10408D8F8008028EA0008AF
:10174000DFF88490A9F10409C9F80080D1F8048079
:1017500008F48038B8F5803F0ED1DFF86C80A8F12E
:101760000808D8F8008048EA0008DFF85C90A9F182
:101770000809C9F800800DE0DFF84C80A8F10808DE
:10178000D8F8008028EA0008DFF83C90A9F10809A1
:10179000C9F80080521CD1F8008028FA02F8B8F18C
:1017A000000F7FF489AEBDE8F8870000000011103B
:1017B0000010024000080140000C014000100140F0
:1017C00000140140080001400804014010B5C2683F
:1017D00021EA020302EA010443EA0443036110BD63
:1017E0000AB1016101E00B04036170470148006820
:1017F000704700000000002070B504460CB90120BD
:1018000070BD94F83D0028B9002084F83C002046C3
:1018100000F046FB242084F83D002068006820F09A
:101820000100216808602068006840F400402168D9
:1018300008602068006820F400402168086000F01B
:10184000F7FC05465C496068884206D85B488542DB
:1018500001D2012007E0002005E05948854201D26D
:10186000012000E00020012800D1C9E75548B5FB60
:10187000F0F62068406820F03F003043216848605F
:101880004D496068884201D8701C07E04FF496709B
:1018900070434FF47A71B0FBF1F0401C2168096A83
:1018A00021F03F010843216808624349606888428B
:1018B00014D8681E61684900B0FBF1F0401CC0F309
:1018C0000B00042801D204203DE0681E6168490035
:1018D000B0FBF1F0401CC0F30B0034E0A06838B955
:1018E000681E616801EB4101B0FBF1F0401C0AE0A9
:1018F000681E616801EBC10202EB0111B0FBF1F05F
:10190000401C40F48040C0F30B0008B901201AE0ED
:10191000A06848B9681E616801EB4101B0FBF1F0B5
:10192000401CC0F30B000CE0681E616801EBC102B3
:1019300002EB0111B0FBF1F0401CC0F30B0040F4CE
:10194000804040F400402168C9694CF6FF72914321
:1019500008432168C861D4E9070108432168096880
:1019600021F0C001084321680860D4E9031008434E
:101970002168896848F2FF329143084321688860F2
:10198000D4E9050108432168C96821F0FF01084333
:101990002168C8602068006840F001002168086084
:1019A00000202064202084F83D000020206384F87B
:1019B0003E0000BF24E70000A086010080841E00D6
:1019C00000093D0040420F002DE9FE4F04460F463E
:1019D00090469946DDE90CAB0E9E00200290FFF781
:1019E00005FF054694F83D00202872D119230122F5
:1019F000CE492046009501F012FE10B10220BDE84C
:101A0000FE8F00BF94F83C00012801D10220F6E7C8
:101A1000012084F83C0000BF2068006800F001004D
:101A200028B92068006840F001002168086020683B
:101A3000006820F4006021680860222084F83D00DE
:101A4000402084F83E0000202064C4F824A0A4F8BC
:101A50002AB0608D2085B648E0624B464246394642
:101A60002046CDE9006501F087FC08B10120C6E7FA
:101A7000208D88B900BF0020019020684069019046
:101A800020688069019000BF00BF2068006840F4B2
:101A90000070216808604BE0208D01281AD1206871
:101AA000006820F480602168086072B600BF0020E2
:101AB000019020684069019020688069019000BF12
:101AC00000BF2068006840F400702168086062B6BA
:101AD0002EE029E1208D022819D12068006840F409
:101AE00000602168086072B600BF00200190206885
:101AF0004069019020688069019000BF00BF2068A4
:101B0000006820F480602168086062B610E02068F8
:101B1000006840F480602168086000BF00200190E8
:101B200020684069019020688069019000BF00BF73
:101B3000EBE0208D03287DD8208D012815D12A4681
:101B40003146204601F047FE08B1012057E72068E2
:101B50000069616A0870606A401C6062208D401EE6
:101B60002085608D401E6085CFE0208D02282CD11D
:101B7000334600226F492046009501F050FD08B120
:101B800001203CE772B62068006840F400702168CC
:101B9000086020680069616A0870606A401C6062C1
:101BA000208D401E2085608D401E608562B62068B5
:101BB0000069616A0870606A401C6062208D401E86
:101BC0002085608D401E60859FE033460022594984
:101BD0002046009501F023FD08B101200FE72068A1
:101BE000006820F480602168086072B6206800698F
:101BF000616A0870606A401C6062208D401E20850A
:101C0000608D401E60854C4800681921B0FBF1F0E2
:101C10004FF47A71B0FBF1F0C0EBC00000EB800034
:101C2000029000BF0298401E02900298A8B90020BE
:101C3000206300E039E0202084F83D00002084F893
:101C40003E00206C40F02000206462B600BF0020FF
:101C500084F83C0000BF0120D1E620684069C0F351
:101C600080000028DED02068006840F40070216801
:101C7000086020680069616A0870606A401C6062E0
:101C8000208D401E2085608D401E608562B62068D4
:101C90000069616A0870606A401C6062208D401EA5
:101CA0002085608D401E60852FE02A463146204603
:101CB00001F091FD08B10120A1E620680069616A88
:101CC0000870606A401C6062208D401E2085608D17
:101CD000401E608520684069C0F38000A8B1208D57
:101CE000032805D12068006820F48060216808601E
:101CF00020680069616A0870606A401C6062208D1B
:101D0000401E2085608D401E6085208D00287FF458
:101D100010AF202084F83D00002084F83E0000BF72
:101D200084F83C0000BF6AE6022068E6020010006A
:101D30000000FFFF040001000C0000202DE9FC5F03
:101D400004460F4690469946DDE90CAB0E9EFFF720
:101D50004DFD054694F83D0020287DD11923012230
:101D60004D492046009501F05AFC10B10220BDE813
:101D7000FC9F00BF94F83C00012801D10220F6E747
:101D8000012084F83C0000BF2068006800F00100DA
:101D900028B92068006840F00100216808602068C8
:101DA000006820F4006021680860212084F83D006C
:101DB000402084F83E0000202064C4F824A0A4F849
:101DC0002AB0608D20853548E0624B464246394650
:101DD0002046CDE9006501F07FFB08B10120C6E790
:101DE00031E02A463146204601F03AFD50B1206CE0
:101DF000042805D12068006840F40070216808605C
:101E00000120B4E7606A007821680861606A401CBC
:101E10006062208D401E2085608D401E6085206898
:101E20004069C0F3800070B1208D60B1606A0078B5
:101E300021680861606A401C6062208D401E208518
:101E4000608D401E6085208D0028CAD12A4631460B
:101E5000204601F0B1FB00E01CE050B1206C0428EA
:101E600005D12068006840F40070216808600120F6
:101E70007DE72068006840F4007021680860202039
:101E800084F83D00002084F83E0000BF84F83C0048
:101E900000BF6CE702206AE7020010000000FFFFAD
:101EA00010B586B00446002002900390049005907F
:101EB00015492068884225D100BF1448806940F048
:101EC0000800124988610846806900F00800019006
:101ED00000BF00BFC0200290122003900320059095
:101EE00002A90B48FFF7E2FA00BF0848C06940F4B6
:101EF00000100649C8610846C06900F4001001904E
:101F000000BF00BF06B010BD0054004000100240EA
:101F1000000C01400348006803490978084401495E
:101F200008607047000000200800002010B5084835
:101F3000006840F0100006490860032000F098F89F
:101F40000F2000F007F800F02BF8002010BD000073
:101F50000020024070B504460E4800784FF47A71B4
:101F6000B1FBF0F00C490968B1FBF0F5284600F030
:101F7000AFFD08B1012070BD102C07D20022214610
:101F8000501E00F037F80548046001E00120F2E738
:101F90000020F0E7080000200C00002004000020D2
:101FA00008B500BF1148806940F001000F49886101
:101FB0000846806900F00100009000BF00BF00BF2C
:101FC0000846C06940F08050C8610846C06900F00A
:101FD0008050009000BF00BF00BF0549486820F056
:101FE000E06040F00070486000BF08BD0010024093
:101FF000000001402DE9F05F80460D46164600279F
:1020000002F0EEFC074639462A46334601F0070047
:10201000C0F1070ABAF1040F02D94FF0040A01E037
:10202000C0F1070AD14600F1040ABAF1070F02D243
:102030004FF0000A01E0A0F1030AD4464FF0010A74
:102040000AFA09FAAAF1010A0AEA020A0AFA0CFAD9
:102050004FF0010B0BFA0CFBABF1010B0BEA030B7E
:102060004AEA0B042146404602F0C2FCBDE8F09F5C
:1020700000BF00F00702064B19684FF6FF03194036
:10208000044B0B4343EA0221014B196000BF704728
:102090000CED00E00000FA0570B504460D460CB9E1
:1020A000012070BD5A48006800F00700A8420ED217
:1020B0005748006820F00700284355490860084643
:1020C000006800F00700A84201D00120E9E720786D
:1020D00000F0020002281DD1207800F0040004283E
:1020E00005D14C48406840F4E0604A494860207897
:1020F00000F00800082805D14648406840F46050C8
:10210000444948604348406820F0F000A168084313
:1021100040494860207800F0010078B360680128E9
:1021200006D13C48006800F4003090B90120B8E7BF
:102130006068022806D13748006800F0007040B996
:102140000120AEE73348006800F0020008B9012022
:10215000A7E73048406820F00300616808432D4934
:102160004860FFF743FB064609E0FFF73FFB801B93
:1021700041F28831884202D9032092E707E02548DE
:10218000406800F00C006168B0EB810FEDD1204891
:10219000006800F00700A8420ED91D48006820F032
:1021A000070028431A4908600846006800F0070045
:1021B000A84201D0012074E7207800F00400042830
:1021C00007D11448406820F4E060E16808431149F1
:1021D0004860207800F00800082808D10D484068C1
:1021E00020F46050216940EAC1000A49486000F0CB
:1021F0003FF808494968C1F30311074A515CC840D8
:102200000649086006480068FFF7A4FE002048E77A
:1022100000200240001002401E6000080C00002058
:102220000400002001480068704700000C000020F6
:1022300000B5FFF7F7FF04494968C1F30221034ADB
:10224000515CC84000BD0000001002402E60000834
:1022500000B5FFF7E7FF04494968C1F3C221034A0B
:10226000515CC84000BD0000001002402E60000814
:1022700070B500210022002400230020134D69685E
:1022800001F00C05F5B1042D02D0082D19D101E0A3
:102290000F4819E00F4DC1F38346AB5D01F4803563
:1022A00055B10A4D6D68C5F340450B4E725D084D42
:1022B0005D43B5FBF2F402E0084D03FB05F4204654
:1022C00002E000BF024800BF00BF70BD0010024026
:1022D00000127A000C6000081C60000800093D0034
:1022E000F8B504460CB90120F8BD207800F00100D3
:1022F000002878D0F848406800F00C0004280CD082
:10230000F548406800F00C00082811D1F2484068F8
:1023100000F48030B0F5803F0AD1EF48006800F447
:10232000003000285FD0606800285CD10120DBE726
:1023300000BF6068B0F5803F06D1E748006840F410
:102340008030E549086028E0606858B9E2480068D4
:1023500020F48030E04908600846006820F48020BE
:1023600008601AE06068B0F5A02F0BD1DA48006869
:1023700040F48020D84908600846006840F4803066
:1023800008600AE0D448006820F48030D249086030
:102390000846006820F48020086000BF606888B1AB
:1023A000FFF724FA054606E0FFF720FA401B6428F1
:1023B00001D9032098E7C848006800F400300028DD
:1023C000F2D010E0FFF712FA054606E0FFF70EFA2A
:1023D000401B642801D9032086E7BF48006800F449
:1023E00000300028F2D1207800F00200022857D1F6
:1023F000B948406800F00C0050B1B748406800F0A0
:102400000C00082818D1B448406800F4803098B90E
:10241000B148006800F0020020B12069012801D015
:10242000012061E7AC48006820F0F800616940EAEB
:10243000C100A949086033E02069E8B10120A7493B
:102440000860FFF7D3F9054606E0FFF7CFF9401B18
:10245000022801D9032047E79F48006800F00200E6
:102460000028F2D09C48006820F0F800616940EA3A
:10247000C1009949086013E0002098490860FFF7FF
:10248000B5F9054606E0FFF7B1F9401B022801D96E
:10249000032029E79048006800F002000028F2D1EC
:1024A000207800F0080008282DD1A069B8B10120DB
:1024B0008B490860FFF79AF9054606E0FFF796F9A1
:1024C000401B022801D903200EE78348406A00F030
:1024D00002000028F2D0012001F024FF13E00020C8
:1024E0007F490860FFF782F9054606E0FFF77EF9AD
:1024F000401B022801D90320F6E67748406A00F025
:1025000002000028F2D1207800F00400042873D1E2
:1025100000277148C06900F0805070B900BF6E4854
:10252000C06940F080506C49C8610846C06900F03D
:102530008050009000BF00BF01276A48006800F487
:102540008070B0B96748006840F4807065490860E1
:10255000FFF74CF9054606E0FFF748F9401B6428F1
:1025600001D90320C0E65F48006800F480700028AD
:10257000F2D000BFE068012806D15748006A40F059
:1025800001005549086227E0E06858B95248006ADE
:1025900020F00100504908620846006A20F004005B
:1025A000086219E0E06805280BD14B48006A40F04A
:1025B0000400494908620846006A40F001000862C8
:1025C0000AE04548006A20F00100434908620846D5
:1025D000006A20F00400086200BFE068A0B1FFF7C5
:1025E00005F9054609E0FFF701F9401B41F2883182
:1025F000884202D9032077E622E03748006A00F0DB
:1026000002000028EFD012E0FFF7F0F8054608E0DE
:10261000FFF7ECF8401B41F28831884201D90320D2
:1026200062E62D48006A00F002000028F0D1012F78
:1026300005D12948C06920F080502749C86100BFF2
:10264000E069C8B32448406800F00C00082860D056
:10265000E069022848D1002020490866FFF7C6F843
:10266000054606E0FFF7C2F8401B022801D9032007
:102670003AE61948006800F000700028F2D1206A9C
:10268000B0F5803F07D11448406820F40030A168BD
:10269000084311494860D4E9080108430E494968D4
:1026A00021F4741108430C49486001200B49086665
:1026B000FFF79CF8054607E03DE0FFF797F8401B61
:1026C000022801D903200FE60348006800F00070DB
:1026D0000028F2D02FE0000000100240000042422B
:1026E0008004424200700040002014490866FFF751
:1026F0007DF8054606E0FFF779F8401B022801D96E
:102700000320F1E50E48006800F000700028F2D1C7
:1027100011E0E069012800D1E6E50948466806F4C1
:102720008031206A814204D106F47011606A8142CE
:1027300001D00120D8E50020D6E50000000042428B
:102740000010024010B504460CB9012010BD606AAB
:1027500038B96068B0F5827F00D105E00021E16101
:1027600002E00021216161610021A16294F8510021
:1027700028B9002084F85000204600F043F80220D9
:1027800084F851002068006820F04000216808604B
:10279000A08800F48270218901F404410843A189D2
:1027A00001F400610843217C01F002010843217D0E
:1027B00001F001010843218B01F400710843217FDE
:1027C00001F0380108432021095D01F08001084330
:1027D000218D01F400510843216808600421A0699B
:1027E00001EA1040216848602068C06920F4006058
:1027F0002168C86100206065012084F85100002034
:10280000A4E7000010B586B00446002002900390B3
:10281000049005901949206888422DD100BF1848BE
:10282000806940F48050164988610846806900F448
:102830008050019000BF00BF00BF0846806940F093
:10284000040088610846806900F00400019000BF20
:1028500000BFA0200290022003900320059002A94F
:102860000848FEF723FE40200290002003900490C9
:1028700002A90448FEF71AFE06B010BD0030014060
:1028800000100240000801402DE9FE4F04460F46AB
:1028900090461D460C9E01200190FEF7A7FF814641
:1028A00094F851B060680290AA46BBF1010F0BD0BA
:1028B0000298B0F5827F04D1A06810B9BBF1040F73
:1028C00002D00220BDE8FE8F1FB1B8F1000F00D08A
:1028D0000DB90120F6E700BF94F85000012801D19E
:1028E0000220EFE7012084F8500000BF94F8510067
:1028F000042802D0052084F8510000206065C4F847
:102900003880E587A5872763E586A586206460640F
:102910002068006800F04000402805D0206800686A
:1029200040F0400021680860E068B0F5006F52D1C7
:10293000606810B1BAF1010F09D1206B00882168DD
:10294000C860206B801C2063E08E401EE0863BE068
:102950002068806800F00200022810D1E08E70B17B
:10296000019801280BD1206B00882168C860206B7A
:10297000801C2063E08E401EE086002001902068CD
:10298000806800F0010068B1E08F58B12068C0682D
:10299000A16B0880A06B801CA063E08F401EE087C5
:1029A00001200190FEF722FFA0EB0900B0420BD3FB
:1029B000701C48B1012084F8510000BF002084F849
:1029C000500000BF03207DE7E08E0028C0D1E08FDB
:1029D0000028BDD152E0606810B1BAF1010F09D1F1
:1029E000206B007821680873206B401C2063E08E08
:1029F000401EE0863CE02068806800F0020002286B
:102A000010D1E08E70B1019801280BD1206B0078B5
:102A100021680873206B401C2063E08E401EE08616
:102A2000002001902068806800F0010068B1E08F0C
:102A300058B12068C068A16B0870A06B401CA063EF
:102A4000E08F401EE08701200190FEF7CFFEA0EB53
:102A50000900B04201D3701C00B94EB9012084F8BE
:102A6000510000BF002084F8500000BF032029E778
:102A7000E08E0028BFD1E08F0028BCD14A46314605
:102A8000204601F063FC40B12020606500BF0020BB
:102A900084F8500000BF012014E7A06850B900BFBF
:102AA000002000902068C068009020688068009036
:102AB00000BF00BF012084F8510000BF002084F84F
:102AC000500000BF606D08B10120FBE60020F9E670
:102AD00070B504462546681EB0F1807F01D3012001
:102AE0000FE0681E4FF0E02148610F214FF0FF30EA
:102AF00001F07EFF00204FF0E0218861072008618F
:102B0000002070BD10B50346002200BF93F83C00C2
:102B1000012801D1022010BD012083F83C0000BF34
:102B200022F0FF00CC6840EA040222F440708C6876
:102B300040EA040222F480604C6840EA040222F475
:102B400000600C6840EA040222F480500C6940EAFC
:102B5000040222F400504C6940EA040222F480404E
:102B6000CC6940EA04021868426400BF002083F880
:102B70003C0000BF00BFCEE730B502460B4600BFA9
:102B800092F83C00012801D1022030BD012082F8DA
:102B90003C0000BF022082F83D00106844681068C5
:102BA000816824F070041868044310684460104D74
:102BB0001068A8420BD01068B0F1804F07D00D4DBF
:102BC0001068A84203D00C4D1068A84205D121F02E
:102BD00080015868014310688160012082F83D003F
:102BE00000BF002082F83C0000BF00BFCDE700001E
:102BF000002C0140000400400008004010B50446CD
:102C00000CB9012010BD94F83D0028B9002084F8CB
:102C10003C00204600F026F8022084F83D00211DEB
:102C2000206801F071FC012084F8460000BF84F8A0
:102C30003E0001213F200155402001554120015512
:102C400000BF00BF012084F842004320015544200A
:102C500001554520015500BF012084F83D000020AA
:102C6000D0E7000008B5094A016891420DD100BFC4
:102C70000749896941F40061054A916111468969F2
:102C800001F40061009100BF00BF08BD002C0140AD
:102C9000001002402DE9F04104460D46002700BF18
:102CA00094F83C00012802D10220BDE8F081012007
:102CB00084F83C0000BF022084F83D00206886684C
:102CC00026F0770626F47F4620688660286850281C
:102CD00033D00CDC202850D004DC00284BD0102846
:102CE00051D149E0302849D040284CD139E0602802
:102CF0002DD0702807D0B0F5805F03D0B0F5005F0D
:102D000041D10DE041E0D5E902136A68206801F085
:102D10004EFC2068866846F077062068866034E0BE
:102D2000D5E902136A68206801F041FC20688068D8
:102D300040F480402168886027E0EA68696820687C
:102D400001F006FD5021206801F03CFC1DE0EA681E
:102D50006968206801F00FFD6021206801F032FCF5
:102D600013E0EA686968206801F0F2FC40212068FD
:102D700001F028FC09E000BF00BF00BF29682068FF
:102D800001F020FC01E0012700BF00BF012084F812
:102D90003D0000BF002084F83C0000BF384684E7B7
:102DA00010B586B004460020029003900490059070
:102DB0003C492068884217D100BF3B48806940F0F9
:102DC0000400394988610846806900F004000190D8
:102DD00000BF00BF0815029002200390059002A9D1
:102DE0003248FEF763FB5BE02068B0F1804F16D1FC
:102DF00000BF2D48806940F004002B4988610846D7
:102E0000806900F00400019000BF00BF0220029022
:102E10000390059002A92548FEF748FB40E02449AD
:102E20002068884221D100BF1F48806940F0080017
:102E30001D4988610846806900F00800019000BFC4
:102E400000BF1020029002200390059002A91948AB
:102E5000FEF72CFB00BF1849486820F4406040F0A2
:102E6000E06040F4006048601AE01449206888423D
:102E700016D100BF0C48806940F008000A498861FB
:102E80000846806900F00800019000BF00BF4815A7
:102E9000029002200390059002A90648FEF706FB67
:102EA00006B010BD002C0140001002400008014097
:102EB00000040040000C01400000014000080040F8
:102EC0002DE9F04104460D461646002700BF94F850
:102ED0003C00012802D10220BDE8F081012084F8E5
:102EE0003C0000BF36B1042E1BD0082E31D00C2E72
:102EF0005ED145E02946206801F06EFB20688069BC
:102F000040F00800216888612068806920F0040092
:102F1000216888612068806929690843216888617F
:102F200048E02946206801F087FB2068806940F46A
:102F30000060216888612068806920F480602168D1
:102F4000886120688069296940EA012021688861D8
:102F500030E02946206801F0A3FB2068C06940F0FA
:102F600008002168C8612068C06920F00400216859
:102F7000C8612068C069296908432168C86119E0EF
:102F80002946206801F0C0FB2068C06940F4006059
:102F90002168C8612068C06920F480602168C86128
:102FA0002068C069296940EA01202168C86101E000
:102FB000012700BF00BF00BF002084F83C0000BF15
:102FC000384689E710B504460CB9012010BD94F8C5
:102FD0003D0028B9002084F83C00204600F026F887
:102FE000022084F83D00211D206801F08DFA0120A7
:102FF00084F8460000BF84F83E0001213F200155BF
:10300000402001554120015500BF00BF012084F838
:10301000420043200155442001554520015500BF81
:10302000012084F83D000020D0E7000008B50168C9
:10303000B1F1804F0DD100BF1849C96941F00101BC
:10304000164AD1611146C96901F00101009100BF22
:1030500023E0134A016891420DD100BF0F49C969AD
:1030600041F002010D4AD1611146C96901F0020126
:10307000009100BF11E00B4A016891420DD100BFE1
:103080000649C96941F00401044AD1611146C96980
:1030900001F00401009100BF00BF08BD0010024014
:1030A000000400400008004070B504460D4615B904
:1030B00094F83E000BE0042D02D13F20005D06E0B5
:1030C000082D02D14020005D01E04120005D012873
:1030D00001D0012070BD1DB9022084F83E000EE031
:1030E000042D03D102213F20015508E0082D03D112
:1030F00002214020015502E0022141200155012218
:103100002946206801F042FA19492068884201D115
:10311000012000E0002028B12068406C40F400400D
:10312000216848641249206888420BD02068B0F1B9
:10313000804F07D00F492068884203D00E4920688D
:1031400088420CD12068806800F00706062E0CD05B
:103150002068006840F001002168086005E02068F0
:10316000006840F00100216808600020B2E700001C
:10317000002C0140000400400008004010B5044647
:103180000CB9012010BDA06900B100E000BF94F8A7
:10319000410028B9002084F84000204600F02AF8B9
:1031A000242084F841002068C06820F40050216881
:1031B000C860204601F02AFB2068006920F4904096
:1031C000216808612068406920F02A002168486170
:1031D0002068C06840F400502168C8600020606426
:1031E000202084F8410084F842000020606300BF82
:1031F000C8E7000010B586B0044600200290039096
:10320000049005901949206888422DD100BF1848C4
:10321000C06940F400301649C8610846C06900F42E
:103220000030019000BF00BF00BF0846806940F039
:10323000040088610846806900F00400019000BF26
:1032400000BF04200290022003900320059002A9F1
:103250000848FEF72BF90820029000200390049004
:1032600002A90448FEF722F906B010BD0044004050
:1032700000100240000801402DE9F84F04460E46B8
:10328000174699464FF0000A94F84100202850D183
:1032900006B117B90120BDE8F88F00206064212035
:1032A00084F84100FEF7A2FA8246A784E784A0686A
:1032B000B0F5805F04D1206910B90025B04602E066
:1032C00035464FF000081EE053460022802120467C
:1032D000CDF8009001F018FB20B1202084F84100C7
:1032E0000320D8E745B9B8F80000C0F3080021680A
:1032F000486008F1020803E02878216848606D1CE6
:10330000E08C401EE084E08C0028DDD15346002292
:1033100040212046CDF8009001F0F6FA20B120209F
:1033200084F841000320B6E7202084F84100002003
:10333000B1E70220AFE700BFFEE701460868406939
:10334000C0F38020B0B16FF480600A685061002043
:103350000863202081F83D00002081F83E00086CC1
:1033600040F00400086400BF002081F83C0000BF6A
:10337000012070470020FCE72DE9F84304460F4682
:1033800015469946DDE908862068006840F48060AB
:10339000216808602068006840F480702168086037
:1033A000434600224FF001112046009600F037F905
:1033B00060B12068006800F48070B0F5807F02D1B1
:1033C0004FF4007020640320BDE8F88307F0FE008E
:1033D00021680861334642463E49204600F07EF9A6
:1033E00008B10120F0E700BF00200090206840698C
:1033F000009020688069009000BF00BF32464146BF
:10340000204600F02DFA50B1206C042805D1206828
:10341000006840F40070216808600120D4E7B9F129
:10342000010F03D1E8B22168086117E0C5F3072056
:103430002168086132464146204600F011FA50B139
:10344000206C042805D12068006840F400702168D1
:1034500008600120B8E7E8B22168086132464146B9
:10346000204600F0FDF950B1206C042805D12068F9
:10347000006840F40070216808600120A4E720681B
:10348000006840F4807021680860434600224FF0D5
:1034900001112046009600F0C2F858B1206800687B
:1034A00000F48070B0F5807F02D14FF4007020648A
:1034B000032089E7F8B240F0010021680861334633
:1034C00042460449204600F009F908B101207BE793
:1034D000002079E7020001002DE9F8430446884600
:1034E00015469946DDE908672068006840F4807059
:1034F00021680860334600224FF0011120460097F2
:1035000000F08DF860B12068006800F48070B0F5BC
:10351000807F02D14FF4007020640320BDE8F8835F
:1035200008F0FE00216808613B46324621492046EA
:1035300000F0D4F808B10120F0E700BF00200090AF
:1035400020684069009020688069009000BF00BF3B
:103550003A463146204600F083F950B1206C0428E9
:1035600005D12068006840F40070216808600120DF
:10357000D4E7B9F1010F03D1E8B22168086117E07F
:10358000C5F30720216808613A463146204600F01D
:1035900067F950B1206C042805D12068006840F418
:1035A0000070216808600120B8E7E8B2216808616E
:1035B0000020B3E70200010070B504460D46164630
:1035C00025E02046FFF7B9FE08B1012070BD681C58
:1035D000E8B1FEF70BF9801BA84200D8BDB92068FE
:1035E0004069C0F3800090B900202063202084F857
:1035F0003D00002084F83E00206C40F02000206454
:1036000000BF002084F83C0000BF0120DEE72068F6
:103610004069C0F380000028D3D00020D6E72DE910
:10362000F04104460D4617461E46DDF8188038E086
:10363000701CA8B3FEF7DAF8A0EB0800B04200D87F
:1036400076BBC5F3074001280AD120684069A9B2BA
:103650000840A9B2884201D101200BE0002009E016
:1036600020688069A9B20840A9B2884201D101202E
:1036700000E00020B84214D100202063202084F80C
:103680003D00002084F83E00206C40F020002064C3
:1036900000BF002084F83C0000BF0120BDE8F0819D
:1036A000FFE7C5F3074001280AD120684069A9B2A5
:1036B0000840A9B2884201D101200BE0002009E0B6
:1036C00020688069A9B20840A9B2884201D10120CE
:1036D00000E00020B842ABD00020DFE72DE9F04148
:1036E00004460D4616461F4658E020684069C0F360
:1036F0008020E8B12068006840F40070216808600C
:103700006FF480602168486100202063202084F8E5
:103710003D00002084F83E00206C40F0040020644E
:1037200000BF002084F83C0000BF0120BDE8F0810C
:10373000701C90B3FEF75AF8C01BB04200D866BBAD
:10374000C5F3074001280AD120684069A9B20840A2
:10375000A9B2884201D101200BE0002009E02068D5
:103760008069A9B20840A9B2884201D1012000E0D5
:10377000002090B900202063202084F83D00002024
:1037800084F83E00206C40F02000206400BF002040
:1037900084F83C0000BF0120C8E7FFE7C5F30740FD
:1037A00001280AD120684069A9B20840A9B288421C
:1037B00001D101200BE0002009E020688069A9B256
:1037C0000840A9B2884201D1012000E00020002871
:1037D0008BD00020AAE770B504460D46164637E0A8
:1037E00020684069C0F30010A0B16FF0100021689C
:1037F000486100202063202084F83D00002084F8E8
:103800003E00206C206400BF002084F83C0000BF14
:10381000012070BDFDF7EAFF801BA84200D8BDB9AA
:1038200020684069C0F3801090B9002020632020F8
:1038300084F83D00002084F83E00206C40F0200019
:10384000206400BF002084F83C0000BF0120E0E7B6
:1038500020684069C0F380100028C1D00020D8E75C
:1038600070B504460D46164625E02046FFF765FD77
:1038700008B1012070BD681CE8B1FDF7B7FF801BDF
:10388000A84200D8BDB920684069C0F3C01090B903
:1038900000202063202084F83D00002084F83E00B2
:1038A000206C40F02000206400BF002084F83C0021
:1038B00000BF0120DEE720684069C0F3C010002887
:1038C000D3D00020D6E7000070B50446B4F9060056
:1038D000B0F57A7F12DD2F2119A0FCF79AFC28B1F0
:1038E0002F2117A0FCF795FC401C00E014A0054612
:1038F0000C22294618A001F04FF870BDA08828B905
:10390000B4F9060021680968486316E0A088042815
:1039100005D1B4F906002168096888630DE0A08824
:10392000082805D1B4F9060021680968C86304E0D5
:10393000B4F9060021680968086400BFDDE70000EB
:10394000696E746572666163655C496E745F6D6F04
:10395000746F722E630000005B25733A25645D204E
:103960004D6F746F72207370656564206973207485
:103970006F6F20686967680D0A00000010B5044683
:10398000A08820B9002021680968486313E0A08856
:10399000042804D100202168096888630BE0A0880E
:1039A000082804D1002021680968C86303E00020CA
:1039B000216809680864A1882068FFF775FB10BDBD
:1039C0002DE9F04F87B000200590069003900490F9
:1039D000824603A800F09AF83AE005A800F096F8AD
:1039E000BDF91430BDF90CC0A3EB0C02002A01DBB9
:1039F000134600E05342B3F5C87F20DABDF9163014
:103A0000BDF90EC0A3EB0C01002901DB0B4600E061
:103A10004B42B3F5C87F12DABDF91830BDF910C0BA
:103A2000A3EB0C00002801DB034600E04342B3F5A2
:103A3000C87F04DA0AF1010000F0FF0A01E04FF04C
:103A4000000ADDE90501CDE90301062001F082FF4E
:103A5000BAF1640FC1DB00200090019002900024B5
:103A60000025002600278046814683461DE06846E3
:103A700000F0C8F8BDF906000444BDF9080005448B
:103A8000BDF90A00A0F580400644BDF900000744D6
:103A9000BDF902008044BDF904008144062001F014
:103AA00059FF0BF1010000F0FF0BBBF1640FDEDBEF
:103AB000642094FBF0F00F490860642095FBF0F05F
:103AC0000D490860642096FBF0F00C490860642002
:103AD00097FBF0F00A490860642098FBF0F0094970
:103AE0000860642099FBF0F00749086007B0BDE862
:103AF000F08F00000C0200201002002014020020B1
:103B0000180200201C020020200200202DE9FC41A8
:103B1000044600200190009001A93B2000F030F9FC
:103B200069463C2000F02CF99DF800109DF8042017
:103B300041EA0220FCF7C8FD07462E49FCF7FEFBD0
:103B400006464FF08041FCF7C7FB0546FCF7D6FD63
:103B500000B2208001A93D2000F012F969463E2004
:103B600000F00EF99DF800109DF8042041EA0220B3
:103B7000FCF7AAFD07461F49FCF7E0FB06464FF09D
:103B80008041FCF7A9FB0546FCF7B8FD00B2608058
:103B900001A93F2000F0F4F86946402000F0F0F859
:103BA0009DF800109DF8042041EA0220FCF78CFDEE
:103BB00007461049FCF7C2FB06464FF08041FCF770
:103BC0008BFB0546FCF79AFD00B2A08020880A49CD
:103BD0000988401A00B22080608808490988401A84
:103BE00000B26080A08806490988401A00B2A0800F
:103BF000BDE8FC81330000470C02002010020020C9
:103C00001402002010B50446204600F005F8A01D5F
:103C1000FFF77CFF10BD00002DE9FC4104460020A9
:103C20000190009001A9432000F0AAF869464420C1
:103C300000F0A6F89DF800109DF8042041EA02204B
:103C4000FCF742FD07462D49FCF778FB06462C4958
:103C5000FCF742FB0546FCF751FD00B2208001A9AC
:103C6000452000F08DF86946462000F089F89DF85F
:103C700000109DF8042041EA0220FCF725FD0746CC
:103C80001E49FCF75BFB06461D49FCF725FB054674
:103C9000FCF734FD00B2608001A9472000F070F805
:103CA0006946482000F06CF89DF800109DF804204B
:103CB00041EA0220FCF708FD07461049FCF73EFBED
:103CC00006460F49FCF708FB0546FCF717FD00B256
:103CD000A08020880B490988401A00B220806088A3
:103CE00009490988401A00B26080A08807490988FC
:103CF000401A00B2A080BDE8FC81000033000047FC
:103D00000000FA44180200201C02002020020020BB
:103D100008B58021682000F045F80020009003E0FD
:103D200069466B2000F02CF89DF800004028F7D180
:103D300000216B2000F036F818211B2000F032F82B
:103D400000211C2000F02EF80021382000F02AF875
:103D500000216A2000F026F80121192000F022F845
:103D600001211A2000F01EF801216B2000F01AF842
:103D700000216C2000F016F8FFF722FE08BD0000BD
:103D80003EB504460D46642001210B462246CDE98E
:103D900000510290D1210248FDF716FE3EBD000001
:103DA0002C02002013B584B004466420012105AA2A
:103DB0000B46CDE9002102902246D0210248FDF7B2
:103DC000BDFF06B010BD00002C0200202DE9F0411F
:103DD00007460D461646002210210C48FDF700FD4F
:103DE000384600F0D5FA8046002405E0002000F0B7
:103DF000CFFA2855601CC4B2B442F7DB012210216F
:103E00000248FDF7EDFC4046BDE8F08100080140A6
:103E100070B50446002210210848FDF7E1FC204659
:103E200000F0B6FA002000F0B3FA05460122102196
:103E30000248FDF7D5FC284670BD0000000801408F
:103E400070B504460720FFF7E3FF05462946272003
:103E500000F010F805F0400050B111222146612019
:103E6000FFF7B4FFFF21E22000F004F8002070BD4E
:103E70000120FCE770B505460C46002210210848D9
:103E8000FDF7AEFC284600F083FA0646204600F017
:103E90007FFA012210210248FDF7A2FC304670BDD6
:103EA0000008014010B5002204210E48FDF798FCDF
:103EB000642001F04FFD012204210A48FDF790FC27
:103EC000C82001F047FD002204210648FDF788FCC8
:103ED000642001F03FFD012204210248FDF780FC2F
:103EE00010BD0000000C014010B50022042106485E
:103EF000FDF776FC642001F02DFD0122042102482B
:103F0000FDF76EFC10BD0000000C014010B504462A
:103F1000A1882068FDF75AFC10BD10B50446A188A1
:103F200001222068FDF75CFC10BD10B50446A18895
:103F300000222068FDF754FC10BD000000B585B0DC
:103F40000020019002900390049000BF30488069E7
:103F500040F010002E4988610846806900F010008A
:103F6000009000BF00BF00BF0846806940F02000FD
:103F700088610846806900F02000009000BF00BF03
:103F800000BF0846806940F00400886108468069E7
:103F900000F00400009000BF00BF00BF0846806929
:103FA00040F0080088610846806900F00800009031
:103FB00000BF00BF012241F610011648FDF710FCBA
:103FC00001224CF204011448FDF70AFC00224FF4D0
:103FD00080711048FDF704FC41F61010019001209B
:103FE0000290002003900220049001A90948FDF7E7
:103FF0005DFA4CF204000190012002900020039031
:104000000220049001A90448FDF750FA05B000BD54
:104010000010024000080140000C014010B50B48A0
:104020000B4908600B484860002109488160C16065
:104030004FF480410161002141618161C1610162F0
:10404000FDF7DAFB08B1FDF72EFA10BD0054004071
:104050002C020020801A060010B50E480E49086098
:104060004FF48270486000210B488160C16001619B
:1040700041614FF4007181611021C1610021016231
:10408000416281620A21C162FEF75CFB08B1FDF763
:104090000AFA10BD003001408002002000B595B042
:1040A000002011901290139014900F9010901C21EA
:1040B00008A8FCF79CF820216846FCF798F82B48E4
:1040C0002B4908600320486000212948816040F2A4
:1040D000E731C1600021016141618161FEF78EFD20
:1040E00008B1FDF7E0F94FF48050119011A9204874
:1040F000FEF7D0FD08B1FDF7D6F91D48FEF762FFC7
:1041000008B1FDF7D0F900200F9010900FA91848C2
:10411000FEF732FD08B1FDF7C6F9602008900020D7
:1041200009900A900B900C900D900E90082208A90F
:104130000F48FEF7C5FE08B1FDF7B5F90020009065
:1041400001900290039004904FF4005005900020DD
:10415000079069460648FEF7D5FC08B1FDF7A3F9BC
:104160000348FEF71DFE15B000BD0000002C014005
:10417000D802002000B589B00020079008901C21CB
:104180006846FCF734F84FF0804017490860032078
:10419000486000211448816040F2E731C16000218D
:1041A00001618161FEF70EFF08B1FDF77CF9002087
:1041B0000790089007A90C48FEF7DEFC08B1FDF750
:1041C00072F9602000900020019002900490042277
:1041D00069460548FEF774FE08B1FDF764F9024828
:1041E000FEF7DEFD09B000BD2003002000B589B058
:1041F0000020079008901C216846FBF7F8FF18483C
:10420000184908600320486000211648816040F288
:10421000E731C160002101618161FEF7D3FE08B181
:10422000FDF741F900200790089007A90D48FEF717
:10423000A3FC08B1FDF737F9602000900020019041
:1042400002900490002269460648FEF739FE08B144
:10425000FDF729F90348FEF7A3FD09B000BD0000F2
:10426000000400406803002000B589B000200790DA
:1042700008901C216846FBF7BAFF184818490860E7
:104280000320486000211648816040F2E731C16098
:10429000002101618161FEF795FE08B1FDF703F988
:1042A00000200790089007A90D48FEF765FC08B1AB
:1042B000FDF7F9F860200090002001900290049032
:1042C0000C2269460648FEF7FBFD08B1FDF7EBF846
:1042D0000348FEF765FD09B000BD0000000800407E
:1042E000B003002010B50B480B4908604FF4E130D3
:1042F0004860002108488160C16001610C21416172
:1043000000218161C161FEF739FF08B1FDF7CBF8EB
:1043100010BD000000440040F803002000BFFEE78D
:1043200000BFFEE708B508490968C9084FF47A726A
:10433000B1FBF2F14143009100BF00BF00994A1E5A
:1043400000920029F9D108BD0C000020F8B5044600
:104350000E4615463346012202212046009500F004
:1043600029F828B1606D40F0200060650320F8BD99
:104370003346002280212046009500F01BF828B12A
:10438000606D40F0200060650320F0E70020EEE75C
:1043900001B582B0002001904FF47A70012301AA88
:1043A00002A900900248FEF76FFA9DF804000EBDC6
:1043B000800200202DE9F84F04460D4690461E4627
:1043C000DDF82890FDF712FAA0EB0900371AFDF787
:1043D0000DFA82462C480068C0F3CB307843009039
:1043E00045E0701C002842D0FDF700FAA0EB0A005F
:1043F000B84200D2A7BB2068406820F0E0002168E6
:1044000048606068B0F5827F0DD1A068B0F5004FBC
:1044100003D0A068B0F5806F05D12068006820F057
:10442000400021680860A06AB0F5005F0DD100BFB0
:104430002068006820F40050216808602068006847
:1044400040F400502168086000BF012084F851004A
:1044500000BF002084F8500000BF0320BDE8F88FA3
:10446000FFE7009800B900270098401E00902068E0
:1044700080682840A84201D1012000E0002040458A
:10448000AFD10020EAE700000C00002010B501F0D9
:1044900031FC012801D001F0FFFAFDF73BFD10BD12
:1044A00000B58FB0282105A8FBF7A1FE14216846AE
:1044B000FBF79DFE01200590000406900020079068
:1044C0000120099002200C90C1030D914FF4E011DE
:1044D0000E9105A8FDF704FF08B1FCF7E4FF0F20DB
:1044E000009002200190002002904FF48060039021
:1044F0000020049002216846FDF7CEFD08B1FCF7CC
:10450000D2FF0FB000BD704710B502681C4B984237
:1045100008D0B0F1804F05D01A4B984202D01A4B08
:10452000984203D122F070024B681A43144B984210
:1045300008D0B0F1804F05D0124B984202D0124BF8
:10454000984203D122F44072CB681A4322F08003D0
:104550004C6943EA040202608B68C3620B688362A1
:10456000074B984201D10B6903630123436103693F
:1045700003F001031BB1036923F00103036110BDC4
:10458000002C0140000400400008004030B501F05C
:104590001F05012404FA05F3046A9C430462046ABB
:1045A00001F01F0502FA05F52C43046230BD30B559
:1045B0000C46816821F47F4142EA032525432943C3
:1045C000816030BD0A46816821F0700142F0070326
:1045D000194381607047000030B5026A056A25F012
:1045E000010505624368846924F0700424F0030423
:1045F0000D682C4322F002028D682A430D4DA8421B
:1046000006D100BF22F00802CD682A4322F004023E
:10461000084DA84207D123F4807323F400734D6939
:104620002B438D692B43436084614D68456302626F
:1046300030BD0000002C014030B5026A056A25F04B
:10464000100505624368846924F4E04424F440744E
:104650000D6844EA052422F020028D6842EA051222
:104660000E4DA84207D100BF22F08002CD6842EA79
:10467000051222F04002094DA84209D123F48063BB
:1046800023F400634D6943EA85038D6943EA85039A
:10469000436084614D688563026230BD002C014037
:1046A00030B5026A056A25F4807505624368C469FD
:1046B00024F0700424F003040D682C4322F40072EB
:1046C0008D6842EA05220F4DA84207D100BF22F4AF
:1046D0000062CD6842EA052222F48062094DA842B8
:1046E00009D123F4805323F400534D6943EA0513A1
:1046F0008D6943EA05134360C4614D68C563026276
:1047000030BD0000002C014030B5036A056A25F475
:10471000805505624468C26922F4E04222F4407286
:104720000D6842EA052223F400538D6843EA0533FD
:10473000064DA84204D124F480444D6944EA85140E
:104740004460C2614D680564036230BD002C0140C5
:1047500030B50B461446026A056A25F0010505626C
:10476000816921F0F00141EA041122F00A021A43A2
:104770008161026230BD30B50B461446026A056A9B
:1047800025F010050562816921F4704141EA043188
:1047900022F0A00242EA03128161026230BD00BF32
:1047A00000BF02680C3252E8002F22F490710268B8
:1047B0000C3242E80013002BF3D100BF00BF00BF52
:1047C0000268143252E8002F22F00101026814320C
:1047D00042E80013002BF3D100BF016B01290ED179
:1047E00000BF00BF02680C3252E8002F22F0100117
:1047F00002680C3242E80013002BF3D100BF2021E5
:1048000080F84210002101637047000070B5044633
:104810002168096921F44051E2681143226811615D
:104820002269A1681143626941EA02052168C968E9
:1048300041F20C62914329432268D16021684969A1
:1048400021F44071A2691143226851612D4A216807
:10485000914202D1FDF7FCFC01E0FDF7E9FC00EB21
:10486000C00101EB001162689200B1FBF2F100EBB4
:10487000C00202EB001263689B00B2FBF3F26423F8
:10488000B2FBF3F202EBC20303EB0212A1EB8201D3
:10489000322202EB01116422B1FBF2F101F0F001CE
:1048A00000EBC00202EB001263689B00B2FBF3F264
:1048B0006423B2FBF3F201EB021200EBC00101EB47
:1048C000001163689B00B1FBF3F100EBC00303EB45
:1048D00000136668B600B3FBF6F36426B3FBF6F389
:1048E00003EBC30606EB0313A1EB8301322303EBB7
:1048F00001116423B1FBF3F101F00F0111442268AF
:10490000916070BD003801402DE9F84304460D4622
:1049100017469846089E31E0701C70B3FCF766FF9E
:10492000A0EB0800B04200D816B90320BDE8F88318
:104930002068C06800F00400F8B1802D1ED0402D22
:104940001CD020680068C0F3C000B0B100BF0020D8
:10495000009020680068009020684068009000BFC8
:1049600000BF2046FFF71BFF0820606400BF002047
:1049700084F8400000BF0120D8E7FFE72068006806
:104980002840A84201D1012000E00020B842C3D055
:104990000020CBE700BFFEE70FB4054B10B503A91D
:1049A000044A029800F0B0F810BC5DF814FB000057
:1049B000F150000824020020490050EAC12018BF2D
:1049C00004204A0D18BF40F0010040F2FF72B2EB24
:1049D000515F08BF40F00200012808BF0520704762
:1049E00002480068C0F30220704700000CED00E0B0
:1049F00010B5002804DB0A07130E054A135406E01D
:104A00000A07140E034A00F00F031B1FD45410BDF5
:104A100000E400E018ED00E02DE9F0414F1E00EB4E
:104A2000C7010446D1E9000115461E4637F00602CB
:104A30000DD02A463346FBF766FD7F1E04EBC70305
:104A4000D3E90023FBF7B8FC37F00602F1D1022FBF
:104A500025D0042F13D0062F18BFBDE8F0812A46B9
:104A60003346FBF750FDD4E90A23FBF7A5FC2A46A1
:104A70003346FBF748FDD4E90823FBF79DFC2A46A3
:104A80003346FBF740FDD4E90623FBF795FC2A46A5
:104A90003346FBF738FDD4E90423FBF78DFC2A46A7
:104AA0003346FBF730FDD4E90223FBF785FC2A46A9
:104AB0003346FBF728FDD4E90023BDE8F041FBF7BE
:104AC0007BBC0122FBF76FBFFBF776BC024A0020DC
:104AD0001107FBF768BF000001FDFFFF02E008C8F7
:104AE000121F08C1002AFAD170477047002001E068
:104AF00001C1121F002AFBD1704700000149086064
:104B000070470000280200202DE9FF4F8BB09A4625
:104B10000F460546002606E025280BD052460D9983
:104B200090476D1C761C28780028F5D10FB03046D0
:104B3000BDE8F08F0024A0460122604900E0044354
:104B400015F8013F203B02FA03F00842F7D128781C
:104B50002E2817D115F8010F44F004042A280ED08E
:104B60006FF02F022878A0F1300109290AD808EB4C
:104B7000880102EB410100EB01086D1CF2E757F8D8
:104B8000048B6D1C287869283ED006DC0028CDD027
:104B900063280BD0642804D136E0732810D0752820
:104BA0004BD052460D999047761C85E017F8040BC0
:104BB0008DF8000000208DF80100E946012003E097
:104BC00057F8049B4FF0FF3061074FF0000401D409
:104BD0000AE0641C44450DDA8442FADB19F804103B
:104BE0000029F6D106E0641C8442FCDB19F80410AD
:104BF0000029F8D1264404E019F8010B52460D991A
:104C00009047641EF8D257E001CF4FF00A0B0028FE
:104C100002DA40422D2102E0210504D52B218DF836
:104C20002410012103E0E10705D02021F7E70DF171
:104C3000200908910CE00021F9E701CF4FF00A0BA1
:104C4000F9E75946FBF7E4FD01F1300209F8012DBF
:104C50000028F6D1ADEB090000F1200B600701D46C
:104C60004FF00108D84502DDA8EB0B0000E0002062
:104C70008046002406E009A85246005D0D99904741
:104C8000641C761C08988442F5DB04E03020524610
:104C90000D999047761CB8F10001A8F10108F5DCE8
:104CA00005E019F8010B52460D999047761CBBF1AF
:104CB0000001ABF1010BF4DC6D1C34E709280100A5
:104CC0002DE9F84F04460D4621F00040009173494C
:104CD000814211DC7249884201DC06D12CB12046A8
:104CE0002946BDE8F84FFFF7ECBE6E48002DCCBF5B
:104CF0006D496E49BDE8F88F6D49814211DD6D49FE
:104D00008142D8BF4FF0FF366DDD20462946FFF7C0
:104D100053FE042808BFFFF7D9FE20462946BDE808
:104D2000F88F6549654F25F00045814233DD6449C0
:104D3000814219DD002632464FF080432046294645
:104D4000FBF73AFB80468A46012220462946FBF7BC
:104D50002AFE00223B46FBF7D0FB42465346FBF7B8
:104D600044FC04460D463EE001260022BA463B467E
:104D700020462946FBF720FB80460F46002253467B
:104D800020462946FBF7B9FB42463B46FBF72DFC84
:104D900004460D4627E04B4981421BDDDFF828A180
:104DA00002260022534620462946FBF7ACFB002290
:104DB0003B46FBF701FB80460F4600225346204648
:104DC0002946FBF79AFB42463B46FBF70EFC04469E
:104DD0000D4608E0032622462B4600203B49FBF700
:104DE00004FC04460D4622462B4610461946FBF7A6
:104DF0008AFB8B46824602460B46FBF784FB07463E
:104E00000246334888460B4606217844FFF704FEE5
:104E100052465B46FBF777FB82462E488B463A4666
:104E2000434605217844FFF7F7FD3A464346FBF732
:104E30006AFB02460B46002E504659460CDAFBF739
:104E4000BBFA22462B46FBF75EFB01B022462B46FF
:104E5000BDE8F04FFBF754BBFBF7AEFA22462B46FA
:104E6000FBF751FB1C4A7A4402EBC603D3E900234B
:104E7000FBF743FB22462B46FBF73FFB174A7A44DE
:104E800002EBC603D3E90023FBF73AFB009A002AA2
:104E9000B8BF81F00041BDE8F88F00000000104469
:104EA0000000F07F182D4454FB21F93FFB21F9BF8E
:104EB0000000DC3F0000203E0000F33F0000F03F18
:104EC0000000E63F008003400000F83F0000F0BF14
:104ED0009212000050120000EE110000B611000006
:104EE0002DE9F04D9446CCF1000423F000464CEA45
:104EF0000404594F46EAD4749A46884621F0004289
:104F0000BC4206D8454240EA050442EAD474BC4299
:104F100004D9BDE8F04D6246FFF7D6BDAAF1405571
:104F2000A5F17F6555EA0C040BD0022404EAAA74AB
:104F30004A4DDFF82CE144EAD87452EA000B04D061
:104F40000CE0BDE8F04DFFF7BBBE002C14BF012CF8
:104F5000BDE8F08D022C30D0032C32D056EA0C0B79
:104F60000AD0BE4220D1BA4209D126F0804622F0B2
:104F700080423346114617E000291ADB25E0DFF8AE
:104F8000E4B0FB44002C04BFDBE90001BDE8F08D78
:104F9000012C02BFDBE9000181F00041BDE8F08D8A
:104FA000022C0AD0032C0CD0BA4212D1B8F1000F57
:104FB0000BDA2A482C49BDE8F08D28462B49BDE87C
:104FC000F08D28467146BDE8F08D24482849BDE89B
:104FD000F08D921B12153C2AC4BF204F244E10DCCA
:104FE000BAF1000FBEBF12F13C0F00273E4608DBAE
:104FF0006246FBF7FAFA21F00041FFF761FE07462F
:105000000E4694B1012C08BF86F000460DD0194A17
:10501000194B022C3846314615D0FBF76EFA2A465A
:10502000BDE8F04D114BFBF768BA00221346384635
:105030003146FBF7AFFB04BF0220FFF75FFD3846A8
:105040003146BDE8F08DFBF758FA2A46BDE8F04D31
:10505000064BFBF755BA00000000F07F182D4454B2
:10506000FB2109C04A110000FB21F9BFFB210940C7
:10507000FB21F93F075C143326A6A13C1CB500F0C8
:1050800049FE01901BE0FCF7A1F804462046FBF71F
:10509000D1FF0B48007A012808D1002002230246E4
:1050A000014600900748006800F07EFDFBF7E0FF36
:1050B00000BF062101A800F03DFD00BF00BFE2E7F0
:1050C000E6000020B800002008B500F023FE0090A4
:1050D000FBF79AFE0BE0FBF79DFDFBF7ADFEFBF740
:1050E000B7FC00BF0621684600F024FD00BFF2E7D0
:1050F00013B50C464FF47A73012269460248FEF755
:10510000BBF800981CBD0000F803002008B500F0B3
:1051100001FE009000244DE0601CC4B226480078D7
:1051200030B92648FEF701FF2548FEF7FEFE05E0F0
:105130002248FEF7F2FE2248FEF7EFFE21480078F3
:1051400060B9052094FBF0F100FB114010BB1E4834
:10515000FEF7DCFE1D48FEF7D9FE22E01948007874
:1051600001280DD1204604EBD0714910A4EB410178
:1051700081B91548FEF7CAFE1448FEF7C7FE10E0D5
:1051800010480078022806D10F48FEF7CEFE0F48DF
:10519000FEF7CBFE05E00C48FEF7BFFE0B48FEF71E
:1051A000BCFE0A2C00D1002400BF6421684600F038
:1051B000C1FC00BFB0E70000E4000020C4000020F4
:1051C000CC000020E5000020DC000020D4000020FE
:1051D000FCF7ACFEFFF764F9FEF7B0FEFFF782F8CC
:1051E000FEF75CFFFEF7C6FFFFF700F8FFF73CF89D
:1051F000FEF732FFFEF712FF2F210AA0FBF709F896
:1052000028B12F2107A0FBF704F8401C00E005A0FF
:1052100004466522214608A0FFF7BEFBFBF7B6FE59
:1052200000BFFEE72E2E2F436F72652F5372632F40
:105230006D61696E2E6300005B25733A25645D2005
:1052400048656C6C6F20576F726C640A0000000038
:1052500000F060FD0DE042F210720121002000F02C
:10526000A3FA044614B1FEF71DFE01E0FEF73CFE72
:1052700000BFF0E72DE9F04105460E4626480768D5
:1052800026480068001D00F0D3FA50B92348006892
:1052900090F82C100120884021490968814320485A
:1052A0000160681CD8B9D6B11E4948681B49096815
:1052B00088601A4982680968CA6018490968091D26
:1052C0008268516015490968091D8160154A1349B2
:1052D00009684A6111460968491C11601AE07C1985
:1052E0000E4800684460BC4207D20C480168091DA2
:1052F0000D48006800F0C0FA0CE008480168091D7C
:105300000A48006800F0B8FA09480068844201D2EF
:1053100007480460BDE8F0816C00002058000020C0
:1053200070000020F4040020600000205C000020D9
:105330008800002010B5044600F0B8FA2F48006835
:10534000401C2E4908602E48006840B92C48046073
:105350000846006801280DD100F016F90AE0294836
:10536000006838B926480068C06AE16A884201D8F6
:105370002348046024480068401C2349086094F8CE
:105380002C10012088402149096808431F49086002
:10539000E16A01EB81011E4A02EB81014868A060CD
:1053A0008268E260211D826851608160E16A01EBE0
:1053B0008101174A02EB81026261E16A01EB81011E
:1053C000134A52F82110491CE26A02EB8202104B88
:1053D00043F8221000F07CFA0A48006868B10848D7
:1053E0000068C06AE16A884207D24FF080500949DC
:1053F0000860BFF34F8FBFF36F8F10BD68000020B0
:10540000580000207400002084000020700000205C
:105410004004002004ED00E010B516E000F046FA6C
:105420000C48C068C468201D00F002FA0A480068F1
:10543000401E0949086009480068401E0749086085
:1054400000F046FA204600F00BF8044800680028F7
:10545000E4D110BDE00400206800002064000020BA
:1054600010B50446206B00F043FA204600F040FAE5
:1054700010BD000030B54FF44053154800F007044C
:105480002CB1C01D20F00700114C041B1B1B024651
:10549000104C226000240F4D6C60D018083820F0AA
:1054A00007000D4C206000240B4D2D686C600A4DE8
:1054B0002D682C601146441A4C60074C24680C601F
:1054C000064D4C682C60064D4C682C6030BD0000C9
:1054D0000805002098000020A0000020A80000205F
:1054E000A400002000BFFFF797FF064800680128CE
:1054F000F9D94FF0805004490860BFF34F8FBFF3D4
:105500006F8FF0E74004002004ED00E02DE9FF5F1D
:1055100080460E469146DDE90E7A109CA9F1010005
:10552000216B01EB800B2BF0070B7EB1002507E010
:10553000715D04F134004155705D00B902E06D1CED
:10554000102DF5D300BF002143200155052F00D3B6
:105550000427E762201D00F08CF904F1180000F028
:1055600088F92461C7F10500A0616462414658468C
:10557000039A00F007F92060BAF1000F01D0CAF8D1
:105580000040BDE8FF9F000010B5002407E004EBD9
:1055900084010F4A02EB810000F05EF9641C052CC7
:1055A000F5D30C4800F058F90B4800F055F90B48BA
:1055B00000F052F90A4800F04FF90A4800F04CF99F
:1055C00004480949086004480849086010BD000003
:1055D00040040020A4040020B8040020CC040020D3
:1055E000E0040020F40400205C00002060000020A3
:1055F00010B50146164800E0006803688B42FBD3F3
:105600000246436813448B4204D143684C682344E8
:10561000436001460A464B6813440468A34211D113
:105620000C4C03682468A34208D04B680468646883
:1056300023444B6003681B680B6005E0054B1B6847
:105640000B6001E003680B60884200D0016010BD70
:1056500098000020A000002009480068006808B9F0
:10566000012000E0002020B14FF0FF300549086024
:1056700005E003480068C068006802490860704798
:105680005C0000208800002000BFBF2080F311884C
:10569000BFF34F8FBFF36F8F00BF00BFFEE7000067
:1056A0002DE9F04705464FF0000900F0A3F9304816
:1056B000006808B9FFF7DEFE75B105F00700C0F11C
:1056C0001008C8F1FF30A84201D2012000E00020FC
:1056D00008B9454400E00025012000EBE5700028F2
:1056E00041D0002D3FD02348006885423BD8224E50
:1056F0003046046801E0264624686068A84202D269
:1057000020680028F7D11A48006884422BD03068FE
:1057100000F10809206830606068401B102807D934
:1057200067196068401B786065603846FFF760FF66
:10573000104960680968081A0E4908600846006840
:105740000E490968884203D20A4800680B4908607C
:10575000606840F0004060600020206008480068F9
:10576000401C0749086000F0A3FB4846BDE8F087ED
:10577000A0000020A400002098000020A800002025
:10578000AC000020001F4FF080730360001F21F069
:1057900001030360001F034B0360143802602038CC
:1057A00070470000895600082DE9F04104460F4675
:1057B000164600F07BF81C480068443050F824007E
:1057C00080B90121184800684830015556B130466B
:1057D000FFF750FD4FF0805014490860BFF34F8F22
:1057E000BFF36F8F00F074F800F060F80E480068A7
:1057F000443050F824506DB137B100210A48006898
:10580000443040F8241005E0681E07490968443117
:1058100041F824000021044800684830015500F098
:1058200057F82846BDE8F0815800002004ED00E05C
:1058300001460A69D1E901309860D1E90103586055
:105840005068884201D18868506000200861106863
:10585000401E10601068704700F1080141604FF071
:10586000FF31816000F10801C16001610021016028
:10587000704700210161704710B502460B685C1C3F
:105880000CB9106907E002F1080000E040684468C4
:1058900024689C42FAD944684C604C68A1608860D6
:1058A00041600A611468641C146010BD00BFBF2011
:1058B00080F31188BFF34F8FBFF36F8F00BF034892
:1058C0000068401C0149086070470000B4000020D7
:1058D00006480068401E054908600846006820B96F
:1058E000002080F3118800BF00BF7047B400002083
:1058F00070B506463546E6B1083D2C466068C00FD7
:10590000B8B12068A8B9606820F00040606000F07D
:1059100071F808496068096808440649086020462B
:10592000FFF766FE04480068401C0349086000F069
:10593000BFFA70BDA4000020B000002000204FF08E
:10594000E0210861886102484861072008617047CA
:105950003F19010070B50446002544B100F04AF833
:1059600000212046FFF786FC00F0A2FA05463DB96B
:105970004FF0805003490860BFF34F8FBFF36F8F24
:1059800070BD000004ED00E01CB5124800210B467C
:105990008022CDE9001010A1114800F097F80446CC
:1059A000012C14D100BFBF2080F31188BFF34F8FAB
:1059B000BFF36F8F00BF4FF0FF300A49086001202E
:1059C0000949086000200949086000F04BF80848C0
:1059D00000681CBD8C00002049444C4500000000BC
:1059E000E554000888000020740000206C000020AE
:1059F0009000002002480068401C01490860704780
:105A0000940000201248006818B101201149086074
:105A10001DE000200F4908600F480068B0FA80F0D0
:105A2000C0F11F0101EB81020C4B03EB82004268C5
:105A30005268426000F108024368934202D1426812
:105A4000526842604268D268054B1A6000BF7047D6
:105A5000940000207C000020700000204004002002
:105A60005800002010B50A48006840F47F0008493B
:105A700008600846006840F07F400860FFF75EFF5E
:105A8000002004490860FAF74FFB002010BD000019
:105A900020ED00E0B400002010B500BFBF2080F36F
:105AA0001188BFF34F8FBFF36F8F00BF00F038F93D
:105AB00018B14FF080500449086000BF002080F307
:105AC000118800BF10BD000004ED00E02DE9FF4F7C
:105AD00085B0804689461746DDE912ABB800FFF76E
