:020000040800F2
:10000000A03600209D010008252900080B220008C9
:1000100021290008AD070008212D0008000000007C
:1000200000000000000000000000000005010008C2
:10003000010800080000000049010008912A00089A
:10004000B7010008B7010008B7010008B7010008B0
:10005000B7010008B7010008B7010008B7010008A0
:10006000B7010008B7010008B7010008C50700087C
:10007000B7010008B7010008B7010008B701000880
:10008000B7010008B7010008B7010008B701000870
:10009000B7010008B7010008B7010008B701000860
:1000A000B7010008B7010008B7010008B701000850
:1000B000B7010008B7010008B7010008B701000840
:1000C000B7010008B7010008B7010008B701000830
:1000D000B7010008B7010008B7010008B701000820
:1000E000B7010008B7010008B7010008DFF810D019
:1000F00000F09AF80048004715300008AFF3008080
:10010000A0360020224B19680868B0E8F00F80F391
:100110000988BFF36F8F4FF0000080F311884EF015
:100120000D0E70470000000006480068006880F36C
:10013000088862B661B6BFF34F8FBFF36F8F00DFE1
:1001400000BF00BF08ED00E0EFF30980BFF36F8F41
:100150000F4B1A6820E9F00F106008B54FF0BF0090
:1001600080F31188BFF34F8FBFF36F8F03F022FB33
:100170004FF0000080F31188BDE808401968086856
:10018000B0E8F00F80F30988BFF36F8F704700BFAE
:1001900010000020EFF305807047000006488047FC
:1001A00006480047FEE7FEE7FEE7FEE7FEE7FEE75C
:1001B000FEE7FEE7FEE7FEE7292B0008ED0000085A
:1001C000D2B201E000F8012B491EFBD27047002299
:1001D000F6E710B513460A4604461946FFF7F0FF46
:1001E000204610BD0022CBB20178994200D10246D0
:1001F000401C0029F8D11046704730B50B46014627
:1002000000202022012409E021FA02F59D4205D3B5
:1002100003FA02F5491B04FA02F52844151EA2F15F
:100220000102F1DC30BD0000064C074D06E0E0683D
:1002300040F0010394E8070098471034AC42F6D32D
:10024000FFF758FF9C3C0008BC3C000870B5044612
:1002500000252068806800F0010018B320688068DD
:1002600020F001002168886001F03EF8054613E0A7
:1002700001F03AF8401B02280ED92068806800F08F
:10028000010048B1A06A40F01000A062E06A40F0AE
:100290000100E062012070BD2068806800F001006C
:1002A0000028E5D10020F6E770B505466C6AA06A23
:1002B00000F05000E0B9A06A40F40070A06220682D
:1002C000806800F46020B0F5602F0DD1207B58B914
:1002D000A06A20F48070A062A06A00F4805018B96F
:1002E000A06A40F00100A062204600F03DFB03E060
:1002F000206A016B2846884770BD70B505466C6A58
:10030000A06A40F04000A062E06A40F00400E062B1
:10031000204600F02BFB70BD70B50446656A284688
:1003200000F023FB70BD000038B504460025002016
:1003300000902068806800F0010078BB2068806829
:1003400040F0010021688860194800681949B0FB35
:10035000F1F0009002E00098401E00900098002804
:10036000F9D100F0C1FF054619E000F0BDFF401BC8
:10037000022814D92068806800F0010078B9A06ACA
:1003800040F01000A062E06A40F00100E06200BFAF
:10039000002084F8240000BF012038BD05E020685B
:1003A000806800F001000028DFD00020F5E70000A1
:1003B0000C00002040420F002DE9F04100202949A7
:1003C000088029490880002400250026002780464F
:1003D0001EE000F0ABF825480078204444B22348E2
:1003E0008078A0F5FA70284445B220480079A0F53D
:1003F000FA70304446B21D488079A0F5FA7038444E
:1004000047B20A2003F07EF908F1010000F0FF086E
:10041000B8F10A0FDDDB0A2094FBF0F014490978EB
:10042000084440B2124908700A2095FBF0F01149C7
:100430000978084440B20F4908700A2096FBF0F092
:100440000D490978084440B20B4908700A2097FB0F
:10045000F0F00A490978084440B208490870BDE83C
:10046000F0810000880000208A0000208000002029
:100470008C0000208D0000208E0000208F000020C6
:100480001CB51548012100238022CDE9001013A1DD
:10049000154803F0F3F91548032100238022CDE924
:1004A000001013A1154803F0E9F9154802210023B3
:1004B0008022CDE9001013A1154803F0DFF915489B
:1004C000022100238022CDE9001013A1164803F079
:1004D000D5F903F031F91CBD70000020706F77650D
:1004E000725F7461736B00008D300008740000202F
:1004F000636F6D5F7461736B00000000552F00081F
:10050000780000206B65795F7461736B00000000F8
:10051000F92F00087C0000206A6F79737469636B9F
:100520005F7461736B000000D92F000810B503F0F1
:1005300095F84D4801F0F8FF4B48B0F900004FF432
:100540007A71484340F6FF7190FBF1F0C0F57A7084
:1005500000B2454908800846B0F902004FF47A71AC
:10056000484340F6FF7190FBF1F0C0F57A7000B29D
:100570003D4948800846B0F904004FF47A71484379
:1005800040F6FF7190FBF1F0C0F57A7000B2364989
:1005900088800846B0F906004FF47A71484340F667
:1005A000FF7190FBF1F0C0F57A7000B22E49C8805F
:1005B000084600882D4991F90010401A00B22A49D6
:1005C0000880084640882A4991F90010401A00B274
:1005D0002549488008468088264991F90010401A2C
:1005E00000B2214988800846C088234991F900104B
:1005F000401A00B21C49C880084680881F490988F3
:10060000084400B2184988800846C0881C490988F7
:10061000084400B21449C880B1F900004FF47A725E
:10062000002100F0C5F810490880B1F902004FF42C
:100630007A72002100F0BCF80B494880B1F904003F
:100640004FF47A72002100F0B3F807498880B1F9BD
:1006500006004FF47A72002100F0AAF80249C8801F
:1006600003F00EF810BD0000800000208C00002078
:100670008D0000208E0000208F0000208A000020C6
:100680008800002010B501F06FFF0446012C06D150
:10069000194800880A3000B2174908802AE0022C65
:1006A00006D1154800880A3800B21349088021E0B5
:1006B000032C06D1114800880A3800B20F4908807F
:1006C00018E0042C06D10D4800880A3000B20B490E
:1006D00008800FE0052C03D101200949087209E0C8
:1006E000062C03D101200649487203E0082C01D1F1
:1006F000FFF762FE10BD0000880000208A00002085
:100700008432002010B501F053FE002473202549E7
:10071000087067204870887023480088000AC870F5
:1007200021480078087120484088000A48711E4816
:10073000807888711C48C088000AC8711A4880797E
:10074000087219488088000A487217480079887230
:1007500002F084FF1448007A00121249C872002087
:10076000114908720846407A0E49087300200E4964
:10077000487202F085FF002004E00A49095C0C443D
:10078000411CC8B20D28F8DB200E06494873200C26
:100790008873200AC8730C74084601F03BFE01F010
:1007A00099FD10BD8E3200208432002000BFFEE78C
:1007B00003461846934201DD104602E08B4200DA00
:1007C0000846704710B5024800F08CFA10BD0000D2
:1007D000D800002030B590F840500124AC40C56BE3
:1007E0006C60046863604468102C04D10468A260E3
:1007F0000468E16003E00468A1600468E26030BD61
:10080000704772B600BFFEE738B5024600230020ED
:10081000009000BF92F82400012801D1022038BDC9
:10082000012082F8240000BF4868072812D210680F
:10083000406B0C79641E04EB84051F24AC40A0437C
:100840000D796D1E05EB85050C68AC4020431468DE
:10085000606327E048680D2812D21068006B0C799D
:10086000E41F04EB84051F24AC40A0430D79ED1F69
:1008700005EB85050C68AC4020431468206311E04B
:100880001068C06A0C790D3C04EB84051F24AC4051
:10089000A0430D790D3D05EB85050C68AC40204368
:1008A0001468E06208680A2812D31068C0680C78DF
:1008B0000A3C04EB44050724AC40A0430D780A3DF4
:1008C00005EB45058C68AC4020431468E0600FE000
:1008D000106800690C7804EB44050724AC40A04381
:1008E0000D7805EB45058C68AC4020431468206109
:1008F0000868102802D00868112827D1174C106802
:10090000A0421ED11068806800F40000F0B91068A1
:10091000806840F400001468A0600868102815D1B1
:100920000F4800680F4CB0FBF4F000EB8000400073
:10093000009002E00098401E009000980028F9D135
:1009400004E0906A40F020009062012300BF002084
:1009500082F8240000BF184661E70000002401402F
:100960000C00002040420F007047704770470000A5
:100970002DE9F0410446002700250026A84614B9B9
:100980000120BDE8F081A06810B1207D00B100BF5A
:10099000A06A30B90020E06284F82400204600F00C
:1009A00089F82046FFF752FC0746A06A00F01000C5
:1009B000002873D1002F71D1A06A20F4885040F034
:1009C0000200A062E16960680843217B40EA4100BF
:1009D0000643A068B0F5807F02D0A068012802D14C
:1009E0004FF4807000E000200543207D012811D1E4
:1009F000207B38B9A069401E4FF4006141EA4030C5
:100A0000054307E0A06A40F02000A062E06A40F0E1
:100A10000100E0622068406820F4694028432168B2
:100A20004860206880682149084030432168886018
:100A3000A068B0F5807F02D0A068012802D14FF4F1
:100A4000807000E00020B0F5807F03D1208A401E36
:100A50004FEA00582068C06A20F4700040EA08009D
:100A60002168C8622068806811490840B04208D1F6
:100A70000020E062A06A20F0020040F00100A062C5
:100A800011E0A06A20F0020040F01000A062E06ACD
:100A900040F00100E062012705E0FFE7A06A40F0B6
:100AA0001000A062012738466BE70000FDF7E1FF68
:100AB000FE0E1FFF10B586B0044600200290039082
:100AC000049005902249206888423ED100BF214809
:100AD000806940F400701F4988610846806900F40D
:100AE0000070019000BF00BF00BF0846806940F061
:100AF000040088610846806900F00400019000BF8E
:100B000000BF4E2002900320039002A9124800F07B
:100B10004DFA124812490860002048600021104830
:100B200081608021C160490001618900416120210B
:100B300081610021C16100F0A3F908B1FFF761FEF6
:100B400000BF07482062446200BF06B010BD00002D
:100B5000002401400010024000080140080002404B
:100B6000D80000202DE9F04104460D461646002726
:100B700057492068884203D056492068884205D1E9
:100B80005348001D006800F4702000E00020002899
:100B90007ED100BF94F82400012802D10220BDE8D4
:100BA000F081012084F8240000BF2046FFF7BCFB41
:100BB0000746002F6DD1A06A40F60161884340F4DA
:100BC0008070A06243492068884209D14048001DD6
:100BD000006800F4702008B9012002E0002000E065
:100BE000012078B1A06A20F48010A06220684068DB
:100BF00000F4806000B3A06A20F4005040F48050FC
:100C0000A06219E0A06A40F48010A0623049206818
:100C1000884203D02F492068884205D12C48001D06
:100C2000006800F4806000E0002028B1A06A20F491
:100C3000005040F48050A062A06A00F4805020B1BF
:100C4000E06A20F00600E06201E00020E06200BF00
:100C5000002084F8240000BF1F48216A88621F48D2
:100C6000216AC8621E48216A08636FF00200216889
:100C700008602068806840F480702168886022687D
:100C800002F14C0133462A46206A00F02DF901E0BA
:100C90001AE014E02068806800F46020B0F5602F4E
:100CA00006D12068806840F4A000216888600CE0CC
:100CB0002068806840F480102168886005E000BFEB
:100CC000002084F8240000E00127384667E7000090
:100CD0000024014000280140A9020008190300086F
:100CE000FB02000870B50446E06B056820680668E2
:100CF00094F84010042088402840002846D006F090
:100D00000400002842D02068006800F0200028B9C4
:100D10002068006820F004002168086057492068B6
:100D2000884201D1042027E05449143120688842C8
:100D300001D1402020E0514928312068884201D16A
:100D4000001519E04D493C312068884202D14FF42A
:100D5000804011E0494950312068884202D14FF467
:100D6000802009E0454964312068884202D14FF46F
:100D7000800001E04FF08060404908394860E06A37
:100D800000287AD02046E16A884776E094F840103F
:100D9000022088402840A0B306F0020088B32068F3
:100DA000006800F0200040B92068006820F00A00C8
:100DB00021680860012084F82100304920688842B9
:100DC00001D1022028E02D4914312068884201D148
:100DD000202021E0294928312068884201D140158E
:100DE0001AE026493C312068884202D14FF4005075
:100DF00012E0224950312068884203D14FF400307C
:100E00000AE017E01D4964312068884202D14FF49E
:100E1000001001E04FF0007018490839486000BF29
:100E2000002084F8200000BFA06A30B32046A16AE9
:100E3000884722E094F84010082088402840E0B11C
:100E400006F00800C8B12068006820F00E00216894
:100E5000086094F8401001208840E16B4860012050
:100E6000A06384F8210000BF002084F8200000BFA8
:100E7000206B10B12046216B884770BD08000240EE
:100E80000146002209B901207047164B0868C01AB4
:100E90001423B0FBF3F08000086412480838C863DC
:100EA000022081F821000868026843F6F07082434E
:100EB000D1E901031843CB6818430B6918434B6908
:100EC00018438B691843CB691843024308680260D2
:100ED00000208863012081F82100002081F8200093
:100EE00000BFD1E7080002402DE9F04104460D465D
:100EF00016461F464FF0000800BF94F82000012856
:100F000002D10220BDE8F081012084F8200000BF5A
:100F100094F8210001282CD1022084F8210000201F
:100F2000A0632068006820F00100216808603B464B
:100F3000324629462046FFF74DFCE06A30B1206872
:100F4000006840F00E00216808600BE0206800682F
:100F500020F00400216808602068006840F00A0062
:100F6000216808602068006840F00100216808607E
:100F700006E000BF002084F8200000BF4FF0020808
:100F80004046BFE770B5044600F0AEF90646254678
:100F9000681C10B104480078054400BF00F0A4F9B3
:100FA000801BA842FAD370BD080000202DE9F84745
:100FB0000346002294466EE14FF0010808FA02F45D
:100FC000D1F8008008EA0400A0427DD1DFF8DCA25D
:100FD000D1F80480A8EB0A09D0453AD014DCB8F166
:100FE000030F50D009DCB8F1000F31D0B8F1010F78
:100FF0001CD0B8F1020F49D120E0B8F1110F18D080
:10100000B8F1120F42D11EE0B9F5881F25D006DCD9
:10101000B9F5803F20D0B9F5801F37D11AE0B9F576
:10102000001F18D0B9F5041F30D117E0D1F80CC05B
:101030002DE0D1F80C8008F1040C28E0D1F80C80E8
:1010400008F1080C23E0D1F80C8008F10C0C1EE02C
:1010500000BF00BF00BF00BF00BF00BFD1F80880C5
:10106000B8F1000F02D14FF0040C0BE0D1F808806A
:10107000B8F1010F03D14FF0080C1C6102E04FF0F2
:10108000080C5C6103E04FF0000C00E000BF00BF03
:10109000FF2801D8984601E003F104084646FF28DE
:1010A00002D84FEA820803E0A2F108084FEA880854
:1010B0004746D6F800804FF00F0909FA07F928EAE9
:1010C00009080CFA07F900E088E048EA0908C6F8C0
:1010D0000080D1F8048008F08058B8F1805F7DD19D
:1010E00000BFDFF8CC81D8F8188048F00108DFF89D
:1010F000C091C9F81880C846D8F8188008F00108CF
:10110000CDF8008000BF00BF4FEAB9384FEA92091E
:1011100058F829504FEA82784FEA18794FF00F08B3
:1011200008FA09F825EA0805DFF88881434502D165
:101130004FF0000816E0DFF88081434502D14FF000
:1011400001080FE0DFF87481434502D14FF0020837
:1011500008E0DFF86C81434502D14FF0030801E05D
:101160004FF004084FEA82794FEA197908FA09F832
:1011700048EA0505DFF84C814FEA920948F8295002
:10118000D1F8048008F48018B8F5801F0AD1DFF880
:101190003881D8F8008048EA0008DFF82C91C9F8B7
:1011A000008009E0DFF82081D8F8008028EA0008F4
:1011B000DFF81491C9F80080D1F8048008F4001811
:1011C000B8F5001F10D1DFF8008108F10408D8F845
:1011D000008048EA0008DFF8F09000E05AE009F1EA
:1011E0000409C9F800800DE0DFF8DC8008F104088C
:1011F000D8F8008028EA0008DFF8CC9009F104094B
:10120000C9F80080D1F8048008F40038B8F5003F30
:101210000ED1DFF8B480A8F10408D8F8008048EABD
:101220000008DFF8A490A9F10409C9F800800DE0D6
:10123000DFF89480A8F10408D8F8008028EA0008B4
:10124000DFF88490A9F10409C9F80080D1F804807E
:1012500008F48038B8F5803F0ED1DFF86C80A8F133
:101260000808D8F8008048EA0008DFF85C90A9F187
:101270000809C9F800800DE0DFF84C80A8F10808E3
:10128000D8F8008028EA0008DFF83C90A9F10809A6
:10129000C9F80080521CD1F8008028FA02F8B8F191
:1012A000000F7FF489AEBDE8F88700000000111040
:1012B0000010024000080140000C014000100140F5
:1012C00000140140080001400804014002469368F0
:1012D0000B400BB1012000E0002070470AB1016112
:1012E00001E00B040361704701480068704700008B
:1012F00000000020034800680349097808440149B8
:1013000008607047000000200800002010B5084861
:10131000006840F0100006490860032000F0A8F8BB
:101320000F2000F007F800F02BF8002010BD00009F
:101330000020024070B504460E4800784FF47A71E0
:10134000B1FBF0F00C490968B1FBF0F5284600F05C
:1013500063FE08B1012070BD102C07D20022214687
:10136000501E00F047F80548046001E00120F2E754
:101370000020F0E7080000200C00002004000020FE
:1013800008B500BF1148806940F001000F4988612D
:101390000846806900F00100009000BF00BF00BF58
:1013A0000846C06940F08050C8610846C06900F036
:1013B0008050009000BF00BF00BF0549486820F082
:1013C000E06040F00070486000BF08BD00100240BF
:1013D0000000014001460846002809DB00F01F0319
:1013E00001229A4043099B0003F1E023C3F8002146
:1013F00000BF70472DE9F05F80460D461646002776
:1014000001F0A0FC074639462A46334601F00700A2
:10141000C0F1070ABAF1040F02D94FF0040A01E043
:10142000C0F1070AD14600F1040ABAF1070F02D24F
:101430004FF0000A01E0A0F1030AD4464FF0010A80
:101440000AFA09FAAAF1010A0AEA020A0AFA0CFAE5
:101450004FF0010B0BFA0CFBABF1010B0BEA030B8A
:101460004AEA0B042146404601F074FCBDE8F09FB7
:1014700000BF00F00702064B19684FF6FF03194042
:10148000044B0B4343EA0221014B196000BF704734
:101490000CED00E00000FA05F8B504460026002532
:1014A000207800F0010000286BD000274348C06975
:1014B00000F0805070B900BF4048C06940F08050D3
:1014C0003E49C8610846C06900F08050009000BFE6
:1014D00000BF01273A48006800F48070B0B938486E
:1014E000006840F4807036490860FFF7FDFE06464C
:1014F00006E0FFF7F9FE801B642801D90320F8BD40
:101500002F48006800F480700028F2D02B48006A51
:1015100000F440752DB3A08800F44070A84220D09C
:101520002648006A20F44075012026490860002002
:1015300008602248056205F0010090B1FFF7D4FE73
:10154000064608E0FFF7D0FE801B41F28831884252
:1015500001D90320D3E71948006A00F002000028EF
:10156000F0D01648006A20F44070616808431349BF
:101570000862012F04D10846C06920F08050C8617C
:1015800000BF207800F00200022807D10B48406815
:1015900020F44040A168084308494860207800F0E2
:1015A0001000102807D10548406820F48000E16849
:1015B0000843024948600020A1E7000000100240F3
:1015C000007000404004424270B504460D460CB91C
:1015D000012070BD5A48006800F00700A8420ED2F2
:1015E0005748006820F0070028435549086008461E
:1015F000006800F00700A84201D00120E9E7207848
:1016000000F0020002281DD1207800F00400042818
:1016100005D14C48406840F4E0604A494860207871
:1016200000F00800082805D14648406840F46050A2
:10163000444948604348406820F0F000A1680843EE
:1016400040494860207800F0010078B360680128C4
:1016500006D13C48006800F4003090B90120B8E79A
:101660006068022806D13748006800F0007040B971
:101670000120AEE73348006800F0020008B90120FD
:10168000A7E73048406820F00300616808432D490F
:101690004860FFF729FE064609E0FFF725FE801B9C
:1016A00041F28831884202D9032092E707E02548B9
:1016B000406800F00C006168B0EB810FEDD120486C
:1016C000006800F00700A8420ED91D48006820F00D
:1016D000070028431A4908600846006800F0070020
:1016E000A84201D0012074E7207800F0040004280B
:1016F00007D11448406820F4E060E16808431149CC
:101700004860207800F00800082808D10D4840689B
:1017100020F46050216940EAC1000A49486000F0A5
:101720003FF808494968C1F30311074A515CC840B2
:101730000649086006480068FFF7FCFD002048E7FE
:101740000020024000100240823C00080C000020F3
:101750000400002001480068704700000C000020D1
:1017600000B5FFF7F7FF04494968C1F30221034AB6
:10177000515CC84000BD000000100240923C0008CF
:1017800000B5FFF7E7FF04494968C1F3C221034AE6
:10179000515CC84000BD000000100240923C0008AF
:1017A00070B500210022002400230020134D696839
:1017B00001F00C05F5B1042D02D0082D19D101E07E
:1017C0000F4819E00F4DC1F38346AB5D01F480353E
:1017D00055B10A4D6D68C5F340450B4E725D084D1D
:1017E0005D43B5FBF2F402E0084D03FB05F420462F
:1017F00002E000BF024800BF00BF70BD0010024001
:1018000000127A00703C0008803C000800093D008E
:10181000F8B504460CB90120F8BD207800F00100AD
:10182000002878D0F848406800F00C0004280CD05C
:10183000F548406800F00C00082811D1F2484068D3
:1018400000F48030B0F5803F0AD1EF48006800F422
:10185000003000285FD0606800285CD10120DBE701
:1018600000BF6068B0F5803F06D1E748006840F4EB
:101870008030E549086028E0606858B9E2480068AF
:1018800020F48030E04908600846006820F4802099
:1018900008601AE06068B0F5A02F0BD1DA48006844
:1018A00040F48020D84908600846006840F4803041
:1018B00008600AE0D448006820F48030D24908600B
:1018C0000846006820F48020086000BF606888B186
:1018D000FFF70AFD054606E0FFF706FD401B6428FA
:1018E00001D9032098E7C848006800F400300028B8
:1018F000F2D010E0FFF7F8FC054606E0FFF7F4FC35
:10190000401B642801D9032086E7BF48006800F423
:1019100000300028F2D1207800F00200022857D1D0
:10192000B948406800F00C0050B1B748406800F07A
:101930000C00082818D1B448406800F4803098B9E9
:10194000B148006800F0020020B12069012801D0F0
:10195000012061E7AC48006820F0F800616940EAC6
:10196000C100A949086033E02069E8B10120A74916
:101970000860FFF7B9FC054606E0FFF7B5FC401B21
:10198000022801D9032047E79F48006800F00200C1
:101990000028F2D09C48006820F0F800616940EA15
:1019A000C1009949086013E0002098490860FFF7DA
:1019B0009BFC054606E0FFF797FC401B022801D977
:1019C000032029E79048006800F002000028F2D1C7
:1019D000207800F0080008282DD1A069B8B10120B6
:1019E0008B490860FFF780FC054606E0FFF77CFCAA
:1019F000401B022801D903200EE78348406A00F00B
:101A000002000028F2D0012000F08EFF13E0002039
:101A10007F490860FFF768FC054606E0FFF764FCB5
:101A2000401B022801D90320F6E67748406A00F0FF
:101A300002000028F2D1207800F00400042873D1BD
:101A400000277148C06900F0805070B900BF6E482F
:101A5000C06940F080506C49C8610846C06900F018
:101A60008050009000BF00BF01276A48006800F462
:101A70008070B0B96748006840F4807065490860BC
:101A8000FFF732FC054606E0FFF72EFC401B6428FA
:101A900001D90320C0E65F48006800F48070002888
:101AA000F2D000BFE068012806D15748006A40F034
:101AB00001005549086227E0E06858B95248006AB9
:101AC00020F00100504908620846006A20F0040036
:101AD000086219E0E06805280BD14B48006A40F025
:101AE0000400494908620846006A40F001000862A3
:101AF0000AE04548006A20F00100434908620846B0
:101B0000006A20F00400086200BFE068A0B1FFF79F
:101B1000EBFB054609E0FFF7E7FB401B41F288318C
:101B2000884202D9032077E622E03748006A00F0B5
:101B300002000028EFD012E0FFF7D6FB054608E0D0
:101B4000FFF7D2FB401B41F28831884201D90320C4
:101B500062E62D48006A00F002000028F0D1012F53
:101B600005D12948C06920F080502749C86100BFCD
:101B7000E069C8B32448406800F00C00082860D031
:101B8000E069022848D1002020490866FFF7ACFB35
:101B9000054606E0FFF7A8FB401B022801D90320F9
:101BA0003AE61948006800F000700028F2D1206A77
:101BB000B0F5803F07D11448406820F40030A16898
:101BC000084311494860D4E9080108430E494968AF
:101BD00021F4741108430C49486001200B49086640
:101BE000FFF782FB054607E03DE0FFF77DFB401B6A
:101BF000022801D903200FE60348006800F00070B6
:101C00000028F2D02FE00000001002400000424205
:101C10008004424200700040002014490866FFF72B
:101C200063FB054606E0FFF75FFB401B022801D976
:101C30000320F1E50E48006800F000700028F2D1A2
:101C400011E0E069012800D1E6E50948466806F49C
:101C50008031206A814204D106F47011606A8142A9
:101C600001D00120D8E50020D6E500000000424266
:101C70000010024010B504460CB9012010BD606A86
:101C800038B96068B0F5827F00D105E00021E161DC
:101C900002E00021216161610021A16294F85100FC
:101CA00028B9002084F85000204600F043F80220B4
:101CB00084F851002068006820F040002168086026
:101CC000A08800F48270218901F404410843A189AD
:101CD00001F400610843217C01F002010843217DE9
:101CE00001F001010843218B01F400710843217FB9
:101CF00001F0380108432021095D01F0800108430B
:101D0000218D01F400510843216808600421A06975
:101D100001EA1040216848602068C06920F4006032
:101D20002168C86100206065012084F8510000200E
:101D3000A4E7000010B586B004460020029003908E
:101D4000049005901E492068884236D100BF1D4886
:101D5000806940F480501B4988610846806900F41E
:101D60008050019000BF00BF00BF0846806940F06E
:101D7000080088610846806900F00800019000BFF3
:101D800000BF28200290022003900320059002A9A2
:101D90000D48FFF70BF910200290002003900490EB
:101DA00002A90948FFF702F900BF0849486840F056
:101DB000E06040F00100486000BF06B010BD0000C8
:101DC0000030014000100240000C014000000140C2
:101DD0002DE9FE4F04460F4690461D460C9E0120FD
:101DE0000190FFF781FA814694F851B06068029043
:101DF000AA46BBF1010F0BD00298B0F5827F04D147
:101E0000A06810B9BBF1040F02D00220BDE8FE8F1C
:101E10001FB1B8F1000F00D00DB90120F6E700BFE7
:101E200094F85000012801D10220EFE7012084F846
:101E3000500000BF94F85100042802D0052084F817
:101E4000510000206065C4F83880E587A5872763C6
:101E5000E586A586206460642068006800F0400084
:101E6000402805D02068006840F0400021680860E4
:101E7000E068B0F5006F52D1606810B1BAF1010F9F
:101E800009D1206B00882168C860206B801C20630A
:101E9000E08E401EE0863BE02068806800F0020093
:101EA000022810D1E08E70B1019801280BD1206B6F
:101EB00000882168C860206B801C2063E08E401E73
:101EC000E086002001902068806800F0010068B181
:101ED000E08F58B12068C068A16B0880A06B801C9F
:101EE000A063E08F401EE08701200190FFF7FCF91E
:101EF000A0EB0900B0420BD3701C48B1012084F85C
:101F0000510000BF002084F8500000BF03207DE78F
:101F1000E08E0028C0D1E08F0028BDD152E060687B
:101F200010B1BAF1010F09D1206B00782168087354
:101F3000206B401C2063E08E401EE0863CE0206861
:101F4000806800F00200022810D1E08E70B1019884
:101F500001280BD1206B007821680873206B401C8E
:101F60002063E08E401EE08600200190206880689B
:101F700000F0010068B1E08F58B12068C068A16B23
:101F80000870A06B401CA063E08F401EE08701201A
:101F90000190FFF7A9F9A0EB0900B04201D3701C32
:101FA00000B94EB9012084F8510000BF002084F828
:101FB000500000BF032029E7E08E0028BFD1E08F4A
:101FC0000028BCD14A463146204600F0C1FC40B151
:101FD0002020606500BF002084F8500000BF012071
:101FE00014E7A06850B900BF002000902068C068C6
:101FF000009020688068009000BF00BF012084F836
:10200000510000BF002084F8500000BF606D08B18F
:102010000120FBE60020F9E670B504462546681E5F
:10202000B0F1807F01D301200FE0681E4FF0E02166
:1020300048610F214FF0FF3000F08CFE00204FF080
:10204000E021886107200861002070BD10B50446BA
:102050000CB9012010BDA06900B100E000BF94F8E8
:10206000410028B9002084F84000204600F02AF8FA
:10207000242084F841002068C06820F400502168C2
:10208000C860204600F088FD2068006920F4904078
:10209000216808612068406920F02A0021684861B1
:1020A0002068C06840F400502168C8600020606467
:1020B000202084F8410084F842000020606300BFC3
:1020C000C8E7000010B586B00446002002900390D7
:1020D000049005901A49206888422ED100BF194803
:1020E000806940F48040174988610846806900F49F
:1020F0008040019000BF00BF00BF0846806940F0EB
:10210000040088610846806900F00400019000BF67
:1021100000BF48150290022003900320059002A9F9
:102120000948FEF743FF4FF48060029000200390BF
:10213000049002A90448FEF739FF06B010BD000064
:102140000038014000100240000801402DE9F84F1E
:1021500004460E46174699464FF0000A94F841008F
:10216000202850D106B117B90120BDE8F88F002012
:102170006064212084F84100FFF7B6F88246A78406
:10218000E784A068B0F5805F04D1206910B900250C
:10219000B04602E035464FF000081EE053460022EC
:1021A00080212046CDF8009000F074FD20B1202061
:1021B00084F841000320D8E745B9B8F80000C0F31F
:1021C00008002168486008F1020803E028782168C7
:1021D00048606D1CE08C401EE084E08C0028DDD15E
:1021E0005346002240212046CDF8009000F052FDD9
:1021F00020B1202084F841000320B6E7202084F895
:1022000041000020B1E70220AFE700BFFEE7000079
:1022100010B505220E49102000F08EF805220D4958
:10222000302000F031F905220949102000F084F82F
:10223000002109E00648405C064A525C904201D009
:10224000012010BD481CC1B20529F3DB0020F8E7CE
:10225000950000209000002010B5C820FEF792FEE7
:1022600002E00A20FEF78EFEFFF7D2FF0128F8D029
:1022700000F030F82F2109A0FDF7B4FF28B12F217D
:1022800006A0FDF7AFFF401C00E004A00446E322D7
:10229000214608A000F046FD10BD0000696E74657F
:1022A00072666163655C496E745F534932345231C2
:1022B0002E6300005B25733A25645D205349323458
:1022C000523120496E6974205375636365737321BD
:1022D0000D0A000010B5002280211548FEF7FEFF10
:1022E000052214492A2000F0CFF80121212000F016
:1022F000EFF80121222000F0EBF82821252000F042
:10230000E7F81121312000F0E3F80621262000F043
:10231000DFF80F21202000F0DBF8FF21272000F05C
:10232000D7F8012280210248FEF7D8FF10BD000037
:10233000000C0140900000202DE9F04107460D46B9
:10234000164600224FF400410C48FEF7C7FF3846FE
:1023500000F020FB8046002405E0002000F01AFB7E
:102360002855601CC4B2B442F7DB0122D1030348F4
:10237000FEF7B4FF4046BDE8F081000000080140D0
:1023800070B5044600224FF400410848FEF7A6FF4E
:10239000204600F0FFFA002000F0FCFA054601227A
:1023A000D1030248FEF79AFF284670BD000801409D
:1023B00010B5002280211548FEF790FF0522144930
:1023C000302000F061F8052211492A2000F05CF865
:1023D0000121212000F07CF80121222000F078F872
:1023E0000A21242000F074F82821252000F070F83C
:1023F0000621262000F06CF80E21202000F068F85D
:10240000012280210148FEF769FF10BD000C014048
:102410009000002070B50546002280211948FEF783
:102420005DFF11222946A02000F02EF80122802114
:102430001448FEF753FF0720FFF7A2FF044606E00B
:102440000720FFF79DFF0446012001F05BF904F02F
:10245000200018B904F010000028F1D021462720F0
:1024600000F036F804F0100028B1FF21E12000F060
:102470002FF8012070BD04F0200008B10020F9E71A
:102480000120F7E7000C01402DE9F04107460C461A
:10249000154600224FF400410C48FEF71FFF384656
:1024A00000F078FA8046002605E014F8010B00F0F1
:1024B00071FA701CC6B2AE42F7DB0122D1030348A9
:1024C000FEF70CFF4046BDE8F08100000008014027
:1024D00070B505460C4600224FF400410848FEF74F
:1024E000FDFE284600F056FA0646204600F052FA55
:1024F0000122D1030248FEF7F1FE304670BD000014
:102500000008014010B500224FF400410548FEF7D5
:10251000E5FE642001F0F6F80122D1030148FEF740
:10252000DDFE10BD000C01400849098809B2018098
:102530000649498809B241800449898809B28180E5
:102540000249C98809B2C180704700009A00002082
:1025500010B5042202490348FEF704FB10BD000039
:102560009A000020A800002070B54FF400615B487D
:10257000FEF7ACFEB0B90A2001F0C4F84FF40061D8
:102580005648FEF7A3FE002871D102E00A2001F0B0
:10259000B9F84FF400615148FEF798FE0028F5D0D5
:1025A000012070BD4FF480414C48FEF78FFEB0B95A
:1025B0000A2001F0A7F84FF480414848FEF786FE54
:1025C0000028E1D102E00A2001F09CF84FF480419C
:1025D0004248FEF77BFE0028F5D00220E1E74FF4E9
:1025E00000513E48FEF772FEB0B90A2001F08AF8A9
:1025F0004FF400513948FEF769FE00286CD102E023
:102600000A2001F07FF84FF400513448FEF75EFED7
:102610000028F5D00320C4E74FF480512F48FEF77F
:1026200055FEB0B90A2001F06DF84FF480512B48E7
:10263000FEF74CFE00284FD102E00A2001F062F8BC
:102640004FF480512548FEF741FE0028F5D00420C4
:10265000A7E704212148FEF739FEA0B90A2001F0BE
:1026600051F804211D48FEF731FE00B903E033E0C4
:102670000A2001F047F804211848FEF727FE002839
:10268000F6D005208DE74FF480611448FEF71EFE5A
:1026900010BB01F071F905460A2001F033F84FF440
:1026A00080610E48FEF712FEA8B902E00A2001F090
:1026B00029F84FF480610948FEF708FE0028F5D09C
:1026C00001F05AF90446601BB0F57A7F01D3082067
:1026D00067E7062065E700BF002062E7000C0140C5
:1026E0000EB5002000900190029023482349086015
:1026F00081152248816001210173002101754FF489
:102700006021C16100201D49486004211B4801610E
:10271000FEF72EF908B1FEF774F801200090019041
:102720000220029069461548FEF76EF808B1FEF7E0
:1027300068F8062000900220019069460F48FEF7D5
:1027400063F808B1FEF75DF80220009003200190C5
:1027500069460A48FEF758F808B1FEF752F8032018
:1027600000900420019069460448FEF74DF808B136
:10277000FEF747F80EBD000000240140A80000202D
:1027800008B500BF0A48406940F0010008494861A7
:102790000846406900F00100009000BF00BF002221
:1027A00011460B20FEF726FE0B20FEF713FE08BD98
:1027B0000010024000B585B0002001900290039007
:1027C000049000BF3448806940F0100032498861AD
:1027D0000846806900F01000009000BF00BF00BFF5
:1027E0000846806940F0200088610846806900F052
:1027F0002000009000BF00BF00BF0846806940F085
:10280000040088610846806900F00400009000BF61
:1028100000BF00BF0846806940F008008861084694
:10282000806900F00800009000BF00BF0122D103C2
:102830001A48FEF753FD0122D1031948FEF74EFD59
:10284000002280211548FEF749FD47F6044001901B
:10285000002002900120039001A91048FEF7A6FB7A
:1028600048F2800001900120029000200390022095
:10287000049001A90948FEF799FB4FF4004001902C
:1028800001200290002003900220049001A9044836
:10289000FEF78CFB05B000BD00100240000C0140AB
:1028A0000008014010B50E480E4908604FF48270D0
:1028B000486000210B488160C160016141614FF4B3
:1028C000007181611021C161002101624162816258
:1028D0000A21C162FFF7CEF908B1FDF792FF10BDE2
:1028E000003001401C01002010B50B480B49086066
:1028F0004FF4E1304860002108488160C160016107
:102900000C21416100218161C161FFF79FFB08B18A
:10291000FDF777FF10BD0000003801407401002072
:1029200000BFFEE700BFFEE708B508490968C9080F
:102930004FF47A72B1FBF2F14143009100BF00BF46
:1029400000994A1E00920029F9D108BD0C00002010
:10295000F8B504460E4615463346012202212046AC
:10296000009500F029F828B1606D40F02000606506
:102970000320F8BD3346002280212046009500F058
:102980001BF828B1606D40F0200060650320F0E77F
:102990000020EEE701B582B0002001904FF47A707C
:1029A000012301AA02A900900248FFF711FA9DF83D
:1029B00004000EBD1C0100202DE9F84F04460D4611
:1029C00090461E46DDF82890FEF78EFCA0EB09002D
:1029D000371AFEF789FC82462C480068C0F3CB30DA
:1029E0007843009045E0701C002842D0FEF77CFC44
:1029F000A0EB0A00B84200D2A7BB2068406820F0D4
:102A0000E000216848606068B0F5827F0DD1A06861
:102A1000B0F5004F03D0A068B0F5806F05D12068F5
:102A2000006820F0400021680860A06AB0F5005FEF
:102A30000DD100BF2068006820F4005021680860B4
:102A40002068006840F400502168086000BF012041
:102A500084F8510000BF002084F8500000BF03201C
:102A6000BDE8F88FFFE7009800B900270098401EE6
:102A70000090206880682840A84201D1012000E031
:102A800000204045AFD10020EAE700000C00002004
:102A900010B500F061FF012801D000F0D5FEFEF76F
:102AA00029FC10BD00B593B0282109A8FDF78FFBC4
:102AB000142104A8FDF78BFB0020009001900290E8
:102AC00003900120099000040A9000200B9001203F
:102AD0000D9002201090C10311914FF4E01112915A
:102AE00009A8FEF795FE08B1FDF78BFE0F200490B4
:102AF00002200590002006904FF48060079000208F
:102B00000890022104A8FEF75FFD08B1FDF779FEE9
:102B100002200090800302906846FEF7BDFC08B1D9
:102B2000FDF76FFE13B000BD704700BF00BF026825
:102B30000C3252E8002F22F4907102680C3242E805
:102B40000013002BF3D100BF00BF00BF0268143296
:102B500052E8002F22F001010268143242E800130B
:102B6000002BF3D100BF016B01290ED100BF00BFC4
:102B700002680C3252E8002F22F0100102680C3279
:102B800042E80013002BF3D100BF202180F842104F
:102B9000002101637047000070B50446216809698F
:102BA00021F44051E2681143226811612269A16851
:102BB0001143626941EA02052168C96841F20C6269
:102BC000914329432268D1602168496921F4407109
:102BD000A2691143226851612D4A2168914202D1B4
:102BE000FEF7CEFD01E0FEF7BBFD00EBC00101EBFF
:102BF000001162689200B1FBF2F100EBC00202EB3F
:102C0000001263689B00B2FBF3F26423B2FBF3F2A1
:102C100002EBC20303EB0212A1EB8201322202EBB0
:102C200001116422B1FBF2F101F0F00100EBC002EE
:102C300002EB001263689B00B2FBF3F26423B2FB69
:102C4000F3F201EB021200EBC00101EB001163682B
:102C50009B00B1FBF3F100EBC00303EB00136668CC
:102C6000B600B3FBF6F36426B3FBF6F303EBC3063F
:102C700006EB0313A1EB8301322303EB0111642361
:102C8000B1FBF3F101F00F0111442268916070BDB6
:102C9000003801402DE9F84304460D461746984692
:102CA000089E31E0701C70B3FEF71EFBA0EB08001D
:102CB000B04200D816B90320BDE8F8832068C06888
:102CC00000F00400F8B1802D1ED0402D1CD02068EB
:102CD0000068C0F3C000B0B100BF002000902068C1
:102CE0000068009020684068009000BF00BF204648
:102CF000FFF71BFF0820606400BF002084F840003D
:102D000000BF0120D8E7FFE7206800682840A842FC
:102D100001D1012000E00020B842C3D00020CBE761
:102D200000BFFEE70FB4054B10B503A9044A029893
:102D300000F034F810BC5DF814FB0000BD2F000853
:102D4000A400002002480068C0F302207047000081
:102D50000CED00E010B5002804DB0A07130E054A4D
:102D6000135406E00A07140E034A00F00F031B1F5A
:102D7000D45410BD00E400E018ED00E002E008C803
:102D8000121F08C1002AFAD170477047002001E0E5
:102D900001C1121F002AFBD1704700002DE9FF4F2F
:102DA0008BB09A460F460546002606E025280BD034
:102DB00052460D9990476D1C761C28780028F5D155
:102DC0000FB03046BDE8F08F0024A04601226049D4
:102DD00000E0044315F8013F203B02FA03F00842EB
:102DE000F7D128782E2817D115F8010F44F00404E4
:102DF0002A280ED06FF02F022878A0F1300109297F
:102E00000AD808EB880102EB410100EB01086D1CB8
:102E1000F2E757F8048B6D1C287869283ED006DC51
:102E20000028CDD063280BD0642804D136E0732865
:102E300010D075284BD052460D999047761C85E0EE
:102E400017F8040B8DF8000000208DF80100E9460A
:102E5000012003E057F8049B4FF0FF3061074FF06B
:102E6000000401D40AE0641C44450DDA8442FADB14
:102E700019F804100029F6D106E0641C8442FCDB3A
:102E800019F804100029F8D1264404E019F8010BC0
:102E900052460D999047641EF8D257E001CF4FF08B
:102EA0000A0B002802DA40422D2102E0210504D558
:102EB0002B218DF82410012103E0E10705D020210A
:102EC000F7E70DF1200908910CE00021F9E701CFA7
:102ED0004FF00A0BF9E75946FDF78FF901F130027F
:102EE00009F8012D0028F6D1ADEB090000F1200B07
:102EF000600701D44FF00108D84502DDA8EB0B00B4
:102F000000E000208046002406E009A85246005D4B
:102F10000D999047641C761C08988442F5DB04E008
:102F2000302052460D999047761CB8F10001A8F167
:102F30000108F5DC05E019F8010B52460D999047A0
:102F4000761CBBF10001ABF1010BF4DC6D1C34E726
:102F50000928010000F010FD13E0FDF7D3FB2F213D
:102F600008A0FDF73FF928B12F2106A0FDF73AF997
:102F7000401C00E003A004464822214609A0FFF7B8
:102F8000D1FEEAE74170706C69636174696F6E5CD1
:102F90004170705F6672656552544F535F74617320
:102FA0006B2E63005B25733A25645D2048656C6C6D
:102FB0006F2072656D6F74650A00000013B50C46D2
:102FC0004FF47A73012269460248FFF7BFF8009870
:102FD0001CBD00007401002008B500F0CDFC00907D
:102FE000FFF7B6FA07E0FDF7A1FA00BF1421684623
:102FF00000F078FC00BFF6E708B500F0BDFC0090DB
:1030000007E0FDF73FFB00BFC821684600F06AFCFF
:1030100000BFF6E7FEF77AF9FFF744FDFFF7CAFBBA
:10302000FFF7AEFBFFF760FCFFF73CFCFFF758FB38
:103030002F210BA0FDF7D6F828B12F2108A0FDF70E
:10304000D1F8401C00E006A004466322214609A0F6
:10305000FFF768FEFFF700F9FDF712FA00BFFEE781
:103060002E2E2F436F72652F5372632F6D61696E21
:103070002E6300005B25733A25645D2048656C6C07
:103080006F2072656D6F74650A00000008B500F06E
:1030900073FC009008E000BF42F21071684600F037
:1030A00021FC00BFFFF72EFAF5E700002DE9F04103
:1030B00005460E462648076826480068001D00F0B1
:1030C0008FFA50B92348006890F82C1001208840EE
:1030D00021490968814320480160681CD8B9D6B1EC
:1030E0001E4948681B49096888601A49826809684E
:1030F000CA6018490968091D826851601549096844
:10310000091D8160154A134909684A611146096819
:10311000491C11601AE07C190E4800684460BC42EA
:1031200007D20C480168091D0D48006800F07CFAC0
:103130000CE008480168091D0A48006800F074FAAC
:1031400009480068844201D207480460BDE8F08164
:103150002400002010000020280000207002002021
:1031600018000020140000204000002010B5044684
:1031700000F074FA2F480068401C2E4908602E4861
:10318000006840B92C4804600846006801280DD149
:1031900000F016F90AE02948006838B926480068A6
:1031A000C06AE16A884201D8234804602448006864
:1031B000401C2349086094F82C10012088402149C4
:1031C000096808431F490860E16A01EB81011E4A52
:1031D00002EB81014868A0608268E260211D82687C
:1031E00051608160E16A01EB8101174A02EB8102C3
:1031F0006261E16A01EB8101134A52F82110491C16
:10320000E26A02EB8202104B43F8221000F038FA17
:103210000A48006868B108480068C06AE16A8842E4
:1032200007D24FF0805009490860BFF34F8FBFF3BA
:103230006F8F10BD20000020100000202C00002007
:103240003C00002028000020BC01002004ED00E02C
:1032500010B516E000F002FA0C48C068C468201DE2
:1032600000F0BEF90A480068401E09490860094894
:103270000068401E0749086000F002FA204600F08E
:103280000BF8044800680028E4D110BD5C0200205F
:10329000200000201C00002010B50446206B00F028
:1032A000FFF9204600F0FCF910BD000030B54FF4E6
:1032B0004053154800F007042CB1C01D20F0070052
:1032C000114C041B1B1B0246104C226000240F4DA6
:1032D0006C60D018083820F007000D4C20600024E6
:1032E0000B4D2D686C600A4D2D682C601146441AF8
:1032F0004C60074C24680C60064D4C682C60064DF1
:103300004C682C6030BD000084020020500000207A
:1033100058000020600000205C00002000BFFFF784
:1033200097FF064800680128F9D94FF080500449FA
:103330000860BFF34F8FBFF36F8FF0E7BC01002031
:1033400004ED00E02DE9FF5F80460E469146DDE981
:103350000E7A109CA9F10100216B01EB800B2BF080
:10336000070B7EB1002507E0715D04F13400415583
:10337000705D00B902E06D1C102DF5D300BF002177
:1033800043200155052F00D30427E762201D00F0DC
:1033900048F904F1180000F044F92461C7F1050070
:1033A000A061646241465846039A00F007F9206024
:1033B000BAF1000F01D0CAF80040BDE8FF9F00003D
:1033C00010B5002407E004EB84010F4A02EB8100F2
:1033D00000F01AF9641C052CF5D30C4800F014F920
:1033E0000B4800F011F90B4800F00EF90A4800F004
:1033F0000BF90A4800F008F9044809490860044834
:103400000849086010BD0000BC0100202002002017
:1034100034020020480200205C02002070020020DC
:10342000140000201800002010B50146164800E0E6
:10343000006803688B42FBD30246436813448B4207
:1034400004D143684C682344436001460A464B68F4
:1034500013440468A34211D10C4C03682468A342AE
:1034600008D04B680468646823444B6003681B6899
:103470000B6005E0054B1B680B6001E003680B6007
:10348000884200D0016010BD50000020580000208C
:1034900009480068006808B9012000E0002020B158
:1034A0004FF0FF300549086005E003480068C06838
:1034B00000680249086070471400002040000020A6
:1034C00000BFBF2080F31188BFF34F8FBFF36F8F12
:1034D00000BF00BFFEE700002DE9F04705464FF0B2
:1034E000000900F05FF93048006808B9FFF7DEFE18
:1034F00075B105F00700C0F11008C8F1FF30A8420F
:1035000001D2012000E0002008B9454400E0002578
:10351000012000EBE570002841D0002D3FD023486A
:10352000006885423BD8224E3046046801E02646BA
:1035300024686068A84202D220680028F7D11A489F
:10354000006884422BD0306800F1080920683060A0
:103550006068401B102807D967196068401B7860B5
:1035600065603846FFF760FF104960680968081A0F
:103570000E490860084600680E490968884203D26F
:103580000A4800680B490860606840F000406060CD
:103590000020206008480068401C0749086000F0CF
:1035A000B9FA4846BDE8F087580000205C000020CA
:1035B000500000206000002064000020001F4FF039
:1035C00080730360001F21F001030360001F034BA1
:1035D000036014380260203870470000C1340008CE
:1035E00001460A69D1E901309860D1E901035860C8
:1035F0005068884201D188685060002008611068D6
:10360000401E10601068704700F1080141604FF0E3
:10361000FF31816000F10801C1600161002101609A
:10362000704700210161704710B502460B685C1CB1
:103630000CB9106907E002F1080000E04068446836
:1036400024689C42FAD944684C604C68A160886048
:1036500041600A611468641C146010BD00BFBF2083
:1036600080F31188BFF34F8FBFF36F8F00BF034804
:103670000068401C01490860704700006C00002091
:1036800006480068401E054908600846006820B9E1
:10369000002080F3118800BF00BF70476C0000203D
:1036A00070B506463546E6B1083D2C466068C00F49
:1036B000B8B12068A8B9606820F00040606000F0F0
:1036C00071F808496068096808440649086020469E
:1036D000FFF7AAFE04480068401C0349086000F098
:1036E00019FA70BD5C0000206800002000204FF037
:1036F000E02108618861024848610720086170473D
:103700003F19010070B50446002544B100F04AF8A5
:1037100000212046FFF7CAFC00F0FCF905463DB940
:103720004FF0805003490860BFF34F8FBFF36F8F96
:1037300070BD000004ED00E01CB5124800210B46EE
:103740008022CDE9001010A1114800F097F804463E
:10375000012C14D100BFBF2080F31188BFF34F8F1D
:10376000BFF36F8F00BF4FF0FF300A4908600120A0
:103770000949086000200949086000F04BF8084832
:1037800000681CBD4400002049444C450000000076
:103790001D330008400000202C00002024000020E1
:1037A0004800002002480068401C0149086070473A
:1037B0004C0000201248006818B10120114908602F
:1037C0001DE000200F4908600F480068B0FA80F043
:1037D000C0F11F0101EB81020C4B03EB8200426838
:1037E0005268426000F108024368934202D1426885
:1037F000526842604268D268054B1A6000BF704749
:103800004C0000203400002028000020BC010020D3
:103810001000002010B50A48006840F47F000849F5
:1038200008600846006840F07F400860FFF75EFFD0
:10383000002004490860FCF777FC002010BD000060
:1038400020ED00E06C00002010B500BFBF2080F329
:103850001188BFF34F8FBFF36F8F00BF00F092F856
:1038600018B14FF080500449086000BF002080F379
:10387000118800BF10BD000004ED00E02DE9FF4FEE
:1038800085B0804689461746DDE912ABB800FFF7E0
:1038900023FE064676B14C20FFF71EFE04462CB1EF
:1038A0004C212046FCF793FC266304E03046FFF7EA
:1038B000F7FE00E000247CB10020CDE900ABCDE9AB
:1038C00002403A4649464046089BFFF73BFD2046EA
:1038D000FFF74CFC012501E04FF0FF35284609B009
:1038E000BDE8F08F2DE9F047044688464FF0000907
:1038F000FFF758FF16480668206800EB08052068A7
:10390000B04207D92068A8420BD9B54209D94FF077
:10391000010906E02068A84201D8B54201D94FF05C
:1039200001092560B9F1000F03D0A81B0021FFF7A2
:10393000BDFB00F0EFF807463FB94FF08050054956
:103940000860BFF34F8FBFF36F8F4846BDE8F08725
:103950002400002004ED00E00549096809B90120B0
:1039600005E00449096809B9022000E00020704719
:103970002C0000204C00002001490868704700001E
:10398000240000202DE9F041002757480068002856
:103990007ED156480068451C544805608DB954488E
:1039A000D0F8008053480068514908605148C0F879
:1039B000008051480068401C4F490860FFF768FDCF
:1039C00000BF4E480068854276D300BF4848006873
:1039D000006808B9012000E0002020B14FF0FF305E
:1039E0004649086067E042480068C068C468666885
:1039F000B54202D2414806605DE06069D4E9021236
:103A00008A60D4E902214A60211D42688A4201D1BC
:103A1000E1684160002262610168491E0160A06A9C
:103A200098B1A06AD4E907128A60D4E907214A60F4
:103A300004F1180142688A4201D1216A41600022E2
:103A4000A2620168491E016000BF94F82C10012099
:103A500088402B490968084329490860E16A01EB5D
:103A60008101284A02EB81014868A0608268E26017
:103A7000211D826851608160E16A01EB8101214A68
:103A800002EB81026261E16A01EB81011D4A00E003
:103A900022E052F82110491CE26A02EB8202194B23
:103AA00043F822101849E06A0968C96A88428DD92A
:103AB00001278BE700E000BF13480068C06A00EBF5
:103AC0008000104951F82000012800D901270F4833
:103AD000006800B1012704E00D480068401C0C4953
:103AE00008603846BDE8F0814C000020240000202A
:103AF00014000020180000203800002040000020A2
:103B000028000020BC01002010000020340000200C
:103B10003000002070B500240026FFF79FFD4B48C1
:103B20000068401E494908600846006800287DD1A9
:103B300047480068002879D05BE04648C068C46800
:103B4000A06AD4E907128A60D4E907214A6004F127
:103B5000180142688A4201D1216A41600022A262B2
:103B60000168491E01606069D4E902128A60D4E9E3
:103B700002214A60211D42688A4201D1E168416008
:103B8000002262610168491E016094F82C10012036
:103B900088403149096808432F490860E16A01EB10
:103BA00081012E4A02EB81014868A0608268E260D0
:103BB000211D826851608160E16A01EB8101274A21
:103BC00002EB81026261E16A01EB8101234A52F852
:103BD0002110491CE26A02EB8202204B43F82210BA
:103BE0001F49E06A0968C96A884202D301201D4959
:103BF00008601848006808B9012000E0002000288B
:103C00009BD00CB1FFF744FC1748056865B100BFB5
:103C1000FFF7B8FE10B10120124908606D1E002D9B
:103C2000F6D10020104908600E4800E009E0006865
:103C300038B1012630070D490860BFF34F8FBFF33D
:103C40006F8FFFF71DFD304670BD00004C00002057
:103C5000200000204802002028000020BC01002095
:103C600010000020340000203000002004ED00E0AF
:103C700002030405060708090A0B0C0D0E0F1010AD
:103C8000010200000000000000000102030406071A
:103C9000080900000000010203040000BC3C000809
:103CA00000000020A80000007C2D0008643D0008F2
:103CB000A8000020F83500008C2D0008000000004E
:103CC000100000000100000000127A000000000057
:103CD00000000000000000000000000000000000E4
:103CE00000000000000000000000000000000000D4
:103CF00000000000000000000000000000000000C4
:103D000000000000040000000000000000000000AF
:103D100000000000000000000000000000000000A3
:103D20000000000000000000AAAAAAAA00000000EB
:103D30000000000000000000000000000000000083
:103D40000000000000000000000000000A01061E44
:103D50000100000000000000000000000000000062
:043D6000000000005F
:04000005080000ED02
:00000001FF
