:020000040800F2
:10000000B83A00209D010008112C0008C324000804
:100010000D2C0008650A00088D340008000000005F
:1000200000000000000000000000000005010008C2
:10003000B90A00080000000049010008FD3100086D
:10004000B7010008B7010008B7010008B7010008B0
:10005000B7010008B7010008B7010008B7010008A0
:10006000B7010008B7010008B70100087D0A0008C1
:10007000B7010008B7010008B7010008B701000880
:10008000B7010008B7010008B7010008B701000870
:10009000B7010008B7010008B7010008B701000860
:1000A000B7010008B7010008B7010008B701000850
:1000B000B7010008B7010008B7010008B701000840
:1000C000B7010008B7010008B7010008B701000830
:1000D000B7010008B7010008B7010008B701000820
:1000E000B7010008B7010008B7010008DFF810D019
:1000F00000F09AF80048004745390008AFF3008047
:10010000B83A0020224B19680868B0E8F00F80F375
:100110000988BFF36F8F4FF0000080F311884EF015
:100120000D0E70470000000006480068006880F36C
:10013000088862B661B6BFF34F8FBFF36F8F00DFE1
:1001400000BF00BF08ED00E0EFF30980BFF36F8F41
:100150000F4B1A6820E9F00F106008B54FF0BF0090
:1001600080F31188BFF34F8FBFF36F8F03F0CAFF87
:100170004FF0000080F31188BDE808401968086856
:10018000B0E8F00F80F30988BFF36F8F704700BFAE
:1001900010000020EFF305807047000006488047FC
:1001A00006480047FEE7FEE7FEE7FEE7FEE7FEE75C
:1001B000FEE7FEE7FEE7FEE795320008ED000008E7
:1001C000D2B201E000F8012B491EFBD27047002299
:1001D000F6E710B513460A4604461946FFF7F0FF46
:1001E000204610BD0022CBB20178994200D10246D0
:1001F000401C0029F8D11046704730B50B46014627
:1002000000202022012409E021FA02F59D4205D3B5
:1002100003FA02F5491B04FA02F52844151EA2F15F
:100220000102F1DC30BD0000064C074D06E0E0683D
:1002300040F0010394E8070098471034AC42F6D32D
:10024000FFF758FFD8520008F852000870B504466E
:1002500000252068806800F0010018B320688068DD
:1002600020F001002168886001F09AF9054613E04A
:1002700001F096F9401B02280ED92068806800F032
:10028000010048B1A06A40F01000A062E06A40F0AE
:100290000100E062012070BD2068806800F001006C
:1002A0000028E5D10020F6E770B505466C6AA06A23
:1002B00000F05000E0B9A06A40F40070A06220682D
:1002C000806800F46020B0F5602F0DD1207B58B914
:1002D000A06A20F48070A062A06A00F4805018B96F
:1002E000A06A40F00100A062204600F099FC03E003
:1002F000206A016B2846884770BD70B505466C6A58
:10030000A06A40F04000A062E06A40F00400E062B1
:10031000204600F087FC70BD70B50446656A28462B
:1003200000F07FFC70BD000038B5044600250020B9
:1003300000902068806800F0010078BB2068806829
:1003400040F0010021688860194800681949B0FB35
:10035000F1F0009002E00098401E00900098002804
:10036000F9D101F01DF9054619E001F019F9401B1A
:10037000022814D92068806800F0010078B9A06ACA
:1003800040F01000A062E06A40F00100E06200BFAF
:10039000002084F8240000BF012038BD05E020685B
:1003A000806800F001000028DFD00020F5E70000A1
:1003B0000C00002040420F002DE9F04100202949A7
:1003C000088029490880002400250026002780464F
:1003D0001EE000F0F3F925480088204404B22348C9
:1003E0004088A0F5FA70284405B220488088A0F51E
:1003F000FA70304406B21D48C088A0F5FA7038443F
:1004000007B20A2003F026FE08F1010000F0FF0801
:10041000B8F10A0FDDDB0A2094FBF0F014490988DB
:10042000084400B2124908800A2095FBF0F01149F7
:100430000988084400B20F4908800A2096FBF0F0B2
:100440000D490988084400B20B4908800A2097FB2F
:10045000F0F00A490988084400B208490880BDE85C
:10046000F08100008C0000208E000020840000201D
:1004700090000020920000209400002096000020B0
:1004800010B502F013FC10BD1CB501200C237AA29C
:10049000002100901C2002F071FD00200190282214
:1004A0007AA101A803F004F801200C2301AA0E216F
:1004B0000090052002F062FD01200C2375A20E21A0
:1004C0000090452002F05AFD01200C23734A0E21B2
:1004D00000905D2002F052FD01200C2370A21A2131
:1004E0000090052002F04AFD00246F48B0F900009A
:1004F000B0F5FA7F13DD6C48B0F90000A0F5FA7092
:10050000292190FBF1F0C4B20C221A21232000F023
:10051000D9F822461A212F2000F0D4F810E06248C2
:10052000B0F90000292190FBF1F0C4B222461A2153
:10053000232000F0C7F800221A212F2000F0C2F873
:1005400001200C2359A21A210090412002F016FD2F
:100550005548B0F90400B0F5FA7F13DD5248B0F900
:100560000400A0F5FA70292190FBF1F0C4B20C222E
:100570001A215F2000F0A6F822461A216B2000F015
:10058000A1F810E04848B0F90400292190FBF1F0EF
:10059000C4B222461A215F2000F094F800221A21EA
:1005A0006B2000F08FF801200C2342A2262100903E
:1005B000052002F0E3FC3C48B0F90200B0F5FA7FF8
:1005C00013DD3948B0F90200A0F5FA70292190FB3B
:1005D000F1F0C4B20C222621232000F073F8224649
:1005E00026212F2000F06EF810E02F48B0F902000D
:1005F000292190FBF1F0C4B222462621232000F0ED
:1006000061F8002226212F2000F05CF801200C2345
:100610002AA226210090412002F0B0FC2248B0F925
:100620000600B0F5FA7F13DD1F48B0F90600A0F50B
:10063000FA70292190FBF1F0C4B20C2226215F2030
:1006400000F040F8224626216B2000F03BF810E035
:100650001548B0F90600292190FBF1F0C4B22246FA
:1006600026215F2000F02EF8002226216B2000F0CA
:1006700029F802F0C5FB1CBD53544D33322044729F
:100680006F6E6520416C616E0000000025303364A0
:1006900000000000563A202000000000A732002091
:1006A0005448523A000000008C320020524F4C3A1D
:1006B000000000005941573A000000005049543AE8
:1006C00000000000F8B505460E4614460D2C09DA68
:1006D0000120009004F10C00C2B20C2331462846E0
:1006E00002F071FCF8BD00001CB51A48042100237B
:1006F0008022CDE9001018A11A4803F067FD1A48BE
:10070000032100238022CDE9001018A11A4803F02C
:100710005DFD1A48022100238022CDE9001018A1B6
:100720001A4803F053FD1A48022100238022CDE924
:10073000001018A11B4803F049FD1B4801210023AC
:100740008022CDE9001019A11B4803F03FFD03F002
:100750009BFC1CBD70000020706F7765725F746138
:10076000736B0000DD39000874000020636F6D5F5B
:100770007461736B000000007D3800087800002071
:100780006B65795F7461736B0000000029390008A4
:100790007C0000206A6F79737469636B5F746173A6
:1007A0006B00000009390008800000206F6C656450
:1007B0005F7461736B000000BD39000810B503F071
:1007C000F5FB514802F026F84F48B0F900004FF40D
:1007D0007A71484340F6FF7190FBF1F0C0F57A70F2
:1007E00000B2494908800846B0F902004FF47A7116
:1007F000484340F6FF7190FBF1F0C0F57A7000B20B
:10080000414948800846B0F904004FF47A714843E2
:1008100040F6FF7190FBF1F0C0F57A7000B23A49F2
:1008200088800846B0F906004FF47A71484340F6D4
:10083000FF7190FBF1F0C0F57A7000B23249C880C8
:100840000846008831490988401A00B22E490880BC
:10085000084640882E490988401A00B22A49488033
:10086000084680882B490988401A00B226498880AA
:100870000846C08828490988401A00B22249C88021
:100880000846808825490988084400B21E498880A6
:100890000846C08822490988084400B21A49C8801D
:1008A000B1F900004FF47A72002100F0DDF816492A
:1008B0000880B1F902004FF47A72002100F0D4F8F8
:1008C00011494880B1F904004FF47A72002100F018
:1008D000CBF80D498880B1F906004FF47A720021F7
:1008E00000F0C2F80849C88003F072FB064800888F
:1008F0000C4908800448408848800348C088C88064
:1009000001488088888010BD84000020900000206D
:100910009200002094000020960000208E0000200D
:100920008C0000208C32002010B501F093FF0446AB
:10093000012C06D1194800880A3000B217490880F6
:100940002AE0022C06D1154800880A3800B2134963
:10095000088021E0032C06D1114800880A3800B233
:100960000F49088018E0042C06D10D4800880A3091
:1009700000B20B4908800FE0052C03D10120094982
:10098000087209E0062C03D101200649487203E0F1
:10099000082C01D1FFF710FD10BD00008C000020D5
:1009A0008E0000208C32002070B5002473202A496C
:1009B000087067204870887028480088000AC8704E
:1009C00026480078087125484088000A4871234865
:1009D000807888712148C088000AC8711F488079D2
:1009E00008721E488088000A48721C480079887284
:1009F00003F0DCFA1948007A1749C8720020174939
:100A000008720846407A1449087300201349487256
:100A100003F0DEFA002004E00F49095C0C44411C9D
:100A2000C8B20D28F8DB200E0B494873200C8873E0
:100A3000200AC8730C7401F031FE074801F060FE13
:100A4000054601F0A3FD2DB900BF054801F00CFEDD
:100A50000128FAD070BD0000963200208C320020B0
:100A6000A732002000BFFEE703461846934201DD8F
:100A7000104602E08B4200DA0846704710B5024883
:100A800000F08CFA10BD0000E000002030B590F8B6
:100A900040500124AC40C56B6C60046863604468DE
:100AA000102C04D10468A2600468E16003E00468CB
:100AB000A1600468E26030BD704772B600BFFEE717
:100AC00038B5024600230020009000BF92F82400B1
:100AD000012801D1022038BD012082F8240000BF86
:100AE0004868072812D21068406B0C79641E04EB2A
:100AF00084051F24AC40A0430D796D1E05EB8505D0
:100B00000C68AC4020431468606327E048680D28F7
:100B100012D21068006B0C79E41F04EB84051F24CB
:100B2000AC40A0430D79ED1F05EB85050C68AC408A
:100B300020431468206311E01068C06A0C790D3CF2
:100B400004EB84051F24AC40A0430D790D3D05EB5B
:100B500085050C68AC4020431468E06208680A28E8
:100B600012D31068C0680C780A3C04EB44050724D3
:100B7000AC40A0430D780A3D05EB45058C68AC40C0
:100B800020431468E0600FE0106800690C7804EB03
:100B900044050724AC40A0430D7805EB45058C685F
:100BA000AC402043146820610868102802D008680F
:100BB000112827D1174C1068A0421ED110688068F8
:100BC00000F40000F0B91068806840F40000146878
:100BD000A0600868102815D10F4800680F4CB0FBC2
:100BE000F4F000EB80004000009002E00098401E0E
:100BF000009000980028F9D104E0906A40F02000AD
:100C00009062012300BF002082F8240000BF184634
:100C100061E70000002401400C00002040420F006A
:100C200070477047704700002DE9F04104460027E7
:100C300000250026A84614B90120BDE8F081A0686F
:100C400010B1207D00B100BFA06A30B90020E06281
:100C500084F82400204600F089F82046FFF7F6FAD1
:100C60000746A06A00F01000002873D1002F71D150
:100C7000A06A20F4885040F00200A062E169606838
:100C80000843217B40EA41000643A068B0F5807F1D
:100C900002D0A068012802D14FF4807000E000204B
:100CA0000543207D012811D1207B38B9A069401E61
:100CB0004FF4006141EA4030054307E0A06A40F08C
:100CC0002000A062E06A40F00100E0622068406815
:100CD00020F46940284321684860206880682149E1
:100CE0000840304321688860A068B0F5807F02D05A
:100CF000A068012802D14FF4807000E00020B0F518
:100D0000807F03D1208A401E4FEA00582068C06AC5
:100D100020F4700040EA08002168C86220688068FA
:100D200011490840B04208D10020E062A06A20F0DA
:100D3000020040F00100A06211E0A06A20F0020071
:100D400040F01000A062E06A40F00100E06201277C
:100D500005E0FFE7A06A40F01000A06201273846D6
:100D60006BE70000FDF7E1FFFE0E1FFF10B586B038
:100D700004460020029003900490059022492068C8
:100D800088423ED100BF2148806940F400701F496D
:100D900088610846806900F40070019000BF00BFC0
:100DA00000BF0846806940F00400886108468069F9
:100DB00000F00400019000BF00BF4E20029003200D
:100DC000039002A9124800F04DFA12481249086037
:100DD000002048600021104881608021C1604900E6
:100DE000016189004161202181610021C16100F020
:100DF000A3F908B1FFF761FE00BF07482062446213
:100E000000BF06B010BD00000024014000100240E9
:100E10000008014008000240E00000202DE9F041F8
:100E200004460D461646002757492068884203D0DD
:100E300056492068884205D15348001D006800F4D7
:100E4000702000E0002000287ED100BF94F824002C
:100E5000012802D10220BDE8F081012084F824009D
:100E600000BF2046FFF760FA0746002F6DD1A06A49
:100E700040F60161884340F48070A06243492068D5
:100E8000884209D14048001D006800F4702008B96C
:100E9000012002E0002000E0012078B1A06A20F4E7
:100EA0008010A0622068406800F4806000B3A06AEF
:100EB00020F4005040F48050A06219E0A06A40F491
:100EC0008010A06230492068884203D02F492068F2
:100ED000884205D12C48001D006800F4806000E0C5
:100EE000002028B1A06A20F4005040F48050A06295
:100EF000A06A00F4805020B1E06A20F00600E062B1
:100F000001E00020E06200BF002084F8240000BF60
:100F10001F48216A88621F48216AC8621E48216AE8
:100F200008636FF00200216808602068806840F460
:100F3000807021688860226802F14C0133462A469D
:100F4000206A00F02DF901E01AE014E020688068C2
:100F500000F46020B0F5602F06D12068806840F46E
:100F6000A000216888600CE02068806840F4801050
:100F70002168886005E000BF002084F8240000E0BC
:100F80000127384667E7000000240140002801409F
:100F9000A902000819030008FB02000870B5044606
:100FA000E06B05682068066894F8401004208840CB
:100FB0002840002846D006F00400002842D02068CF
:100FC000006800F0200028B92068006820F00400C4
:100FD0002168086057492068884201D1042027E031
:100FE000544914312068884201D1402020E0514901
:100FF00028312068884201D1001519E04D493C3163
:101000002068884202D14FF4804011E049495031B4
:101010002068884202D14FF4802009E045496431BC
:101020002068884202D14FF4800001E04FF08060D8
:10103000404908394860E06A00287AD02046E16AD1
:10104000884776E094F84010022088402840A0B3FA
:1010500006F0020088B32068006800F0200040B964
:101060002068006820F00A0021680860012084F8E8
:10107000210030492068884201D1022028E02D4912
:1010800014312068884201D1202021E029492831EB
:101090002068884201D140151AE026493C31206879
:1010A000884202D14FF4005012E0224950312068AA
:1010B000884203D14FF400300AE017E01D49643143
:1010C0002068884202D14FF4001001E04FF0007018
:1010D00018490839486000BF002084F8200000BF8C
:1010E000A06A30B32046A16A884722E094F84010F5
:1010F000082088402840E0B106F00800C8B1206808
:10110000006820F00E002168086094F8401001206B
:101110008840E16B48600120A06384F8210000BF93
:10112000002084F8200000BF206B10B12046216B06
:10113000884770BD080002400146002209B901201D
:101140007047164B0868C01A1423B0FBF3F08000F8
:10115000086412480838C863022081F82100086832
:10116000026843F6F0708243D1E901031843CB686B
:1011700018430B6918434B6918438B691843CB69B3
:10118000184302430868026000208863012081F848
:101190002100002081F8200000BFD1E708000240B4
:1011A0002DE9F04104460D4616461F464FF0000853
:1011B00000BF94F82000012802D10220BDE8F08190
:1011C000012084F8200000BF94F8210001282CD1D0
:1011D000022084F821000020A0632068006820F02D
:1011E0000100216808603B46324629462046FFF749
:1011F0004DFCE06A30B12068006840F00E002168C4
:1012000008600BE02068006820F004002168086096
:101210002068006840F00A002168086020680068C3
:1012200040F001002168086006E000BF002084F85B
:10123000200000BF4FF002084046BFE770B50446EB
:1012400000F0AEF906462546681C10B10448007847
:10125000054400BF00F0A4F9801BA842FAD370BD7A
:10126000080000202DE9F8470346002294466EE16D
:101270004FF0010808FA02F4D1F8008008EA0400EF
:10128000A0427DD1DFF8DCA2D1F80480A8EB0A09E6
:10129000D0453AD014DCB8F1030F50D009DCB8F1D6
:1012A000000F31D0B8F1010F1CD0B8F1020F49D1B5
:1012B00020E0B8F1110F18D0B8F1120F42D11EE0A2
:1012C000B9F5881F25D006DCB9F5803F20D0B9F5E7
:1012D000801F37D11AE0B9F5001F18D0B9F5041FE7
:1012E00030D117E0D1F80CC02DE0D1F80C8008F116
:1012F000040C28E0D1F80C8008F1080C23E0D1F8A8
:101300000C8008F10C0C1EE000BF00BF00BF00BF46
:1013100000BF00BFD1F80880B8F1000F02D14FF034
:10132000040C0BE0D1F80880B8F1010F03D14FF0A5
:10133000080C1C6102E04FF0080C5C6103E04FF008
:10134000000C00E000BF00BFFF2801D8984601E074
:1013500003F104084646FF2802D84FEA820803E05A
:10136000A2F108084FEA88084746D6F800804FF0F7
:101370000F0909FA07F928EA09080CFA07F900E049
:1013800088E048EA0908C6F80080D1F8048008F02F
:101390008058B8F1805F7DD100BFDFF8CC81D8F8EC
:1013A000188048F00108DFF8C091C9F81880C846D5
:1013B000D8F8188008F00108CDF8008000BF00BF01
:1013C0004FEAB9384FEA920958F829504FEA827823
:1013D0004FEA18794FF00F0808FA09F825EA0805CE
:1013E000DFF88881434502D14FF0000816E0DFF8AE
:1013F0008081434502D14FF001080FE0DFF874818E
:10140000434502D14FF0020808E0DFF86C81434504
:1014100002D14FF0030801E04FF004084FEA82794F
:101420004FEA197908FA09F848EA0505DFF84C810E
:101430004FEA920948F82950D1F8048008F480183E
:10144000B8F5801F0AD1DFF83881D8F8008048EA63
:101450000008DFF82C91C9F8008009E0DFF820814E
:10146000D8F8008028EA0008DFF81491C9F8008055
:10147000D1F8048008F40018B8F5001F10D1DFF887
:10148000008108F10408D8F8008048EA0008DFF875
:10149000F09000E05AE009F10409C9F800800DE07D
:1014A000DFF8DC8008F10408D8F8008028EA00089A
:1014B000DFF8CC9009F10409C9F80080D1F8048064
:1014C00008F40038B8F5003F0ED1DFF8B480A8F179
:1014D0000408D8F8008048EA0008DFF8A490A9F1D1
:1014E0000409C9F800800DE0DFF89480A8F1040831
:1014F000D8F8008028EA0008DFF88490A9F10409F0
:10150000C9F80080D1F8048008F48038B8F5803F2D
:101510000ED1DFF86C80A8F10808D8F8008048EAFE
:101520000008DFF85C90A9F10809C9F800800DE017
:10153000DFF84C80A8F10808D8F8008028EA0008F5
:10154000DFF83C90A9F10809C9F80080521CD1F8D5
:10155000008028FA02F8B8F1000F7FF489AEBDE8E8
:10156000F887000000001110001002400008014040
:10157000000C01400010014000140140080001402F
:1015800008040140024693680B400BB1012000E0C3
:10159000002070470AB1016101E00B04036170474C
:1015A0000148006870470000000000200348006800
:1015B0000349097808440149086070470000002089
:1015C0000800002010B50848006840F010000649E7
:1015D0000860032000F0A8F80F2000F007F800F0E2
:1015E0002BF8002010BD00000020024070B504461A
:1015F0000E4800784FF47A71B1FBF0F00C4909689D
:10160000B1FBF0F5284600F063FE08B1012070BD83
:10161000102C07D200222146501E00F047F8054842
:10162000046001E00120F2E70020F0E7080000205C
:101630000C0000200400002008B500BF114880699C
:1016400040F001000F4988610846806900F0010000
:10165000009000BF00BF00BF0846C06940F0805046
:10166000C8610846C06900F08050009000BF00BF0C
:1016700000BF0549486820F0E06040F00070486015
:1016800000BF08BD001002400000014001460846AE
:10169000002809DB00F01F0301229A4043099B0048
:1016A00003F1E023C3F8002100BF70472DE9F05F8C
:1016B00080460D461646002701F00EFF07463946C4
:1016C0002A46334601F00700C0F1070ABAF1040FB9
:1016D00002D94FF0040A01E0C0F1070AD14600F137
:1016E000040ABAF1070F02D24FF0000A01E0A0F19C
:1016F000030AD4464FF0010A0AFA09FAAAF1010ACC
:101700000AEA020A0AFA0CFA4FF0010B0BFA0CFB78
:10171000ABF1010B0BEA030B4AEA0B0421464046EE
:1017200001F0E2FEBDE8F09F00BF00F00702064BAB
:1017300019684FF6FF031940044B0B4343EA02219B
:10174000014B196000BF70470CED00E00000FA0586
:10175000F8B5044600260025207800F00100002896
:101760006BD000274348C06900F0805070B900BFBB
:101770004048C06940F080503E49C8610846C06991
:1017800000F08050009000BF00BF01273A48006879
:1017900000F48070B0B93848006840F48070364971
:1017A0000860FFF7FDFE064606E0FFF7F9FE801B26
:1017B000642801D90320F8BD2F48006800F4807028
:1017C0000028F2D02B48006A00F440752DB3A088A1
:1017D00000F44070A84220D02648006A20F44075EA
:1017E000012026490860002008602248056205F0B3
:1017F000010090B1FFF7D4FE064608E0FFF7D0FEE7
:10180000801B41F28831884201D90320D3E719486F
:10181000006A00F002000028F0D01648006A20F4A8
:1018200040706168084313490862012F04D10846DB
:10183000C06920F08050C86100BF207800F002002D
:10184000022807D10B48406820F44040A1680843B3
:1018500008494860207800F01000102807D105489A
:10186000406820F48000E168084302494860002095
:10187000A1E7000000100240007000404004424216
:1018800070B504460D460CB9012070BD5A48006879
:1018900000F00700A8420ED25748006820F0070069
:1018A0002843554908600846006800F00700A84230
:1018B00001D00120E9E7207800F0020002281DD1C4
:1018C000207800F00400042805D14C48406840F41A
:1018D000E0604A494860207800F00800082805D1F7
:1018E0004648406840F46050444948604348406876
:1018F00020F0F000A168084340494860207800F0DB
:10190000010078B36068012806D13C48006800F403
:10191000003090B90120B8E76068022806D1374846
:10192000006800F0007040B90120AEE7334800685D
:1019300000F0020008B90120A7E73048406820F015
:101940000300616808432D494860FFF729FE0646F9
:1019500009E0FFF725FE801B41F28831884202D959
:10196000032092E707E02548406800F00C0061681A
:10197000B0EB810FEDD12048006800F00700A842CD
:101980000ED91D48006820F0070028431A49086056
:101990000846006800F00700A84201D0012074E763
:1019A000207800F00400042807D11448406820F48F
:1019B000E060E168084311494860207800F00800C1
:1019C000082808D10D48406820F46050216940EA99
:1019D000C1000A49486000F03FF808494968C1F36E
:1019E0000311074A515CC840064908600648006870
:1019F000FFF7FCFD002048E70020024000100240F5
:101A0000D24500080C0000200400002001480068B6
:101A1000704700000C00002000B5FFF7F7FF0449F5
:101A20004968C1F30221034A515CC84000BD00006F
:101A300000100240E245000800B5FFF7E7FF044947
:101A40004968C1F3C221034A515CC84000BD00008F
:101A500000100240E245000870B500210022002479
:101A600000230020134D696801F00C05F5B1042D29
:101A700002D0082D19D101E00F4819E00F4DC1F334
:101A80008346AB5D01F4803555B10A4D6D68C5F3F1
:101A900040450B4E725D084D5D43B5FBF2F402E02C
:101AA000084D03FB05F4204602E000BF024800BFDA
:101AB00000BF70BD0010024000127A00C04500084F
:101AC000D045000800093D00F8B504460CB90120D6
:101AD000F8BD207800F00100002878D0F848406870
:101AE00000F00C0004280CD0F548406800F00C0011
:101AF000082811D1F248406800F48030B0F5803FEA
:101B00000AD1EF48006800F4003000285FD0606818
:101B100000285CD10120DBE700BF6068B0F5803FA2
:101B200006D1E748006840F48030E549086028E0C5
:101B3000606858B9E248006820F48030E0490860E5
:101B40000846006820F4802008601AE06068B0F55C
:101B5000A02F0BD1DA48006840F48020D8490860F3
:101B60000846006840F4803008600AE0D448006805
:101B700020F48030D24908600846006820F48020B4
:101B8000086000BF606888B1FFF70AFD054606E0FF
:101B9000FFF706FD401B642801D9032098E7C848D9
:101BA000006800F400300028F2D010E0FFF7F8FCE5
:101BB000054606E0FFF7F4FC401B642801D903202A
:101BC00086E7BF48006800F400300028F2D1207892
:101BD00000F00200022857D1B948406800F00C001C
:101BE00050B1B748406800F00C00082818D1B4483C
:101BF000406800F4803098B9B148006800F00200F5
:101C000020B12069012801D0012061E7AC480068BB
:101C100020F0F800616940EAC100A949086033E09A
:101C20002069E8B10120A7490860FFF7B9FC054623
:101C300006E0FFF7B5FC401B022801D9032047E767
:101C40009F48006800F002000028F2D09C4800681D
:101C500020F0F800616940EAC1009949086013E08A
:101C6000002098490860FFF79BFC054606E0FFF757
:101C700097FC401B022801D9032029E790480068FF
:101C800000F002000028F2D1207800F008000828B7
:101C90002DD1A069B8B101208B490860FFF780FC05
:101CA000054606E0FFF77CFC401B022801D9032013
:101CB0000EE78348406A00F002000028F2D00120BD
:101CC00001F0E8F913E000207F490860FFF768FCA5
:101CD000054606E0FFF764FC401B022801D90320FB
:101CE000F6E67748406A00F002000028F2D120783A
:101CF00000F00400042873D100277148C06900F087
:101D0000805070B900BF6E48C06940F080506C4987
:101D1000C8610846C06900F08050009000BF00BF55
:101D200001276A48006800F48070B0B9674800680D
:101D300040F4807065490860FFF732FC054606E014
:101D4000FFF72EFC401B642801D90320C0E65F4842
:101D5000006800F480700028F2D000BFE06801281D
:101D600006D15748006A40F001005549086227E053
:101D7000E06858B95248006A20F0010050490862F2
:101D80000846006A20F00400086219E0E0680528AF
:101D90000BD14B48006A40F00400494908620846EC
:101DA000006A40F0010008620AE04548006A20F03D
:101DB0000100434908620846006A20F004000862F6
:101DC00000BFE068A0B1FFF7EBFB054609E0FFF7B5
:101DD000E7FB401B41F28831884202D9032077E6B5
:101DE00022E03748006A00F002000028EFD012E03D
:101DF000FFF7D6FB054608E0FFF7D2FB401B41F298
:101E00008831884201D9032062E62D48006A00F03B
:101E100002000028F0D1012F05D12948C06920F027
:101E200080502749C86100BFE069C8B324484068B2
:101E300000F00C00082860D0E069022848D100209A
:101E400020490866FFF7ACFB054606E0FFF7A8FB54
:101E5000401B022801D903203AE61948006800F027
:101E600000700028F2D1206AB0F5803F07D11448F5
:101E7000406820F40030A168084311494860D4E963
:101E8000080108430E49496821F4741108430C49BC
:101E9000486001200B490866FFF782FB054607E012
:101EA0003DE0FFF77DFB401B022801D903200FE630
:101EB0000348006800F000700028F2D02FE0000016
:101EC0000010024000004242800442420070004084
:101ED000002014490866FFF763FB054606E0FFF79C
:101EE0005FFB401B022801D90320F1E50E48006882
:101EF00000F000700028F2D111E0E069012800D163
:101F0000E6E50948466806F48031206A814204D13A
:101F100006F47011606A814201D00120D8E50020EA
:101F2000D6E50000000042420010024010B5044611
:101F30000CB9012010BD606A38B96068B0F5827FC5
:101F400000D105E00021E16102E000212161616131
:101F50000021A16294F8510028B9002084F85000B3
:101F6000204600F043F8022084F851002068006801
:101F700020F0400021680860A08800F48270218968
:101F800001F404410843A18901F400610843217C64
:101F900001F002010843217D01F001010843218B7A
:101FA00001F400710843217F01F03801084320212A
:101FB000095D01F080010843218D01F400510843BF
:101FC000216808600421A06901EA10402168486086
:101FD0002068C06920F400602168C8610020606545
:101FE000012084F851000020A4E7000010B586B05D
:101FF0000446002002900390049005901E4920683A
:10200000884236D100BF1D48806940F480501B498A
:1020100088610846806900F48050019000BF00BFCD
:1020200000BF0846806940F0080088610846806962
:1020300000F00800019000BF00BF2820029002209D
:1020400003900320059002A90D48FFF70BF910201B
:10205000029000200390049002A90948FFF702F9BA
:1020600000BF0849486840F0E06040F00100486067
:1020700000BF06B010BD000000300140001002405B
:10208000000C0140000001402DE9FE4F04460F46C0
:1020900090461D460C9E01200190FFF781FA814673
:1020A00094F851B060680290AA46BBF1010F0BD0C2
:1020B0000298B0F5827F04D1A06810B9BBF1040F7B
:1020C00002D00220BDE8FE8F1FB1B8F1000F00D092
:1020D0000DB90120F6E700BF94F85000012801D1A6
:1020E0000220EFE7012084F8500000BF94F851006F
:1020F000042802D0052084F8510000206065C4F84F
:102100003880E587A5872763E586A5862064606417
:102110002068006800F04000402805D02068006872
:1021200040F0400021680860E068B0F5006F52D1CF
:10213000606810B1BAF1010F09D1206B00882168E5
:10214000C860206B801C2063E08E401EE0863BE070
:102150002068806800F00200022810D1E08E70B183
:10216000019801280BD1206B00882168C860206B82
:10217000801C2063E08E401EE086002001902068D5
:10218000806800F0010068B1E08F58B12068C06835
:10219000A16B0880A06B801CA063E08F401EE087CD
:1021A00001200190FFF7FCF9A0EB0900B0420BD32E
:1021B000701C48B1012084F8510000BF002084F851
:1021C000500000BF03207DE7E08E0028C0D1E08FE3
:1021D0000028BDD152E0606810B1BAF1010F09D1F9
:1021E000206B007821680873206B401C2063E08E10
:1021F000401EE0863CE02068806800F00200022873
:1022000010D1E08E70B1019801280BD1206B0078BD
:1022100021680873206B401C2063E08E401EE0861E
:10222000002001902068806800F0010068B1E08F14
:1022300058B12068C068A16B0870A06B401CA063F7
:10224000E08F401EE08701200190FFF7A9F9A0EB85
:102250000900B04201D3701C00B94EB9012084F8C6
:10226000510000BF002084F8500000BF032029E780
:10227000E08E0028BFD1E08F0028BCD14A4631460D
:10228000204600F01BFF40B12020606500BF002009
:1022900084F8500000BF012014E7A06850B900BFC7
:1022A000002000902068C06800902068806800903E
:1022B00000BF00BF012084F8510000BF002084F857
:1022C000500000BF606D08B10120FBE60020F9E678
:1022D00070B504462546681EB0F1807F01D3012009
:1022E0000FE0681E4FF0E02148610F214FF0FF30F2
:1022F00001F0FAF800204FF0E02188610720086122
:10230000002070BD10B504460CB9012010BDA069B5
:1023100000B100E000BF94F8410028B9002084F823
:102320004000204600F02AF8242084F8410020686C
:10233000C06820F400502168C860204600F0E2FF29
:102340002068006920F49040216808612068406995
:1023500020F02A00216848612068C06840F40050DD
:102360002168C86000206064202084F8410084F85F
:1023700042000020606300BFC8E7000010B586B0CF
:102380000446002002900390049005901A492068AA
:1023900088422ED100BF1948806940F48040174917
:1023A00088610846806900F48040019000BF00BF4A
:1023B00000BF0846806940F00400886108468069D3
:1023C00000F00400019000BF00BF481502900220F9
:1023D00003900320059002A90948FEF743FF4FF43C
:1023E0008060029000200390049002A90448FEF748
:1023F00039FF06B010BD0000003801400010024057
:10240000000801402DE9F84F04460E46174699464C
:102410004FF0000A94F84100202850D106B117B9B6
:102420000120BDE8F88F00206064212084F841007D
:10243000FFF7B6F88246A784E784A068B0F5805F0E
:1024400004D1206910B90025B04602E035464FF0AE
:1024500000081EE05346002280212046CDF800905F
:1024600000F0CEFF20B1202084F841000320D8E7FF
:1024700045B9B8F80000C0F308002168486008F1C9
:10248000020803E02878216848606D1CE08C401E3B
:10249000E084E08C0028DDD1534600224021204614
:1024A000CDF8009000F0ACFF20B1202084F841006E
:1024B0000320B6E7202084F841000020B1E7022085
:1024C000AFE700BFFEE7000010B505220E4910205F
:1024D00000F08EF805220D49302000F04BF905225E
:1024E0000949102000F084F8002109E00648405C0A
:1024F000064A525C904201D0012010BD481CC1B276
:102500000529F3DB0020F8E79D000020980000205B
:1025100010B5C820FEF792FE02E00A20FEF78EFEFC
:10252000FFF7D2FF0128F8D000F030F82F2109A0E2
:10253000FDF758FE28B12F2106A0FDF753FE401CE1
:1025400000E004A00446E322214608A000F0A0FF1A
:1025500010BD0000696E746572666163655C496EEA
:10256000745F5349323452312E6300005B25733A55
:1025700025645D2053493234523120496E697420FC
:1025800053756363657373210D0A000010B5002253
:1025900080211548FEF7FEFF052214492A2000F08D
:1025A000E9F80121212000F009F90121222000F0A1
:1025B00005F92821252000F001F91121312000F032
:1025C000FDF80621262000F0F9F80F21202000F068
:1025D000F5F8FF21272000F0F1F8012280210248C0
:1025E000FEF7D8FF10BD0000000C0140980000204D
:1025F0002DE9F04107460D46164600224FF40041F2
:102600000C48FEF7C7FF384600F07AFD80460024EC
:1026100005E0002000F074FD2855601CC4B2B442EF
:10262000F7DB0122D1030348FEF7B4FF4046BDE8C3
:10263000F08100000008014070B5044600224FF40C
:1026400000410848FEF7A6FF204600F059FD002093
:1026500000F056FD05460122D1030248FEF79AFF1D
:10266000284670BD0008014070B504460720FFF7FA
:10267000E3FF05462946272000F0A0F805F04000BA
:1026800050B1112221466120FFF7B2FFFF21E22065
:1026900000F094F8002070BD0120FCE710B5002286
:1026A00080211548FEF776FF05221449302000F0FE
:1026B00061F8052211492A2000F05CF8012121204F
:1026C00000F07CF80121222000F078F80A21242073
:1026D00000F074F82821252000F070F8062126204B
:1026E00000F06CF80E21202000F068F80122802113
:1026F0000148FEF74FFF10BD000C0140980000207C
:1027000070B50546002280211948FEF743FF1122CB
:102710002946A02000F02EF8012280211448FEF75F
:1027200039FF0720FFF788FF044606E00720FFF780
:1027300083FF0446012001F08DFC04F0200018B94D
:1027400004F010000028F1D02146272000F036F8D0
:1027500004F0100028B1FF21E12000F02FF8012043
:1027600070BD04F0200008B10020F9E70120F7E770
:10277000000C01402DE9F04107460C4615460022A9
:102780004FF400410C48FEF705FF384600F0B8FC56
:102790008046002605E014F8010B00F0B1FC701C27
:1027A000C6B2AE42F7DB0122D1030348FEF7F2FEC8
:1027B0004046BDE8F08100000008014070B50546C4
:1027C0000C4600224FF400410848FEF7E3FE28467D
:1027D00000F096FC0646204600F092FC0122D10350
:1027E0000248FEF7D7FE304670BD000000080140E9
:1027F00010B500224FF400410548FEF7CBFE6420DF
:1028000001F028FC0122D1030148FEF7C3FE10BDF0
:10281000000C01400849098809B20180064949882D
:1028200009B241800449898809B281800249C98876
:1028300009B2C18070470000A200002010B5042238
:1028400002490348FEF7EAFA10BD0000A20000208A
:10285000B000002070B54FF400615B48FEF792FEB7
:10286000B0B90A2001F0F6FB4FF400615648FEF7BC
:1028700089FE002871D102E00A2001F0EBFB4FF441
:1028800000615148FEF77EFE0028F5D0012070BDA2
:102890004FF480414C48FEF775FEB0B90A2001F0B4
:1028A000D9FB4FF480414848FEF76CFE0028E1D187
:1028B00002E00A2001F0CEFB4FF480414248FEF7CF
:1028C00061FE0028F5D00220E1E74FF400513E48B8
:1028D000FEF758FEB0B90A2001F0BCFB4FF40051DE
:1028E0003948FEF74FFE00286CD102E00A2001F0C3
:1028F000B1FB4FF400513448FEF744FE0028F5D0F8
:102900000320C4E74FF480512F48FEF73BFEB0B9D7
:102910000A2001F09FFB4FF480512B48FEF732FE56
:1029200000284FD102E00A2001F094FB4FF48051BF
:102930002548FEF727FE0028F5D00420A7E704214C
:102940002148FEF71FFEA0B90A2001F083FB0421F5
:102950001D48FEF717FE00B903E033E00A2001F03E
:1029600079FB04211848FEF70DFE0028F6D005205B
:102970008DE74FF480611448FEF704FE10BB01F0B0
:10298000A3FC05460A2001F065FB4FF480610E4868
:10299000FEF7F8FDA8B902E00A2001F05BFB4FF456
:1029A00080610948FEF7EEFD0028F5D001F08CFCAF
:1029B0000446601BB0F57A7F01D3082067E7062044
:1029C00065E700BF002062E7000C01400EB5002063
:1029D0000090019002902348234908608115224805
:1029E000816001210173002101754FF46021C161F3
:1029F00000201D49486004211B480161FEF714F9BD
:102A000008B1FEF75AF801200090019002200290D0
:102A100069461548FEF754F808B1FEF74EF806204F
:102A200000900220019069460F48FEF749F808B16E
:102A3000FEF743F8022000900320019069460A48FF
:102A4000FEF73EF808B1FEF738F8032000900420A6
:102A5000019069460448FEF733F808B1FEF72DF8F7
:102A60000EBD000000240140B000002008B500BFEA
:102A70000A48406940F00100084948610846406939
:102A800000F00100009000BF00BF002211460B20A3
:102A9000FEF70CFE0B20FEF7F9FD08BD001002400A
:102AA00000B585B00020019002900390049000BF13
:102AB0003448806940F010003249886108468069D6
:102AC00000F01000009000BF00BF00BF0846806902
:102AD00040F0200088610846806900F020000090E6
:102AE00000BF00BF00BF0846806940F00400886155
:102AF0000846806900F00400009000BF00BF00BFDE
:102B00000846806940F0080088610846806900F046
:102B10000800009000BF00BF0122D1031A48FEF751
:102B200039FD0122D1031948FEF734FD002280212E
:102B30001548FEF72FFD47F6044001900020029053
:102B40000120039001A91048FEF78CFB48F2800099
:102B5000019001200290002003900220049001A91E
:102B60000948FEF77FFB4FF40040019001200290DE
:102B7000002003900220049001A90448FEF772FB94
:102B800005B000BD00100240000C014000080140EB
:102B900010B50E480E4908604FF48270486000215D
:102BA0000B488160C160016141614FF40071816136
:102BB0001021C16100210162416281620A21C1626A
:102BC000FFF7B4F908B1FDF778FF10BD0030014000
:102BD0002401002010B50B480B4908604FF4E13088
:102BE0004860002108488160C16001610C21416199
:102BF00000218161C161FFF785FB08B1FDF75DFF31
:102C000010BD0000003801407C01002000BFFEE73D
:102C100000BFFEE770B500240CE0002506E00020B0
:102C2000074901EBC5010855681CC5B2802DF6DBCC
:102C3000601CC4B2082CF0DB00F0E2F870BD0000AC
:102C4000B8320020F0B5144600267F2801DC3F2969
:102C500000DDF0BD0B46CF1701EB5777FF10C7F132
:102C60000707FAB2CF1701EB5777FF10A1EBC707A1
:102C7000FDB2C5F107070123BB40DEB24CB10A4BE0
:102C800003EBC0039B5C3343074F07EBC007BB5408
:102C900008E0054B03EBC0039B5CB343024F07EB1B
:102CA000C007BB5400BFD4E7B83200201FB50020D6
:102CB0000090019002900390012290214E48FEF76F
:102CC00069FC002220214C48FEF764FC012203210C
:102CD0004A48FEF75FFCB0200090012001900020E0
:102CE00002900320039069464348FEF7BBFA032095
:102CF000009001200190002002900320039069467B
:102D00003E48FEF7AFFA002201213C48FEF742FCA4
:102D10006420FEF793FA012211463848FEF73AFC88
:102D20000021AE2000F072F90021084600F06EF993
:102D30000021102000F06AF90021402000F066F91F
:102D40000021812000F062F90021CF2000F05EF91F
:102D50000021A12000F05AF90021C02000F056F90E
:102D60000021A62000F052F90021A82000F04EF921
:102D700000213F2000F04AF90021D32000F046F95D
:102D80000021084600F042F90021D52000F03EF96C
:102D90000021802000F03AF90021D92000F036F916
:102DA0000021F12000F032F90021DA2000F02EF9A4
:102DB0000021122000F02AF90021DB2000F026F982
:102DC0000021302000F022F90021202000F01EF91F
:102DD0000021022000F01AF900218D2000F016F9E0
:102DE0000021142000F012F9FFF714FF0021AF209A
:102DF00000F00CF91FBD000000080140000C01406C
:102E000070B500241CE004F1B001C8B2002100F04C
:102E1000FDF80021084600F0F9F80021102000F02C
:102E2000F5F8002508E0084901EBC501085D01211E
:102E300000F0ECF8681CC5B2802DF4DB601CC4B255
:102E4000082CE0DB70BD0000B83200202DE9F04F07
:102E500007460C4690461D46A346002634E008EB84
:102E600048001B4901EB800010F806904FF0000A63
:102E700024E009F0800028B121463846099AFFF77E
:102E8000E1FE09E0099808B9012000E000200246AF
:102E900021463846FFF7D6FE4FEA49604FEA1069EF
:102EA000601CC4B2A4EB0B00A84203D15C46781CA2
:102EB000C7B206E00AF1010000F0FF0ABAF1080FFC
:102EC000D7DB00BF701CC6B2AE42C8DBBDE8F08FD6
:102ED0004E5000082DE9F04F80460C4615461E4620
:102EE000A346A5F12000C5B200273EE00C2E07D175
:102EF00005EB45001F4901EB800010F8079004E046
:102F00001D4800EB051010F807904FF0000A26E06E
:102F100009F0800028B121464046099AFFF792FE49
:102F200009E0099808B9012000E000200246214686
:102F30004046FFF787FE4FEA49604FEA1069601C80
:102F4000C4B2A4EB0B00B04205D15C4608F101000D
:102F500000F0FF0806E00AF1010000F0FF0ABAF1F4
:102F6000080FD5DB00BF781CC7B2B742BEDBBDE897
:102F7000F08F0000EA4500085E4A00082DE9F8419C
:102F800005460E4614461F46DDF81C8016E07A2DD5
:102F900003DD002506F11000C6B23A2E02DD002046
:102FA00005460646CDF8008022783B463146284645
:102FB000FFF790FF05F10800C5B2641C20780028D7
:102FC000E5D1BDE8F8812DE9F84306460F461446E1
:102FD0001D46DDF82090012000906006020E2B4671
:102FE00039463046FFF732FF0120A84605EBD8717D
:102FF00006EB61010090C8B2012101EB4401CAB2A5
:103000002B463946FFF722FFBDE8F88370B504462A
:103010000E462EB1012202211C48FEF7BBFA04E045
:10302000002202211948FEF7B5FA002210211848A3
:10303000FEF7B0FA00251BE0002220211448FEF71D
:10304000A9FA04F0800028B1012280211048FEF77F
:10305000A1FA04E0002280210D48FEF79BFA01222C
:1030600020210B48FEF796FA6006040E681CC5B2D4
:10307000082DE1DB012210210548FEF78BFA012221
:1030800002210248FEF786FA70BD0000000C0140E4
:103090000008014008B508490968C9084FF47A7268
:1030A000B1FBF2F14143009100BF00BF00994A1EFD
:1030B00000920029F9D108BD0C000020F8B50446A3
:1030C0000E4615463346012202212046009500F0A7
:1030D00029F828B1606D40F0200060650320F8BD3C
:1030E0003346002280212046009500F01BF828B1CD
:1030F000606D40F0200060650320F0E70020EEE7FF
:1031000001B582B0002001904FF47A70012301AA2A
:1031100002A900900248FEF7B7FF9DF804000EBD1B
:10312000240100202DE9F84F04460D4690461E4626
:10313000DDF82890FEF734FAA0EB0900371AFEF705
:103140002FFA82462C480068C0F3CB3078430090B9
:1031500045E0701C002842D0FEF722FAA0EB0A00DE
:10316000B84200D2A7BB2068406820F0E000216888
:1031700048606068B0F5827F0DD1A068B0F5004F5F
:1031800003D0A068B0F5806F05D12068006820F0FA
:10319000400021680860A06AB0F5005F0DD100BF53
:1031A0002068006820F400502168086020680068EA
:1031B00040F400502168086000BF012084F85100ED
:1031C00000BF002084F8500000BF0320BDE8F88F46
:1031D000FFE7009800B900270098401E0090206883
:1031E00080682840A84201D1012000E0002040452D
:1031F000AFD10020EAE700000C00002010B501F07C
:1032000053F8012801D000F0C7FFFEF7CFF910BD39
:1032100000B593B0282109A8FCF7D9FF142104A810
:10322000FCF7D5FF00200090019002900390012050
:10323000099000040A9000200B9001200D900220BC
:103240001090C10311914FF4E011129109A8FEF7FB
:103250003BFC08B1FDF731FC0F20049002200590E3
:10326000002006904FF48060079000200890022113
:1032700004A8FEF705FB08B1FDF71FFC0220009033
:10328000800302906846FEF763FA08B1FDF715FC6B
:1032900013B000BD704700BF00BF02680C3252E897
:1032A000002F22F4907102680C3242E80013002BC8
:1032B000F3D100BF00BF00BF0268143252E8002FF4
:1032C00022F001010268143242E80013002BF3D10E
:1032D00000BF016B01290ED100BF00BF02680C3294
:1032E00052E8002F22F0100102680C3242E800136D
:1032F000002BF3D100BF202180F842100021016390
:103300007047000070B504462168096921F44051F6
:10331000E2681143226811612269A1681143626960
:1033200041EA02052168C96841F20C6291432943D0
:103330002268D1602168496921F44071A269114372
:10334000226851612D4A2168914202D1FEF774FB37
:1033500001E0FEF761FB00EBC00101EB00116268C8
:103360009200B1FBF2F100EBC00202EB00126368C5
:103370009B00B2FBF3F26423B2FBF3F202EBC20355
:1033800003EB0212A1EB8201322202EB0111642253
:10339000B1FBF2F101F0F00100EBC00202EB001210
:1033A00063689B00B2FBF3F26423B2FBF3F201EB20
:1033B000021200EBC00101EB001163689B00B1FB3E
:1033C000F3F100EBC00303EB00136668B600B3FB38
:1033D000F6F36426B3FBF6F303EBC30606EB031325
:1033E000A1EB8301322303EB01116423B1FBF3F161
:1033F00001F00F0111442268916070BD0038014056
:103400002DE9F84304460D4617469846089E31E0DC
:10341000701C70B3FEF7C4F8A0EB0800B04200D8EF
:1034200016B90320BDE8F8832068C06800F00400E6
:10343000F8B1802D1ED0402D1CD020680068C0F34C
:10344000C000B0B100BF002000902068006800906C
:1034500020684068009000BF00BF2046FFF71BFFB8
:103460000820606400BF002084F8400000BF0120F5
:10347000D8E7FFE7206800682840A84201D1012072
:1034800000E00020B842C3D00020CBE700BFFEE739
:103490000FB4054B10B503A9044A029800F048F890
:1034A00010BC5DF814FB0000ED380008AC000020F3
:1034B0000FB4084B10B504A902AA039800F038F81D
:1034C000044602A9002000F0D4F9204610BC5DF8A3
:1034D00014FB00007338000802480068C0F30220A3
:1034E000704700000CED00E010B5002804DB0A076F
:1034F000130E054A135406E00A07140E034A00F09F
:103500000F031B1FD45410BD00E400E018ED00E0D1
:1035100002E008C8121F08C1002AFAD1704770479C
:10352000002001E001C1121F002AFBD170470000FA
:103530002DE9FF4F8BB088460546002606E025287A
:103540000BD0DDE90D1290476D1C761C2878002801
:10355000F5D10FB03046BDE8F08F0024A146A24659
:103560000122AE4900E0044315F8013F203B02FA76
:1035700003F00842F7D128782A2810D06FF02F02E4
:103580002878A0F13001092915D809EB890102EB4F
:10359000410144F0020400EB01096D1CF0E758F80A
:1035A000041B5FEA010903D544F40054C9F1000982
:1035B00044F002046D1C28782E2817D115F8010F4D
:1035C00044F004042A280ED06FF02F022878A0F1CE
:1035D000300109290AD80AEB8A0102EB410100EB0C
:1035E000010A6D1CF2E758F804AB6D1C28786C28B2
:1035F0000FD006DC4C2817D068280DD06A2814D1CB
:1036000004E0742810D07A280FD10DE044F400149F
:103610000AE044F4801401E044F4401469788142E3
:1036200002D104F580146D1C6D1C2878692865D0C2
:1036300006DC00288DD0632827D0642806D15DE001
:103640006E2808D073282AD0752877D0DDE90D12AE
:103650009047761CE0E0C4F30250022809D003280A
:103660000DD0D8F8001004280DD00E6008F1040821
:10367000D2E0D8F80010F217C1E90062F6E7D8F8F6
:1036800000100E80F2E70E70F0E718F8041B8DF8BA
:10369000001000208DF80100EB46012003E058F8EF
:1036A00004BB4FF0FF3061074FF0000701D40AE080
:1036B0007F1C57450DDA8742FADB1BF807100029FB
:1036C000F6D106E07F1C8742FCDB1BF807100029BF
:1036D000F8D1DDE90D23A9EB07008146214600F072
:1036E000B1F83044C61904E0DDE90D121BF8010BF6
:1036F00090477F1EF8D22146484688E058F8040BD0
:10370000C4F302514FF00A0B032900D100B204297F
:1037100000D140B2002802DA40422D2102E021050A
:1037200005D52B218DF82410012104E006E0E107E6
:1037300010D02021F6E708AF089113E058F8040BE9
:10374000C4F302514FF00A0B032900D180B20429BF
:1037500000D1C0B20021EEE75946FCF74EFD3031F2
:1037600007F8011D0028F7D1ADEB070000F1200B91
:10377000600702D524F4803401E04FF0010ADA45F5
:1037800002DDAAEB0B0000E00020824600EB0B01FB
:1037900008980144A9EB01000A90E00306D4DDE992
:1037A0000D2321460A9800F04DF806444FF0000919
:1037B00008E009A911F80900DDE90D12904709F1A7
:1037C0000109761C08998945F3DBE0030CD5DDE996
:1037D0000D2321460A9800F035F8064404E0DDE99F
:1037E0000D1230209047761CBAF10001AAF1010AAF
:1037F000F5DC05E0DDE90D1217F8010B9047761CAA
:10380000BBF10001ABF1010BF4DC0A982146DDE9C4
:103810000D2300F005F806446D1C97E60928010009
:103820002DE9F041044600251E461746880404D4BD
:1038300005E039462020B0476D1C641EF9D52846A6
:10384000BDE8F0812DE9F041044600251E46904672
:10385000C80301D5302700E02027880404D505E0FF
:1038600041463846B0476D1C641EF9D52846BDE870
:10387000F0810A68531C0B601070704700F024FD43
:1038800016E0FDF791F82F210AA0FCF7ABFC28B158
:103890002F2108A0FCF7A6FC401C00E005A0044670
:1038A000502221460BA0FFF7F3FD0A2000F0D2FBC7
:1038B000E7E700004170706C69636174696F6E5C6A
:1038C0004170705F6672656552544F535F746173E7
:1038D0006B2E63005B25733A25645D2048656C6C34
:1038E0006F2072656D6F74650A00000013B50C4699
:1038F0004FF47A73012269460248FEF783FD00986F
:103900001CBD00007C01002008B500F0DDFC00902B
:10391000FEF794FF07E0FCF751FF00BF1421684653
:1039200000F088FC00BFF6E708B500F0CDFC009081
:1039300007E0FCF7F9FF00BFC821684600F07AFCF9
:1039400000BFF6E7FDF73EFEFFF762FCFFF7A8F8C1
:10395000FFF78CF8FFF73EF9FFF71AF9FFF736F893
:103960002F210BA0FCF73EFC28B12F2108A0FCF76B
:1039700039FC401C00E006A004466322214609A051
:10398000FFF786FDFEF7C4FDFCF7AEFE00BFFEE7C5
:103990002E2E2F436F72652F5372632F6D61696EE8
:1039A0002E6300005B25733A25645D2048656C6CCE
:1039B0006F2072656D6F74650A00000008B500F035
:1039C00083FC0090FCF75CFD07E0FCF75DFD00BFA9
:1039D0006421684600F02EFC00BFF6E708B500F051
:1039E00073FC009008E000BF42F21071684600F0DE
:1039F00021FC00BFFEF7FCFEF5E700002DE9F041D9
:103A000005460E462648076826480068001D00F057
:103A10008FFA50B92348006890F82C100120884094
:103A200021490968814320480160681CD8B9D6B192
:103A30001E4948681B49096888601A4982680968F4
:103A4000CA6018490968091D8268516015490968EA
:103A5000091D8160154A134909684A6111460968C0
:103A6000491C11601AE07C190E4800684460BC4291
:103A700007D20C480168091D0D48006800F07CFA67
:103A80000CE008480168091D0A48006800F074FA53
:103A900009480068844201D207480460BDE8F0810B
:103AA00024000020100000202800002078020020C0
:103AB00018000020140000204000002010B504462B
:103AC00000F074FA2F480068401C2E4908602E4808
:103AD000006840B92C4804600846006801280DD1F0
:103AE00000F016F90AE02948006838B9264800684D
:103AF000C06AE16A884201D823480460244800680B
:103B0000401C2349086094F82C100120884021496A
:103B1000096808431F490860E16A01EB81011E4AF8
:103B200002EB81014868A0608268E260211D826822
:103B300051608160E16A01EB8101174A02EB810269
:103B40006261E16A01EB8101134A52F82110491CBC
:103B5000E26A02EB8202104B43F8221000F038FABE
:103B60000A48006868B108480068C06AE16A88428B
:103B700007D24FF0805009490860BFF34F8FBFF361
:103B80006F8F10BD20000020100000202C000020AE
:103B90003C00002028000020C401002004ED00E0CB
:103BA00010B516E000F002FA0C48C068C468201D89
:103BB00000F0BEF90A480068401E0949086009483B
:103BC0000068401E0749086000F002FA204600F035
:103BD0000BF8044800680028E4D110BD64020020FE
:103BE000200000201C00002010B50446206B00F0CF
:103BF000FFF9204600F0FCF910BD000030B54FF48D
:103C00004053154800F007042CB1C01D20F00700F8
:103C1000114C041B1B1B0246104C226000240F4D4C
:103C20006C60D018083820F007000D4C206000248C
:103C30000B4D2D686C600A4D2D682C601146441A9E
:103C40004C60074C24680C60064D4C682C60064D97
:103C50004C682C6030BD00008C0200205000002019
:103C600058000020600000205C00002000BFFFF72B
:103C700097FF064800680128F9D94FF080500449A1
:103C80000860BFF34F8FBFF36F8FF0E7C4010020D0
:103C900004ED00E02DE9FF5F80460E469146DDE928
:103CA0000E7A109CA9F10100216B01EB800B2BF027
:103CB000070B7EB1002507E0715D04F1340041552A
:103CC000705D00B902E06D1C102DF5D300BF00211E
:103CD00043200155052F00D30427E762201D00F083
:103CE00048F904F1180000F044F92461C7F1050017
:103CF000A061646241465846039A00F007F92060CB
:103D0000BAF1000F01D0CAF80040BDE8FF9F0000E3
:103D100010B5002407E004EB84010F4A02EB810098
:103D200000F01AF9641C052CF5D30C4800F014F9C6
:103D30000B4800F011F90B4800F00EF90A4800F0AA
:103D40000BF90A4800F008F90448094908600448DA
:103D50000849086010BD0000C401002028020020AE
:103D60003C02002050020020640200207802002063
:103D7000140000201800002010B50146164800E08D
:103D8000006803688B42FBD30246436813448B42AE
:103D900004D143684C682344436001460A464B689B
:103DA00013440468A34211D10C4C03682468A34255
:103DB00008D04B680468646823444B6003681B6840
:103DC0000B6005E0054B1B680B6001E003680B60AE
:103DD000884200D0016010BD500000205800002033
:103DE00009480068006808B9012000E0002020B1FF
:103DF0004FF0FF300549086005E003480068C068DF
:103E0000006802490860704714000020400000204C
:103E100000BFBF2080F31188BFF34F8FBFF36F8FB8
:103E200000BF00BFFEE700002DE9F04705464FF058
:103E3000000900F05FF93048006808B9FFF7DEFEBE
:103E400075B105F00700C0F11008C8F1FF30A842B5
:103E500001D2012000E0002008B9454400E000251F
:103E6000012000EBE570002841D0002D3FD0234811
:103E7000006885423BD8224E3046046801E0264661
:103E800024686068A84202D220680028F7D11A4846
:103E9000006884422BD0306800F108092068306047
:103EA0006068401B102807D967196068401B78605C
:103EB00065603846FFF760FF104960680968081AB6
:103EC0000E490860084600680E490968884203D216
:103ED0000A4800680B490860606840F00040606074
:103EE0000020206008480068401C0749086000F076
:103EF000B9FA4846BDE8F087580000205C00002071
:103F0000500000206000002064000020001F4FF0DF
:103F100080730360001F21F001030360001F034B47
:103F2000036014380260203870470000113E00081A
:103F300001460A69D1E901309860D1E9010358606E
:103F40005068884201D1886850600020086110687C
:103F5000401E10601068704700F1080141604FF08A
:103F6000FF31816000F10801C16001610021016041
:103F7000704700210161704710B502460B685C1C58
:103F80000CB9106907E002F1080000E040684468DD
:103F900024689C42FAD944684C604C68A1608860EF
:103FA00041600A611468641C146010BD00BFBF202A
:103FB00080F31188BFF34F8FBFF36F8F00BF0348AB
:103FC0000068401C01490860704700006C00002038
:103FD00006480068401E054908600846006820B988
:103FE000002080F3118800BF00BF70476C000020E4
:103FF00070B506463546E6B1083D2C466068C00FF0
:10400000B8B12068A8B9606820F00040606000F096
:1040100071F8084960680968084406490860204644
:10402000FFF7AAFE04480068401C0349086000F03E
:1040300019FA70BD5C0000206800002000204FF0DD
:10404000E0210861886102484861072008617047E3
:104050003F19010070B50446002544B100F04AF84C
:1040600000212046FFF7CAFC00F0FCF905463DB9E7
:104070004FF0805003490860BFF34F8FBFF36F8F3D
:1040800070BD000004ED00E01CB5124800210B4695
:104090008022CDE9001010A1114800F097F80446E5
:1040A000012C14D100BFBF2080F31188BFF34F8FC4
:1040B000BFF36F8F00BF4FF0FF300A490860012047
:1040C0000949086000200949086000F04BF80848D9
:1040D00000681CBD4400002049444C45000000001D
:1040E0006D3C0008400000202C000020240000202F
:1040F0004800002002480068401C014908607047E1
:104100004C0000201248006818B1012011490860D5
:104110001DE000200F4908600F480068B0FA80F0E9
:10412000C0F11F0101EB81020C4B03EB82004268DE
:104130005268426000F108024368934202D142682B
:10414000526842604268D268054B1A6000BF7047EF
:104150004C0000203400002028000020C401002072
:104160001000002010B50A48006840F47F0008499C
:1041700008600846006840F07F400860FFF75EFF77
:10418000002004490860FBF7CFFF002010BD0000AD
:1041900020ED00E06C00002010B500BFBF2080F3D0
:1041A0001188BFF34F8FBFF36F8F00BF00F092F8FD
:1041B00018B14FF080500449086000BF002080F320
:1041C000118800BF10BD000004ED00E02DE9FF4F95
:1041D00085B0804689461746DDE912ABB800FFF787
:1041E00023FE064676B14C20FFF71EFE04462CB196
:1041F0004C212046FBF7EBFF266304E03046FFF737
:10420000F7FE00E000247CB10020CDE900ABCDE951
:1042100002403A4649464046089BFFF73BFD204690
:10422000FFF74CFC012501E04FF0FF35284609B0AF
:10423000BDE8F08F2DE9F047044688464FF00009AD
:10424000FFF758FF16480668206800EB080520684D
:10425000B04207D92068A8420BD9B54209D94FF01E
:10426000010906E02068A84201D8B54201D94FF003
:1042700001092560B9F1000F03D0A81B0021FFF749
:10428000BDFB00F0EFF807463FB94FF080500549FD
:104290000860BFF34F8FBFF36F8F4846BDE8F087CC
:1042A0002400002004ED00E00549096809B9012057
:1042B00005E00449096809B9022000E000207047C0
:1042C0002C0000204C0000200149086870470000C5
:1042D000240000202DE9F0410027574800680028FD
:1042E0007ED156480068451C544805608DB9544835
:1042F000D0F8008053480068514908605148C0F820
:10430000008051480068401C4F490860FFF768FD75
:1043100000BF4E480068854276D300BF4848006819
:10432000006808B9012000E0002020B14FF0FF3004
:104330004649086067E042480068C068C46866682B
:10434000B54202D2414806605DE06069D4E90212DC
:104350008A60D4E902214A60211D42688A4201D163
:10436000E1684160002262610168491E0160A06A43
:1043700098B1A06AD4E907128A60D4E907214A609B
:1043800004F1180142688A4201D1216A4160002289
:10439000A2620168491E016000BF94F82C10012040
:1043A00088402B490968084329490860E16A01EB04
:1043B0008101284A02EB81014868A0608268E260BE
:1043C000211D826851608160E16A01EB8101214A0F
:1043D00002EB81026261E16A01EB81011D4A00E0AA
:1043E00022E052F82110491CE26A02EB8202194BCA
:1043F00043F822101849E06A0968C96A88428DD9D1
:1044000001278BE700E000BF13480068C06A00EB9B
:104410008000104951F82000012800D901270F48D9
:10442000006800B1012704E00D480068401C0C49F9
:1044300008603846BDE8F0814C00002024000020D0
:104440001400002018000020380000204000002048
:1044500028000020C40100201000002034000020AB
:104460003000002070B500240026FFF79FFD4B4868
:104470000068401E494908600846006800287DD150
:1044800047480068002879D05BE04648C068C468A7
:10449000A06AD4E907128A60D4E907214A6004F1CE
:1044A000180142688A4201D1216A41600022A26259
:1044B0000168491E01606069D4E902128A60D4E98A
:1044C00002214A60211D42688A4201D1E1684160AF
:1044D000002262610168491E016094F82C100120DD
:1044E00088403149096808432F490860E16A01EBB7
:1044F00081012E4A02EB81014868A0608268E26077
:10450000211D826851608160E16A01EB8101274AC7
:1045100002EB81026261E16A01EB8101234A52F8F8
:104520002110491CE26A02EB8202204B43F8221060
:104530001F49E06A0968C96A884202D301201D49FF
:1045400008601848006808B9012000E00020002831
:104550009BD00CB1FFF744FC1748056865B100BF5C
:10456000FFF7B8FE10B10120124908606D1E002D42
:10457000F6D10020104908600E4800E009E000680C
:1045800038B1012630070D490860BFF34F8FBFF3E4
:104590006F8FFFF71DFD304670BD00004C000020FE
:1045A000200000205002002028000020C40100202C
:1045B00010000020340000203000002004ED00E056
:1045C00002030405060708090A0B0C0D0E0F101054
:1045D00001020000000000000000010203040607C1
:1045E00008090000000001020304000000000000B0
:1045F000000000000000000000003F40000000003C
:1046000000000000300040003000400000000900C1
:104610000BC03D000BC03D00090018C024407FE0E6
:10462000224031800000180024C01B000D80324061
:10463000018003801C4027401C8007400040100080
:10464000600000000000000000000000000000000A
:104650001F80204040200000402020401F8000009C
:104660000000090006001F80060009000000040089
:1046700004003F80040004000000001000600000FF
:104680000000000000000400040004000400040016
:1046900000000000004000000000000000000020BA
:1046A00001C006003800400000001F80204020406C
:1046B00020401F800000000010403FC0004000006C
:1046C000000018C021402240244018400000108003
:1046D0002040244024401B80000002000D001100F7
:1046E0003FC0014000003C802440244024402380FF
:1046F00000001F802440244034400380000030002C
:10470000200027C03800200000001B8024402440E7
:1047100024401B8000001C0022C0224022401F8039
:104720000000000000000840000000000000000041
:1047300000000460000000000000000004000A0007
:10474000110020804040090009000900090009000B
:10475000000000004040208011000A000400180002
:10476000200023402400180000001F802040274024
:1047700029401F400000004007C039000F0001C061
:10478000004020403FC0244024401B8000001F8088
:104790002040204020403080000020403FC020408A
:1047A00020401F80000020403FC024402E4030C0E9
:1047B000000020403FC024402E00300000000F00C9
:1047C0001080204022403380020020403FC004007F
:1047D00004003FC02040204020403FC020402040F7
:1047E00000000060202020203FC02000200020404A
:1047F0003FC024400B0030C0204020403FC020403C
:104800000040004000C03FC03C0003C03C003FC02F
:10481000000020403FC00C4023003FC020001F800C
:104820002040204020401F80000020403FC0244006
:104830002400180000001F802140214020E01FA01C
:10484000000020403FC02440260019C0004018C08E
:1048500024402440224031800000300020403FC0EE
:1048600020403000000020003F80004000403F809A
:10487000200020003E0001C0070038002000380062
:1048800007C03C0007C038000000204039C00600C7
:1048900039C0204000002000384007C038402000C8
:1048A0000000304021C02640384020C000000000F9
:1048B00000007FE0402040200000000070000C005D
:1048C0000380004000000000402040207FE0000006
:1048D0000000000020004000200000000000001048
:1048E0000010001000100010001000000000400038
:1048F000000000000000000002800540054003C0E9
:10490000004020003FC0044004400380000000003D
:10491000038004400440064000000000038004407F
:1049200024403FC000400000038005400540034094
:104930000000000004401FC024402440200000006C
:1049400002E0055005500650042020403FC00440BE
:10495000040003C000400000044027C000400000E5
:10496000000000100010041027E0000000002040AC
:104970003FC00140070004C00440204020403FC029
:1049800000400040000007C0040007C0040003C04E
:104990000000044007C00440040003C000400000C1
:1049A00003800440044003800000041007F004501A
:1049B000044003800000000003800440045007F01E
:1049C0000010044007C00240040004000000000082
:1049D00006400540054004C00000000004001F80A0
:1049E000044000400000040007800040044007C06D
:1049F00000400400070004C0018006000400060017
:104A000001C0070001C006000000044006C001000C
:104A100006C0044000000410071004E001800600F6
:104A200004000000044005C00640044000000000EF
:104A3000000004007BE040200000000000000000B7
:104A4000FFF000000000000040207BE004000000B8
:104A500000004000800040002000200040000000D6
:104A60000000000000000000000000000000000046
:104A7000000000001FCC000C00000000000000003F
:104A800008003000600008003000600000000220D4
:104A900003FC1E20022003FC1E2002200000000058
:104AA0000E1811043FFF10840C78000000000F0066
:104AB00010840F3800C00778188400780000007850
:104AC0000F8410C411240E9800E40084000808002C
:104AD00068007000000000000000000000000000FE
:104AE0000000000007E01818200440020000000049
:104AF00040022004181807E00000000000000240F7
:104B0000024001800FF0018002400240000000805E
:104B1000008000800FF8008000800080000000010D
:104B2000000D000E0000000000000000000000006A
:104B300000800080008000800080008000800000F5
:104B4000000C000C0000000000000000000000004D
:104B50000006001800600180060018002000000018
:104B600007F0080810041004080807F0000000000F
:104B7000080408041FFC00040004000000000000FA
:104B80000E0C10141024104411840E0C00000000B0
:104B90000C1810041104110412880C70000000009D
:104BA00000E00320042408241FFC0024000000006F
:104BB0001F98108411041104108810700000000068
:104BC00007F0088811041104188800700000000024
:104BD0001C00100010FC13001C001000000000005E
:104BE0000E3811441084108411440E380000000067
:104BF0000700088C10441044088807F000000000EB
:104C000000000000030C030C000000000000000086
:104C1000000000010106000000000000000000008C
:104C20000080014002200410080810040000022047
:104C300002200220022002200220022000000000A8
:104C40001004080804100220014000800000000049
:104C50000E001200100C106C10800F00000003E01A
:104C60000C1813E4142417C4082807D0000000040B
:104C7000003C03C41C40074000E4001C0004100476
:104C80001FFC1104110411040E880070000003E0E1
:104C90000C1810041004100410081C10000010045C
:104CA0001FFC100410041004080807F00000100492
:104CB0001FFC1104110417C410040818000010048C
:104CC0001FFC1104110017C010000800000003E0D1
:104CD0000C181004100410441C780040000010044C
:104CE0001FFC10840080008010841FFC1004000052
:104CF000100410041FFC1004100400000000000346
:104D00000001100110011FFE10001000000010042F
:104D10001FFC110403801464181C1004000010040C
:104D20001FFC1004000400040004000C0000100428
:104D30001FFC1F0000FC1F001FFC100400001004DB
:104D40001FFC0C04030000E010181FFC100007F00B
:104D50000808100410041004080807F000001004EC
:104D60001FFC10841080108010800F00000007F0DE
:104D7000081810241024101C080A07F20000100460
:104D80001FFC1104110011C011300E0C00040000B2
:104D90000E1C11041084108410441C3800001800EC
:104DA000100010041FFC1004100018000000100078
:104DB0001FF810040004000410041FF81000100075
:104DC0001E0011E0001C007013801C0010001FC0AA
:104DD000103C00E01F0000E0103C1FC00000100469
:104DE000180C163401C001C01634180C1004100041
:104DF0001C00130400FC13041C0010000000080435
:104E0000101C1064108413041C041018000000000F
:104E1000000000007FFE400240024002000000004F
:104E200030000C0003800060001C00030000000044
:104E30004002400240027FFE00000000000000002F
:104E40000000200040004000400020000000000161
:104E5000000100010001000100010001000100004B
:104E600040004000200000000000000000000000A2
:104E70000098012401440144014400FC0004100096
:104E80001FFC00880104010400880070000000007D
:104E90000070008801040104010400880000000083
:104EA000007000880104010411081FFC00040000C8
:104EB00000F8014401440144014400C8000000001E
:104EC000010401040FFC110411041100180000007A
:104ED00000D601290129012901C901060000100499
:104EE0001FFC008401000100010400FC000400001C
:104EF0000104190419FC0004000400000000000073
:104F0000000300010101190119FE00000000100456
:104F10001FFC0024004001B4010C0104000000004B
:104F2000100410041FFC0004000400000000010431
:104F300001FC0104010001FC0104010000FC01046A
:104F400001FC008401000100010400FC00040000D9
:104F500000F8010401040104010400F8000001014B
:104F600001FF0085010401040088007000000000BA
:104F70000070008801040104010501FF0001010423
:104F8000010401FC00840104010001800000000014
:104F900000CC012401240124012401980000000018
:104FA0000100010007F801040104000000000100F5
:104FB00001F8000400040004010801FC00040100E1
:104FC00001800170000C001001600180010001F0FF
:104FD000010C003001C00030010C01F001000000A4
:104FE0000104018C00740170018C010400000101B6
:104FF00001810171000E00180160018001000000B4
:105000000184010C013401440184010C0000000002
:1050100000000000000001003EFC400240020000D1
:10502000000000000000FFFF000000000000000082
:10503000400240023EFC01000000000000000000B1
:105040006000800080004000400020002000000040
:105050004FF028000BC00A40FA400A400BC028104D
:105060004FF00000000042004FE0744047E00010A5
:1050700024902490FDF0249024900410000002005D
:10508000220045F08920112021201120892045F09F
:1050900022000200000004006FF0249024902FF002
:1050A000E40022103C6025806460061000000010BF
:1050B0000020804081804E0030000E0001800040C2
:1050C00000200010000010101210121013E0122027
:1050D00012201020FF0010C090205070000000002F
:1050E0000000000010800900060006000900108082
:1050F0000000000000000000003000000000000080
:10510000000000000000000000000000000000009F
:105110000030000000F0000000000000000000006F
:1051200000000000000000000030000000F000005F
:1051300003F000000000000000000000000000007C
:105140000030000000F0000003F000000FF000004D
:1051500000000000000000000030000000F000002F
:1051600003F000000FF000003FF00000000000001E
:10517000000000000000000000000000000000002F
:105180000000000000007FE00000000000000000C0
:1051900000000000000000000000000000007FE0B0
:1051A0007FE00000000000000000000000000000A0
:1051B0000000000000007FE07FE07FE000000000D2
:1051C00000000000000000000000000000007FE080
:1051D0007FE07FE07FE000000000000000000000B2
:1051E0000000000000007FE07FE07FE07FE07FE0E4
:1051F00000000000000000000000000000007FE050
:105200007FE07FE07FE07FE07FE0000000000000C3
:105210000000000000007FE07FE07FE07FE07FE0B3
:105220007FE07FE0000000000000000000007FE061
:105230007FE07FE07FE07FE07FE07FE07FE00000D5
:105240000000000000007FE07FE07FE07FE07FE083
:105250007FE07FE07FE07FE00000000000007FE073
:105260007FE07FE07FE07FE07FE07FE07FE07FE046
:105270007FE0000000007FE07FE07FE07FE07FE0F4
:105280007FE07FE07FE07FE07FE07FE000007FE085
:105290007FE07FE07FE07FE07FE07FE07FE07FE016
:1052A0007FE07FE07FE0000000004C002A0009E082
:1052B0002820282009E02A004C00000000000000FF
:1052C0004020264015800DE0162016200DE01580A8
:1052D0002640402000000000F85200080000002096
:1052E000B000000010350008A8530008B0000020EE
:1052F000083A0000203500080000000010000000FF
:105300000100000000127A00000000000000000010
:10531000000000000000000000000000000000008D
:10532000000000000000000000000000000000007D
:10533000000000000000000000000000000000006D
:105340000400000000000000000000000000000059
:10535000000000000000000000000000000000004D
:1053600000000000AAAAAAAA000000000000000095
:10537000000000000000000000000000000000002D
:10538000000000000000000000000000000000001D
:105390000A01061E010000000000000000000000DD
:0853A000000000000000000005
:04000005080000ED02
:00000001FF
